{
	"Hands on Task - 3.sol": {
		"CrowdFund": {
			"abi": [
				{
					"inputs": [
						{
							"internalType": "address",
							"name": "_token",
							"type": "address"
						}
					],
					"stateMutability": "nonpayable",
					"type": "constructor"
				},
				{
					"anonymous": false,
					"inputs": [
						{
							"indexed": false,
							"internalType": "uint256",
							"name": "_id",
							"type": "uint256"
						}
					],
					"name": "Cancel",
					"type": "event"
				},
				{
					"anonymous": false,
					"inputs": [
						{
							"indexed": false,
							"internalType": "uint256",
							"name": "id",
							"type": "uint256"
						}
					],
					"name": "Claim",
					"type": "event"
				},
				{
					"anonymous": false,
					"inputs": [
						{
							"indexed": false,
							"internalType": "uint256",
							"name": "id",
							"type": "uint256"
						},
						{
							"indexed": true,
							"internalType": "address",
							"name": "creator",
							"type": "address"
						},
						{
							"indexed": false,
							"internalType": "uint256",
							"name": "goal",
							"type": "uint256"
						},
						{
							"indexed": false,
							"internalType": "uint32",
							"name": "startAt",
							"type": "uint32"
						},
						{
							"indexed": false,
							"internalType": "uint32",
							"name": "endAt",
							"type": "uint32"
						}
					],
					"name": "Launch",
					"type": "event"
				},
				{
					"anonymous": false,
					"inputs": [
						{
							"indexed": true,
							"internalType": "uint256",
							"name": "id",
							"type": "uint256"
						},
						{
							"indexed": true,
							"internalType": "address",
							"name": "caller",
							"type": "address"
						},
						{
							"indexed": false,
							"internalType": "uint256",
							"name": "amount",
							"type": "uint256"
						}
					],
					"name": "Pledge",
					"type": "event"
				},
				{
					"anonymous": false,
					"inputs": [
						{
							"indexed": true,
							"internalType": "uint256",
							"name": "id",
							"type": "uint256"
						},
						{
							"indexed": true,
							"internalType": "address",
							"name": "caller",
							"type": "address"
						},
						{
							"indexed": false,
							"internalType": "uint256",
							"name": "amount",
							"type": "uint256"
						}
					],
					"name": "Refund",
					"type": "event"
				},
				{
					"anonymous": false,
					"inputs": [
						{
							"indexed": true,
							"internalType": "uint256",
							"name": "id",
							"type": "uint256"
						},
						{
							"indexed": true,
							"internalType": "address",
							"name": "caller",
							"type": "address"
						},
						{
							"indexed": false,
							"internalType": "uint256",
							"name": "amount",
							"type": "uint256"
						}
					],
					"name": "Unpledge",
					"type": "event"
				},
				{
					"inputs": [
						{
							"internalType": "uint256",
							"name": "",
							"type": "uint256"
						}
					],
					"name": "campaigns",
					"outputs": [
						{
							"internalType": "address",
							"name": "creator",
							"type": "address"
						},
						{
							"internalType": "uint256",
							"name": "goal",
							"type": "uint256"
						},
						{
							"internalType": "uint256",
							"name": "pledged",
							"type": "uint256"
						},
						{
							"internalType": "uint32",
							"name": "startAt",
							"type": "uint32"
						},
						{
							"internalType": "uint32",
							"name": "endAt",
							"type": "uint32"
						},
						{
							"internalType": "bool",
							"name": "claimed",
							"type": "bool"
						}
					],
					"stateMutability": "view",
					"type": "function"
				},
				{
					"inputs": [
						{
							"internalType": "uint256",
							"name": "_id",
							"type": "uint256"
						}
					],
					"name": "cancel",
					"outputs": [],
					"stateMutability": "nonpayable",
					"type": "function"
				},
				{
					"inputs": [
						{
							"internalType": "uint256",
							"name": "_id",
							"type": "uint256"
						}
					],
					"name": "claim",
					"outputs": [],
					"stateMutability": "nonpayable",
					"type": "function"
				},
				{
					"inputs": [],
					"name": "count",
					"outputs": [
						{
							"internalType": "uint256",
							"name": "",
							"type": "uint256"
						}
					],
					"stateMutability": "view",
					"type": "function"
				},
				{
					"inputs": [
						{
							"internalType": "uint256",
							"name": "_goal",
							"type": "uint256"
						},
						{
							"internalType": "uint32",
							"name": "_startAt",
							"type": "uint32"
						},
						{
							"internalType": "uint32",
							"name": "_endAt",
							"type": "uint32"
						}
					],
					"name": "lunch",
					"outputs": [],
					"stateMutability": "nonpayable",
					"type": "function"
				},
				{
					"inputs": [
						{
							"internalType": "uint256",
							"name": "_id",
							"type": "uint256"
						},
						{
							"internalType": "uint256",
							"name": "_amount",
							"type": "uint256"
						}
					],
					"name": "pledge",
					"outputs": [],
					"stateMutability": "nonpayable",
					"type": "function"
				},
				{
					"inputs": [
						{
							"internalType": "uint256",
							"name": "",
							"type": "uint256"
						},
						{
							"internalType": "address",
							"name": "",
							"type": "address"
						}
					],
					"name": "pledgedAmount",
					"outputs": [
						{
							"internalType": "uint256",
							"name": "",
							"type": "uint256"
						}
					],
					"stateMutability": "view",
					"type": "function"
				},
				{
					"inputs": [
						{
							"internalType": "uint256",
							"name": "_id",
							"type": "uint256"
						}
					],
					"name": "refund",
					"outputs": [],
					"stateMutability": "nonpayable",
					"type": "function"
				},
				{
					"inputs": [],
					"name": "token",
					"outputs": [
						{
							"internalType": "contract IERC20",
							"name": "",
							"type": "address"
						}
					],
					"stateMutability": "view",
					"type": "function"
				},
				{
					"inputs": [
						{
							"internalType": "uint256",
							"name": "_id",
							"type": "uint256"
						},
						{
							"internalType": "uint256",
							"name": "_amount",
							"type": "uint256"
						}
					],
					"name": "unpledge",
					"outputs": [],
					"stateMutability": "nonpayable",
					"type": "function"
				}
			],
			"devdoc": {
				"kind": "dev",
				"methods": {},
				"version": 1
			},
			"evm": {
				"assembly": "    /* \"Hands on Task - 3.sol\":260:3998  contract CrowdFund{\r... */\n  mstore(0x40, 0xa0)\n    /* \"Hands on Task - 3.sol\":1069:1138  constructor(address _token) {\r... */\n  callvalue\n  dup1\n  iszero\n  tag_1\n  jumpi\n  0x00\n  dup1\n  revert\ntag_1:\n  pop\n  mload(0x40)\n  sub(codesize, bytecodeSize)\n  dup1\n  bytecodeSize\n  dup4\n  codecopy\n  dup2\n  dup2\n  add\n  0x40\n  mstore\n  dup2\n  add\n  swap1\n  tag_2\n  swap2\n  swap1\n  tag_3\n  jump\t// in\ntag_2:\n    /* \"Hands on Task - 3.sol\":1123:1129  _token */\n  dup1\n    /* \"Hands on Task - 3.sol\":1108:1130  token = IERC20(_token) */\n  0xffffffffffffffffffffffffffffffffffffffff\n  and\n  0x80\n  dup2\n  0xffffffffffffffffffffffffffffffffffffffff\n  and\n  0x60\n  shl\n  dup2\n  mstore\n  pop\n  pop\n    /* \"Hands on Task - 3.sol\":1069:1138  constructor(address _token) {\r... */\n  pop\n    /* \"Hands on Task - 3.sol\":260:3998  contract CrowdFund{\r... */\n  jump(tag_6)\n    /* \"#utility.yul\":7:150   */\ntag_8:\n    /* \"#utility.yul\":64:69   */\n  0x00\n    /* \"#utility.yul\":95:101   */\n  dup2\n    /* \"#utility.yul\":89:102   */\n  mload\n    /* \"#utility.yul\":80:102   */\n  swap1\n  pop\n    /* \"#utility.yul\":111:144   */\n  tag_10\n    /* \"#utility.yul\":138:143   */\n  dup2\n    /* \"#utility.yul\":111:144   */\n  tag_11\n  jump\t// in\ntag_10:\n    /* \"#utility.yul\":7:150   */\n  swap3\n  swap2\n  pop\n  pop\n  jump\t// out\n    /* \"#utility.yul\":156:507   */\ntag_3:\n    /* \"#utility.yul\":226:232   */\n  0x00\n    /* \"#utility.yul\":275:277   */\n  0x20\n    /* \"#utility.yul\":263:272   */\n  dup3\n    /* \"#utility.yul\":254:261   */\n  dup5\n    /* \"#utility.yul\":250:273   */\n  sub\n    /* \"#utility.yul\":246:278   */\n  slt\n    /* \"#utility.yul\":243:362   */\n  iszero\n  tag_13\n  jumpi\n    /* \"#utility.yul\":281:360   */\n  tag_14\n  tag_15\n  jump\t// in\ntag_14:\n    /* \"#utility.yul\":243:362   */\ntag_13:\n    /* \"#utility.yul\":401:402   */\n  0x00\n    /* \"#utility.yul\":426:490   */\n  tag_16\n    /* \"#utility.yul\":482:489   */\n  dup5\n    /* \"#utility.yul\":473:479   */\n  dup3\n    /* \"#utility.yul\":462:471   */\n  dup6\n    /* \"#utility.yul\":458:480   */\n  add\n    /* \"#utility.yul\":426:490   */\n  tag_8\n  jump\t// in\ntag_16:\n    /* \"#utility.yul\":416:490   */\n  swap2\n  pop\n    /* \"#utility.yul\":372:500   */\n  pop\n    /* \"#utility.yul\":156:507   */\n  swap3\n  swap2\n  pop\n  pop\n  jump\t// out\n    /* \"#utility.yul\":594:690   */\ntag_19:\n    /* \"#utility.yul\":631:638   */\n  0x00\n    /* \"#utility.yul\":660:684   */\n  tag_21\n    /* \"#utility.yul\":678:683   */\n  dup3\n    /* \"#utility.yul\":660:684   */\n  tag_22\n  jump\t// in\ntag_21:\n    /* \"#utility.yul\":649:684   */\n  swap1\n  pop\n    /* \"#utility.yul\":594:690   */\n  swap2\n  swap1\n  pop\n  jump\t// out\n    /* \"#utility.yul\":696:822   */\ntag_22:\n    /* \"#utility.yul\":733:740   */\n  0x00\n    /* \"#utility.yul\":773:815   */\n  0xffffffffffffffffffffffffffffffffffffffff\n    /* \"#utility.yul\":766:771   */\n  dup3\n    /* \"#utility.yul\":762:816   */\n  and\n    /* \"#utility.yul\":751:816   */\n  swap1\n  pop\n    /* \"#utility.yul\":696:822   */\n  swap2\n  swap1\n  pop\n  jump\t// out\n    /* \"#utility.yul\":951:1068   */\ntag_15:\n    /* \"#utility.yul\":1060:1061   */\n  0x00\n    /* \"#utility.yul\":1057:1058   */\n  dup1\n    /* \"#utility.yul\":1050:1062   */\n  revert\n    /* \"#utility.yul\":1074:1196   */\ntag_11:\n    /* \"#utility.yul\":1147:1171   */\n  tag_28\n    /* \"#utility.yul\":1165:1170   */\n  dup2\n    /* \"#utility.yul\":1147:1171   */\n  tag_19\n  jump\t// in\ntag_28:\n    /* \"#utility.yul\":1140:1145   */\n  dup2\n    /* \"#utility.yul\":1137:1172   */\n  eq\n    /* \"#utility.yul\":1127:1190   */\n  tag_29\n  jumpi\n    /* \"#utility.yul\":1186:1187   */\n  0x00\n    /* \"#utility.yul\":1183:1184   */\n  dup1\n    /* \"#utility.yul\":1176:1188   */\n  revert\n    /* \"#utility.yul\":1127:1190   */\ntag_29:\n    /* \"#utility.yul\":1074:1196   */\n  pop\n  jump\t// out\n    /* \"Hands on Task - 3.sol\":260:3998  contract CrowdFund{\r... */\ntag_6:\n  shr(0x60, mload(0x80))\n  codecopy(0x00, dataOffset(sub_0), dataSize(sub_0))\n  0x00\n  assignImmutable(\"0x5392f7a671cdf89487ccf8e3646ea8f7570009490584962db6fa064c6e4ad499\")\n  return(0x00, dataSize(sub_0))\nstop\n\nsub_0: assembly {\n        /* \"Hands on Task - 3.sol\":260:3998  contract CrowdFund{\r... */\n      mstore(0x40, 0x80)\n      callvalue\n      dup1\n      iszero\n      tag_1\n      jumpi\n      0x00\n      dup1\n      revert\n    tag_1:\n      pop\n      jumpi(tag_2, lt(calldatasize, 0x04))\n      shr(0xe0, calldataload(0x00))\n      dup1\n      0x711853ab\n      gt\n      tag_13\n      jumpi\n      dup1\n      0x711853ab\n      eq\n      tag_8\n      jumpi\n      dup1\n      0xaa4fb63a\n      eq\n      tag_9\n      jumpi\n      dup1\n      0xdaf69940\n      eq\n      tag_10\n      jumpi\n      dup1\n      0xfc0c546a\n      eq\n      tag_11\n      jumpi\n      dup1\n      0xfde327be\n      eq\n      tag_12\n      jumpi\n      jump(tag_2)\n    tag_13:\n      dup1\n      0x06661abd\n      eq\n      tag_3\n      jumpi\n      dup1\n      0x141961bc\n      eq\n      tag_4\n      jumpi\n      dup1\n      0x278ecde1\n      eq\n      tag_5\n      jumpi\n      dup1\n      0x379607f5\n      eq\n      tag_6\n      jumpi\n      dup1\n      0x40e58ee5\n      eq\n      tag_7\n      jumpi\n    tag_2:\n      0x00\n      dup1\n      revert\n        /* \"Hands on Task - 3.sol\":924:941  uint public count */\n    tag_3:\n      tag_14\n      tag_15\n      jump\t// in\n    tag_14:\n      mload(0x40)\n      tag_16\n      swap2\n      swap1\n      tag_17\n      jump\t// in\n    tag_16:\n      mload(0x40)\n      dup1\n      swap2\n      sub\n      swap1\n      return\n        /* \"Hands on Task - 3.sol\":948:990  mapping(uint => Campaign) public campaigns */\n    tag_4:\n      tag_18\n      0x04\n      dup1\n      calldatasize\n      sub\n      dup2\n      add\n      swap1\n      tag_19\n      swap2\n      swap1\n      tag_20\n      jump\t// in\n    tag_19:\n      tag_21\n      jump\t// in\n    tag_18:\n      mload(0x40)\n      tag_22\n      swap7\n      swap6\n      swap5\n      swap4\n      swap3\n      swap2\n      swap1\n      tag_23\n      jump\t// in\n    tag_22:\n      mload(0x40)\n      dup1\n      swap2\n      sub\n      swap1\n      return\n        /* \"Hands on Task - 3.sol\":3536:3989  function refund(uint _id) external{\r... */\n    tag_5:\n      tag_24\n      0x04\n      dup1\n      calldatasize\n      sub\n      dup2\n      add\n      swap1\n      tag_25\n      swap2\n      swap1\n      tag_20\n      jump\t// in\n    tag_25:\n      tag_26\n      jump\t// in\n    tag_24:\n      stop\n        /* \"Hands on Task - 3.sol\":3001:3522  function claim(uint _id) external {\r... */\n    tag_6:\n      tag_27\n      0x04\n      dup1\n      calldatasize\n      sub\n      dup2\n      add\n      swap1\n      tag_28\n      swap2\n      swap1\n      tag_20\n      jump\t// in\n    tag_28:\n      tag_29\n      jump\t// in\n    tag_27:\n      stop\n        /* \"Hands on Task - 3.sol\":1769:2077  function cancel(uint _id) external {\r... */\n    tag_7:\n      tag_30\n      0x04\n      dup1\n      calldatasize\n      sub\n      dup2\n      add\n      swap1\n      tag_31\n      swap2\n      swap1\n      tag_20\n      jump\t// in\n    tag_31:\n      tag_32\n      jump\t// in\n    tag_30:\n      stop\n        /* \"Hands on Task - 3.sol\":2597:2989  function unpledge(uint _id, uint _amount) external {\r... */\n    tag_8:\n      tag_33\n      0x04\n      dup1\n      calldatasize\n      sub\n      dup2\n      add\n      swap1\n      tag_34\n      swap2\n      swap1\n      tag_35\n      jump\t// in\n    tag_34:\n      tag_36\n      jump\t// in\n    tag_33:\n      stop\n        /* \"Hands on Task - 3.sol\":997:1060  mapping(uint => mapping(address => uint )) public pledgedAmount */\n    tag_9:\n      tag_37\n      0x04\n      dup1\n      calldatasize\n      sub\n      dup2\n      add\n      swap1\n      tag_38\n      swap2\n      swap1\n      tag_39\n      jump\t// in\n    tag_38:\n      tag_40\n      jump\t// in\n    tag_37:\n      mload(0x40)\n      tag_41\n      swap2\n      swap1\n      tag_17\n      jump\t// in\n    tag_41:\n      mload(0x40)\n      dup1\n      swap2\n      sub\n      swap1\n      return\n        /* \"Hands on Task - 3.sol\":1146:1757  function lunch(uint _goal, uint32 _startAt, uint32 _endAt) external {\r... */\n    tag_10:\n      tag_42\n      0x04\n      dup1\n      calldatasize\n      sub\n      dup2\n      add\n      swap1\n      tag_43\n      swap2\n      swap1\n      tag_44\n      jump\t// in\n    tag_43:\n      tag_45\n      jump\t// in\n    tag_42:\n      stop\n        /* \"Hands on Task - 3.sol\":888:917  IERC20 public immutable token */\n    tag_11:\n      tag_46\n      tag_47\n      jump\t// in\n    tag_46:\n      mload(0x40)\n      tag_48\n      swap2\n      swap1\n      tag_49\n      jump\t// in\n    tag_48:\n      mload(0x40)\n      dup1\n      swap2\n      sub\n      swap1\n      return\n        /* \"Hands on Task - 3.sol\":2089:2585  function pledge(uint _id, uint _amount) external {\r... */\n    tag_12:\n      tag_50\n      0x04\n      dup1\n      calldatasize\n      sub\n      dup2\n      add\n      swap1\n      tag_51\n      swap2\n      swap1\n      tag_35\n      jump\t// in\n    tag_51:\n      tag_52\n      jump\t// in\n    tag_50:\n      stop\n        /* \"Hands on Task - 3.sol\":924:941  uint public count */\n    tag_15:\n      sload(0x00)\n      dup2\n      jump\t// out\n        /* \"Hands on Task - 3.sol\":948:990  mapping(uint => Campaign) public campaigns */\n    tag_21:\n      mstore(0x20, 0x01)\n      dup1\n      0x00\n      mstore\n      keccak256(0x00, 0x40)\n      0x00\n      swap2\n      pop\n      swap1\n      pop\n      dup1\n      0x00\n      add\n      0x00\n      swap1\n      sload\n      swap1\n      0x0100\n      exp\n      swap1\n      div\n      0xffffffffffffffffffffffffffffffffffffffff\n      and\n      swap1\n      dup1\n      0x01\n      add\n      sload\n      swap1\n      dup1\n      0x02\n      add\n      sload\n      swap1\n      dup1\n      0x03\n      add\n      0x00\n      swap1\n      sload\n      swap1\n      0x0100\n      exp\n      swap1\n      div\n      0xffffffff\n      and\n      swap1\n      dup1\n      0x03\n      add\n      0x04\n      swap1\n      sload\n      swap1\n      0x0100\n      exp\n      swap1\n      div\n      0xffffffff\n      and\n      swap1\n      dup1\n      0x03\n      add\n      0x08\n      swap1\n      sload\n      swap1\n      0x0100\n      exp\n      swap1\n      div\n      0xff\n      and\n      swap1\n      pop\n      dup7\n      jump\t// out\n        /* \"Hands on Task - 3.sol\":3536:3989  function refund(uint _id) external{\r... */\n    tag_26:\n        /* \"Hands on Task - 3.sol\":3586:3611  Campaign storage campaign */\n      0x00\n        /* \"Hands on Task - 3.sol\":3614:3623  campaigns */\n      0x01\n        /* \"Hands on Task - 3.sol\":3614:3628  campaigns[_id] */\n      0x00\n        /* \"Hands on Task - 3.sol\":3624:3627  _id */\n      dup4\n        /* \"Hands on Task - 3.sol\":3614:3628  campaigns[_id] */\n      dup2\n      mstore\n      0x20\n      add\n      swap1\n      dup2\n      mstore\n      0x20\n      add\n      0x00\n      keccak256\n        /* \"Hands on Task - 3.sol\":3586:3628  Campaign storage campaign = campaigns[_id] */\n      swap1\n      pop\n        /* \"Hands on Task - 3.sol\":3669:3677  campaign */\n      dup1\n        /* \"Hands on Task - 3.sol\":3669:3683  campaign.endAt */\n      0x03\n      add\n      0x04\n      swap1\n      sload\n      swap1\n      0x0100\n      exp\n      swap1\n      div\n      0xffffffff\n      and\n        /* \"Hands on Task - 3.sol\":3651:3683  block.timestamp > campaign.endAt */\n      0xffffffff\n      and\n        /* \"Hands on Task - 3.sol\":3651:3666  block.timestamp */\n      timestamp\n        /* \"Hands on Task - 3.sol\":3651:3683  block.timestamp > campaign.endAt */\n      gt\n        /* \"Hands on Task - 3.sol\":3643:3701  require(block.timestamp > campaign.endAt, \"not ended yet\") */\n      tag_54\n      jumpi\n      mload(0x40)\n      0x08c379a000000000000000000000000000000000000000000000000000000000\n      dup2\n      mstore\n      0x04\n      add\n      tag_55\n      swap1\n      tag_56\n      jump\t// in\n    tag_55:\n      mload(0x40)\n      dup1\n      swap2\n      sub\n      swap1\n      revert\n    tag_54:\n        /* \"Hands on Task - 3.sol\":3743:3751  campaign */\n      dup1\n        /* \"Hands on Task - 3.sol\":3743:3756  campaign.goal */\n      0x01\n      add\n      sload\n        /* \"Hands on Task - 3.sol\":3724:3732  campaign */\n      dup2\n        /* \"Hands on Task - 3.sol\":3724:3740  campaign.pledged */\n      0x02\n      add\n      sload\n        /* \"Hands on Task - 3.sol\":3724:3756  campaign.pledged < campaign.goal */\n      lt\n        /* \"Hands on Task - 3.sol\":3716:3775  require(campaign.pledged < campaign.goal, \"pladged < goal\") */\n      tag_57\n      jumpi\n      mload(0x40)\n      0x08c379a000000000000000000000000000000000000000000000000000000000\n      dup2\n      mstore\n      0x04\n      add\n      tag_58\n      swap1\n      tag_59\n      jump\t// in\n    tag_58:\n      mload(0x40)\n      dup1\n      swap2\n      sub\n      swap1\n      revert\n    tag_57:\n        /* \"Hands on Task - 3.sol\":3792:3800  uint bal */\n      0x00\n        /* \"Hands on Task - 3.sol\":3803:3816  pledgedAmount */\n      0x02\n        /* \"Hands on Task - 3.sol\":3803:3821  pledgedAmount[_id] */\n      0x00\n        /* \"Hands on Task - 3.sol\":3817:3820  _id */\n      dup5\n        /* \"Hands on Task - 3.sol\":3803:3821  pledgedAmount[_id] */\n      dup2\n      mstore\n      0x20\n      add\n      swap1\n      dup2\n      mstore\n      0x20\n      add\n      0x00\n      keccak256\n        /* \"Hands on Task - 3.sol\":3803:3833  pledgedAmount[_id][msg.sender] */\n      0x00\n        /* \"Hands on Task - 3.sol\":3822:3832  msg.sender */\n      caller\n        /* \"Hands on Task - 3.sol\":3803:3833  pledgedAmount[_id][msg.sender] */\n      0xffffffffffffffffffffffffffffffffffffffff\n      and\n      0xffffffffffffffffffffffffffffffffffffffff\n      and\n      dup2\n      mstore\n      0x20\n      add\n      swap1\n      dup2\n      mstore\n      0x20\n      add\n      0x00\n      keccak256\n      sload\n        /* \"Hands on Task - 3.sol\":3792:3833  uint bal = pledgedAmount[_id][msg.sender] */\n      swap1\n      pop\n        /* \"Hands on Task - 3.sol\":3880:3881  0 */\n      0x00\n        /* \"Hands on Task - 3.sol\":3848:3861  pledgedAmount */\n      0x02\n        /* \"Hands on Task - 3.sol\":3848:3866  pledgedAmount[_id] */\n      0x00\n        /* \"Hands on Task - 3.sol\":3862:3865  _id */\n      dup6\n        /* \"Hands on Task - 3.sol\":3848:3866  pledgedAmount[_id] */\n      dup2\n      mstore\n      0x20\n      add\n      swap1\n      dup2\n      mstore\n      0x20\n      add\n      0x00\n      keccak256\n        /* \"Hands on Task - 3.sol\":3848:3878  pledgedAmount[_id][msg.sender] */\n      0x00\n        /* \"Hands on Task - 3.sol\":3867:3877  msg.sender */\n      caller\n        /* \"Hands on Task - 3.sol\":3848:3878  pledgedAmount[_id][msg.sender] */\n      0xffffffffffffffffffffffffffffffffffffffff\n      and\n      0xffffffffffffffffffffffffffffffffffffffff\n      and\n      dup2\n      mstore\n      0x20\n      add\n      swap1\n      dup2\n      mstore\n      0x20\n      add\n      0x00\n      keccak256\n        /* \"Hands on Task - 3.sol\":3848:3881  pledgedAmount[_id][msg.sender] =0 */\n      dup2\n      swap1\n      sstore\n      pop\n        /* \"Hands on Task - 3.sol\":3896:3901  token */\n      immutable(\"0x5392f7a671cdf89487ccf8e3646ea8f7570009490584962db6fa064c6e4ad499\")\n        /* \"Hands on Task - 3.sol\":3896:3910  token.transfer */\n      0xffffffffffffffffffffffffffffffffffffffff\n      and\n      0xa9059cbb\n        /* \"Hands on Task - 3.sol\":3911:3921  msg.sender */\n      caller\n        /* \"Hands on Task - 3.sol\":3923:3926  bal */\n      dup4\n        /* \"Hands on Task - 3.sol\":3896:3927  token.transfer(msg.sender, bal) */\n      mload(0x40)\n      dup4\n      0xffffffff\n      and\n      0xe0\n      shl\n      dup2\n      mstore\n      0x04\n      add\n      tag_60\n      swap3\n      swap2\n      swap1\n      tag_61\n      jump\t// in\n    tag_60:\n      0x20\n      mload(0x40)\n      dup1\n      dup4\n      sub\n      dup2\n      0x00\n      dup8\n      dup1\n      extcodesize\n      iszero\n      dup1\n      iszero\n      tag_62\n      jumpi\n      0x00\n      dup1\n      revert\n    tag_62:\n      pop\n      gas\n      call\n      iszero\n      dup1\n      iszero\n      tag_64\n      jumpi\n      returndatasize\n      0x00\n      dup1\n      returndatacopy\n      revert(0x00, returndatasize)\n    tag_64:\n      pop\n      pop\n      pop\n      pop\n      mload(0x40)\n      returndatasize\n      not(0x1f)\n      0x1f\n      dup3\n      add\n      and\n      dup3\n      add\n      dup1\n      0x40\n      mstore\n      pop\n      dup2\n      add\n      swap1\n      tag_65\n      swap2\n      swap1\n      tag_66\n      jump\t// in\n    tag_65:\n      pop\n        /* \"Hands on Task - 3.sol\":3961:3971  msg.sender */\n      caller\n        /* \"Hands on Task - 3.sol\":3949:3977  Refund(_id, msg.sender, bal) */\n      0xffffffffffffffffffffffffffffffffffffffff\n      and\n        /* \"Hands on Task - 3.sol\":3956:3959  _id */\n      dup4\n        /* \"Hands on Task - 3.sol\":3949:3977  Refund(_id, msg.sender, bal) */\n      0x21e12a7cad0da5928167e1084ea4d5fdf8d9af66657a2543a9ac76a0ca081477\n        /* \"Hands on Task - 3.sol\":3973:3976  bal */\n      dup4\n        /* \"Hands on Task - 3.sol\":3949:3977  Refund(_id, msg.sender, bal) */\n      mload(0x40)\n      tag_67\n      swap2\n      swap1\n      tag_17\n      jump\t// in\n    tag_67:\n      mload(0x40)\n      dup1\n      swap2\n      sub\n      swap1\n      log3\n        /* \"Hands on Task - 3.sol\":3570:3989  {\r... */\n      pop\n      pop\n        /* \"Hands on Task - 3.sol\":3536:3989  function refund(uint _id) external{\r... */\n      pop\n      jump\t// out\n        /* \"Hands on Task - 3.sol\":3001:3522  function claim(uint _id) external {\r... */\n    tag_29:\n        /* \"Hands on Task - 3.sol\":3050:3075  Campaign storage campaign */\n      0x00\n        /* \"Hands on Task - 3.sol\":3078:3087  campaigns */\n      0x01\n        /* \"Hands on Task - 3.sol\":3078:3092  campaigns[_id] */\n      0x00\n        /* \"Hands on Task - 3.sol\":3088:3091  _id */\n      dup4\n        /* \"Hands on Task - 3.sol\":3078:3092  campaigns[_id] */\n      dup2\n      mstore\n      0x20\n      add\n      swap1\n      dup2\n      mstore\n      0x20\n      add\n      0x00\n      keccak256\n        /* \"Hands on Task - 3.sol\":3050:3092  Campaign storage campaign = campaigns[_id] */\n      swap1\n      pop\n        /* \"Hands on Task - 3.sol\":3129:3137  campaign */\n      dup1\n        /* \"Hands on Task - 3.sol\":3129:3145  campaign.creator */\n      0x00\n      add\n      0x00\n      swap1\n      sload\n      swap1\n      0x0100\n      exp\n      swap1\n      div\n      0xffffffffffffffffffffffffffffffffffffffff\n      and\n        /* \"Hands on Task - 3.sol\":3115:3145  msg.sender == campaign.creator */\n      0xffffffffffffffffffffffffffffffffffffffff\n      and\n        /* \"Hands on Task - 3.sol\":3115:3125  msg.sender */\n      caller\n        /* \"Hands on Task - 3.sol\":3115:3145  msg.sender == campaign.creator */\n      0xffffffffffffffffffffffffffffffffffffffff\n      and\n      eq\n        /* \"Hands on Task - 3.sol\":3107:3161  require(msg.sender == campaign.creator, \"not creator\") */\n      tag_69\n      jumpi\n      mload(0x40)\n      0x08c379a000000000000000000000000000000000000000000000000000000000\n      dup2\n      mstore\n      0x04\n      add\n      tag_70\n      swap1\n      tag_71\n      jump\t// in\n    tag_70:\n      mload(0x40)\n      dup1\n      swap2\n      sub\n      swap1\n      revert\n    tag_69:\n        /* \"Hands on Task - 3.sol\":3202:3210  campaign */\n      dup1\n        /* \"Hands on Task - 3.sol\":3202:3216  campaign.endAt */\n      0x03\n      add\n      0x04\n      swap1\n      sload\n      swap1\n      0x0100\n      exp\n      swap1\n      div\n      0xffffffff\n      and\n        /* \"Hands on Task - 3.sol\":3184:3216  block.timestamp > campaign.endAt */\n      0xffffffff\n      and\n        /* \"Hands on Task - 3.sol\":3184:3199  block.timestamp */\n      timestamp\n        /* \"Hands on Task - 3.sol\":3184:3216  block.timestamp > campaign.endAt */\n      gt\n        /* \"Hands on Task - 3.sol\":3176:3234  require(block.timestamp > campaign.endAt, \"not ended yet\") */\n      tag_72\n      jumpi\n      mload(0x40)\n      0x08c379a000000000000000000000000000000000000000000000000000000000\n      dup2\n      mstore\n      0x04\n      add\n      tag_73\n      swap1\n      tag_56\n      jump\t// in\n    tag_73:\n      mload(0x40)\n      dup1\n      swap2\n      sub\n      swap1\n      revert\n    tag_72:\n        /* \"Hands on Task - 3.sol\":3277:3285  campaign */\n      dup1\n        /* \"Hands on Task - 3.sol\":3277:3290  campaign.goal */\n      0x01\n      add\n      sload\n        /* \"Hands on Task - 3.sol\":3257:3265  campaign */\n      dup2\n        /* \"Hands on Task - 3.sol\":3257:3273  campaign.pledged */\n      0x02\n      add\n      sload\n        /* \"Hands on Task - 3.sol\":3257:3290  campaign.pledged >= campaign.goal */\n      lt\n      iszero\n        /* \"Hands on Task - 3.sol\":3249:3309  require(campaign.pledged >= campaign.goal, \"pladged < goal\") */\n      tag_74\n      jumpi\n      mload(0x40)\n      0x08c379a000000000000000000000000000000000000000000000000000000000\n      dup2\n      mstore\n      0x04\n      add\n      tag_75\n      swap1\n      tag_59\n      jump\t// in\n    tag_75:\n      mload(0x40)\n      dup1\n      swap2\n      sub\n      swap1\n      revert\n    tag_74:\n        /* \"Hands on Task - 3.sol\":3333:3341  campaign */\n      dup1\n        /* \"Hands on Task - 3.sol\":3333:3349  campaign.claimed */\n      0x03\n      add\n      0x08\n      swap1\n      sload\n      swap1\n      0x0100\n      exp\n      swap1\n      div\n      0xff\n      and\n        /* \"Hands on Task - 3.sol\":3332:3349  !campaign.claimed */\n      iszero\n        /* \"Hands on Task - 3.sol\":3324:3369  require(!campaign.claimed, \"already claimed\") */\n      tag_76\n      jumpi\n      mload(0x40)\n      0x08c379a000000000000000000000000000000000000000000000000000000000\n      dup2\n      mstore\n      0x04\n      add\n      tag_77\n      swap1\n      tag_78\n      jump\t// in\n    tag_77:\n      mload(0x40)\n      dup1\n      swap2\n      sub\n      swap1\n      revert\n    tag_76:\n        /* \"Hands on Task - 3.sol\":3405:3409  true */\n      0x01\n        /* \"Hands on Task - 3.sol\":3386:3394  campaign */\n      dup2\n        /* \"Hands on Task - 3.sol\":3386:3402  campaign.claimed */\n      0x03\n      add\n      0x08\n        /* \"Hands on Task - 3.sol\":3386:3409  campaign.claimed = true */\n      0x0100\n      exp\n      dup2\n      sload\n      dup2\n      0xff\n      mul\n      not\n      and\n      swap1\n      dup4\n      iszero\n      iszero\n      mul\n      or\n      swap1\n      sstore\n      pop\n        /* \"Hands on Task - 3.sol\":3426:3431  token */\n      immutable(\"0x5392f7a671cdf89487ccf8e3646ea8f7570009490584962db6fa064c6e4ad499\")\n        /* \"Hands on Task - 3.sol\":3426:3440  token.transfer */\n      0xffffffffffffffffffffffffffffffffffffffff\n      and\n      0xa9059cbb\n        /* \"Hands on Task - 3.sol\":3441:3451  msg.sender */\n      caller\n        /* \"Hands on Task - 3.sol\":3453:3461  campaign */\n      dup4\n        /* \"Hands on Task - 3.sol\":3453:3469  campaign.pledged */\n      0x02\n      add\n      sload\n        /* \"Hands on Task - 3.sol\":3426:3470  token.transfer(msg.sender, campaign.pledged) */\n      mload(0x40)\n      dup4\n      0xffffffff\n      and\n      0xe0\n      shl\n      dup2\n      mstore\n      0x04\n      add\n      tag_79\n      swap3\n      swap2\n      swap1\n      tag_61\n      jump\t// in\n    tag_79:\n      0x20\n      mload(0x40)\n      dup1\n      dup4\n      sub\n      dup2\n      0x00\n      dup8\n      dup1\n      extcodesize\n      iszero\n      dup1\n      iszero\n      tag_80\n      jumpi\n      0x00\n      dup1\n      revert\n    tag_80:\n      pop\n      gas\n      call\n      iszero\n      dup1\n      iszero\n      tag_82\n      jumpi\n      returndatasize\n      0x00\n      dup1\n      returndatacopy\n      revert(0x00, returndatasize)\n    tag_82:\n      pop\n      pop\n      pop\n      pop\n      mload(0x40)\n      returndatasize\n      not(0x1f)\n      0x1f\n      dup3\n      add\n      and\n      dup3\n      add\n      dup1\n      0x40\n      mstore\n      pop\n      dup2\n      add\n      swap1\n      tag_83\n      swap2\n      swap1\n      tag_66\n      jump\t// in\n    tag_83:\n      pop\n        /* \"Hands on Task - 3.sol\":3497:3507  Claim(_id) */\n      0x7bb2b3c10797baccb6f8c4791f1edd6ca2f0d028ee0eda64b01a9a57e3a653f7\n        /* \"Hands on Task - 3.sol\":3503:3506  _id */\n      dup3\n        /* \"Hands on Task - 3.sol\":3497:3507  Claim(_id) */\n      mload(0x40)\n      tag_84\n      swap2\n      swap1\n      tag_17\n      jump\t// in\n    tag_84:\n      mload(0x40)\n      dup1\n      swap2\n      sub\n      swap1\n      log1\n        /* \"Hands on Task - 3.sol\":3035:3522  {\r... */\n      pop\n        /* \"Hands on Task - 3.sol\":3001:3522  function claim(uint _id) external {\r... */\n      pop\n      jump\t// out\n        /* \"Hands on Task - 3.sol\":1769:2077  function cancel(uint _id) external {\r... */\n    tag_32:\n        /* \"Hands on Task - 3.sol\":1819:1843  Campaign memory campaign */\n      0x00\n        /* \"Hands on Task - 3.sol\":1846:1855  campaigns */\n      0x01\n        /* \"Hands on Task - 3.sol\":1846:1860  campaigns[_id] */\n      0x00\n        /* \"Hands on Task - 3.sol\":1856:1859  _id */\n      dup4\n        /* \"Hands on Task - 3.sol\":1846:1860  campaigns[_id] */\n      dup2\n      mstore\n      0x20\n      add\n      swap1\n      dup2\n      mstore\n      0x20\n      add\n      0x00\n      keccak256\n        /* \"Hands on Task - 3.sol\":1819:1860  Campaign memory campaign = campaigns[_id] */\n      mload(0x40)\n      dup1\n      0xc0\n      add\n      0x40\n      mstore\n      swap1\n      dup2\n      0x00\n      dup3\n      add\n      0x00\n      swap1\n      sload\n      swap1\n      0x0100\n      exp\n      swap1\n      div\n      0xffffffffffffffffffffffffffffffffffffffff\n      and\n      0xffffffffffffffffffffffffffffffffffffffff\n      and\n      0xffffffffffffffffffffffffffffffffffffffff\n      and\n      dup2\n      mstore\n      0x20\n      add\n      0x01\n      dup3\n      add\n      sload\n      dup2\n      mstore\n      0x20\n      add\n      0x02\n      dup3\n      add\n      sload\n      dup2\n      mstore\n      0x20\n      add\n      0x03\n      dup3\n      add\n      0x00\n      swap1\n      sload\n      swap1\n      0x0100\n      exp\n      swap1\n      div\n      0xffffffff\n      and\n      0xffffffff\n      and\n      0xffffffff\n      and\n      dup2\n      mstore\n      0x20\n      add\n      0x03\n      dup3\n      add\n      0x04\n      swap1\n      sload\n      swap1\n      0x0100\n      exp\n      swap1\n      div\n      0xffffffff\n      and\n      0xffffffff\n      and\n      0xffffffff\n      and\n      dup2\n      mstore\n      0x20\n      add\n      0x03\n      dup3\n      add\n      0x08\n      swap1\n      sload\n      swap1\n      0x0100\n      exp\n      swap1\n      div\n      0xff\n      and\n      iszero\n      iszero\n      iszero\n      iszero\n      dup2\n      mstore\n      pop\n      pop\n      swap1\n      pop\n        /* \"Hands on Task - 3.sol\":1897:1905  campaign */\n      dup1\n        /* \"Hands on Task - 3.sol\":1897:1913  campaign.creator */\n      0x00\n      add\n      mload\n        /* \"Hands on Task - 3.sol\":1883:1913  msg.sender == campaign.creator */\n      0xffffffffffffffffffffffffffffffffffffffff\n      and\n        /* \"Hands on Task - 3.sol\":1883:1893  msg.sender */\n      caller\n        /* \"Hands on Task - 3.sol\":1883:1913  msg.sender == campaign.creator */\n      0xffffffffffffffffffffffffffffffffffffffff\n      and\n      eq\n        /* \"Hands on Task - 3.sol\":1875:1929  require(msg.sender == campaign.creator, \"not creator\") */\n      tag_86\n      jumpi\n      mload(0x40)\n      0x08c379a000000000000000000000000000000000000000000000000000000000\n      dup2\n      mstore\n      0x04\n      add\n      tag_87\n      swap1\n      tag_71\n      jump\t// in\n    tag_87:\n      mload(0x40)\n      dup1\n      swap2\n      sub\n      swap1\n      revert\n    tag_86:\n        /* \"Hands on Task - 3.sol\":1970:1978  campaign */\n      dup1\n        /* \"Hands on Task - 3.sol\":1970:1986  campaign.startAt */\n      0x60\n      add\n      mload\n        /* \"Hands on Task - 3.sol\":1952:1986  block.timestamp < campaign.startAt */\n      0xffffffff\n      and\n        /* \"Hands on Task - 3.sol\":1952:1967  block.timestamp */\n      timestamp\n        /* \"Hands on Task - 3.sol\":1952:1986  block.timestamp < campaign.startAt */\n      lt\n        /* \"Hands on Task - 3.sol\":1944:1998  require(block.timestamp < campaign.startAt, \"started\") */\n      tag_88\n      jumpi\n      mload(0x40)\n      0x08c379a000000000000000000000000000000000000000000000000000000000\n      dup2\n      mstore\n      0x04\n      add\n      tag_89\n      swap1\n      tag_90\n      jump\t// in\n    tag_89:\n      mload(0x40)\n      dup1\n      swap2\n      sub\n      swap1\n      revert\n    tag_88:\n        /* \"Hands on Task - 3.sol\":2020:2029  campaigns */\n      0x01\n        /* \"Hands on Task - 3.sol\":2020:2034  campaigns[_id] */\n      0x00\n        /* \"Hands on Task - 3.sol\":2030:2033  _id */\n      dup4\n        /* \"Hands on Task - 3.sol\":2020:2034  campaigns[_id] */\n      dup2\n      mstore\n      0x20\n      add\n      swap1\n      dup2\n      mstore\n      0x20\n      add\n      0x00\n      keccak256\n      0x00\n        /* \"Hands on Task - 3.sol\":2013:2034  delete campaigns[_id] */\n      dup1\n      dup3\n      add\n      exp(0x0100, 0x00)\n      dup2\n      sload\n      swap1\n      0xffffffffffffffffffffffffffffffffffffffff\n      mul\n      not\n      and\n      swap1\n      sstore\n      0x01\n      dup3\n      add\n      0x00\n      swap1\n      sstore\n      0x02\n      dup3\n      add\n      0x00\n      swap1\n      sstore\n      0x03\n      dup3\n      add\n      exp(0x0100, 0x00)\n      dup2\n      sload\n      swap1\n      0xffffffff\n      mul\n      not\n      and\n      swap1\n      sstore\n      0x03\n      dup3\n      add\n      exp(0x0100, 0x04)\n      dup2\n      sload\n      swap1\n      0xffffffff\n      mul\n      not\n      and\n      swap1\n      sstore\n      0x03\n      dup3\n      add\n      exp(0x0100, 0x08)\n      dup2\n      sload\n      swap1\n      0xff\n      mul\n      not\n      and\n      swap1\n      sstore\n      pop\n      pop\n        /* \"Hands on Task - 3.sol\":2054:2065  Cancel(_id) */\n      0x8bf30e7ff26833413be5f69e1d373744864d600b664204b4a2f9844a8eedb9ed\n        /* \"Hands on Task - 3.sol\":2061:2064  _id */\n      dup3\n        /* \"Hands on Task - 3.sol\":2054:2065  Cancel(_id) */\n      mload(0x40)\n      tag_91\n      swap2\n      swap1\n      tag_17\n      jump\t// in\n    tag_91:\n      mload(0x40)\n      dup1\n      swap2\n      sub\n      swap1\n      log1\n        /* \"Hands on Task - 3.sol\":1804:2077  {\r... */\n      pop\n        /* \"Hands on Task - 3.sol\":1769:2077  function cancel(uint _id) external {\r... */\n      pop\n      jump\t// out\n        /* \"Hands on Task - 3.sol\":2597:2989  function unpledge(uint _id, uint _amount) external {\r... */\n    tag_36:\n        /* \"Hands on Task - 3.sol\":2663:2688  Campaign storage campaign */\n      0x00\n        /* \"Hands on Task - 3.sol\":2691:2700  campaigns */\n      0x01\n        /* \"Hands on Task - 3.sol\":2691:2705  campaigns[_id] */\n      0x00\n        /* \"Hands on Task - 3.sol\":2701:2704  _id */\n      dup5\n        /* \"Hands on Task - 3.sol\":2691:2705  campaigns[_id] */\n      dup2\n      mstore\n      0x20\n      add\n      swap1\n      dup2\n      mstore\n      0x20\n      add\n      0x00\n      keccak256\n        /* \"Hands on Task - 3.sol\":2663:2705  Campaign storage campaign = campaigns[_id] */\n      swap1\n      pop\n        /* \"Hands on Task - 3.sol\":2747:2755  campaign */\n      dup1\n        /* \"Hands on Task - 3.sol\":2747:2761  campaign.endAt */\n      0x03\n      add\n      0x04\n      swap1\n      sload\n      swap1\n      0x0100\n      exp\n      swap1\n      div\n      0xffffffff\n      and\n        /* \"Hands on Task - 3.sol\":2728:2761  block.timestamp <= campaign.endAt */\n      0xffffffff\n      and\n        /* \"Hands on Task - 3.sol\":2728:2743  block.timestamp */\n      timestamp\n        /* \"Hands on Task - 3.sol\":2728:2761  block.timestamp <= campaign.endAt */\n      gt\n      iszero\n        /* \"Hands on Task - 3.sol\":2720:2771  require(block.timestamp <= campaign.endAt, \"ended\") */\n      tag_93\n      jumpi\n      mload(0x40)\n      0x08c379a000000000000000000000000000000000000000000000000000000000\n      dup2\n      mstore\n      0x04\n      add\n      tag_94\n      swap1\n      tag_95\n      jump\t// in\n    tag_94:\n      mload(0x40)\n      dup1\n      swap2\n      sub\n      swap1\n      revert\n    tag_93:\n        /* \"Hands on Task - 3.sol\":2808:2815  _amount */\n      dup2\n        /* \"Hands on Task - 3.sol\":2788:2796  campaign */\n      dup2\n        /* \"Hands on Task - 3.sol\":2788:2804  campaign.pledged */\n      0x02\n      add\n      0x00\n        /* \"Hands on Task - 3.sol\":2788:2815  campaign.pledged -= _amount */\n      dup3\n      dup3\n      sload\n      tag_96\n      swap2\n      swap1\n      tag_97\n      jump\t// in\n    tag_96:\n      swap3\n      pop\n      pop\n      dup2\n      swap1\n      sstore\n      pop\n        /* \"Hands on Task - 3.sol\":2866:2873  _amount */\n      dup2\n        /* \"Hands on Task - 3.sol\":2832:2845  pledgedAmount */\n      0x02\n        /* \"Hands on Task - 3.sol\":2832:2850  pledgedAmount[_id] */\n      0x00\n        /* \"Hands on Task - 3.sol\":2846:2849  _id */\n      dup6\n        /* \"Hands on Task - 3.sol\":2832:2850  pledgedAmount[_id] */\n      dup2\n      mstore\n      0x20\n      add\n      swap1\n      dup2\n      mstore\n      0x20\n      add\n      0x00\n      keccak256\n        /* \"Hands on Task - 3.sol\":2832:2862  pledgedAmount[_id][msg.sender] */\n      0x00\n        /* \"Hands on Task - 3.sol\":2851:2861  msg.sender */\n      caller\n        /* \"Hands on Task - 3.sol\":2832:2862  pledgedAmount[_id][msg.sender] */\n      0xffffffffffffffffffffffffffffffffffffffff\n      and\n      0xffffffffffffffffffffffffffffffffffffffff\n      and\n      dup2\n      mstore\n      0x20\n      add\n      swap1\n      dup2\n      mstore\n      0x20\n      add\n      0x00\n      keccak256\n      0x00\n        /* \"Hands on Task - 3.sol\":2832:2873  pledgedAmount[_id][msg.sender] -= _amount */\n      dup3\n      dup3\n      sload\n      tag_98\n      swap2\n      swap1\n      tag_97\n      jump\t// in\n    tag_98:\n      swap3\n      pop\n      pop\n      dup2\n      swap1\n      sstore\n      pop\n        /* \"Hands on Task - 3.sol\":2888:2893  token */\n      immutable(\"0x5392f7a671cdf89487ccf8e3646ea8f7570009490584962db6fa064c6e4ad499\")\n        /* \"Hands on Task - 3.sol\":2888:2902  token.transfer */\n      0xffffffffffffffffffffffffffffffffffffffff\n      and\n      0xa9059cbb\n        /* \"Hands on Task - 3.sol\":2903:2913  msg.sender */\n      caller\n        /* \"Hands on Task - 3.sol\":2915:2922  _amount */\n      dup5\n        /* \"Hands on Task - 3.sol\":2888:2923  token.transfer(msg.sender, _amount) */\n      mload(0x40)\n      dup4\n      0xffffffff\n      and\n      0xe0\n      shl\n      dup2\n      mstore\n      0x04\n      add\n      tag_99\n      swap3\n      swap2\n      swap1\n      tag_61\n      jump\t// in\n    tag_99:\n      0x20\n      mload(0x40)\n      dup1\n      dup4\n      sub\n      dup2\n      0x00\n      dup8\n      dup1\n      extcodesize\n      iszero\n      dup1\n      iszero\n      tag_100\n      jumpi\n      0x00\n      dup1\n      revert\n    tag_100:\n      pop\n      gas\n      call\n      iszero\n      dup1\n      iszero\n      tag_102\n      jumpi\n      returndatasize\n      0x00\n      dup1\n      returndatacopy\n      revert(0x00, returndatasize)\n    tag_102:\n      pop\n      pop\n      pop\n      pop\n      mload(0x40)\n      returndatasize\n      not(0x1f)\n      0x1f\n      dup3\n      add\n      and\n      dup3\n      add\n      dup1\n      0x40\n      mstore\n      pop\n      dup2\n      add\n      swap1\n      tag_103\n      swap2\n      swap1\n      tag_66\n      jump\t// in\n    tag_103:\n      pop\n        /* \"Hands on Task - 3.sol\":2957:2967  msg.sender */\n      caller\n        /* \"Hands on Task - 3.sol\":2943:2977  Unpledge(_id, msg.sender, _amount) */\n      0xffffffffffffffffffffffffffffffffffffffff\n      and\n        /* \"Hands on Task - 3.sol\":2952:2955  _id */\n      dup4\n        /* \"Hands on Task - 3.sol\":2943:2977  Unpledge(_id, msg.sender, _amount) */\n      0x2eeeab891b26a214d1b25749f88a406bdea852bd8c9bfda977e0ef8114c180ba\n        /* \"Hands on Task - 3.sol\":2969:2976  _amount */\n      dup5\n        /* \"Hands on Task - 3.sol\":2943:2977  Unpledge(_id, msg.sender, _amount) */\n      mload(0x40)\n      tag_104\n      swap2\n      swap1\n      tag_17\n      jump\t// in\n    tag_104:\n      mload(0x40)\n      dup1\n      swap2\n      sub\n      swap1\n      log3\n        /* \"Hands on Task - 3.sol\":2648:2989  {\r... */\n      pop\n        /* \"Hands on Task - 3.sol\":2597:2989  function unpledge(uint _id, uint _amount) external {\r... */\n      pop\n      pop\n      jump\t// out\n        /* \"Hands on Task - 3.sol\":997:1060  mapping(uint => mapping(address => uint )) public pledgedAmount */\n    tag_40:\n      mstore(0x20, 0x02)\n      dup2\n      0x00\n      mstore\n      mstore(0x20, keccak256(0x00, 0x40))\n      dup1\n      0x00\n      mstore\n      keccak256(0x00, 0x40)\n      0x00\n      swap2\n      pop\n      swap2\n      pop\n      pop\n      sload\n      dup2\n      jump\t// out\n        /* \"Hands on Task - 3.sol\":1146:1757  function lunch(uint _goal, uint32 _startAt, uint32 _endAt) external {\r... */\n    tag_45:\n        /* \"Hands on Task - 3.sol\":1245:1260  block.timestamp */\n      timestamp\n        /* \"Hands on Task - 3.sol\":1233:1241  _startAt */\n      dup3\n        /* \"Hands on Task - 3.sol\":1233:1260  _startAt >= block.timestamp */\n      0xffffffff\n      and\n      lt\n      iszero\n        /* \"Hands on Task - 3.sol\":1225:1279  require(_startAt >= block.timestamp, \"start at < now\") */\n      tag_106\n      jumpi\n      mload(0x40)\n      0x08c379a000000000000000000000000000000000000000000000000000000000\n      dup2\n      mstore\n      0x04\n      add\n      tag_107\n      swap1\n      tag_108\n      jump\t// in\n    tag_107:\n      mload(0x40)\n      dup1\n      swap2\n      sub\n      swap1\n      revert\n    tag_106:\n        /* \"Hands on Task - 3.sol\":1308:1316  _startAt */\n      dup2\n        /* \"Hands on Task - 3.sol\":1298:1316  _endAt >= _startAt */\n      0xffffffff\n      and\n        /* \"Hands on Task - 3.sol\":1298:1304  _endAt */\n      dup2\n        /* \"Hands on Task - 3.sol\":1298:1316  _endAt >= _startAt */\n      0xffffffff\n      and\n      lt\n      iszero\n        /* \"Hands on Task - 3.sol\":1290:1338  require(_endAt >= _startAt, \"end at < start at\") */\n      tag_109\n      jumpi\n      mload(0x40)\n      0x08c379a000000000000000000000000000000000000000000000000000000000\n      dup2\n      mstore\n      0x04\n      add\n      tag_110\n      swap1\n      tag_111\n      jump\t// in\n    tag_110:\n      mload(0x40)\n      dup1\n      swap2\n      sub\n      swap1\n      revert\n    tag_109:\n        /* \"Hands on Task - 3.sol\":1385:1392  90 days */\n      0x76a700\n        /* \"Hands on Task - 3.sol\":1367:1382  block.timestamp */\n      timestamp\n        /* \"Hands on Task - 3.sol\":1367:1392  block.timestamp + 90 days */\n      tag_112\n      swap2\n      swap1\n      tag_113\n      jump\t// in\n    tag_112:\n        /* \"Hands on Task - 3.sol\":1357:1363  _endAt */\n      dup2\n        /* \"Hands on Task - 3.sol\":1357:1392  _endAt <= block.timestamp + 90 days */\n      0xffffffff\n      and\n      gt\n      iszero\n        /* \"Hands on Task - 3.sol\":1349:1418  require(_endAt <= block.timestamp + 90 days, \"end at > max duration\") */\n      tag_114\n      jumpi\n      mload(0x40)\n      0x08c379a000000000000000000000000000000000000000000000000000000000\n      dup2\n      mstore\n      0x04\n      add\n      tag_115\n      swap1\n      tag_116\n      jump\t// in\n    tag_115:\n      mload(0x40)\n      dup1\n      swap2\n      sub\n      swap1\n      revert\n    tag_114:\n        /* \"Hands on Task - 3.sol\":1440:1441  1 */\n      0x01\n        /* \"Hands on Task - 3.sol\":1431:1436  count */\n      0x00\n      dup1\n        /* \"Hands on Task - 3.sol\":1431:1441  count += 1 */\n      dup3\n      dup3\n      sload\n      tag_117\n      swap2\n      swap1\n      tag_113\n      jump\t// in\n    tag_117:\n      swap3\n      pop\n      pop\n      dup2\n      swap1\n      sstore\n      pop\n        /* \"Hands on Task - 3.sol\":1471:1666  Campaign({\r... */\n      mload(0x40)\n      dup1\n      0xc0\n      add\n      0x40\n      mstore\n      dup1\n        /* \"Hands on Task - 3.sol\":1504:1514  msg.sender */\n      caller\n        /* \"Hands on Task - 3.sol\":1471:1666  Campaign({\r... */\n      0xffffffffffffffffffffffffffffffffffffffff\n      and\n      dup2\n      mstore\n      0x20\n      add\n        /* \"Hands on Task - 3.sol\":1535:1540  _goal */\n      dup5\n        /* \"Hands on Task - 3.sol\":1471:1666  Campaign({\r... */\n      dup2\n      mstore\n      0x20\n      add\n        /* \"Hands on Task - 3.sol\":1564:1565  0 */\n      0x00\n        /* \"Hands on Task - 3.sol\":1471:1666  Campaign({\r... */\n      dup2\n      mstore\n      0x20\n      add\n        /* \"Hands on Task - 3.sol\":1588:1596  _startAt */\n      dup4\n        /* \"Hands on Task - 3.sol\":1471:1666  Campaign({\r... */\n      0xffffffff\n      and\n      dup2\n      mstore\n      0x20\n      add\n        /* \"Hands on Task - 3.sol\":1617:1623  _endAt */\n      dup3\n        /* \"Hands on Task - 3.sol\":1471:1666  Campaign({\r... */\n      0xffffffff\n      and\n      dup2\n      mstore\n      0x20\n      add\n        /* \"Hands on Task - 3.sol\":1647:1652  false */\n      0x00\n        /* \"Hands on Task - 3.sol\":1471:1666  Campaign({\r... */\n      iszero\n      iszero\n      dup2\n      mstore\n      pop\n        /* \"Hands on Task - 3.sol\":1452:1461  campaigns */\n      0x01\n        /* \"Hands on Task - 3.sol\":1452:1468  campaigns[count] */\n      0x00\n        /* \"Hands on Task - 3.sol\":1462:1467  count */\n      dup1\n      sload\n        /* \"Hands on Task - 3.sol\":1452:1468  campaigns[count] */\n      dup2\n      mstore\n      0x20\n      add\n      swap1\n      dup2\n      mstore\n      0x20\n      add\n      0x00\n      keccak256\n        /* \"Hands on Task - 3.sol\":1452:1666  campaigns[count] = Campaign({\r... */\n      0x00\n      dup3\n      add\n      mload\n      dup2\n      0x00\n      add\n      exp(0x0100, 0x00)\n      dup2\n      sload\n      dup2\n      0xffffffffffffffffffffffffffffffffffffffff\n      mul\n      not\n      and\n      swap1\n      dup4\n      0xffffffffffffffffffffffffffffffffffffffff\n      and\n      mul\n      or\n      swap1\n      sstore\n      pop\n      0x20\n      dup3\n      add\n      mload\n      dup2\n      0x01\n      add\n      sstore\n      0x40\n      dup3\n      add\n      mload\n      dup2\n      0x02\n      add\n      sstore\n      0x60\n      dup3\n      add\n      mload\n      dup2\n      0x03\n      add\n      exp(0x0100, 0x00)\n      dup2\n      sload\n      dup2\n      0xffffffff\n      mul\n      not\n      and\n      swap1\n      dup4\n      0xffffffff\n      and\n      mul\n      or\n      swap1\n      sstore\n      pop\n      0x80\n      dup3\n      add\n      mload\n      dup2\n      0x03\n      add\n      exp(0x0100, 0x04)\n      dup2\n      sload\n      dup2\n      0xffffffff\n      mul\n      not\n      and\n      swap1\n      dup4\n      0xffffffff\n      and\n      mul\n      or\n      swap1\n      sstore\n      pop\n      0xa0\n      dup3\n      add\n      mload\n      dup2\n      0x03\n      add\n      exp(0x0100, 0x08)\n      dup2\n      sload\n      dup2\n      0xff\n      mul\n      not\n      and\n      swap1\n      dup4\n      iszero\n      iszero\n      mul\n      or\n      swap1\n      sstore\n      pop\n      swap1\n      pop\n      pop\n        /* \"Hands on Task - 3.sol\":1698:1708  msg.sender */\n      caller\n        /* \"Hands on Task - 3.sol\":1684:1734  Launch(count, msg.sender, _goal, _startAt, _endAt) */\n      0xffffffffffffffffffffffffffffffffffffffff\n      and\n      0x0601cd0d650b473037e838a2696d41e654433d065b3f56b28d1d3302e44a304f\n        /* \"Hands on Task - 3.sol\":1691:1696  count */\n      sload(0x00)\n        /* \"Hands on Task - 3.sol\":1710:1715  _goal */\n      dup6\n        /* \"Hands on Task - 3.sol\":1717:1725  _startAt */\n      dup6\n        /* \"Hands on Task - 3.sol\":1727:1733  _endAt */\n      dup6\n        /* \"Hands on Task - 3.sol\":1684:1734  Launch(count, msg.sender, _goal, _startAt, _endAt) */\n      mload(0x40)\n      tag_118\n      swap5\n      swap4\n      swap3\n      swap2\n      swap1\n      tag_119\n      jump\t// in\n    tag_118:\n      mload(0x40)\n      dup1\n      swap2\n      sub\n      swap1\n      log2\n        /* \"Hands on Task - 3.sol\":1146:1757  function lunch(uint _goal, uint32 _startAt, uint32 _endAt) external {\r... */\n      pop\n      pop\n      pop\n      jump\t// out\n        /* \"Hands on Task - 3.sol\":888:917  IERC20 public immutable token */\n    tag_47:\n      immutable(\"0x5392f7a671cdf89487ccf8e3646ea8f7570009490584962db6fa064c6e4ad499\")\n      dup2\n      jump\t// out\n        /* \"Hands on Task - 3.sol\":2089:2585  function pledge(uint _id, uint _amount) external {\r... */\n    tag_52:\n        /* \"Hands on Task - 3.sol\":2153:2178  Campaign storage campaign */\n      0x00\n        /* \"Hands on Task - 3.sol\":2181:2190  campaigns */\n      0x01\n        /* \"Hands on Task - 3.sol\":2181:2195  campaigns[_id] */\n      0x00\n        /* \"Hands on Task - 3.sol\":2191:2194  _id */\n      dup5\n        /* \"Hands on Task - 3.sol\":2181:2195  campaigns[_id] */\n      dup2\n      mstore\n      0x20\n      add\n      swap1\n      dup2\n      mstore\n      0x20\n      add\n      0x00\n      keccak256\n        /* \"Hands on Task - 3.sol\":2153:2195  Campaign storage campaign = campaigns[_id] */\n      swap1\n      pop\n        /* \"Hands on Task - 3.sol\":2237:2245  campaign */\n      dup1\n        /* \"Hands on Task - 3.sol\":2237:2253  campaign.startAt */\n      0x03\n      add\n      0x00\n      swap1\n      sload\n      swap1\n      0x0100\n      exp\n      swap1\n      div\n      0xffffffff\n      and\n        /* \"Hands on Task - 3.sol\":2218:2253  block.timestamp >= campaign.startAt */\n      0xffffffff\n      and\n        /* \"Hands on Task - 3.sol\":2218:2233  block.timestamp */\n      timestamp\n        /* \"Hands on Task - 3.sol\":2218:2253  block.timestamp >= campaign.startAt */\n      lt\n      iszero\n        /* \"Hands on Task - 3.sol\":2210:2273  require(block.timestamp >= campaign.startAt, \"not started yet\") */\n      tag_121\n      jumpi\n      mload(0x40)\n      0x08c379a000000000000000000000000000000000000000000000000000000000\n      dup2\n      mstore\n      0x04\n      add\n      tag_122\n      swap1\n      tag_123\n      jump\t// in\n    tag_122:\n      mload(0x40)\n      dup1\n      swap2\n      sub\n      swap1\n      revert\n    tag_121:\n        /* \"Hands on Task - 3.sol\":2315:2323  campaign */\n      dup1\n        /* \"Hands on Task - 3.sol\":2315:2329  campaign.endAt */\n      0x03\n      add\n      0x04\n      swap1\n      sload\n      swap1\n      0x0100\n      exp\n      swap1\n      div\n      0xffffffff\n      and\n        /* \"Hands on Task - 3.sol\":2296:2329  block.timestamp <= campaign.endAt */\n      0xffffffff\n      and\n        /* \"Hands on Task - 3.sol\":2296:2311  block.timestamp */\n      timestamp\n        /* \"Hands on Task - 3.sol\":2296:2329  block.timestamp <= campaign.endAt */\n      gt\n      iszero\n        /* \"Hands on Task - 3.sol\":2288:2348  require(block.timestamp <= campaign.endAt, \"campaign ended\") */\n      tag_124\n      jumpi\n      mload(0x40)\n      0x08c379a000000000000000000000000000000000000000000000000000000000\n      dup2\n      mstore\n      0x04\n      add\n      tag_125\n      swap1\n      tag_126\n      jump\t// in\n    tag_125:\n      mload(0x40)\n      dup1\n      swap2\n      sub\n      swap1\n      revert\n    tag_124:\n        /* \"Hands on Task - 3.sol\":2385:2392  _amount */\n      dup2\n        /* \"Hands on Task - 3.sol\":2365:2373  campaign */\n      dup2\n        /* \"Hands on Task - 3.sol\":2365:2381  campaign.pledged */\n      0x02\n      add\n      0x00\n        /* \"Hands on Task - 3.sol\":2365:2392  campaign.pledged += _amount */\n      dup3\n      dup3\n      sload\n      tag_127\n      swap2\n      swap1\n      tag_113\n      jump\t// in\n    tag_127:\n      swap3\n      pop\n      pop\n      dup2\n      swap1\n      sstore\n      pop\n        /* \"Hands on Task - 3.sol\":2441:2448  _amount */\n      dup2\n        /* \"Hands on Task - 3.sol\":2407:2420  pledgedAmount */\n      0x02\n        /* \"Hands on Task - 3.sol\":2407:2425  pledgedAmount[_id] */\n      0x00\n        /* \"Hands on Task - 3.sol\":2421:2424  _id */\n      dup6\n        /* \"Hands on Task - 3.sol\":2407:2425  pledgedAmount[_id] */\n      dup2\n      mstore\n      0x20\n      add\n      swap1\n      dup2\n      mstore\n      0x20\n      add\n      0x00\n      keccak256\n        /* \"Hands on Task - 3.sol\":2407:2437  pledgedAmount[_id][msg.sender] */\n      0x00\n        /* \"Hands on Task - 3.sol\":2426:2436  msg.sender */\n      caller\n        /* \"Hands on Task - 3.sol\":2407:2437  pledgedAmount[_id][msg.sender] */\n      0xffffffffffffffffffffffffffffffffffffffff\n      and\n      0xffffffffffffffffffffffffffffffffffffffff\n      and\n      dup2\n      mstore\n      0x20\n      add\n      swap1\n      dup2\n      mstore\n      0x20\n      add\n      0x00\n      keccak256\n      0x00\n        /* \"Hands on Task - 3.sol\":2407:2448  pledgedAmount[_id][msg.sender] += _amount */\n      dup3\n      dup3\n      sload\n      tag_128\n      swap2\n      swap1\n      tag_113\n      jump\t// in\n    tag_128:\n      swap3\n      pop\n      pop\n      dup2\n      swap1\n      sstore\n      pop\n        /* \"Hands on Task - 3.sol\":2463:2468  token */\n      immutable(\"0x5392f7a671cdf89487ccf8e3646ea8f7570009490584962db6fa064c6e4ad499\")\n        /* \"Hands on Task - 3.sol\":2463:2481  token.transferFrom */\n      0xffffffffffffffffffffffffffffffffffffffff\n      and\n      0x23b872dd\n        /* \"Hands on Task - 3.sol\":2482:2492  msg.sender */\n      caller\n        /* \"Hands on Task - 3.sol\":2502:2506  this */\n      address\n        /* \"Hands on Task - 3.sol\":2509:2516  _amount */\n      dup6\n        /* \"Hands on Task - 3.sol\":2463:2517  token.transferFrom(msg.sender, address(this), _amount) */\n      mload(0x40)\n      dup5\n      0xffffffff\n      and\n      0xe0\n      shl\n      dup2\n      mstore\n      0x04\n      add\n      tag_129\n      swap4\n      swap3\n      swap2\n      swap1\n      tag_130\n      jump\t// in\n    tag_129:\n      0x20\n      mload(0x40)\n      dup1\n      dup4\n      sub\n      dup2\n      0x00\n      dup8\n      dup1\n      extcodesize\n      iszero\n      dup1\n      iszero\n      tag_131\n      jumpi\n      0x00\n      dup1\n      revert\n    tag_131:\n      pop\n      gas\n      call\n      iszero\n      dup1\n      iszero\n      tag_133\n      jumpi\n      returndatasize\n      0x00\n      dup1\n      returndatacopy\n      revert(0x00, returndatasize)\n    tag_133:\n      pop\n      pop\n      pop\n      pop\n      mload(0x40)\n      returndatasize\n      not(0x1f)\n      0x1f\n      dup3\n      add\n      and\n      dup3\n      add\n      dup1\n      0x40\n      mstore\n      pop\n      dup2\n      add\n      swap1\n      tag_134\n      swap2\n      swap1\n      tag_66\n      jump\t// in\n    tag_134:\n      pop\n        /* \"Hands on Task - 3.sol\":2551:2561  msg.sender */\n      caller\n        /* \"Hands on Task - 3.sol\":2539:2571  Pledge(_id, msg.sender, _amount) */\n      0xffffffffffffffffffffffffffffffffffffffff\n      and\n        /* \"Hands on Task - 3.sol\":2546:2549  _id */\n      dup4\n        /* \"Hands on Task - 3.sol\":2539:2571  Pledge(_id, msg.sender, _amount) */\n      0x06bdb975df800a73232998e71ed585d536222f1dfeaa622d7f62a23ada686c82\n        /* \"Hands on Task - 3.sol\":2563:2570  _amount */\n      dup5\n        /* \"Hands on Task - 3.sol\":2539:2571  Pledge(_id, msg.sender, _amount) */\n      mload(0x40)\n      tag_135\n      swap2\n      swap1\n      tag_17\n      jump\t// in\n    tag_135:\n      mload(0x40)\n      dup1\n      swap2\n      sub\n      swap1\n      log3\n        /* \"Hands on Task - 3.sol\":2138:2585  {\r... */\n      pop\n        /* \"Hands on Task - 3.sol\":2089:2585  function pledge(uint _id, uint _amount) external {\r... */\n      pop\n      pop\n      jump\t// out\n        /* \"#utility.yul\":7:146   */\n    tag_137:\n        /* \"#utility.yul\":53:58   */\n      0x00\n        /* \"#utility.yul\":91:97   */\n      dup2\n        /* \"#utility.yul\":78:98   */\n      calldataload\n        /* \"#utility.yul\":69:98   */\n      swap1\n      pop\n        /* \"#utility.yul\":107:140   */\n      tag_139\n        /* \"#utility.yul\":134:139   */\n      dup2\n        /* \"#utility.yul\":107:140   */\n      tag_140\n      jump\t// in\n    tag_139:\n        /* \"#utility.yul\":7:146   */\n      swap3\n      swap2\n      pop\n      pop\n      jump\t// out\n        /* \"#utility.yul\":152:289   */\n    tag_141:\n        /* \"#utility.yul\":206:211   */\n      0x00\n        /* \"#utility.yul\":237:243   */\n      dup2\n        /* \"#utility.yul\":231:244   */\n      mload\n        /* \"#utility.yul\":222:244   */\n      swap1\n      pop\n        /* \"#utility.yul\":253:283   */\n      tag_143\n        /* \"#utility.yul\":277:282   */\n      dup2\n        /* \"#utility.yul\":253:283   */\n      tag_144\n      jump\t// in\n    tag_143:\n        /* \"#utility.yul\":152:289   */\n      swap3\n      swap2\n      pop\n      pop\n      jump\t// out\n        /* \"#utility.yul\":295:434   */\n    tag_145:\n        /* \"#utility.yul\":341:346   */\n      0x00\n        /* \"#utility.yul\":379:385   */\n      dup2\n        /* \"#utility.yul\":366:386   */\n      calldataload\n        /* \"#utility.yul\":357:386   */\n      swap1\n      pop\n        /* \"#utility.yul\":395:428   */\n      tag_147\n        /* \"#utility.yul\":422:427   */\n      dup2\n        /* \"#utility.yul\":395:428   */\n      tag_148\n      jump\t// in\n    tag_147:\n        /* \"#utility.yul\":295:434   */\n      swap3\n      swap2\n      pop\n      pop\n      jump\t// out\n        /* \"#utility.yul\":440:577   */\n    tag_149:\n        /* \"#utility.yul\":485:490   */\n      0x00\n        /* \"#utility.yul\":523:529   */\n      dup2\n        /* \"#utility.yul\":510:530   */\n      calldataload\n        /* \"#utility.yul\":501:530   */\n      swap1\n      pop\n        /* \"#utility.yul\":539:571   */\n      tag_151\n        /* \"#utility.yul\":565:570   */\n      dup2\n        /* \"#utility.yul\":539:571   */\n      tag_152\n      jump\t// in\n    tag_151:\n        /* \"#utility.yul\":440:577   */\n      swap3\n      swap2\n      pop\n      pop\n      jump\t// out\n        /* \"#utility.yul\":583:928   */\n    tag_66:\n        /* \"#utility.yul\":650:656   */\n      0x00\n        /* \"#utility.yul\":699:701   */\n      0x20\n        /* \"#utility.yul\":687:696   */\n      dup3\n        /* \"#utility.yul\":678:685   */\n      dup5\n        /* \"#utility.yul\":674:697   */\n      sub\n        /* \"#utility.yul\":670:702   */\n      slt\n        /* \"#utility.yul\":667:786   */\n      iszero\n      tag_154\n      jumpi\n        /* \"#utility.yul\":705:784   */\n      tag_155\n      tag_156\n      jump\t// in\n    tag_155:\n        /* \"#utility.yul\":667:786   */\n    tag_154:\n        /* \"#utility.yul\":825:826   */\n      0x00\n        /* \"#utility.yul\":850:911   */\n      tag_157\n        /* \"#utility.yul\":903:910   */\n      dup5\n        /* \"#utility.yul\":894:900   */\n      dup3\n        /* \"#utility.yul\":883:892   */\n      dup6\n        /* \"#utility.yul\":879:901   */\n      add\n        /* \"#utility.yul\":850:911   */\n      tag_141\n      jump\t// in\n    tag_157:\n        /* \"#utility.yul\":840:911   */\n      swap2\n      pop\n        /* \"#utility.yul\":796:921   */\n      pop\n        /* \"#utility.yul\":583:928   */\n      swap3\n      swap2\n      pop\n      pop\n      jump\t// out\n        /* \"#utility.yul\":934:1263   */\n    tag_20:\n        /* \"#utility.yul\":993:999   */\n      0x00\n        /* \"#utility.yul\":1042:1044   */\n      0x20\n        /* \"#utility.yul\":1030:1039   */\n      dup3\n        /* \"#utility.yul\":1021:1028   */\n      dup5\n        /* \"#utility.yul\":1017:1040   */\n      sub\n        /* \"#utility.yul\":1013:1045   */\n      slt\n        /* \"#utility.yul\":1010:1129   */\n      iszero\n      tag_159\n      jumpi\n        /* \"#utility.yul\":1048:1127   */\n      tag_160\n      tag_156\n      jump\t// in\n    tag_160:\n        /* \"#utility.yul\":1010:1129   */\n    tag_159:\n        /* \"#utility.yul\":1168:1169   */\n      0x00\n        /* \"#utility.yul\":1193:1246   */\n      tag_161\n        /* \"#utility.yul\":1238:1245   */\n      dup5\n        /* \"#utility.yul\":1229:1235   */\n      dup3\n        /* \"#utility.yul\":1218:1227   */\n      dup6\n        /* \"#utility.yul\":1214:1236   */\n      add\n        /* \"#utility.yul\":1193:1246   */\n      tag_145\n      jump\t// in\n    tag_161:\n        /* \"#utility.yul\":1183:1246   */\n      swap2\n      pop\n        /* \"#utility.yul\":1139:1256   */\n      pop\n        /* \"#utility.yul\":934:1263   */\n      swap3\n      swap2\n      pop\n      pop\n      jump\t// out\n        /* \"#utility.yul\":1269:1743   */\n    tag_39:\n        /* \"#utility.yul\":1337:1343   */\n      0x00\n        /* \"#utility.yul\":1345:1351   */\n      dup1\n        /* \"#utility.yul\":1394:1396   */\n      0x40\n        /* \"#utility.yul\":1382:1391   */\n      dup4\n        /* \"#utility.yul\":1373:1380   */\n      dup6\n        /* \"#utility.yul\":1369:1392   */\n      sub\n        /* \"#utility.yul\":1365:1397   */\n      slt\n        /* \"#utility.yul\":1362:1481   */\n      iszero\n      tag_163\n      jumpi\n        /* \"#utility.yul\":1400:1479   */\n      tag_164\n      tag_156\n      jump\t// in\n    tag_164:\n        /* \"#utility.yul\":1362:1481   */\n    tag_163:\n        /* \"#utility.yul\":1520:1521   */\n      0x00\n        /* \"#utility.yul\":1545:1598   */\n      tag_165\n        /* \"#utility.yul\":1590:1597   */\n      dup6\n        /* \"#utility.yul\":1581:1587   */\n      dup3\n        /* \"#utility.yul\":1570:1579   */\n      dup7\n        /* \"#utility.yul\":1566:1588   */\n      add\n        /* \"#utility.yul\":1545:1598   */\n      tag_145\n      jump\t// in\n    tag_165:\n        /* \"#utility.yul\":1535:1598   */\n      swap3\n      pop\n        /* \"#utility.yul\":1491:1608   */\n      pop\n        /* \"#utility.yul\":1647:1649   */\n      0x20\n        /* \"#utility.yul\":1673:1726   */\n      tag_166\n        /* \"#utility.yul\":1718:1725   */\n      dup6\n        /* \"#utility.yul\":1709:1715   */\n      dup3\n        /* \"#utility.yul\":1698:1707   */\n      dup7\n        /* \"#utility.yul\":1694:1716   */\n      add\n        /* \"#utility.yul\":1673:1726   */\n      tag_137\n      jump\t// in\n    tag_166:\n        /* \"#utility.yul\":1663:1726   */\n      swap2\n      pop\n        /* \"#utility.yul\":1618:1736   */\n      pop\n        /* \"#utility.yul\":1269:1743   */\n      swap3\n      pop\n      swap3\n      swap1\n      pop\n      jump\t// out\n        /* \"#utility.yul\":1749:2223   */\n    tag_35:\n        /* \"#utility.yul\":1817:1823   */\n      0x00\n        /* \"#utility.yul\":1825:1831   */\n      dup1\n        /* \"#utility.yul\":1874:1876   */\n      0x40\n        /* \"#utility.yul\":1862:1871   */\n      dup4\n        /* \"#utility.yul\":1853:1860   */\n      dup6\n        /* \"#utility.yul\":1849:1872   */\n      sub\n        /* \"#utility.yul\":1845:1877   */\n      slt\n        /* \"#utility.yul\":1842:1961   */\n      iszero\n      tag_168\n      jumpi\n        /* \"#utility.yul\":1880:1959   */\n      tag_169\n      tag_156\n      jump\t// in\n    tag_169:\n        /* \"#utility.yul\":1842:1961   */\n    tag_168:\n        /* \"#utility.yul\":2000:2001   */\n      0x00\n        /* \"#utility.yul\":2025:2078   */\n      tag_170\n        /* \"#utility.yul\":2070:2077   */\n      dup6\n        /* \"#utility.yul\":2061:2067   */\n      dup3\n        /* \"#utility.yul\":2050:2059   */\n      dup7\n        /* \"#utility.yul\":2046:2068   */\n      add\n        /* \"#utility.yul\":2025:2078   */\n      tag_145\n      jump\t// in\n    tag_170:\n        /* \"#utility.yul\":2015:2078   */\n      swap3\n      pop\n        /* \"#utility.yul\":1971:2088   */\n      pop\n        /* \"#utility.yul\":2127:2129   */\n      0x20\n        /* \"#utility.yul\":2153:2206   */\n      tag_171\n        /* \"#utility.yul\":2198:2205   */\n      dup6\n        /* \"#utility.yul\":2189:2195   */\n      dup3\n        /* \"#utility.yul\":2178:2187   */\n      dup7\n        /* \"#utility.yul\":2174:2196   */\n      add\n        /* \"#utility.yul\":2153:2206   */\n      tag_145\n      jump\t// in\n    tag_171:\n        /* \"#utility.yul\":2143:2206   */\n      swap2\n      pop\n        /* \"#utility.yul\":2098:2216   */\n      pop\n        /* \"#utility.yul\":1749:2223   */\n      swap3\n      pop\n      swap3\n      swap1\n      pop\n      jump\t// out\n        /* \"#utility.yul\":2229:2844   */\n    tag_44:\n        /* \"#utility.yul\":2304:2310   */\n      0x00\n        /* \"#utility.yul\":2312:2318   */\n      dup1\n        /* \"#utility.yul\":2320:2326   */\n      0x00\n        /* \"#utility.yul\":2369:2371   */\n      0x60\n        /* \"#utility.yul\":2357:2366   */\n      dup5\n        /* \"#utility.yul\":2348:2355   */\n      dup7\n        /* \"#utility.yul\":2344:2367   */\n      sub\n        /* \"#utility.yul\":2340:2372   */\n      slt\n        /* \"#utility.yul\":2337:2456   */\n      iszero\n      tag_173\n      jumpi\n        /* \"#utility.yul\":2375:2454   */\n      tag_174\n      tag_156\n      jump\t// in\n    tag_174:\n        /* \"#utility.yul\":2337:2456   */\n    tag_173:\n        /* \"#utility.yul\":2495:2496   */\n      0x00\n        /* \"#utility.yul\":2520:2573   */\n      tag_175\n        /* \"#utility.yul\":2565:2572   */\n      dup7\n        /* \"#utility.yul\":2556:2562   */\n      dup3\n        /* \"#utility.yul\":2545:2554   */\n      dup8\n        /* \"#utility.yul\":2541:2563   */\n      add\n        /* \"#utility.yul\":2520:2573   */\n      tag_145\n      jump\t// in\n    tag_175:\n        /* \"#utility.yul\":2510:2573   */\n      swap4\n      pop\n        /* \"#utility.yul\":2466:2583   */\n      pop\n        /* \"#utility.yul\":2622:2624   */\n      0x20\n        /* \"#utility.yul\":2648:2700   */\n      tag_176\n        /* \"#utility.yul\":2692:2699   */\n      dup7\n        /* \"#utility.yul\":2683:2689   */\n      dup3\n        /* \"#utility.yul\":2672:2681   */\n      dup8\n        /* \"#utility.yul\":2668:2690   */\n      add\n        /* \"#utility.yul\":2648:2700   */\n      tag_149\n      jump\t// in\n    tag_176:\n        /* \"#utility.yul\":2638:2700   */\n      swap3\n      pop\n        /* \"#utility.yul\":2593:2710   */\n      pop\n        /* \"#utility.yul\":2749:2751   */\n      0x40\n        /* \"#utility.yul\":2775:2827   */\n      tag_177\n        /* \"#utility.yul\":2819:2826   */\n      dup7\n        /* \"#utility.yul\":2810:2816   */\n      dup3\n        /* \"#utility.yul\":2799:2808   */\n      dup8\n        /* \"#utility.yul\":2795:2817   */\n      add\n        /* \"#utility.yul\":2775:2827   */\n      tag_149\n      jump\t// in\n    tag_177:\n        /* \"#utility.yul\":2765:2827   */\n      swap2\n      pop\n        /* \"#utility.yul\":2720:2837   */\n      pop\n        /* \"#utility.yul\":2229:2844   */\n      swap3\n      pop\n      swap3\n      pop\n      swap3\n      jump\t// out\n        /* \"#utility.yul\":2850:2968   */\n    tag_178:\n        /* \"#utility.yul\":2937:2961   */\n      tag_180\n        /* \"#utility.yul\":2955:2960   */\n      dup2\n        /* \"#utility.yul\":2937:2961   */\n      tag_181\n      jump\t// in\n    tag_180:\n        /* \"#utility.yul\":2932:2935   */\n      dup3\n        /* \"#utility.yul\":2925:2962   */\n      mstore\n        /* \"#utility.yul\":2850:2968   */\n      pop\n      pop\n      jump\t// out\n        /* \"#utility.yul\":2974:3083   */\n    tag_182:\n        /* \"#utility.yul\":3055:3076   */\n      tag_184\n        /* \"#utility.yul\":3070:3075   */\n      dup2\n        /* \"#utility.yul\":3055:3076   */\n      tag_185\n      jump\t// in\n    tag_184:\n        /* \"#utility.yul\":3050:3053   */\n      dup3\n        /* \"#utility.yul\":3043:3077   */\n      mstore\n        /* \"#utility.yul\":2974:3083   */\n      pop\n      pop\n      jump\t// out\n        /* \"#utility.yul\":3089:3246   */\n    tag_186:\n        /* \"#utility.yul\":3189:3239   */\n      tag_188\n        /* \"#utility.yul\":3233:3238   */\n      dup2\n        /* \"#utility.yul\":3189:3239   */\n      tag_189\n      jump\t// in\n    tag_188:\n        /* \"#utility.yul\":3184:3187   */\n      dup3\n        /* \"#utility.yul\":3177:3240   */\n      mstore\n        /* \"#utility.yul\":3089:3246   */\n      pop\n      pop\n      jump\t// out\n        /* \"#utility.yul\":3252:3618   */\n    tag_190:\n        /* \"#utility.yul\":3394:3397   */\n      0x00\n        /* \"#utility.yul\":3415:3482   */\n      tag_192\n        /* \"#utility.yul\":3479:3481   */\n      0x0e\n        /* \"#utility.yul\":3474:3477   */\n      dup4\n        /* \"#utility.yul\":3415:3482   */\n      tag_193\n      jump\t// in\n    tag_192:\n        /* \"#utility.yul\":3408:3482   */\n      swap2\n      pop\n        /* \"#utility.yul\":3491:3584   */\n      tag_194\n        /* \"#utility.yul\":3580:3583   */\n      dup3\n        /* \"#utility.yul\":3491:3584   */\n      tag_195\n      jump\t// in\n    tag_194:\n        /* \"#utility.yul\":3609:3611   */\n      0x20\n        /* \"#utility.yul\":3604:3607   */\n      dup3\n        /* \"#utility.yul\":3600:3612   */\n      add\n        /* \"#utility.yul\":3593:3612   */\n      swap1\n      pop\n        /* \"#utility.yul\":3252:3618   */\n      swap2\n      swap1\n      pop\n      jump\t// out\n        /* \"#utility.yul\":3624:3990   */\n    tag_196:\n        /* \"#utility.yul\":3766:3769   */\n      0x00\n        /* \"#utility.yul\":3787:3854   */\n      tag_198\n        /* \"#utility.yul\":3851:3853   */\n      0x0d\n        /* \"#utility.yul\":3846:3849   */\n      dup4\n        /* \"#utility.yul\":3787:3854   */\n      tag_193\n      jump\t// in\n    tag_198:\n        /* \"#utility.yul\":3780:3854   */\n      swap2\n      pop\n        /* \"#utility.yul\":3863:3956   */\n      tag_199\n        /* \"#utility.yul\":3952:3955   */\n      dup3\n        /* \"#utility.yul\":3863:3956   */\n      tag_200\n      jump\t// in\n    tag_199:\n        /* \"#utility.yul\":3981:3983   */\n      0x20\n        /* \"#utility.yul\":3976:3979   */\n      dup3\n        /* \"#utility.yul\":3972:3984   */\n      add\n        /* \"#utility.yul\":3965:3984   */\n      swap1\n      pop\n        /* \"#utility.yul\":3624:3990   */\n      swap2\n      swap1\n      pop\n      jump\t// out\n        /* \"#utility.yul\":3996:4362   */\n    tag_201:\n        /* \"#utility.yul\":4138:4141   */\n      0x00\n        /* \"#utility.yul\":4159:4226   */\n      tag_203\n        /* \"#utility.yul\":4223:4225   */\n      0x0f\n        /* \"#utility.yul\":4218:4221   */\n      dup4\n        /* \"#utility.yul\":4159:4226   */\n      tag_193\n      jump\t// in\n    tag_203:\n        /* \"#utility.yul\":4152:4226   */\n      swap2\n      pop\n        /* \"#utility.yul\":4235:4328   */\n      tag_204\n        /* \"#utility.yul\":4324:4327   */\n      dup3\n        /* \"#utility.yul\":4235:4328   */\n      tag_205\n      jump\t// in\n    tag_204:\n        /* \"#utility.yul\":4353:4355   */\n      0x20\n        /* \"#utility.yul\":4348:4351   */\n      dup3\n        /* \"#utility.yul\":4344:4356   */\n      add\n        /* \"#utility.yul\":4337:4356   */\n      swap1\n      pop\n        /* \"#utility.yul\":3996:4362   */\n      swap2\n      swap1\n      pop\n      jump\t// out\n        /* \"#utility.yul\":4368:4734   */\n    tag_206:\n        /* \"#utility.yul\":4510:4513   */\n      0x00\n        /* \"#utility.yul\":4531:4598   */\n      tag_208\n        /* \"#utility.yul\":4595:4597   */\n      0x15\n        /* \"#utility.yul\":4590:4593   */\n      dup4\n        /* \"#utility.yul\":4531:4598   */\n      tag_193\n      jump\t// in\n    tag_208:\n        /* \"#utility.yul\":4524:4598   */\n      swap2\n      pop\n        /* \"#utility.yul\":4607:4700   */\n      tag_209\n        /* \"#utility.yul\":4696:4699   */\n      dup3\n        /* \"#utility.yul\":4607:4700   */\n      tag_210\n      jump\t// in\n    tag_209:\n        /* \"#utility.yul\":4725:4727   */\n      0x20\n        /* \"#utility.yul\":4720:4723   */\n      dup3\n        /* \"#utility.yul\":4716:4728   */\n      add\n        /* \"#utility.yul\":4709:4728   */\n      swap1\n      pop\n        /* \"#utility.yul\":4368:4734   */\n      swap2\n      swap1\n      pop\n      jump\t// out\n        /* \"#utility.yul\":4740:5106   */\n    tag_211:\n        /* \"#utility.yul\":4882:4885   */\n      0x00\n        /* \"#utility.yul\":4903:4970   */\n      tag_213\n        /* \"#utility.yul\":4967:4969   */\n      0x11\n        /* \"#utility.yul\":4962:4965   */\n      dup4\n        /* \"#utility.yul\":4903:4970   */\n      tag_193\n      jump\t// in\n    tag_213:\n        /* \"#utility.yul\":4896:4970   */\n      swap2\n      pop\n        /* \"#utility.yul\":4979:5072   */\n      tag_214\n        /* \"#utility.yul\":5068:5071   */\n      dup3\n        /* \"#utility.yul\":4979:5072   */\n      tag_215\n      jump\t// in\n    tag_214:\n        /* \"#utility.yul\":5097:5099   */\n      0x20\n        /* \"#utility.yul\":5092:5095   */\n      dup3\n        /* \"#utility.yul\":5088:5100   */\n      add\n        /* \"#utility.yul\":5081:5100   */\n      swap1\n      pop\n        /* \"#utility.yul\":4740:5106   */\n      swap2\n      swap1\n      pop\n      jump\t// out\n        /* \"#utility.yul\":5112:5478   */\n    tag_216:\n        /* \"#utility.yul\":5254:5257   */\n      0x00\n        /* \"#utility.yul\":5275:5342   */\n      tag_218\n        /* \"#utility.yul\":5339:5341   */\n      0x0b\n        /* \"#utility.yul\":5334:5337   */\n      dup4\n        /* \"#utility.yul\":5275:5342   */\n      tag_193\n      jump\t// in\n    tag_218:\n        /* \"#utility.yul\":5268:5342   */\n      swap2\n      pop\n        /* \"#utility.yul\":5351:5444   */\n      tag_219\n        /* \"#utility.yul\":5440:5443   */\n      dup3\n        /* \"#utility.yul\":5351:5444   */\n      tag_220\n      jump\t// in\n    tag_219:\n        /* \"#utility.yul\":5469:5471   */\n      0x20\n        /* \"#utility.yul\":5464:5467   */\n      dup3\n        /* \"#utility.yul\":5460:5472   */\n      add\n        /* \"#utility.yul\":5453:5472   */\n      swap1\n      pop\n        /* \"#utility.yul\":5112:5478   */\n      swap2\n      swap1\n      pop\n      jump\t// out\n        /* \"#utility.yul\":5484:5850   */\n    tag_221:\n        /* \"#utility.yul\":5626:5629   */\n      0x00\n        /* \"#utility.yul\":5647:5714   */\n      tag_223\n        /* \"#utility.yul\":5711:5713   */\n      0x0e\n        /* \"#utility.yul\":5706:5709   */\n      dup4\n        /* \"#utility.yul\":5647:5714   */\n      tag_193\n      jump\t// in\n    tag_223:\n        /* \"#utility.yul\":5640:5714   */\n      swap2\n      pop\n        /* \"#utility.yul\":5723:5816   */\n      tag_224\n        /* \"#utility.yul\":5812:5815   */\n      dup3\n        /* \"#utility.yul\":5723:5816   */\n      tag_225\n      jump\t// in\n    tag_224:\n        /* \"#utility.yul\":5841:5843   */\n      0x20\n        /* \"#utility.yul\":5836:5839   */\n      dup3\n        /* \"#utility.yul\":5832:5844   */\n      add\n        /* \"#utility.yul\":5825:5844   */\n      swap1\n      pop\n        /* \"#utility.yul\":5484:5850   */\n      swap2\n      swap1\n      pop\n      jump\t// out\n        /* \"#utility.yul\":5856:6222   */\n    tag_226:\n        /* \"#utility.yul\":5998:6001   */\n      0x00\n        /* \"#utility.yul\":6019:6086   */\n      tag_228\n        /* \"#utility.yul\":6083:6085   */\n      0x0f\n        /* \"#utility.yul\":6078:6081   */\n      dup4\n        /* \"#utility.yul\":6019:6086   */\n      tag_193\n      jump\t// in\n    tag_228:\n        /* \"#utility.yul\":6012:6086   */\n      swap2\n      pop\n        /* \"#utility.yul\":6095:6188   */\n      tag_229\n        /* \"#utility.yul\":6184:6187   */\n      dup3\n        /* \"#utility.yul\":6095:6188   */\n      tag_230\n      jump\t// in\n    tag_229:\n        /* \"#utility.yul\":6213:6215   */\n      0x20\n        /* \"#utility.yul\":6208:6211   */\n      dup3\n        /* \"#utility.yul\":6204:6216   */\n      add\n        /* \"#utility.yul\":6197:6216   */\n      swap1\n      pop\n        /* \"#utility.yul\":5856:6222   */\n      swap2\n      swap1\n      pop\n      jump\t// out\n        /* \"#utility.yul\":6228:6593   */\n    tag_231:\n        /* \"#utility.yul\":6370:6373   */\n      0x00\n        /* \"#utility.yul\":6391:6457   */\n      tag_233\n        /* \"#utility.yul\":6455:6456   */\n      0x07\n        /* \"#utility.yul\":6450:6453   */\n      dup4\n        /* \"#utility.yul\":6391:6457   */\n      tag_193\n      jump\t// in\n    tag_233:\n        /* \"#utility.yul\":6384:6457   */\n      swap2\n      pop\n        /* \"#utility.yul\":6466:6559   */\n      tag_234\n        /* \"#utility.yul\":6555:6558   */\n      dup3\n        /* \"#utility.yul\":6466:6559   */\n      tag_235\n      jump\t// in\n    tag_234:\n        /* \"#utility.yul\":6584:6586   */\n      0x20\n        /* \"#utility.yul\":6579:6582   */\n      dup3\n        /* \"#utility.yul\":6575:6587   */\n      add\n        /* \"#utility.yul\":6568:6587   */\n      swap1\n      pop\n        /* \"#utility.yul\":6228:6593   */\n      swap2\n      swap1\n      pop\n      jump\t// out\n        /* \"#utility.yul\":6599:6965   */\n    tag_236:\n        /* \"#utility.yul\":6741:6744   */\n      0x00\n        /* \"#utility.yul\":6762:6829   */\n      tag_238\n        /* \"#utility.yul\":6826:6828   */\n      0x0e\n        /* \"#utility.yul\":6821:6824   */\n      dup4\n        /* \"#utility.yul\":6762:6829   */\n      tag_193\n      jump\t// in\n    tag_238:\n        /* \"#utility.yul\":6755:6829   */\n      swap2\n      pop\n        /* \"#utility.yul\":6838:6931   */\n      tag_239\n        /* \"#utility.yul\":6927:6930   */\n      dup3\n        /* \"#utility.yul\":6838:6931   */\n      tag_240\n      jump\t// in\n    tag_239:\n        /* \"#utility.yul\":6956:6958   */\n      0x20\n        /* \"#utility.yul\":6951:6954   */\n      dup3\n        /* \"#utility.yul\":6947:6959   */\n      add\n        /* \"#utility.yul\":6940:6959   */\n      swap1\n      pop\n        /* \"#utility.yul\":6599:6965   */\n      swap2\n      swap1\n      pop\n      jump\t// out\n        /* \"#utility.yul\":6971:7336   */\n    tag_241:\n        /* \"#utility.yul\":7113:7116   */\n      0x00\n        /* \"#utility.yul\":7134:7200   */\n      tag_243\n        /* \"#utility.yul\":7198:7199   */\n      0x05\n        /* \"#utility.yul\":7193:7196   */\n      dup4\n        /* \"#utility.yul\":7134:7200   */\n      tag_193\n      jump\t// in\n    tag_243:\n        /* \"#utility.yul\":7127:7200   */\n      swap2\n      pop\n        /* \"#utility.yul\":7209:7302   */\n      tag_244\n        /* \"#utility.yul\":7298:7301   */\n      dup3\n        /* \"#utility.yul\":7209:7302   */\n      tag_245\n      jump\t// in\n    tag_244:\n        /* \"#utility.yul\":7327:7329   */\n      0x20\n        /* \"#utility.yul\":7322:7325   */\n      dup3\n        /* \"#utility.yul\":7318:7330   */\n      add\n        /* \"#utility.yul\":7311:7330   */\n      swap1\n      pop\n        /* \"#utility.yul\":6971:7336   */\n      swap2\n      swap1\n      pop\n      jump\t// out\n        /* \"#utility.yul\":7342:7460   */\n    tag_246:\n        /* \"#utility.yul\":7429:7453   */\n      tag_248\n        /* \"#utility.yul\":7447:7452   */\n      dup2\n        /* \"#utility.yul\":7429:7453   */\n      tag_249\n      jump\t// in\n    tag_248:\n        /* \"#utility.yul\":7424:7427   */\n      dup3\n        /* \"#utility.yul\":7417:7454   */\n      mstore\n        /* \"#utility.yul\":7342:7460   */\n      pop\n      pop\n      jump\t// out\n        /* \"#utility.yul\":7466:7581   */\n    tag_250:\n        /* \"#utility.yul\":7551:7574   */\n      tag_252\n        /* \"#utility.yul\":7568:7573   */\n      dup2\n        /* \"#utility.yul\":7551:7574   */\n      tag_253\n      jump\t// in\n    tag_252:\n        /* \"#utility.yul\":7546:7549   */\n      dup3\n        /* \"#utility.yul\":7539:7575   */\n      mstore\n        /* \"#utility.yul\":7466:7581   */\n      pop\n      pop\n      jump\t// out\n        /* \"#utility.yul\":7587:8029   */\n    tag_130:\n        /* \"#utility.yul\":7736:7740   */\n      0x00\n        /* \"#utility.yul\":7774:7776   */\n      0x60\n        /* \"#utility.yul\":7763:7772   */\n      dup3\n        /* \"#utility.yul\":7759:7777   */\n      add\n        /* \"#utility.yul\":7751:7777   */\n      swap1\n      pop\n        /* \"#utility.yul\":7787:7858   */\n      tag_255\n        /* \"#utility.yul\":7855:7856   */\n      0x00\n        /* \"#utility.yul\":7844:7853   */\n      dup4\n        /* \"#utility.yul\":7840:7857   */\n      add\n        /* \"#utility.yul\":7831:7837   */\n      dup7\n        /* \"#utility.yul\":7787:7858   */\n      tag_178\n      jump\t// in\n    tag_255:\n        /* \"#utility.yul\":7868:7940   */\n      tag_256\n        /* \"#utility.yul\":7936:7938   */\n      0x20\n        /* \"#utility.yul\":7925:7934   */\n      dup4\n        /* \"#utility.yul\":7921:7939   */\n      add\n        /* \"#utility.yul\":7912:7918   */\n      dup6\n        /* \"#utility.yul\":7868:7940   */\n      tag_178\n      jump\t// in\n    tag_256:\n        /* \"#utility.yul\":7950:8022   */\n      tag_257\n        /* \"#utility.yul\":8018:8020   */\n      0x40\n        /* \"#utility.yul\":8007:8016   */\n      dup4\n        /* \"#utility.yul\":8003:8021   */\n      add\n        /* \"#utility.yul\":7994:8000   */\n      dup5\n        /* \"#utility.yul\":7950:8022   */\n      tag_246\n      jump\t// in\n    tag_257:\n        /* \"#utility.yul\":7587:8029   */\n      swap5\n      swap4\n      pop\n      pop\n      pop\n      pop\n      jump\t// out\n        /* \"#utility.yul\":8035:8367   */\n    tag_61:\n        /* \"#utility.yul\":8156:8160   */\n      0x00\n        /* \"#utility.yul\":8194:8196   */\n      0x40\n        /* \"#utility.yul\":8183:8192   */\n      dup3\n        /* \"#utility.yul\":8179:8197   */\n      add\n        /* \"#utility.yul\":8171:8197   */\n      swap1\n      pop\n        /* \"#utility.yul\":8207:8278   */\n      tag_259\n        /* \"#utility.yul\":8275:8276   */\n      0x00\n        /* \"#utility.yul\":8264:8273   */\n      dup4\n        /* \"#utility.yul\":8260:8277   */\n      add\n        /* \"#utility.yul\":8251:8257   */\n      dup6\n        /* \"#utility.yul\":8207:8278   */\n      tag_178\n      jump\t// in\n    tag_259:\n        /* \"#utility.yul\":8288:8360   */\n      tag_260\n        /* \"#utility.yul\":8356:8358   */\n      0x20\n        /* \"#utility.yul\":8345:8354   */\n      dup4\n        /* \"#utility.yul\":8341:8359   */\n      add\n        /* \"#utility.yul\":8332:8338   */\n      dup5\n        /* \"#utility.yul\":8288:8360   */\n      tag_246\n      jump\t// in\n    tag_260:\n        /* \"#utility.yul\":8035:8367   */\n      swap4\n      swap3\n      pop\n      pop\n      pop\n      jump\t// out\n        /* \"#utility.yul\":8373:9128   */\n    tag_23:\n        /* \"#utility.yul\":8596:8600   */\n      0x00\n        /* \"#utility.yul\":8634:8637   */\n      0xc0\n        /* \"#utility.yul\":8623:8632   */\n      dup3\n        /* \"#utility.yul\":8619:8638   */\n      add\n        /* \"#utility.yul\":8611:8638   */\n      swap1\n      pop\n        /* \"#utility.yul\":8648:8719   */\n      tag_262\n        /* \"#utility.yul\":8716:8717   */\n      0x00\n        /* \"#utility.yul\":8705:8714   */\n      dup4\n        /* \"#utility.yul\":8701:8718   */\n      add\n        /* \"#utility.yul\":8692:8698   */\n      dup10\n        /* \"#utility.yul\":8648:8719   */\n      tag_178\n      jump\t// in\n    tag_262:\n        /* \"#utility.yul\":8729:8801   */\n      tag_263\n        /* \"#utility.yul\":8797:8799   */\n      0x20\n        /* \"#utility.yul\":8786:8795   */\n      dup4\n        /* \"#utility.yul\":8782:8800   */\n      add\n        /* \"#utility.yul\":8773:8779   */\n      dup9\n        /* \"#utility.yul\":8729:8801   */\n      tag_246\n      jump\t// in\n    tag_263:\n        /* \"#utility.yul\":8811:8883   */\n      tag_264\n        /* \"#utility.yul\":8879:8881   */\n      0x40\n        /* \"#utility.yul\":8868:8877   */\n      dup4\n        /* \"#utility.yul\":8864:8882   */\n      add\n        /* \"#utility.yul\":8855:8861   */\n      dup8\n        /* \"#utility.yul\":8811:8883   */\n      tag_246\n      jump\t// in\n    tag_264:\n        /* \"#utility.yul\":8893:8963   */\n      tag_265\n        /* \"#utility.yul\":8959:8961   */\n      0x60\n        /* \"#utility.yul\":8948:8957   */\n      dup4\n        /* \"#utility.yul\":8944:8962   */\n      add\n        /* \"#utility.yul\":8935:8941   */\n      dup7\n        /* \"#utility.yul\":8893:8963   */\n      tag_250\n      jump\t// in\n    tag_265:\n        /* \"#utility.yul\":8973:9044   */\n      tag_266\n        /* \"#utility.yul\":9039:9042   */\n      0x80\n        /* \"#utility.yul\":9028:9037   */\n      dup4\n        /* \"#utility.yul\":9024:9043   */\n      add\n        /* \"#utility.yul\":9015:9021   */\n      dup6\n        /* \"#utility.yul\":8973:9044   */\n      tag_250\n      jump\t// in\n    tag_266:\n        /* \"#utility.yul\":9054:9121   */\n      tag_267\n        /* \"#utility.yul\":9116:9119   */\n      0xa0\n        /* \"#utility.yul\":9105:9114   */\n      dup4\n        /* \"#utility.yul\":9101:9120   */\n      add\n        /* \"#utility.yul\":9092:9098   */\n      dup5\n        /* \"#utility.yul\":9054:9121   */\n      tag_182\n      jump\t// in\n    tag_267:\n        /* \"#utility.yul\":8373:9128   */\n      swap8\n      swap7\n      pop\n      pop\n      pop\n      pop\n      pop\n      pop\n      pop\n      jump\t// out\n        /* \"#utility.yul\":9134:9382   */\n    tag_49:\n        /* \"#utility.yul\":9240:9244   */\n      0x00\n        /* \"#utility.yul\":9278:9280   */\n      0x20\n        /* \"#utility.yul\":9267:9276   */\n      dup3\n        /* \"#utility.yul\":9263:9281   */\n      add\n        /* \"#utility.yul\":9255:9281   */\n      swap1\n      pop\n        /* \"#utility.yul\":9291:9375   */\n      tag_269\n        /* \"#utility.yul\":9372:9373   */\n      0x00\n        /* \"#utility.yul\":9361:9370   */\n      dup4\n        /* \"#utility.yul\":9357:9374   */\n      add\n        /* \"#utility.yul\":9348:9354   */\n      dup5\n        /* \"#utility.yul\":9291:9375   */\n      tag_186\n      jump\t// in\n    tag_269:\n        /* \"#utility.yul\":9134:9382   */\n      swap3\n      swap2\n      pop\n      pop\n      jump\t// out\n        /* \"#utility.yul\":9388:9807   */\n    tag_126:\n        /* \"#utility.yul\":9554:9558   */\n      0x00\n        /* \"#utility.yul\":9592:9594   */\n      0x20\n        /* \"#utility.yul\":9581:9590   */\n      dup3\n        /* \"#utility.yul\":9577:9595   */\n      add\n        /* \"#utility.yul\":9569:9595   */\n      swap1\n      pop\n        /* \"#utility.yul\":9641:9650   */\n      dup2\n        /* \"#utility.yul\":9635:9639   */\n      dup2\n        /* \"#utility.yul\":9631:9651   */\n      sub\n        /* \"#utility.yul\":9627:9628   */\n      0x00\n        /* \"#utility.yul\":9616:9625   */\n      dup4\n        /* \"#utility.yul\":9612:9629   */\n      add\n        /* \"#utility.yul\":9605:9652   */\n      mstore\n        /* \"#utility.yul\":9669:9800   */\n      tag_271\n        /* \"#utility.yul\":9795:9799   */\n      dup2\n        /* \"#utility.yul\":9669:9800   */\n      tag_190\n      jump\t// in\n    tag_271:\n        /* \"#utility.yul\":9661:9800   */\n      swap1\n      pop\n        /* \"#utility.yul\":9388:9807   */\n      swap2\n      swap1\n      pop\n      jump\t// out\n        /* \"#utility.yul\":9813:10232   */\n    tag_56:\n        /* \"#utility.yul\":9979:9983   */\n      0x00\n        /* \"#utility.yul\":10017:10019   */\n      0x20\n        /* \"#utility.yul\":10006:10015   */\n      dup3\n        /* \"#utility.yul\":10002:10020   */\n      add\n        /* \"#utility.yul\":9994:10020   */\n      swap1\n      pop\n        /* \"#utility.yul\":10066:10075   */\n      dup2\n        /* \"#utility.yul\":10060:10064   */\n      dup2\n        /* \"#utility.yul\":10056:10076   */\n      sub\n        /* \"#utility.yul\":10052:10053   */\n      0x00\n        /* \"#utility.yul\":10041:10050   */\n      dup4\n        /* \"#utility.yul\":10037:10054   */\n      add\n        /* \"#utility.yul\":10030:10077   */\n      mstore\n        /* \"#utility.yul\":10094:10225   */\n      tag_273\n        /* \"#utility.yul\":10220:10224   */\n      dup2\n        /* \"#utility.yul\":10094:10225   */\n      tag_196\n      jump\t// in\n    tag_273:\n        /* \"#utility.yul\":10086:10225   */\n      swap1\n      pop\n        /* \"#utility.yul\":9813:10232   */\n      swap2\n      swap1\n      pop\n      jump\t// out\n        /* \"#utility.yul\":10238:10657   */\n    tag_78:\n        /* \"#utility.yul\":10404:10408   */\n      0x00\n        /* \"#utility.yul\":10442:10444   */\n      0x20\n        /* \"#utility.yul\":10431:10440   */\n      dup3\n        /* \"#utility.yul\":10427:10445   */\n      add\n        /* \"#utility.yul\":10419:10445   */\n      swap1\n      pop\n        /* \"#utility.yul\":10491:10500   */\n      dup2\n        /* \"#utility.yul\":10485:10489   */\n      dup2\n        /* \"#utility.yul\":10481:10501   */\n      sub\n        /* \"#utility.yul\":10477:10478   */\n      0x00\n        /* \"#utility.yul\":10466:10475   */\n      dup4\n        /* \"#utility.yul\":10462:10479   */\n      add\n        /* \"#utility.yul\":10455:10502   */\n      mstore\n        /* \"#utility.yul\":10519:10650   */\n      tag_275\n        /* \"#utility.yul\":10645:10649   */\n      dup2\n        /* \"#utility.yul\":10519:10650   */\n      tag_201\n      jump\t// in\n    tag_275:\n        /* \"#utility.yul\":10511:10650   */\n      swap1\n      pop\n        /* \"#utility.yul\":10238:10657   */\n      swap2\n      swap1\n      pop\n      jump\t// out\n        /* \"#utility.yul\":10663:11082   */\n    tag_116:\n        /* \"#utility.yul\":10829:10833   */\n      0x00\n        /* \"#utility.yul\":10867:10869   */\n      0x20\n        /* \"#utility.yul\":10856:10865   */\n      dup3\n        /* \"#utility.yul\":10852:10870   */\n      add\n        /* \"#utility.yul\":10844:10870   */\n      swap1\n      pop\n        /* \"#utility.yul\":10916:10925   */\n      dup2\n        /* \"#utility.yul\":10910:10914   */\n      dup2\n        /* \"#utility.yul\":10906:10926   */\n      sub\n        /* \"#utility.yul\":10902:10903   */\n      0x00\n        /* \"#utility.yul\":10891:10900   */\n      dup4\n        /* \"#utility.yul\":10887:10904   */\n      add\n        /* \"#utility.yul\":10880:10927   */\n      mstore\n        /* \"#utility.yul\":10944:11075   */\n      tag_277\n        /* \"#utility.yul\":11070:11074   */\n      dup2\n        /* \"#utility.yul\":10944:11075   */\n      tag_206\n      jump\t// in\n    tag_277:\n        /* \"#utility.yul\":10936:11075   */\n      swap1\n      pop\n        /* \"#utility.yul\":10663:11082   */\n      swap2\n      swap1\n      pop\n      jump\t// out\n        /* \"#utility.yul\":11088:11507   */\n    tag_111:\n        /* \"#utility.yul\":11254:11258   */\n      0x00\n        /* \"#utility.yul\":11292:11294   */\n      0x20\n        /* \"#utility.yul\":11281:11290   */\n      dup3\n        /* \"#utility.yul\":11277:11295   */\n      add\n        /* \"#utility.yul\":11269:11295   */\n      swap1\n      pop\n        /* \"#utility.yul\":11341:11350   */\n      dup2\n        /* \"#utility.yul\":11335:11339   */\n      dup2\n        /* \"#utility.yul\":11331:11351   */\n      sub\n        /* \"#utility.yul\":11327:11328   */\n      0x00\n        /* \"#utility.yul\":11316:11325   */\n      dup4\n        /* \"#utility.yul\":11312:11329   */\n      add\n        /* \"#utility.yul\":11305:11352   */\n      mstore\n        /* \"#utility.yul\":11369:11500   */\n      tag_279\n        /* \"#utility.yul\":11495:11499   */\n      dup2\n        /* \"#utility.yul\":11369:11500   */\n      tag_211\n      jump\t// in\n    tag_279:\n        /* \"#utility.yul\":11361:11500   */\n      swap1\n      pop\n        /* \"#utility.yul\":11088:11507   */\n      swap2\n      swap1\n      pop\n      jump\t// out\n        /* \"#utility.yul\":11513:11932   */\n    tag_71:\n        /* \"#utility.yul\":11679:11683   */\n      0x00\n        /* \"#utility.yul\":11717:11719   */\n      0x20\n        /* \"#utility.yul\":11706:11715   */\n      dup3\n        /* \"#utility.yul\":11702:11720   */\n      add\n        /* \"#utility.yul\":11694:11720   */\n      swap1\n      pop\n        /* \"#utility.yul\":11766:11775   */\n      dup2\n        /* \"#utility.yul\":11760:11764   */\n      dup2\n        /* \"#utility.yul\":11756:11776   */\n      sub\n        /* \"#utility.yul\":11752:11753   */\n      0x00\n        /* \"#utility.yul\":11741:11750   */\n      dup4\n        /* \"#utility.yul\":11737:11754   */\n      add\n        /* \"#utility.yul\":11730:11777   */\n      mstore\n        /* \"#utility.yul\":11794:11925   */\n      tag_281\n        /* \"#utility.yul\":11920:11924   */\n      dup2\n        /* \"#utility.yul\":11794:11925   */\n      tag_216\n      jump\t// in\n    tag_281:\n        /* \"#utility.yul\":11786:11925   */\n      swap1\n      pop\n        /* \"#utility.yul\":11513:11932   */\n      swap2\n      swap1\n      pop\n      jump\t// out\n        /* \"#utility.yul\":11938:12357   */\n    tag_108:\n        /* \"#utility.yul\":12104:12108   */\n      0x00\n        /* \"#utility.yul\":12142:12144   */\n      0x20\n        /* \"#utility.yul\":12131:12140   */\n      dup3\n        /* \"#utility.yul\":12127:12145   */\n      add\n        /* \"#utility.yul\":12119:12145   */\n      swap1\n      pop\n        /* \"#utility.yul\":12191:12200   */\n      dup2\n        /* \"#utility.yul\":12185:12189   */\n      dup2\n        /* \"#utility.yul\":12181:12201   */\n      sub\n        /* \"#utility.yul\":12177:12178   */\n      0x00\n        /* \"#utility.yul\":12166:12175   */\n      dup4\n        /* \"#utility.yul\":12162:12179   */\n      add\n        /* \"#utility.yul\":12155:12202   */\n      mstore\n        /* \"#utility.yul\":12219:12350   */\n      tag_283\n        /* \"#utility.yul\":12345:12349   */\n      dup2\n        /* \"#utility.yul\":12219:12350   */\n      tag_221\n      jump\t// in\n    tag_283:\n        /* \"#utility.yul\":12211:12350   */\n      swap1\n      pop\n        /* \"#utility.yul\":11938:12357   */\n      swap2\n      swap1\n      pop\n      jump\t// out\n        /* \"#utility.yul\":12363:12782   */\n    tag_123:\n        /* \"#utility.yul\":12529:12533   */\n      0x00\n        /* \"#utility.yul\":12567:12569   */\n      0x20\n        /* \"#utility.yul\":12556:12565   */\n      dup3\n        /* \"#utility.yul\":12552:12570   */\n      add\n        /* \"#utility.yul\":12544:12570   */\n      swap1\n      pop\n        /* \"#utility.yul\":12616:12625   */\n      dup2\n        /* \"#utility.yul\":12610:12614   */\n      dup2\n        /* \"#utility.yul\":12606:12626   */\n      sub\n        /* \"#utility.yul\":12602:12603   */\n      0x00\n        /* \"#utility.yul\":12591:12600   */\n      dup4\n        /* \"#utility.yul\":12587:12604   */\n      add\n        /* \"#utility.yul\":12580:12627   */\n      mstore\n        /* \"#utility.yul\":12644:12775   */\n      tag_285\n        /* \"#utility.yul\":12770:12774   */\n      dup2\n        /* \"#utility.yul\":12644:12775   */\n      tag_226\n      jump\t// in\n    tag_285:\n        /* \"#utility.yul\":12636:12775   */\n      swap1\n      pop\n        /* \"#utility.yul\":12363:12782   */\n      swap2\n      swap1\n      pop\n      jump\t// out\n        /* \"#utility.yul\":12788:13207   */\n    tag_90:\n        /* \"#utility.yul\":12954:12958   */\n      0x00\n        /* \"#utility.yul\":12992:12994   */\n      0x20\n        /* \"#utility.yul\":12981:12990   */\n      dup3\n        /* \"#utility.yul\":12977:12995   */\n      add\n        /* \"#utility.yul\":12969:12995   */\n      swap1\n      pop\n        /* \"#utility.yul\":13041:13050   */\n      dup2\n        /* \"#utility.yul\":13035:13039   */\n      dup2\n        /* \"#utility.yul\":13031:13051   */\n      sub\n        /* \"#utility.yul\":13027:13028   */\n      0x00\n        /* \"#utility.yul\":13016:13025   */\n      dup4\n        /* \"#utility.yul\":13012:13029   */\n      add\n        /* \"#utility.yul\":13005:13052   */\n      mstore\n        /* \"#utility.yul\":13069:13200   */\n      tag_287\n        /* \"#utility.yul\":13195:13199   */\n      dup2\n        /* \"#utility.yul\":13069:13200   */\n      tag_231\n      jump\t// in\n    tag_287:\n        /* \"#utility.yul\":13061:13200   */\n      swap1\n      pop\n        /* \"#utility.yul\":12788:13207   */\n      swap2\n      swap1\n      pop\n      jump\t// out\n        /* \"#utility.yul\":13213:13632   */\n    tag_59:\n        /* \"#utility.yul\":13379:13383   */\n      0x00\n        /* \"#utility.yul\":13417:13419   */\n      0x20\n        /* \"#utility.yul\":13406:13415   */\n      dup3\n        /* \"#utility.yul\":13402:13420   */\n      add\n        /* \"#utility.yul\":13394:13420   */\n      swap1\n      pop\n        /* \"#utility.yul\":13466:13475   */\n      dup2\n        /* \"#utility.yul\":13460:13464   */\n      dup2\n        /* \"#utility.yul\":13456:13476   */\n      sub\n        /* \"#utility.yul\":13452:13453   */\n      0x00\n        /* \"#utility.yul\":13441:13450   */\n      dup4\n        /* \"#utility.yul\":13437:13454   */\n      add\n        /* \"#utility.yul\":13430:13477   */\n      mstore\n        /* \"#utility.yul\":13494:13625   */\n      tag_289\n        /* \"#utility.yul\":13620:13624   */\n      dup2\n        /* \"#utility.yul\":13494:13625   */\n      tag_236\n      jump\t// in\n    tag_289:\n        /* \"#utility.yul\":13486:13625   */\n      swap1\n      pop\n        /* \"#utility.yul\":13213:13632   */\n      swap2\n      swap1\n      pop\n      jump\t// out\n        /* \"#utility.yul\":13638:14057   */\n    tag_95:\n        /* \"#utility.yul\":13804:13808   */\n      0x00\n        /* \"#utility.yul\":13842:13844   */\n      0x20\n        /* \"#utility.yul\":13831:13840   */\n      dup3\n        /* \"#utility.yul\":13827:13845   */\n      add\n        /* \"#utility.yul\":13819:13845   */\n      swap1\n      pop\n        /* \"#utility.yul\":13891:13900   */\n      dup2\n        /* \"#utility.yul\":13885:13889   */\n      dup2\n        /* \"#utility.yul\":13881:13901   */\n      sub\n        /* \"#utility.yul\":13877:13878   */\n      0x00\n        /* \"#utility.yul\":13866:13875   */\n      dup4\n        /* \"#utility.yul\":13862:13879   */\n      add\n        /* \"#utility.yul\":13855:13902   */\n      mstore\n        /* \"#utility.yul\":13919:14050   */\n      tag_291\n        /* \"#utility.yul\":14045:14049   */\n      dup2\n        /* \"#utility.yul\":13919:14050   */\n      tag_241\n      jump\t// in\n    tag_291:\n        /* \"#utility.yul\":13911:14050   */\n      swap1\n      pop\n        /* \"#utility.yul\":13638:14057   */\n      swap2\n      swap1\n      pop\n      jump\t// out\n        /* \"#utility.yul\":14063:14285   */\n    tag_17:\n        /* \"#utility.yul\":14156:14160   */\n      0x00\n        /* \"#utility.yul\":14194:14196   */\n      0x20\n        /* \"#utility.yul\":14183:14192   */\n      dup3\n        /* \"#utility.yul\":14179:14197   */\n      add\n        /* \"#utility.yul\":14171:14197   */\n      swap1\n      pop\n        /* \"#utility.yul\":14207:14278   */\n      tag_293\n        /* \"#utility.yul\":14275:14276   */\n      0x00\n        /* \"#utility.yul\":14264:14273   */\n      dup4\n        /* \"#utility.yul\":14260:14277   */\n      add\n        /* \"#utility.yul\":14251:14257   */\n      dup5\n        /* \"#utility.yul\":14207:14278   */\n      tag_246\n      jump\t// in\n    tag_293:\n        /* \"#utility.yul\":14063:14285   */\n      swap3\n      swap2\n      pop\n      pop\n      jump\t// out\n        /* \"#utility.yul\":14291:14836   */\n    tag_119:\n        /* \"#utility.yul\":14464:14468   */\n      0x00\n        /* \"#utility.yul\":14502:14505   */\n      0x80\n        /* \"#utility.yul\":14491:14500   */\n      dup3\n        /* \"#utility.yul\":14487:14506   */\n      add\n        /* \"#utility.yul\":14479:14506   */\n      swap1\n      pop\n        /* \"#utility.yul\":14516:14587   */\n      tag_295\n        /* \"#utility.yul\":14584:14585   */\n      0x00\n        /* \"#utility.yul\":14573:14582   */\n      dup4\n        /* \"#utility.yul\":14569:14586   */\n      add\n        /* \"#utility.yul\":14560:14566   */\n      dup8\n        /* \"#utility.yul\":14516:14587   */\n      tag_246\n      jump\t// in\n    tag_295:\n        /* \"#utility.yul\":14597:14669   */\n      tag_296\n        /* \"#utility.yul\":14665:14667   */\n      0x20\n        /* \"#utility.yul\":14654:14663   */\n      dup4\n        /* \"#utility.yul\":14650:14668   */\n      add\n        /* \"#utility.yul\":14641:14647   */\n      dup7\n        /* \"#utility.yul\":14597:14669   */\n      tag_246\n      jump\t// in\n    tag_296:\n        /* \"#utility.yul\":14679:14749   */\n      tag_297\n        /* \"#utility.yul\":14745:14747   */\n      0x40\n        /* \"#utility.yul\":14734:14743   */\n      dup4\n        /* \"#utility.yul\":14730:14748   */\n      add\n        /* \"#utility.yul\":14721:14727   */\n      dup6\n        /* \"#utility.yul\":14679:14749   */\n      tag_250\n      jump\t// in\n    tag_297:\n        /* \"#utility.yul\":14759:14829   */\n      tag_298\n        /* \"#utility.yul\":14825:14827   */\n      0x60\n        /* \"#utility.yul\":14814:14823   */\n      dup4\n        /* \"#utility.yul\":14810:14828   */\n      add\n        /* \"#utility.yul\":14801:14807   */\n      dup5\n        /* \"#utility.yul\":14759:14829   */\n      tag_250\n      jump\t// in\n    tag_298:\n        /* \"#utility.yul\":14291:14836   */\n      swap6\n      swap5\n      pop\n      pop\n      pop\n      pop\n      pop\n      jump\t// out\n        /* \"#utility.yul\":14923:15092   */\n    tag_193:\n        /* \"#utility.yul\":15007:15018   */\n      0x00\n        /* \"#utility.yul\":15041:15047   */\n      dup3\n        /* \"#utility.yul\":15036:15039   */\n      dup3\n        /* \"#utility.yul\":15029:15048   */\n      mstore\n        /* \"#utility.yul\":15081:15085   */\n      0x20\n        /* \"#utility.yul\":15076:15079   */\n      dup3\n        /* \"#utility.yul\":15072:15086   */\n      add\n        /* \"#utility.yul\":15057:15086   */\n      swap1\n      pop\n        /* \"#utility.yul\":14923:15092   */\n      swap3\n      swap2\n      pop\n      pop\n      jump\t// out\n        /* \"#utility.yul\":15098:15403   */\n    tag_113:\n        /* \"#utility.yul\":15138:15141   */\n      0x00\n        /* \"#utility.yul\":15157:15177   */\n      tag_303\n        /* \"#utility.yul\":15175:15176   */\n      dup3\n        /* \"#utility.yul\":15157:15177   */\n      tag_249\n      jump\t// in\n    tag_303:\n        /* \"#utility.yul\":15152:15177   */\n      swap2\n      pop\n        /* \"#utility.yul\":15191:15211   */\n      tag_304\n        /* \"#utility.yul\":15209:15210   */\n      dup4\n        /* \"#utility.yul\":15191:15211   */\n      tag_249\n      jump\t// in\n    tag_304:\n        /* \"#utility.yul\":15186:15211   */\n      swap3\n      pop\n        /* \"#utility.yul\":15345:15346   */\n      dup3\n        /* \"#utility.yul\":15277:15343   */\n      0xffffffffffffffffffffffffffffffffffffffffffffffffffffffffffffffff\n        /* \"#utility.yul\":15273:15347   */\n      sub\n        /* \"#utility.yul\":15270:15271   */\n      dup3\n        /* \"#utility.yul\":15267:15348   */\n      gt\n        /* \"#utility.yul\":15264:15371   */\n      iszero\n      tag_305\n      jumpi\n        /* \"#utility.yul\":15351:15369   */\n      tag_306\n      tag_307\n      jump\t// in\n    tag_306:\n        /* \"#utility.yul\":15264:15371   */\n    tag_305:\n        /* \"#utility.yul\":15395:15396   */\n      dup3\n        /* \"#utility.yul\":15392:15393   */\n      dup3\n        /* \"#utility.yul\":15388:15397   */\n      add\n        /* \"#utility.yul\":15381:15397   */\n      swap1\n      pop\n        /* \"#utility.yul\":15098:15403   */\n      swap3\n      swap2\n      pop\n      pop\n      jump\t// out\n        /* \"#utility.yul\":15409:15600   */\n    tag_97:\n        /* \"#utility.yul\":15449:15453   */\n      0x00\n        /* \"#utility.yul\":15469:15489   */\n      tag_309\n        /* \"#utility.yul\":15487:15488   */\n      dup3\n        /* \"#utility.yul\":15469:15489   */\n      tag_249\n      jump\t// in\n    tag_309:\n        /* \"#utility.yul\":15464:15489   */\n      swap2\n      pop\n        /* \"#utility.yul\":15503:15523   */\n      tag_310\n        /* \"#utility.yul\":15521:15522   */\n      dup4\n        /* \"#utility.yul\":15503:15523   */\n      tag_249\n      jump\t// in\n    tag_310:\n        /* \"#utility.yul\":15498:15523   */\n      swap3\n      pop\n        /* \"#utility.yul\":15542:15543   */\n      dup3\n        /* \"#utility.yul\":15539:15540   */\n      dup3\n        /* \"#utility.yul\":15536:15544   */\n      lt\n        /* \"#utility.yul\":15533:15567   */\n      iszero\n      tag_311\n      jumpi\n        /* \"#utility.yul\":15547:15565   */\n      tag_312\n      tag_307\n      jump\t// in\n    tag_312:\n        /* \"#utility.yul\":15533:15567   */\n    tag_311:\n        /* \"#utility.yul\":15592:15593   */\n      dup3\n        /* \"#utility.yul\":15589:15590   */\n      dup3\n        /* \"#utility.yul\":15585:15594   */\n      sub\n        /* \"#utility.yul\":15577:15594   */\n      swap1\n      pop\n        /* \"#utility.yul\":15409:15600   */\n      swap3\n      swap2\n      pop\n      pop\n      jump\t// out\n        /* \"#utility.yul\":15606:15702   */\n    tag_181:\n        /* \"#utility.yul\":15643:15650   */\n      0x00\n        /* \"#utility.yul\":15672:15696   */\n      tag_314\n        /* \"#utility.yul\":15690:15695   */\n      dup3\n        /* \"#utility.yul\":15672:15696   */\n      tag_315\n      jump\t// in\n    tag_314:\n        /* \"#utility.yul\":15661:15696   */\n      swap1\n      pop\n        /* \"#utility.yul\":15606:15702   */\n      swap2\n      swap1\n      pop\n      jump\t// out\n        /* \"#utility.yul\":15708:15798   */\n    tag_185:\n        /* \"#utility.yul\":15742:15749   */\n      0x00\n        /* \"#utility.yul\":15785:15790   */\n      dup2\n        /* \"#utility.yul\":15778:15791   */\n      iszero\n        /* \"#utility.yul\":15771:15792   */\n      iszero\n        /* \"#utility.yul\":15760:15792   */\n      swap1\n      pop\n        /* \"#utility.yul\":15708:15798   */\n      swap2\n      swap1\n      pop\n      jump\t// out\n        /* \"#utility.yul\":15804:15930   */\n    tag_315:\n        /* \"#utility.yul\":15841:15848   */\n      0x00\n        /* \"#utility.yul\":15881:15923   */\n      0xffffffffffffffffffffffffffffffffffffffff\n        /* \"#utility.yul\":15874:15879   */\n      dup3\n        /* \"#utility.yul\":15870:15924   */\n      and\n        /* \"#utility.yul\":15859:15924   */\n      swap1\n      pop\n        /* \"#utility.yul\":15804:15930   */\n      swap2\n      swap1\n      pop\n      jump\t// out\n        /* \"#utility.yul\":15936:16013   */\n    tag_249:\n        /* \"#utility.yul\":15973:15980   */\n      0x00\n        /* \"#utility.yul\":16002:16007   */\n      dup2\n        /* \"#utility.yul\":15991:16007   */\n      swap1\n      pop\n        /* \"#utility.yul\":15936:16013   */\n      swap2\n      swap1\n      pop\n      jump\t// out\n        /* \"#utility.yul\":16019:16112   */\n    tag_253:\n        /* \"#utility.yul\":16055:16062   */\n      0x00\n        /* \"#utility.yul\":16095:16105   */\n      0xffffffff\n        /* \"#utility.yul\":16088:16093   */\n      dup3\n        /* \"#utility.yul\":16084:16106   */\n      and\n        /* \"#utility.yul\":16073:16106   */\n      swap1\n      pop\n        /* \"#utility.yul\":16019:16112   */\n      swap2\n      swap1\n      pop\n      jump\t// out\n        /* \"#utility.yul\":16118:16257   */\n    tag_189:\n        /* \"#utility.yul\":16181:16190   */\n      0x00\n        /* \"#utility.yul\":16214:16251   */\n      tag_321\n        /* \"#utility.yul\":16245:16250   */\n      dup3\n        /* \"#utility.yul\":16214:16251   */\n      tag_322\n      jump\t// in\n    tag_321:\n        /* \"#utility.yul\":16201:16251   */\n      swap1\n      pop\n        /* \"#utility.yul\":16118:16257   */\n      swap2\n      swap1\n      pop\n      jump\t// out\n        /* \"#utility.yul\":16263:16389   */\n    tag_322:\n        /* \"#utility.yul\":16313:16322   */\n      0x00\n        /* \"#utility.yul\":16346:16383   */\n      tag_324\n        /* \"#utility.yul\":16377:16382   */\n      dup3\n        /* \"#utility.yul\":16346:16383   */\n      tag_325\n      jump\t// in\n    tag_324:\n        /* \"#utility.yul\":16333:16383   */\n      swap1\n      pop\n        /* \"#utility.yul\":16263:16389   */\n      swap2\n      swap1\n      pop\n      jump\t// out\n        /* \"#utility.yul\":16395:16508   */\n    tag_325:\n        /* \"#utility.yul\":16445:16454   */\n      0x00\n        /* \"#utility.yul\":16478:16502   */\n      tag_327\n        /* \"#utility.yul\":16496:16501   */\n      dup3\n        /* \"#utility.yul\":16478:16502   */\n      tag_315\n      jump\t// in\n    tag_327:\n        /* \"#utility.yul\":16465:16502   */\n      swap1\n      pop\n        /* \"#utility.yul\":16395:16508   */\n      swap2\n      swap1\n      pop\n      jump\t// out\n        /* \"#utility.yul\":16514:16694   */\n    tag_307:\n        /* \"#utility.yul\":16562:16639   */\n      0x4e487b7100000000000000000000000000000000000000000000000000000000\n        /* \"#utility.yul\":16559:16560   */\n      0x00\n        /* \"#utility.yul\":16552:16640   */\n      mstore\n        /* \"#utility.yul\":16659:16663   */\n      0x11\n        /* \"#utility.yul\":16656:16657   */\n      0x04\n        /* \"#utility.yul\":16649:16664   */\n      mstore\n        /* \"#utility.yul\":16683:16687   */\n      0x24\n        /* \"#utility.yul\":16680:16681   */\n      0x00\n        /* \"#utility.yul\":16673:16688   */\n      revert\n        /* \"#utility.yul\":16823:16940   */\n    tag_156:\n        /* \"#utility.yul\":16932:16933   */\n      0x00\n        /* \"#utility.yul\":16929:16930   */\n      dup1\n        /* \"#utility.yul\":16922:16934   */\n      revert\n        /* \"#utility.yul\":16946:17110   */\n    tag_195:\n        /* \"#utility.yul\":17086:17102   */\n      0x63616d706169676e20656e646564000000000000000000000000000000000000\n        /* \"#utility.yul\":17082:17083   */\n      0x00\n        /* \"#utility.yul\":17074:17080   */\n      dup3\n        /* \"#utility.yul\":17070:17084   */\n      add\n        /* \"#utility.yul\":17063:17103   */\n      mstore\n        /* \"#utility.yul\":16946:17110   */\n      pop\n      jump\t// out\n        /* \"#utility.yul\":17116:17279   */\n    tag_200:\n        /* \"#utility.yul\":17256:17271   */\n      0x6e6f7420656e6465642079657400000000000000000000000000000000000000\n        /* \"#utility.yul\":17252:17253   */\n      0x00\n        /* \"#utility.yul\":17244:17250   */\n      dup3\n        /* \"#utility.yul\":17240:17254   */\n      add\n        /* \"#utility.yul\":17233:17272   */\n      mstore\n        /* \"#utility.yul\":17116:17279   */\n      pop\n      jump\t// out\n        /* \"#utility.yul\":17285:17450   */\n    tag_205:\n        /* \"#utility.yul\":17425:17442   */\n      0x616c726561647920636c61696d65640000000000000000000000000000000000\n        /* \"#utility.yul\":17421:17422   */\n      0x00\n        /* \"#utility.yul\":17413:17419   */\n      dup3\n        /* \"#utility.yul\":17409:17423   */\n      add\n        /* \"#utility.yul\":17402:17443   */\n      mstore\n        /* \"#utility.yul\":17285:17450   */\n      pop\n      jump\t// out\n        /* \"#utility.yul\":17456:17627   */\n    tag_210:\n        /* \"#utility.yul\":17596:17619   */\n      0x656e64206174203e206d6178206475726174696f6e0000000000000000000000\n        /* \"#utility.yul\":17592:17593   */\n      0x00\n        /* \"#utility.yul\":17584:17590   */\n      dup3\n        /* \"#utility.yul\":17580:17594   */\n      add\n        /* \"#utility.yul\":17573:17620   */\n      mstore\n        /* \"#utility.yul\":17456:17627   */\n      pop\n      jump\t// out\n        /* \"#utility.yul\":17633:17800   */\n    tag_215:\n        /* \"#utility.yul\":17773:17792   */\n      0x656e64206174203c207374617274206174000000000000000000000000000000\n        /* \"#utility.yul\":17769:17770   */\n      0x00\n        /* \"#utility.yul\":17761:17767   */\n      dup3\n        /* \"#utility.yul\":17757:17771   */\n      add\n        /* \"#utility.yul\":17750:17793   */\n      mstore\n        /* \"#utility.yul\":17633:17800   */\n      pop\n      jump\t// out\n        /* \"#utility.yul\":17806:17967   */\n    tag_220:\n        /* \"#utility.yul\":17946:17959   */\n      0x6e6f742063726561746f72000000000000000000000000000000000000000000\n        /* \"#utility.yul\":17942:17943   */\n      0x00\n        /* \"#utility.yul\":17934:17940   */\n      dup3\n        /* \"#utility.yul\":17930:17944   */\n      add\n        /* \"#utility.yul\":17923:17960   */\n      mstore\n        /* \"#utility.yul\":17806:17967   */\n      pop\n      jump\t// out\n        /* \"#utility.yul\":17973:18137   */\n    tag_225:\n        /* \"#utility.yul\":18113:18129   */\n      0x7374617274206174203c206e6f77000000000000000000000000000000000000\n        /* \"#utility.yul\":18109:18110   */\n      0x00\n        /* \"#utility.yul\":18101:18107   */\n      dup3\n        /* \"#utility.yul\":18097:18111   */\n      add\n        /* \"#utility.yul\":18090:18130   */\n      mstore\n        /* \"#utility.yul\":17973:18137   */\n      pop\n      jump\t// out\n        /* \"#utility.yul\":18143:18308   */\n    tag_230:\n        /* \"#utility.yul\":18283:18300   */\n      0x6e6f742073746172746564207965740000000000000000000000000000000000\n        /* \"#utility.yul\":18279:18280   */\n      0x00\n        /* \"#utility.yul\":18271:18277   */\n      dup3\n        /* \"#utility.yul\":18267:18281   */\n      add\n        /* \"#utility.yul\":18260:18301   */\n      mstore\n        /* \"#utility.yul\":18143:18308   */\n      pop\n      jump\t// out\n        /* \"#utility.yul\":18314:18471   */\n    tag_235:\n        /* \"#utility.yul\":18454:18463   */\n      0x7374617274656400000000000000000000000000000000000000000000000000\n        /* \"#utility.yul\":18450:18451   */\n      0x00\n        /* \"#utility.yul\":18442:18448   */\n      dup3\n        /* \"#utility.yul\":18438:18452   */\n      add\n        /* \"#utility.yul\":18431:18464   */\n      mstore\n        /* \"#utility.yul\":18314:18471   */\n      pop\n      jump\t// out\n        /* \"#utility.yul\":18477:18641   */\n    tag_240:\n        /* \"#utility.yul\":18617:18633   */\n      0x706c6164676564203c20676f616c000000000000000000000000000000000000\n        /* \"#utility.yul\":18613:18614   */\n      0x00\n        /* \"#utility.yul\":18605:18611   */\n      dup3\n        /* \"#utility.yul\":18601:18615   */\n      add\n        /* \"#utility.yul\":18594:18634   */\n      mstore\n        /* \"#utility.yul\":18477:18641   */\n      pop\n      jump\t// out\n        /* \"#utility.yul\":18647:18802   */\n    tag_245:\n        /* \"#utility.yul\":18787:18794   */\n      0x656e646564000000000000000000000000000000000000000000000000000000\n        /* \"#utility.yul\":18783:18784   */\n      0x00\n        /* \"#utility.yul\":18775:18781   */\n      dup3\n        /* \"#utility.yul\":18771:18785   */\n      add\n        /* \"#utility.yul\":18764:18795   */\n      mstore\n        /* \"#utility.yul\":18647:18802   */\n      pop\n      jump\t// out\n        /* \"#utility.yul\":18808:18930   */\n    tag_140:\n        /* \"#utility.yul\":18881:18905   */\n      tag_344\n        /* \"#utility.yul\":18899:18904   */\n      dup2\n        /* \"#utility.yul\":18881:18905   */\n      tag_181\n      jump\t// in\n    tag_344:\n        /* \"#utility.yul\":18874:18879   */\n      dup2\n        /* \"#utility.yul\":18871:18906   */\n      eq\n        /* \"#utility.yul\":18861:18924   */\n      tag_345\n      jumpi\n        /* \"#utility.yul\":18920:18921   */\n      0x00\n        /* \"#utility.yul\":18917:18918   */\n      dup1\n        /* \"#utility.yul\":18910:18922   */\n      revert\n        /* \"#utility.yul\":18861:18924   */\n    tag_345:\n        /* \"#utility.yul\":18808:18930   */\n      pop\n      jump\t// out\n        /* \"#utility.yul\":18936:19052   */\n    tag_144:\n        /* \"#utility.yul\":19006:19027   */\n      tag_347\n        /* \"#utility.yul\":19021:19026   */\n      dup2\n        /* \"#utility.yul\":19006:19027   */\n      tag_185\n      jump\t// in\n    tag_347:\n        /* \"#utility.yul\":18999:19004   */\n      dup2\n        /* \"#utility.yul\":18996:19028   */\n      eq\n        /* \"#utility.yul\":18986:19046   */\n      tag_348\n      jumpi\n        /* \"#utility.yul\":19042:19043   */\n      0x00\n        /* \"#utility.yul\":19039:19040   */\n      dup1\n        /* \"#utility.yul\":19032:19044   */\n      revert\n        /* \"#utility.yul\":18986:19046   */\n    tag_348:\n        /* \"#utility.yul\":18936:19052   */\n      pop\n      jump\t// out\n        /* \"#utility.yul\":19058:19180   */\n    tag_148:\n        /* \"#utility.yul\":19131:19155   */\n      tag_350\n        /* \"#utility.yul\":19149:19154   */\n      dup2\n        /* \"#utility.yul\":19131:19155   */\n      tag_249\n      jump\t// in\n    tag_350:\n        /* \"#utility.yul\":19124:19129   */\n      dup2\n        /* \"#utility.yul\":19121:19156   */\n      eq\n        /* \"#utility.yul\":19111:19174   */\n      tag_351\n      jumpi\n        /* \"#utility.yul\":19170:19171   */\n      0x00\n        /* \"#utility.yul\":19167:19168   */\n      dup1\n        /* \"#utility.yul\":19160:19172   */\n      revert\n        /* \"#utility.yul\":19111:19174   */\n    tag_351:\n        /* \"#utility.yul\":19058:19180   */\n      pop\n      jump\t// out\n        /* \"#utility.yul\":19186:19306   */\n    tag_152:\n        /* \"#utility.yul\":19258:19281   */\n      tag_353\n        /* \"#utility.yul\":19275:19280   */\n      dup2\n        /* \"#utility.yul\":19258:19281   */\n      tag_253\n      jump\t// in\n    tag_353:\n        /* \"#utility.yul\":19251:19256   */\n      dup2\n        /* \"#utility.yul\":19248:19282   */\n      eq\n        /* \"#utility.yul\":19238:19300   */\n      tag_354\n      jumpi\n        /* \"#utility.yul\":19296:19297   */\n      0x00\n        /* \"#utility.yul\":19293:19294   */\n      dup1\n        /* \"#utility.yul\":19286:19298   */\n      revert\n        /* \"#utility.yul\":19238:19300   */\n    tag_354:\n        /* \"#utility.yul\":19186:19306   */\n      pop\n      jump\t// out\n\n    auxdata: 0xa2646970667358221220555fca83ff2700354f2ad14cf2e80aab38ac9f7f52e27c67c1810692369e9f6164736f6c63430008070033\n}\n",
				"bytecode": {
					"linkReferences": {},
					"object": "60a06040523480156200001157600080fd5b5060405162001c2138038062001c2183398181016040528101906200003791906200008c565b8073ffffffffffffffffffffffffffffffffffffffff1660808173ffffffffffffffffffffffffffffffffffffffff1660601b815250505062000111565b6000815190506200008681620000f7565b92915050565b600060208284031215620000a557620000a4620000f2565b5b6000620000b58482850162000075565b91505092915050565b6000620000cb82620000d2565b9050919050565b600073ffffffffffffffffffffffffffffffffffffffff82169050919050565b600080fd5b6200010281620000be565b81146200010e57600080fd5b50565b60805160601c611ad56200014c600039600081816103e5015281816106a601528181610b0401528181610ec101526110380152611ad56000f3fe608060405234801561001057600080fd5b506004361061009e5760003560e01c8063711853ab11610066578063711853ab1461014a578063aa4fb63a14610166578063daf6994014610196578063fc0c546a146101b2578063fde327be146101d05761009e565b806306661abd146100a3578063141961bc146100c1578063278ecde1146100f6578063379607f51461011257806340e58ee51461012e575b600080fd5b6100ab6101ec565b6040516100b891906116c3565b60405180910390f35b6100db60048036038101906100d691906111bb565b6101f2565b6040516100ed969594939291906114e7565b60405180910390f35b610110600480360381019061010b91906111bb565b61027b565b005b61012c600480360381019061012791906111bb565b6104e5565b005b610148600480360381019061014391906111bb565b610791565b005b610164600480360381019061015f9190611228565b610a0c565b005b610180600480360381019061017b91906111e8565b610c04565b60405161018d91906116c3565b60405180910390f35b6101b060048036038101906101ab9190611268565b610c29565b005b6101ba610ebf565b6040516101c79190611548565b60405180910390f35b6101ea60048036038101906101e59190611228565b610ee3565b005b60005481565b60016020528060005260406000206000915090508060000160009054906101000a900473ffffffffffffffffffffffffffffffffffffffff16908060010154908060020154908060030160009054906101000a900463ffffffff16908060030160049054906101000a900463ffffffff16908060030160089054906101000a900460ff16905086565b60006001600083815260200190815260200160002090508060030160049054906101000a900463ffffffff1663ffffffff1642116102ee576040517f08c379a00000000000000000000000000000000000000000000000000000000081526004016102e590611583565b60405180910390fd5b8060010154816002015410610338576040517f08c379a000000000000000000000000000000000000000000000000000000000815260040161032f90611683565b60405180910390fd5b60006002600084815260200190815260200160002060003373ffffffffffffffffffffffffffffffffffffffff1673ffffffffffffffffffffffffffffffffffffffff16815260200190815260200160002054905060006002600085815260200190815260200160002060003373ffffffffffffffffffffffffffffffffffffffff1673ffffffffffffffffffffffffffffffffffffffff168152602001908152602001600020819055507f000000000000000000000000000000000000000000000000000000000000000073ffffffffffffffffffffffffffffffffffffffff1663a9059cbb33836040518363ffffffff1660e01b815260040161043e9291906114be565b602060405180830381600087803b15801561045857600080fd5b505af115801561046c573d6000803e3d6000fd5b505050506040513d601f19601f82011682018060405250810190610490919061118e565b503373ffffffffffffffffffffffffffffffffffffffff16837f21e12a7cad0da5928167e1084ea4d5fdf8d9af66657a2543a9ac76a0ca081477836040516104d891906116c3565b60405180910390a3505050565b60006001600083815260200190815260200160002090508060000160009054906101000a900473ffffffffffffffffffffffffffffffffffffffff1673ffffffffffffffffffffffffffffffffffffffff163373ffffffffffffffffffffffffffffffffffffffff161461058e576040517f08c379a000000000000000000000000000000000000000000000000000000000815260040161058590611603565b60405180910390fd5b8060030160049054906101000a900463ffffffff1663ffffffff1642116105ea576040517f08c379a00000000000000000000000000000000000000000000000000000000081526004016105e190611583565b60405180910390fd5b806001015481600201541015610635576040517f08c379a000000000000000000000000000000000000000000000000000000000815260040161062c90611683565b60405180910390fd5b8060030160089054906101000a900460ff1615610687576040517f08c379a000000000000000000000000000000000000000000000000000000000815260040161067e906115a3565b60405180910390fd5b60018160030160086101000a81548160ff0219169083151502179055507f000000000000000000000000000000000000000000000000000000000000000073ffffffffffffffffffffffffffffffffffffffff1663a9059cbb3383600201546040518363ffffffff1660e01b81526004016107039291906114be565b602060405180830381600087803b15801561071d57600080fd5b505af1158015610731573d6000803e3d6000fd5b505050506040513d601f19601f82011682018060405250810190610755919061118e565b507f7bb2b3c10797baccb6f8c4791f1edd6ca2f0d028ee0eda64b01a9a57e3a653f78260405161078591906116c3565b60405180910390a15050565b6000600160008381526020019081526020016000206040518060c00160405290816000820160009054906101000a900473ffffffffffffffffffffffffffffffffffffffff1673ffffffffffffffffffffffffffffffffffffffff1673ffffffffffffffffffffffffffffffffffffffff16815260200160018201548152602001600282015481526020016003820160009054906101000a900463ffffffff1663ffffffff1663ffffffff1681526020016003820160049054906101000a900463ffffffff1663ffffffff1663ffffffff1681526020016003820160089054906101000a900460ff1615151515815250509050806000015173ffffffffffffffffffffffffffffffffffffffff163373ffffffffffffffffffffffffffffffffffffffff16146108f6576040517f08c379a00000000000000000000000000000000000000000000000000000000081526004016108ed90611603565b60405180910390fd5b806060015163ffffffff164210610942576040517f08c379a000000000000000000000000000000000000000000000000000000000815260040161093990611663565b60405180910390fd5b60016000838152602001908152602001600020600080820160006101000a81549073ffffffffffffffffffffffffffffffffffffffff0219169055600182016000905560028201600090556003820160006101000a81549063ffffffff02191690556003820160046101000a81549063ffffffff02191690556003820160086101000a81549060ff021916905550507f8bf30e7ff26833413be5f69e1d373744864d600b664204b4a2f9844a8eedb9ed82604051610a0091906116c3565b60405180910390a15050565b60006001600084815260200190815260200160002090508060030160049054906101000a900463ffffffff1663ffffffff16421115610a80576040517f08c379a0000000000000000000000000000000000000000000000000000000008152600401610a77906116a3565b60405180910390fd5b81816002016000828254610a94919061178a565b92505081905550816002600085815260200190815260200160002060003373ffffffffffffffffffffffffffffffffffffffff1673ffffffffffffffffffffffffffffffffffffffff1681526020019081526020016000206000828254610afb919061178a565b925050819055507f000000000000000000000000000000000000000000000000000000000000000073ffffffffffffffffffffffffffffffffffffffff1663a9059cbb33846040518363ffffffff1660e01b8152600401610b5d9291906114be565b602060405180830381600087803b158015610b7757600080fd5b505af1158015610b8b573d6000803e3d6000fd5b505050506040513d601f19601f82011682018060405250810190610baf919061118e565b503373ffffffffffffffffffffffffffffffffffffffff16837f2eeeab891b26a214d1b25749f88a406bdea852bd8c9bfda977e0ef8114c180ba84604051610bf791906116c3565b60405180910390a3505050565b6002602052816000526040600020602052806000526040600020600091509150505481565b428263ffffffff161015610c72576040517f08c379a0000000000000000000000000000000000000000000000000000000008152600401610c6990611623565b60405180910390fd5b8163ffffffff168163ffffffff161015610cc1576040517f08c379a0000000000000000000000000000000000000000000000000000000008152600401610cb8906115e3565b60405180910390fd5b6276a70042610cd09190611734565b8163ffffffff161115610d18576040517f08c379a0000000000000000000000000000000000000000000000000000000008152600401610d0f906115c3565b60405180910390fd5b6001600080828254610d2a9190611734565b925050819055506040518060c001604052803373ffffffffffffffffffffffffffffffffffffffff168152602001848152602001600081526020018363ffffffff1681526020018263ffffffff16815260200160001515815250600160008054815260200190815260200160002060008201518160000160006101000a81548173ffffffffffffffffffffffffffffffffffffffff021916908373ffffffffffffffffffffffffffffffffffffffff160217905550602082015181600101556040820151816002015560608201518160030160006101000a81548163ffffffff021916908363ffffffff16021790555060808201518160030160046101000a81548163ffffffff021916908363ffffffff16021790555060a08201518160030160086101000a81548160ff0219169083151502179055509050503373ffffffffffffffffffffffffffffffffffffffff167f0601cd0d650b473037e838a2696d41e654433d065b3f56b28d1d3302e44a304f600054858585604051610eb294939291906116de565b60405180910390a2505050565b7f000000000000000000000000000000000000000000000000000000000000000081565b60006001600084815260200190815260200160002090508060030160009054906101000a900463ffffffff1663ffffffff16421015610f57576040517f08c379a0000000000000000000000000000000000000000000000000000000008152600401610f4e90611643565b60405180910390fd5b8060030160049054906101000a900463ffffffff1663ffffffff16421115610fb4576040517f08c379a0000000000000000000000000000000000000000000000000000000008152600401610fab90611563565b60405180910390fd5b81816002016000828254610fc89190611734565b92505081905550816002600085815260200190815260200160002060003373ffffffffffffffffffffffffffffffffffffffff1673ffffffffffffffffffffffffffffffffffffffff168152602001908152602001600020600082825461102f9190611734565b925050819055507f000000000000000000000000000000000000000000000000000000000000000073ffffffffffffffffffffffffffffffffffffffff166323b872dd3330856040518463ffffffff1660e01b815260040161109393929190611487565b602060405180830381600087803b1580156110ad57600080fd5b505af11580156110c1573d6000803e3d6000fd5b505050506040513d601f19601f820116820180604052508101906110e5919061118e565b503373ffffffffffffffffffffffffffffffffffffffff16837f06bdb975df800a73232998e71ed585d536222f1dfeaa622d7f62a23ada686c828460405161112d91906116c3565b60405180910390a3505050565b60008135905061114981611a43565b92915050565b60008151905061115e81611a5a565b92915050565b60008135905061117381611a71565b92915050565b60008135905061118881611a88565b92915050565b6000602082840312156111a4576111a361187b565b5b60006111b28482850161114f565b91505092915050565b6000602082840312156111d1576111d061187b565b5b60006111df84828501611164565b91505092915050565b600080604083850312156111ff576111fe61187b565b5b600061120d85828601611164565b925050602061121e8582860161113a565b9150509250929050565b6000806040838503121561123f5761123e61187b565b5b600061124d85828601611164565b925050602061125e85828601611164565b9150509250929050565b6000806000606084860312156112815761128061187b565b5b600061128f86828701611164565b93505060206112a086828701611179565b92505060406112b186828701611179565b9150509250925092565b6112c4816117be565b82525050565b6112d3816117d0565b82525050565b6112e281611816565b82525050565b60006112f5600e83611723565b915061130082611880565b602082019050919050565b6000611318600d83611723565b9150611323826118a9565b602082019050919050565b600061133b600f83611723565b9150611346826118d2565b602082019050919050565b600061135e601583611723565b9150611369826118fb565b602082019050919050565b6000611381601183611723565b915061138c82611924565b602082019050919050565b60006113a4600b83611723565b91506113af8261194d565b602082019050919050565b60006113c7600e83611723565b91506113d282611976565b602082019050919050565b60006113ea600f83611723565b91506113f58261199f565b602082019050919050565b600061140d600783611723565b9150611418826119c8565b602082019050919050565b6000611430600e83611723565b915061143b826119f1565b602082019050919050565b6000611453600583611723565b915061145e82611a1a565b602082019050919050565b611472816117fc565b82525050565b61148181611806565b82525050565b600060608201905061149c60008301866112bb565b6114a960208301856112bb565b6114b66040830184611469565b949350505050565b60006040820190506114d360008301856112bb565b6114e06020830184611469565b9392505050565b600060c0820190506114fc60008301896112bb565b6115096020830188611469565b6115166040830187611469565b6115236060830186611478565b6115306080830185611478565b61153d60a08301846112ca565b979650505050505050565b600060208201905061155d60008301846112d9565b92915050565b6000602082019050818103600083015261157c816112e8565b9050919050565b6000602082019050818103600083015261159c8161130b565b9050919050565b600060208201905081810360008301526115bc8161132e565b9050919050565b600060208201905081810360008301526115dc81611351565b9050919050565b600060208201905081810360008301526115fc81611374565b9050919050565b6000602082019050818103600083015261161c81611397565b9050919050565b6000602082019050818103600083015261163c816113ba565b9050919050565b6000602082019050818103600083015261165c816113dd565b9050919050565b6000602082019050818103600083015261167c81611400565b9050919050565b6000602082019050818103600083015261169c81611423565b9050919050565b600060208201905081810360008301526116bc81611446565b9050919050565b60006020820190506116d86000830184611469565b92915050565b60006080820190506116f36000830187611469565b6117006020830186611469565b61170d6040830185611478565b61171a6060830184611478565b95945050505050565b600082825260208201905092915050565b600061173f826117fc565b915061174a836117fc565b9250827fffffffffffffffffffffffffffffffffffffffffffffffffffffffffffffffff0382111561177f5761177e61184c565b5b828201905092915050565b6000611795826117fc565b91506117a0836117fc565b9250828210156117b3576117b261184c565b5b828203905092915050565b60006117c9826117dc565b9050919050565b60008115159050919050565b600073ffffffffffffffffffffffffffffffffffffffff82169050919050565b6000819050919050565b600063ffffffff82169050919050565b600061182182611828565b9050919050565b60006118338261183a565b9050919050565b6000611845826117dc565b9050919050565b7f4e487b7100000000000000000000000000000000000000000000000000000000600052601160045260246000fd5b600080fd5b7f63616d706169676e20656e646564000000000000000000000000000000000000600082015250565b7f6e6f7420656e6465642079657400000000000000000000000000000000000000600082015250565b7f616c726561647920636c61696d65640000000000000000000000000000000000600082015250565b7f656e64206174203e206d6178206475726174696f6e0000000000000000000000600082015250565b7f656e64206174203c207374617274206174000000000000000000000000000000600082015250565b7f6e6f742063726561746f72000000000000000000000000000000000000000000600082015250565b7f7374617274206174203c206e6f77000000000000000000000000000000000000600082015250565b7f6e6f742073746172746564207965740000000000000000000000000000000000600082015250565b7f7374617274656400000000000000000000000000000000000000000000000000600082015250565b7f706c6164676564203c20676f616c000000000000000000000000000000000000600082015250565b7f656e646564000000000000000000000000000000000000000000000000000000600082015250565b611a4c816117be565b8114611a5757600080fd5b50565b611a63816117d0565b8114611a6e57600080fd5b50565b611a7a816117fc565b8114611a8557600080fd5b50565b611a9181611806565b8114611a9c57600080fd5b5056fea2646970667358221220555fca83ff2700354f2ad14cf2e80aab38ac9f7f52e27c67c1810692369e9f6164736f6c63430008070033",
					"opcodes": "PUSH1 0xA0 PUSH1 0x40 MSTORE CALLVALUE DUP1 ISZERO PUSH3 0x11 JUMPI PUSH1 0x0 DUP1 REVERT JUMPDEST POP PUSH1 0x40 MLOAD PUSH3 0x1C21 CODESIZE SUB DUP1 PUSH3 0x1C21 DUP4 CODECOPY DUP2 DUP2 ADD PUSH1 0x40 MSTORE DUP2 ADD SWAP1 PUSH3 0x37 SWAP2 SWAP1 PUSH3 0x8C JUMP JUMPDEST DUP1 PUSH20 0xFFFFFFFFFFFFFFFFFFFFFFFFFFFFFFFFFFFFFFFF AND PUSH1 0x80 DUP2 PUSH20 0xFFFFFFFFFFFFFFFFFFFFFFFFFFFFFFFFFFFFFFFF AND PUSH1 0x60 SHL DUP2 MSTORE POP POP POP PUSH3 0x111 JUMP JUMPDEST PUSH1 0x0 DUP2 MLOAD SWAP1 POP PUSH3 0x86 DUP2 PUSH3 0xF7 JUMP JUMPDEST SWAP3 SWAP2 POP POP JUMP JUMPDEST PUSH1 0x0 PUSH1 0x20 DUP3 DUP5 SUB SLT ISZERO PUSH3 0xA5 JUMPI PUSH3 0xA4 PUSH3 0xF2 JUMP JUMPDEST JUMPDEST PUSH1 0x0 PUSH3 0xB5 DUP5 DUP3 DUP6 ADD PUSH3 0x75 JUMP JUMPDEST SWAP2 POP POP SWAP3 SWAP2 POP POP JUMP JUMPDEST PUSH1 0x0 PUSH3 0xCB DUP3 PUSH3 0xD2 JUMP JUMPDEST SWAP1 POP SWAP2 SWAP1 POP JUMP JUMPDEST PUSH1 0x0 PUSH20 0xFFFFFFFFFFFFFFFFFFFFFFFFFFFFFFFFFFFFFFFF DUP3 AND SWAP1 POP SWAP2 SWAP1 POP JUMP JUMPDEST PUSH1 0x0 DUP1 REVERT JUMPDEST PUSH3 0x102 DUP2 PUSH3 0xBE JUMP JUMPDEST DUP2 EQ PUSH3 0x10E JUMPI PUSH1 0x0 DUP1 REVERT JUMPDEST POP JUMP JUMPDEST PUSH1 0x80 MLOAD PUSH1 0x60 SHR PUSH2 0x1AD5 PUSH3 0x14C PUSH1 0x0 CODECOPY PUSH1 0x0 DUP2 DUP2 PUSH2 0x3E5 ADD MSTORE DUP2 DUP2 PUSH2 0x6A6 ADD MSTORE DUP2 DUP2 PUSH2 0xB04 ADD MSTORE DUP2 DUP2 PUSH2 0xEC1 ADD MSTORE PUSH2 0x1038 ADD MSTORE PUSH2 0x1AD5 PUSH1 0x0 RETURN INVALID PUSH1 0x80 PUSH1 0x40 MSTORE CALLVALUE DUP1 ISZERO PUSH2 0x10 JUMPI PUSH1 0x0 DUP1 REVERT JUMPDEST POP PUSH1 0x4 CALLDATASIZE LT PUSH2 0x9E JUMPI PUSH1 0x0 CALLDATALOAD PUSH1 0xE0 SHR DUP1 PUSH4 0x711853AB GT PUSH2 0x66 JUMPI DUP1 PUSH4 0x711853AB EQ PUSH2 0x14A JUMPI DUP1 PUSH4 0xAA4FB63A EQ PUSH2 0x166 JUMPI DUP1 PUSH4 0xDAF69940 EQ PUSH2 0x196 JUMPI DUP1 PUSH4 0xFC0C546A EQ PUSH2 0x1B2 JUMPI DUP1 PUSH4 0xFDE327BE EQ PUSH2 0x1D0 JUMPI PUSH2 0x9E JUMP JUMPDEST DUP1 PUSH4 0x6661ABD EQ PUSH2 0xA3 JUMPI DUP1 PUSH4 0x141961BC EQ PUSH2 0xC1 JUMPI DUP1 PUSH4 0x278ECDE1 EQ PUSH2 0xF6 JUMPI DUP1 PUSH4 0x379607F5 EQ PUSH2 0x112 JUMPI DUP1 PUSH4 0x40E58EE5 EQ PUSH2 0x12E JUMPI JUMPDEST PUSH1 0x0 DUP1 REVERT JUMPDEST PUSH2 0xAB PUSH2 0x1EC JUMP JUMPDEST PUSH1 0x40 MLOAD PUSH2 0xB8 SWAP2 SWAP1 PUSH2 0x16C3 JUMP JUMPDEST PUSH1 0x40 MLOAD DUP1 SWAP2 SUB SWAP1 RETURN JUMPDEST PUSH2 0xDB PUSH1 0x4 DUP1 CALLDATASIZE SUB DUP2 ADD SWAP1 PUSH2 0xD6 SWAP2 SWAP1 PUSH2 0x11BB JUMP JUMPDEST PUSH2 0x1F2 JUMP JUMPDEST PUSH1 0x40 MLOAD PUSH2 0xED SWAP7 SWAP6 SWAP5 SWAP4 SWAP3 SWAP2 SWAP1 PUSH2 0x14E7 JUMP JUMPDEST PUSH1 0x40 MLOAD DUP1 SWAP2 SUB SWAP1 RETURN JUMPDEST PUSH2 0x110 PUSH1 0x4 DUP1 CALLDATASIZE SUB DUP2 ADD SWAP1 PUSH2 0x10B SWAP2 SWAP1 PUSH2 0x11BB JUMP JUMPDEST PUSH2 0x27B JUMP JUMPDEST STOP JUMPDEST PUSH2 0x12C PUSH1 0x4 DUP1 CALLDATASIZE SUB DUP2 ADD SWAP1 PUSH2 0x127 SWAP2 SWAP1 PUSH2 0x11BB JUMP JUMPDEST PUSH2 0x4E5 JUMP JUMPDEST STOP JUMPDEST PUSH2 0x148 PUSH1 0x4 DUP1 CALLDATASIZE SUB DUP2 ADD SWAP1 PUSH2 0x143 SWAP2 SWAP1 PUSH2 0x11BB JUMP JUMPDEST PUSH2 0x791 JUMP JUMPDEST STOP JUMPDEST PUSH2 0x164 PUSH1 0x4 DUP1 CALLDATASIZE SUB DUP2 ADD SWAP1 PUSH2 0x15F SWAP2 SWAP1 PUSH2 0x1228 JUMP JUMPDEST PUSH2 0xA0C JUMP JUMPDEST STOP JUMPDEST PUSH2 0x180 PUSH1 0x4 DUP1 CALLDATASIZE SUB DUP2 ADD SWAP1 PUSH2 0x17B SWAP2 SWAP1 PUSH2 0x11E8 JUMP JUMPDEST PUSH2 0xC04 JUMP JUMPDEST PUSH1 0x40 MLOAD PUSH2 0x18D SWAP2 SWAP1 PUSH2 0x16C3 JUMP JUMPDEST PUSH1 0x40 MLOAD DUP1 SWAP2 SUB SWAP1 RETURN JUMPDEST PUSH2 0x1B0 PUSH1 0x4 DUP1 CALLDATASIZE SUB DUP2 ADD SWAP1 PUSH2 0x1AB SWAP2 SWAP1 PUSH2 0x1268 JUMP JUMPDEST PUSH2 0xC29 JUMP JUMPDEST STOP JUMPDEST PUSH2 0x1BA PUSH2 0xEBF JUMP JUMPDEST PUSH1 0x40 MLOAD PUSH2 0x1C7 SWAP2 SWAP1 PUSH2 0x1548 JUMP JUMPDEST PUSH1 0x40 MLOAD DUP1 SWAP2 SUB SWAP1 RETURN JUMPDEST PUSH2 0x1EA PUSH1 0x4 DUP1 CALLDATASIZE SUB DUP2 ADD SWAP1 PUSH2 0x1E5 SWAP2 SWAP1 PUSH2 0x1228 JUMP JUMPDEST PUSH2 0xEE3 JUMP JUMPDEST STOP JUMPDEST PUSH1 0x0 SLOAD DUP2 JUMP JUMPDEST PUSH1 0x1 PUSH1 0x20 MSTORE DUP1 PUSH1 0x0 MSTORE PUSH1 0x40 PUSH1 0x0 KECCAK256 PUSH1 0x0 SWAP2 POP SWAP1 POP DUP1 PUSH1 0x0 ADD PUSH1 0x0 SWAP1 SLOAD SWAP1 PUSH2 0x100 EXP SWAP1 DIV PUSH20 0xFFFFFFFFFFFFFFFFFFFFFFFFFFFFFFFFFFFFFFFF AND SWAP1 DUP1 PUSH1 0x1 ADD SLOAD SWAP1 DUP1 PUSH1 0x2 ADD SLOAD SWAP1 DUP1 PUSH1 0x3 ADD PUSH1 0x0 SWAP1 SLOAD SWAP1 PUSH2 0x100 EXP SWAP1 DIV PUSH4 0xFFFFFFFF AND SWAP1 DUP1 PUSH1 0x3 ADD PUSH1 0x4 SWAP1 SLOAD SWAP1 PUSH2 0x100 EXP SWAP1 DIV PUSH4 0xFFFFFFFF AND SWAP1 DUP1 PUSH1 0x3 ADD PUSH1 0x8 SWAP1 SLOAD SWAP1 PUSH2 0x100 EXP SWAP1 DIV PUSH1 0xFF AND SWAP1 POP DUP7 JUMP JUMPDEST PUSH1 0x0 PUSH1 0x1 PUSH1 0x0 DUP4 DUP2 MSTORE PUSH1 0x20 ADD SWAP1 DUP2 MSTORE PUSH1 0x20 ADD PUSH1 0x0 KECCAK256 SWAP1 POP DUP1 PUSH1 0x3 ADD PUSH1 0x4 SWAP1 SLOAD SWAP1 PUSH2 0x100 EXP SWAP1 DIV PUSH4 0xFFFFFFFF AND PUSH4 0xFFFFFFFF AND TIMESTAMP GT PUSH2 0x2EE JUMPI PUSH1 0x40 MLOAD PUSH32 0x8C379A000000000000000000000000000000000000000000000000000000000 DUP2 MSTORE PUSH1 0x4 ADD PUSH2 0x2E5 SWAP1 PUSH2 0x1583 JUMP JUMPDEST PUSH1 0x40 MLOAD DUP1 SWAP2 SUB SWAP1 REVERT JUMPDEST DUP1 PUSH1 0x1 ADD SLOAD DUP2 PUSH1 0x2 ADD SLOAD LT PUSH2 0x338 JUMPI PUSH1 0x40 MLOAD PUSH32 0x8C379A000000000000000000000000000000000000000000000000000000000 DUP2 MSTORE PUSH1 0x4 ADD PUSH2 0x32F SWAP1 PUSH2 0x1683 JUMP JUMPDEST PUSH1 0x40 MLOAD DUP1 SWAP2 SUB SWAP1 REVERT JUMPDEST PUSH1 0x0 PUSH1 0x2 PUSH1 0x0 DUP5 DUP2 MSTORE PUSH1 0x20 ADD SWAP1 DUP2 MSTORE PUSH1 0x20 ADD PUSH1 0x0 KECCAK256 PUSH1 0x0 CALLER PUSH20 0xFFFFFFFFFFFFFFFFFFFFFFFFFFFFFFFFFFFFFFFF AND PUSH20 0xFFFFFFFFFFFFFFFFFFFFFFFFFFFFFFFFFFFFFFFF AND DUP2 MSTORE PUSH1 0x20 ADD SWAP1 DUP2 MSTORE PUSH1 0x20 ADD PUSH1 0x0 KECCAK256 SLOAD SWAP1 POP PUSH1 0x0 PUSH1 0x2 PUSH1 0x0 DUP6 DUP2 MSTORE PUSH1 0x20 ADD SWAP1 DUP2 MSTORE PUSH1 0x20 ADD PUSH1 0x0 KECCAK256 PUSH1 0x0 CALLER PUSH20 0xFFFFFFFFFFFFFFFFFFFFFFFFFFFFFFFFFFFFFFFF AND PUSH20 0xFFFFFFFFFFFFFFFFFFFFFFFFFFFFFFFFFFFFFFFF AND DUP2 MSTORE PUSH1 0x20 ADD SWAP1 DUP2 MSTORE PUSH1 0x20 ADD PUSH1 0x0 KECCAK256 DUP2 SWAP1 SSTORE POP PUSH32 0x0 PUSH20 0xFFFFFFFFFFFFFFFFFFFFFFFFFFFFFFFFFFFFFFFF AND PUSH4 0xA9059CBB CALLER DUP4 PUSH1 0x40 MLOAD DUP4 PUSH4 0xFFFFFFFF AND PUSH1 0xE0 SHL DUP2 MSTORE PUSH1 0x4 ADD PUSH2 0x43E SWAP3 SWAP2 SWAP1 PUSH2 0x14BE JUMP JUMPDEST PUSH1 0x20 PUSH1 0x40 MLOAD DUP1 DUP4 SUB DUP2 PUSH1 0x0 DUP8 DUP1 EXTCODESIZE ISZERO DUP1 ISZERO PUSH2 0x458 JUMPI PUSH1 0x0 DUP1 REVERT JUMPDEST POP GAS CALL ISZERO DUP1 ISZERO PUSH2 0x46C JUMPI RETURNDATASIZE PUSH1 0x0 DUP1 RETURNDATACOPY RETURNDATASIZE PUSH1 0x0 REVERT JUMPDEST POP POP POP POP PUSH1 0x40 MLOAD RETURNDATASIZE PUSH1 0x1F NOT PUSH1 0x1F DUP3 ADD AND DUP3 ADD DUP1 PUSH1 0x40 MSTORE POP DUP2 ADD SWAP1 PUSH2 0x490 SWAP2 SWAP1 PUSH2 0x118E JUMP JUMPDEST POP CALLER PUSH20 0xFFFFFFFFFFFFFFFFFFFFFFFFFFFFFFFFFFFFFFFF AND DUP4 PUSH32 0x21E12A7CAD0DA5928167E1084EA4D5FDF8D9AF66657A2543A9AC76A0CA081477 DUP4 PUSH1 0x40 MLOAD PUSH2 0x4D8 SWAP2 SWAP1 PUSH2 0x16C3 JUMP JUMPDEST PUSH1 0x40 MLOAD DUP1 SWAP2 SUB SWAP1 LOG3 POP POP POP JUMP JUMPDEST PUSH1 0x0 PUSH1 0x1 PUSH1 0x0 DUP4 DUP2 MSTORE PUSH1 0x20 ADD SWAP1 DUP2 MSTORE PUSH1 0x20 ADD PUSH1 0x0 KECCAK256 SWAP1 POP DUP1 PUSH1 0x0 ADD PUSH1 0x0 SWAP1 SLOAD SWAP1 PUSH2 0x100 EXP SWAP1 DIV PUSH20 0xFFFFFFFFFFFFFFFFFFFFFFFFFFFFFFFFFFFFFFFF AND PUSH20 0xFFFFFFFFFFFFFFFFFFFFFFFFFFFFFFFFFFFFFFFF AND CALLER PUSH20 0xFFFFFFFFFFFFFFFFFFFFFFFFFFFFFFFFFFFFFFFF AND EQ PUSH2 0x58E JUMPI PUSH1 0x40 MLOAD PUSH32 0x8C379A000000000000000000000000000000000000000000000000000000000 DUP2 MSTORE PUSH1 0x4 ADD PUSH2 0x585 SWAP1 PUSH2 0x1603 JUMP JUMPDEST PUSH1 0x40 MLOAD DUP1 SWAP2 SUB SWAP1 REVERT JUMPDEST DUP1 PUSH1 0x3 ADD PUSH1 0x4 SWAP1 SLOAD SWAP1 PUSH2 0x100 EXP SWAP1 DIV PUSH4 0xFFFFFFFF AND PUSH4 0xFFFFFFFF AND TIMESTAMP GT PUSH2 0x5EA JUMPI PUSH1 0x40 MLOAD PUSH32 0x8C379A000000000000000000000000000000000000000000000000000000000 DUP2 MSTORE PUSH1 0x4 ADD PUSH2 0x5E1 SWAP1 PUSH2 0x1583 JUMP JUMPDEST PUSH1 0x40 MLOAD DUP1 SWAP2 SUB SWAP1 REVERT JUMPDEST DUP1 PUSH1 0x1 ADD SLOAD DUP2 PUSH1 0x2 ADD SLOAD LT ISZERO PUSH2 0x635 JUMPI PUSH1 0x40 MLOAD PUSH32 0x8C379A000000000000000000000000000000000000000000000000000000000 DUP2 MSTORE PUSH1 0x4 ADD PUSH2 0x62C SWAP1 PUSH2 0x1683 JUMP JUMPDEST PUSH1 0x40 MLOAD DUP1 SWAP2 SUB SWAP1 REVERT JUMPDEST DUP1 PUSH1 0x3 ADD PUSH1 0x8 SWAP1 SLOAD SWAP1 PUSH2 0x100 EXP SWAP1 DIV PUSH1 0xFF AND ISZERO PUSH2 0x687 JUMPI PUSH1 0x40 MLOAD PUSH32 0x8C379A000000000000000000000000000000000000000000000000000000000 DUP2 MSTORE PUSH1 0x4 ADD PUSH2 0x67E SWAP1 PUSH2 0x15A3 JUMP JUMPDEST PUSH1 0x40 MLOAD DUP1 SWAP2 SUB SWAP1 REVERT JUMPDEST PUSH1 0x1 DUP2 PUSH1 0x3 ADD PUSH1 0x8 PUSH2 0x100 EXP DUP2 SLOAD DUP2 PUSH1 0xFF MUL NOT AND SWAP1 DUP4 ISZERO ISZERO MUL OR SWAP1 SSTORE POP PUSH32 0x0 PUSH20 0xFFFFFFFFFFFFFFFFFFFFFFFFFFFFFFFFFFFFFFFF AND PUSH4 0xA9059CBB CALLER DUP4 PUSH1 0x2 ADD SLOAD PUSH1 0x40 MLOAD DUP4 PUSH4 0xFFFFFFFF AND PUSH1 0xE0 SHL DUP2 MSTORE PUSH1 0x4 ADD PUSH2 0x703 SWAP3 SWAP2 SWAP1 PUSH2 0x14BE JUMP JUMPDEST PUSH1 0x20 PUSH1 0x40 MLOAD DUP1 DUP4 SUB DUP2 PUSH1 0x0 DUP8 DUP1 EXTCODESIZE ISZERO DUP1 ISZERO PUSH2 0x71D JUMPI PUSH1 0x0 DUP1 REVERT JUMPDEST POP GAS CALL ISZERO DUP1 ISZERO PUSH2 0x731 JUMPI RETURNDATASIZE PUSH1 0x0 DUP1 RETURNDATACOPY RETURNDATASIZE PUSH1 0x0 REVERT JUMPDEST POP POP POP POP PUSH1 0x40 MLOAD RETURNDATASIZE PUSH1 0x1F NOT PUSH1 0x1F DUP3 ADD AND DUP3 ADD DUP1 PUSH1 0x40 MSTORE POP DUP2 ADD SWAP1 PUSH2 0x755 SWAP2 SWAP1 PUSH2 0x118E JUMP JUMPDEST POP PUSH32 0x7BB2B3C10797BACCB6F8C4791F1EDD6CA2F0D028EE0EDA64B01A9A57E3A653F7 DUP3 PUSH1 0x40 MLOAD PUSH2 0x785 SWAP2 SWAP1 PUSH2 0x16C3 JUMP JUMPDEST PUSH1 0x40 MLOAD DUP1 SWAP2 SUB SWAP1 LOG1 POP POP JUMP JUMPDEST PUSH1 0x0 PUSH1 0x1 PUSH1 0x0 DUP4 DUP2 MSTORE PUSH1 0x20 ADD SWAP1 DUP2 MSTORE PUSH1 0x20 ADD PUSH1 0x0 KECCAK256 PUSH1 0x40 MLOAD DUP1 PUSH1 0xC0 ADD PUSH1 0x40 MSTORE SWAP1 DUP2 PUSH1 0x0 DUP3 ADD PUSH1 0x0 SWAP1 SLOAD SWAP1 PUSH2 0x100 EXP SWAP1 DIV PUSH20 0xFFFFFFFFFFFFFFFFFFFFFFFFFFFFFFFFFFFFFFFF AND PUSH20 0xFFFFFFFFFFFFFFFFFFFFFFFFFFFFFFFFFFFFFFFF AND PUSH20 0xFFFFFFFFFFFFFFFFFFFFFFFFFFFFFFFFFFFFFFFF AND DUP2 MSTORE PUSH1 0x20 ADD PUSH1 0x1 DUP3 ADD SLOAD DUP2 MSTORE PUSH1 0x20 ADD PUSH1 0x2 DUP3 ADD SLOAD DUP2 MSTORE PUSH1 0x20 ADD PUSH1 0x3 DUP3 ADD PUSH1 0x0 SWAP1 SLOAD SWAP1 PUSH2 0x100 EXP SWAP1 DIV PUSH4 0xFFFFFFFF AND PUSH4 0xFFFFFFFF AND PUSH4 0xFFFFFFFF AND DUP2 MSTORE PUSH1 0x20 ADD PUSH1 0x3 DUP3 ADD PUSH1 0x4 SWAP1 SLOAD SWAP1 PUSH2 0x100 EXP SWAP1 DIV PUSH4 0xFFFFFFFF AND PUSH4 0xFFFFFFFF AND PUSH4 0xFFFFFFFF AND DUP2 MSTORE PUSH1 0x20 ADD PUSH1 0x3 DUP3 ADD PUSH1 0x8 SWAP1 SLOAD SWAP1 PUSH2 0x100 EXP SWAP1 DIV PUSH1 0xFF AND ISZERO ISZERO ISZERO ISZERO DUP2 MSTORE POP POP SWAP1 POP DUP1 PUSH1 0x0 ADD MLOAD PUSH20 0xFFFFFFFFFFFFFFFFFFFFFFFFFFFFFFFFFFFFFFFF AND CALLER PUSH20 0xFFFFFFFFFFFFFFFFFFFFFFFFFFFFFFFFFFFFFFFF AND EQ PUSH2 0x8F6 JUMPI PUSH1 0x40 MLOAD PUSH32 0x8C379A000000000000000000000000000000000000000000000000000000000 DUP2 MSTORE PUSH1 0x4 ADD PUSH2 0x8ED SWAP1 PUSH2 0x1603 JUMP JUMPDEST PUSH1 0x40 MLOAD DUP1 SWAP2 SUB SWAP1 REVERT JUMPDEST DUP1 PUSH1 0x60 ADD MLOAD PUSH4 0xFFFFFFFF AND TIMESTAMP LT PUSH2 0x942 JUMPI PUSH1 0x40 MLOAD PUSH32 0x8C379A000000000000000000000000000000000000000000000000000000000 DUP2 MSTORE PUSH1 0x4 ADD PUSH2 0x939 SWAP1 PUSH2 0x1663 JUMP JUMPDEST PUSH1 0x40 MLOAD DUP1 SWAP2 SUB SWAP1 REVERT JUMPDEST PUSH1 0x1 PUSH1 0x0 DUP4 DUP2 MSTORE PUSH1 0x20 ADD SWAP1 DUP2 MSTORE PUSH1 0x20 ADD PUSH1 0x0 KECCAK256 PUSH1 0x0 DUP1 DUP3 ADD PUSH1 0x0 PUSH2 0x100 EXP DUP2 SLOAD SWAP1 PUSH20 0xFFFFFFFFFFFFFFFFFFFFFFFFFFFFFFFFFFFFFFFF MUL NOT AND SWAP1 SSTORE PUSH1 0x1 DUP3 ADD PUSH1 0x0 SWAP1 SSTORE PUSH1 0x2 DUP3 ADD PUSH1 0x0 SWAP1 SSTORE PUSH1 0x3 DUP3 ADD PUSH1 0x0 PUSH2 0x100 EXP DUP2 SLOAD SWAP1 PUSH4 0xFFFFFFFF MUL NOT AND SWAP1 SSTORE PUSH1 0x3 DUP3 ADD PUSH1 0x4 PUSH2 0x100 EXP DUP2 SLOAD SWAP1 PUSH4 0xFFFFFFFF MUL NOT AND SWAP1 SSTORE PUSH1 0x3 DUP3 ADD PUSH1 0x8 PUSH2 0x100 EXP DUP2 SLOAD SWAP1 PUSH1 0xFF MUL NOT AND SWAP1 SSTORE POP POP PUSH32 0x8BF30E7FF26833413BE5F69E1D373744864D600B664204B4A2F9844A8EEDB9ED DUP3 PUSH1 0x40 MLOAD PUSH2 0xA00 SWAP2 SWAP1 PUSH2 0x16C3 JUMP JUMPDEST PUSH1 0x40 MLOAD DUP1 SWAP2 SUB SWAP1 LOG1 POP POP JUMP JUMPDEST PUSH1 0x0 PUSH1 0x1 PUSH1 0x0 DUP5 DUP2 MSTORE PUSH1 0x20 ADD SWAP1 DUP2 MSTORE PUSH1 0x20 ADD PUSH1 0x0 KECCAK256 SWAP1 POP DUP1 PUSH1 0x3 ADD PUSH1 0x4 SWAP1 SLOAD SWAP1 PUSH2 0x100 EXP SWAP1 DIV PUSH4 0xFFFFFFFF AND PUSH4 0xFFFFFFFF AND TIMESTAMP GT ISZERO PUSH2 0xA80 JUMPI PUSH1 0x40 MLOAD PUSH32 0x8C379A000000000000000000000000000000000000000000000000000000000 DUP2 MSTORE PUSH1 0x4 ADD PUSH2 0xA77 SWAP1 PUSH2 0x16A3 JUMP JUMPDEST PUSH1 0x40 MLOAD DUP1 SWAP2 SUB SWAP1 REVERT JUMPDEST DUP2 DUP2 PUSH1 0x2 ADD PUSH1 0x0 DUP3 DUP3 SLOAD PUSH2 0xA94 SWAP2 SWAP1 PUSH2 0x178A JUMP JUMPDEST SWAP3 POP POP DUP2 SWAP1 SSTORE POP DUP2 PUSH1 0x2 PUSH1 0x0 DUP6 DUP2 MSTORE PUSH1 0x20 ADD SWAP1 DUP2 MSTORE PUSH1 0x20 ADD PUSH1 0x0 KECCAK256 PUSH1 0x0 CALLER PUSH20 0xFFFFFFFFFFFFFFFFFFFFFFFFFFFFFFFFFFFFFFFF AND PUSH20 0xFFFFFFFFFFFFFFFFFFFFFFFFFFFFFFFFFFFFFFFF AND DUP2 MSTORE PUSH1 0x20 ADD SWAP1 DUP2 MSTORE PUSH1 0x20 ADD PUSH1 0x0 KECCAK256 PUSH1 0x0 DUP3 DUP3 SLOAD PUSH2 0xAFB SWAP2 SWAP1 PUSH2 0x178A JUMP JUMPDEST SWAP3 POP POP DUP2 SWAP1 SSTORE POP PUSH32 0x0 PUSH20 0xFFFFFFFFFFFFFFFFFFFFFFFFFFFFFFFFFFFFFFFF AND PUSH4 0xA9059CBB CALLER DUP5 PUSH1 0x40 MLOAD DUP4 PUSH4 0xFFFFFFFF AND PUSH1 0xE0 SHL DUP2 MSTORE PUSH1 0x4 ADD PUSH2 0xB5D SWAP3 SWAP2 SWAP1 PUSH2 0x14BE JUMP JUMPDEST PUSH1 0x20 PUSH1 0x40 MLOAD DUP1 DUP4 SUB DUP2 PUSH1 0x0 DUP8 DUP1 EXTCODESIZE ISZERO DUP1 ISZERO PUSH2 0xB77 JUMPI PUSH1 0x0 DUP1 REVERT JUMPDEST POP GAS CALL ISZERO DUP1 ISZERO PUSH2 0xB8B JUMPI RETURNDATASIZE PUSH1 0x0 DUP1 RETURNDATACOPY RETURNDATASIZE PUSH1 0x0 REVERT JUMPDEST POP POP POP POP PUSH1 0x40 MLOAD RETURNDATASIZE PUSH1 0x1F NOT PUSH1 0x1F DUP3 ADD AND DUP3 ADD DUP1 PUSH1 0x40 MSTORE POP DUP2 ADD SWAP1 PUSH2 0xBAF SWAP2 SWAP1 PUSH2 0x118E JUMP JUMPDEST POP CALLER PUSH20 0xFFFFFFFFFFFFFFFFFFFFFFFFFFFFFFFFFFFFFFFF AND DUP4 PUSH32 0x2EEEAB891B26A214D1B25749F88A406BDEA852BD8C9BFDA977E0EF8114C180BA DUP5 PUSH1 0x40 MLOAD PUSH2 0xBF7 SWAP2 SWAP1 PUSH2 0x16C3 JUMP JUMPDEST PUSH1 0x40 MLOAD DUP1 SWAP2 SUB SWAP1 LOG3 POP POP POP JUMP JUMPDEST PUSH1 0x2 PUSH1 0x20 MSTORE DUP2 PUSH1 0x0 MSTORE PUSH1 0x40 PUSH1 0x0 KECCAK256 PUSH1 0x20 MSTORE DUP1 PUSH1 0x0 MSTORE PUSH1 0x40 PUSH1 0x0 KECCAK256 PUSH1 0x0 SWAP2 POP SWAP2 POP POP SLOAD DUP2 JUMP JUMPDEST TIMESTAMP DUP3 PUSH4 0xFFFFFFFF AND LT ISZERO PUSH2 0xC72 JUMPI PUSH1 0x40 MLOAD PUSH32 0x8C379A000000000000000000000000000000000000000000000000000000000 DUP2 MSTORE PUSH1 0x4 ADD PUSH2 0xC69 SWAP1 PUSH2 0x1623 JUMP JUMPDEST PUSH1 0x40 MLOAD DUP1 SWAP2 SUB SWAP1 REVERT JUMPDEST DUP2 PUSH4 0xFFFFFFFF AND DUP2 PUSH4 0xFFFFFFFF AND LT ISZERO PUSH2 0xCC1 JUMPI PUSH1 0x40 MLOAD PUSH32 0x8C379A000000000000000000000000000000000000000000000000000000000 DUP2 MSTORE PUSH1 0x4 ADD PUSH2 0xCB8 SWAP1 PUSH2 0x15E3 JUMP JUMPDEST PUSH1 0x40 MLOAD DUP1 SWAP2 SUB SWAP1 REVERT JUMPDEST PUSH3 0x76A700 TIMESTAMP PUSH2 0xCD0 SWAP2 SWAP1 PUSH2 0x1734 JUMP JUMPDEST DUP2 PUSH4 0xFFFFFFFF AND GT ISZERO PUSH2 0xD18 JUMPI PUSH1 0x40 MLOAD PUSH32 0x8C379A000000000000000000000000000000000000000000000000000000000 DUP2 MSTORE PUSH1 0x4 ADD PUSH2 0xD0F SWAP1 PUSH2 0x15C3 JUMP JUMPDEST PUSH1 0x40 MLOAD DUP1 SWAP2 SUB SWAP1 REVERT JUMPDEST PUSH1 0x1 PUSH1 0x0 DUP1 DUP3 DUP3 SLOAD PUSH2 0xD2A SWAP2 SWAP1 PUSH2 0x1734 JUMP JUMPDEST SWAP3 POP POP DUP2 SWAP1 SSTORE POP PUSH1 0x40 MLOAD DUP1 PUSH1 0xC0 ADD PUSH1 0x40 MSTORE DUP1 CALLER PUSH20 0xFFFFFFFFFFFFFFFFFFFFFFFFFFFFFFFFFFFFFFFF AND DUP2 MSTORE PUSH1 0x20 ADD DUP5 DUP2 MSTORE PUSH1 0x20 ADD PUSH1 0x0 DUP2 MSTORE PUSH1 0x20 ADD DUP4 PUSH4 0xFFFFFFFF AND DUP2 MSTORE PUSH1 0x20 ADD DUP3 PUSH4 0xFFFFFFFF AND DUP2 MSTORE PUSH1 0x20 ADD PUSH1 0x0 ISZERO ISZERO DUP2 MSTORE POP PUSH1 0x1 PUSH1 0x0 DUP1 SLOAD DUP2 MSTORE PUSH1 0x20 ADD SWAP1 DUP2 MSTORE PUSH1 0x20 ADD PUSH1 0x0 KECCAK256 PUSH1 0x0 DUP3 ADD MLOAD DUP2 PUSH1 0x0 ADD PUSH1 0x0 PUSH2 0x100 EXP DUP2 SLOAD DUP2 PUSH20 0xFFFFFFFFFFFFFFFFFFFFFFFFFFFFFFFFFFFFFFFF MUL NOT AND SWAP1 DUP4 PUSH20 0xFFFFFFFFFFFFFFFFFFFFFFFFFFFFFFFFFFFFFFFF AND MUL OR SWAP1 SSTORE POP PUSH1 0x20 DUP3 ADD MLOAD DUP2 PUSH1 0x1 ADD SSTORE PUSH1 0x40 DUP3 ADD MLOAD DUP2 PUSH1 0x2 ADD SSTORE PUSH1 0x60 DUP3 ADD MLOAD DUP2 PUSH1 0x3 ADD PUSH1 0x0 PUSH2 0x100 EXP DUP2 SLOAD DUP2 PUSH4 0xFFFFFFFF MUL NOT AND SWAP1 DUP4 PUSH4 0xFFFFFFFF AND MUL OR SWAP1 SSTORE POP PUSH1 0x80 DUP3 ADD MLOAD DUP2 PUSH1 0x3 ADD PUSH1 0x4 PUSH2 0x100 EXP DUP2 SLOAD DUP2 PUSH4 0xFFFFFFFF MUL NOT AND SWAP1 DUP4 PUSH4 0xFFFFFFFF AND MUL OR SWAP1 SSTORE POP PUSH1 0xA0 DUP3 ADD MLOAD DUP2 PUSH1 0x3 ADD PUSH1 0x8 PUSH2 0x100 EXP DUP2 SLOAD DUP2 PUSH1 0xFF MUL NOT AND SWAP1 DUP4 ISZERO ISZERO MUL OR SWAP1 SSTORE POP SWAP1 POP POP CALLER PUSH20 0xFFFFFFFFFFFFFFFFFFFFFFFFFFFFFFFFFFFFFFFF AND PUSH32 0x601CD0D650B473037E838A2696D41E654433D065B3F56B28D1D3302E44A304F PUSH1 0x0 SLOAD DUP6 DUP6 DUP6 PUSH1 0x40 MLOAD PUSH2 0xEB2 SWAP5 SWAP4 SWAP3 SWAP2 SWAP1 PUSH2 0x16DE JUMP JUMPDEST PUSH1 0x40 MLOAD DUP1 SWAP2 SUB SWAP1 LOG2 POP POP POP JUMP JUMPDEST PUSH32 0x0 DUP2 JUMP JUMPDEST PUSH1 0x0 PUSH1 0x1 PUSH1 0x0 DUP5 DUP2 MSTORE PUSH1 0x20 ADD SWAP1 DUP2 MSTORE PUSH1 0x20 ADD PUSH1 0x0 KECCAK256 SWAP1 POP DUP1 PUSH1 0x3 ADD PUSH1 0x0 SWAP1 SLOAD SWAP1 PUSH2 0x100 EXP SWAP1 DIV PUSH4 0xFFFFFFFF AND PUSH4 0xFFFFFFFF AND TIMESTAMP LT ISZERO PUSH2 0xF57 JUMPI PUSH1 0x40 MLOAD PUSH32 0x8C379A000000000000000000000000000000000000000000000000000000000 DUP2 MSTORE PUSH1 0x4 ADD PUSH2 0xF4E SWAP1 PUSH2 0x1643 JUMP JUMPDEST PUSH1 0x40 MLOAD DUP1 SWAP2 SUB SWAP1 REVERT JUMPDEST DUP1 PUSH1 0x3 ADD PUSH1 0x4 SWAP1 SLOAD SWAP1 PUSH2 0x100 EXP SWAP1 DIV PUSH4 0xFFFFFFFF AND PUSH4 0xFFFFFFFF AND TIMESTAMP GT ISZERO PUSH2 0xFB4 JUMPI PUSH1 0x40 MLOAD PUSH32 0x8C379A000000000000000000000000000000000000000000000000000000000 DUP2 MSTORE PUSH1 0x4 ADD PUSH2 0xFAB SWAP1 PUSH2 0x1563 JUMP JUMPDEST PUSH1 0x40 MLOAD DUP1 SWAP2 SUB SWAP1 REVERT JUMPDEST DUP2 DUP2 PUSH1 0x2 ADD PUSH1 0x0 DUP3 DUP3 SLOAD PUSH2 0xFC8 SWAP2 SWAP1 PUSH2 0x1734 JUMP JUMPDEST SWAP3 POP POP DUP2 SWAP1 SSTORE POP DUP2 PUSH1 0x2 PUSH1 0x0 DUP6 DUP2 MSTORE PUSH1 0x20 ADD SWAP1 DUP2 MSTORE PUSH1 0x20 ADD PUSH1 0x0 KECCAK256 PUSH1 0x0 CALLER PUSH20 0xFFFFFFFFFFFFFFFFFFFFFFFFFFFFFFFFFFFFFFFF AND PUSH20 0xFFFFFFFFFFFFFFFFFFFFFFFFFFFFFFFFFFFFFFFF AND DUP2 MSTORE PUSH1 0x20 ADD SWAP1 DUP2 MSTORE PUSH1 0x20 ADD PUSH1 0x0 KECCAK256 PUSH1 0x0 DUP3 DUP3 SLOAD PUSH2 0x102F SWAP2 SWAP1 PUSH2 0x1734 JUMP JUMPDEST SWAP3 POP POP DUP2 SWAP1 SSTORE POP PUSH32 0x0 PUSH20 0xFFFFFFFFFFFFFFFFFFFFFFFFFFFFFFFFFFFFFFFF AND PUSH4 0x23B872DD CALLER ADDRESS DUP6 PUSH1 0x40 MLOAD DUP5 PUSH4 0xFFFFFFFF AND PUSH1 0xE0 SHL DUP2 MSTORE PUSH1 0x4 ADD PUSH2 0x1093 SWAP4 SWAP3 SWAP2 SWAP1 PUSH2 0x1487 JUMP JUMPDEST PUSH1 0x20 PUSH1 0x40 MLOAD DUP1 DUP4 SUB DUP2 PUSH1 0x0 DUP8 DUP1 EXTCODESIZE ISZERO DUP1 ISZERO PUSH2 0x10AD JUMPI PUSH1 0x0 DUP1 REVERT JUMPDEST POP GAS CALL ISZERO DUP1 ISZERO PUSH2 0x10C1 JUMPI RETURNDATASIZE PUSH1 0x0 DUP1 RETURNDATACOPY RETURNDATASIZE PUSH1 0x0 REVERT JUMPDEST POP POP POP POP PUSH1 0x40 MLOAD RETURNDATASIZE PUSH1 0x1F NOT PUSH1 0x1F DUP3 ADD AND DUP3 ADD DUP1 PUSH1 0x40 MSTORE POP DUP2 ADD SWAP1 PUSH2 0x10E5 SWAP2 SWAP1 PUSH2 0x118E JUMP JUMPDEST POP CALLER PUSH20 0xFFFFFFFFFFFFFFFFFFFFFFFFFFFFFFFFFFFFFFFF AND DUP4 PUSH32 0x6BDB975DF800A73232998E71ED585D536222F1DFEAA622D7F62A23ADA686C82 DUP5 PUSH1 0x40 MLOAD PUSH2 0x112D SWAP2 SWAP1 PUSH2 0x16C3 JUMP JUMPDEST PUSH1 0x40 MLOAD DUP1 SWAP2 SUB SWAP1 LOG3 POP POP POP JUMP JUMPDEST PUSH1 0x0 DUP2 CALLDATALOAD SWAP1 POP PUSH2 0x1149 DUP2 PUSH2 0x1A43 JUMP JUMPDEST SWAP3 SWAP2 POP POP JUMP JUMPDEST PUSH1 0x0 DUP2 MLOAD SWAP1 POP PUSH2 0x115E DUP2 PUSH2 0x1A5A JUMP JUMPDEST SWAP3 SWAP2 POP POP JUMP JUMPDEST PUSH1 0x0 DUP2 CALLDATALOAD SWAP1 POP PUSH2 0x1173 DUP2 PUSH2 0x1A71 JUMP JUMPDEST SWAP3 SWAP2 POP POP JUMP JUMPDEST PUSH1 0x0 DUP2 CALLDATALOAD SWAP1 POP PUSH2 0x1188 DUP2 PUSH2 0x1A88 JUMP JUMPDEST SWAP3 SWAP2 POP POP JUMP JUMPDEST PUSH1 0x0 PUSH1 0x20 DUP3 DUP5 SUB SLT ISZERO PUSH2 0x11A4 JUMPI PUSH2 0x11A3 PUSH2 0x187B JUMP JUMPDEST JUMPDEST PUSH1 0x0 PUSH2 0x11B2 DUP5 DUP3 DUP6 ADD PUSH2 0x114F JUMP JUMPDEST SWAP2 POP POP SWAP3 SWAP2 POP POP JUMP JUMPDEST PUSH1 0x0 PUSH1 0x20 DUP3 DUP5 SUB SLT ISZERO PUSH2 0x11D1 JUMPI PUSH2 0x11D0 PUSH2 0x187B JUMP JUMPDEST JUMPDEST PUSH1 0x0 PUSH2 0x11DF DUP5 DUP3 DUP6 ADD PUSH2 0x1164 JUMP JUMPDEST SWAP2 POP POP SWAP3 SWAP2 POP POP JUMP JUMPDEST PUSH1 0x0 DUP1 PUSH1 0x40 DUP4 DUP6 SUB SLT ISZERO PUSH2 0x11FF JUMPI PUSH2 0x11FE PUSH2 0x187B JUMP JUMPDEST JUMPDEST PUSH1 0x0 PUSH2 0x120D DUP6 DUP3 DUP7 ADD PUSH2 0x1164 JUMP JUMPDEST SWAP3 POP POP PUSH1 0x20 PUSH2 0x121E DUP6 DUP3 DUP7 ADD PUSH2 0x113A JUMP JUMPDEST SWAP2 POP POP SWAP3 POP SWAP3 SWAP1 POP JUMP JUMPDEST PUSH1 0x0 DUP1 PUSH1 0x40 DUP4 DUP6 SUB SLT ISZERO PUSH2 0x123F JUMPI PUSH2 0x123E PUSH2 0x187B JUMP JUMPDEST JUMPDEST PUSH1 0x0 PUSH2 0x124D DUP6 DUP3 DUP7 ADD PUSH2 0x1164 JUMP JUMPDEST SWAP3 POP POP PUSH1 0x20 PUSH2 0x125E DUP6 DUP3 DUP7 ADD PUSH2 0x1164 JUMP JUMPDEST SWAP2 POP POP SWAP3 POP SWAP3 SWAP1 POP JUMP JUMPDEST PUSH1 0x0 DUP1 PUSH1 0x0 PUSH1 0x60 DUP5 DUP7 SUB SLT ISZERO PUSH2 0x1281 JUMPI PUSH2 0x1280 PUSH2 0x187B JUMP JUMPDEST JUMPDEST PUSH1 0x0 PUSH2 0x128F DUP7 DUP3 DUP8 ADD PUSH2 0x1164 JUMP JUMPDEST SWAP4 POP POP PUSH1 0x20 PUSH2 0x12A0 DUP7 DUP3 DUP8 ADD PUSH2 0x1179 JUMP JUMPDEST SWAP3 POP POP PUSH1 0x40 PUSH2 0x12B1 DUP7 DUP3 DUP8 ADD PUSH2 0x1179 JUMP JUMPDEST SWAP2 POP POP SWAP3 POP SWAP3 POP SWAP3 JUMP JUMPDEST PUSH2 0x12C4 DUP2 PUSH2 0x17BE JUMP JUMPDEST DUP3 MSTORE POP POP JUMP JUMPDEST PUSH2 0x12D3 DUP2 PUSH2 0x17D0 JUMP JUMPDEST DUP3 MSTORE POP POP JUMP JUMPDEST PUSH2 0x12E2 DUP2 PUSH2 0x1816 JUMP JUMPDEST DUP3 MSTORE POP POP JUMP JUMPDEST PUSH1 0x0 PUSH2 0x12F5 PUSH1 0xE DUP4 PUSH2 0x1723 JUMP JUMPDEST SWAP2 POP PUSH2 0x1300 DUP3 PUSH2 0x1880 JUMP JUMPDEST PUSH1 0x20 DUP3 ADD SWAP1 POP SWAP2 SWAP1 POP JUMP JUMPDEST PUSH1 0x0 PUSH2 0x1318 PUSH1 0xD DUP4 PUSH2 0x1723 JUMP JUMPDEST SWAP2 POP PUSH2 0x1323 DUP3 PUSH2 0x18A9 JUMP JUMPDEST PUSH1 0x20 DUP3 ADD SWAP1 POP SWAP2 SWAP1 POP JUMP JUMPDEST PUSH1 0x0 PUSH2 0x133B PUSH1 0xF DUP4 PUSH2 0x1723 JUMP JUMPDEST SWAP2 POP PUSH2 0x1346 DUP3 PUSH2 0x18D2 JUMP JUMPDEST PUSH1 0x20 DUP3 ADD SWAP1 POP SWAP2 SWAP1 POP JUMP JUMPDEST PUSH1 0x0 PUSH2 0x135E PUSH1 0x15 DUP4 PUSH2 0x1723 JUMP JUMPDEST SWAP2 POP PUSH2 0x1369 DUP3 PUSH2 0x18FB JUMP JUMPDEST PUSH1 0x20 DUP3 ADD SWAP1 POP SWAP2 SWAP1 POP JUMP JUMPDEST PUSH1 0x0 PUSH2 0x1381 PUSH1 0x11 DUP4 PUSH2 0x1723 JUMP JUMPDEST SWAP2 POP PUSH2 0x138C DUP3 PUSH2 0x1924 JUMP JUMPDEST PUSH1 0x20 DUP3 ADD SWAP1 POP SWAP2 SWAP1 POP JUMP JUMPDEST PUSH1 0x0 PUSH2 0x13A4 PUSH1 0xB DUP4 PUSH2 0x1723 JUMP JUMPDEST SWAP2 POP PUSH2 0x13AF DUP3 PUSH2 0x194D JUMP JUMPDEST PUSH1 0x20 DUP3 ADD SWAP1 POP SWAP2 SWAP1 POP JUMP JUMPDEST PUSH1 0x0 PUSH2 0x13C7 PUSH1 0xE DUP4 PUSH2 0x1723 JUMP JUMPDEST SWAP2 POP PUSH2 0x13D2 DUP3 PUSH2 0x1976 JUMP JUMPDEST PUSH1 0x20 DUP3 ADD SWAP1 POP SWAP2 SWAP1 POP JUMP JUMPDEST PUSH1 0x0 PUSH2 0x13EA PUSH1 0xF DUP4 PUSH2 0x1723 JUMP JUMPDEST SWAP2 POP PUSH2 0x13F5 DUP3 PUSH2 0x199F JUMP JUMPDEST PUSH1 0x20 DUP3 ADD SWAP1 POP SWAP2 SWAP1 POP JUMP JUMPDEST PUSH1 0x0 PUSH2 0x140D PUSH1 0x7 DUP4 PUSH2 0x1723 JUMP JUMPDEST SWAP2 POP PUSH2 0x1418 DUP3 PUSH2 0x19C8 JUMP JUMPDEST PUSH1 0x20 DUP3 ADD SWAP1 POP SWAP2 SWAP1 POP JUMP JUMPDEST PUSH1 0x0 PUSH2 0x1430 PUSH1 0xE DUP4 PUSH2 0x1723 JUMP JUMPDEST SWAP2 POP PUSH2 0x143B DUP3 PUSH2 0x19F1 JUMP JUMPDEST PUSH1 0x20 DUP3 ADD SWAP1 POP SWAP2 SWAP1 POP JUMP JUMPDEST PUSH1 0x0 PUSH2 0x1453 PUSH1 0x5 DUP4 PUSH2 0x1723 JUMP JUMPDEST SWAP2 POP PUSH2 0x145E DUP3 PUSH2 0x1A1A JUMP JUMPDEST PUSH1 0x20 DUP3 ADD SWAP1 POP SWAP2 SWAP1 POP JUMP JUMPDEST PUSH2 0x1472 DUP2 PUSH2 0x17FC JUMP JUMPDEST DUP3 MSTORE POP POP JUMP JUMPDEST PUSH2 0x1481 DUP2 PUSH2 0x1806 JUMP JUMPDEST DUP3 MSTORE POP POP JUMP JUMPDEST PUSH1 0x0 PUSH1 0x60 DUP3 ADD SWAP1 POP PUSH2 0x149C PUSH1 0x0 DUP4 ADD DUP7 PUSH2 0x12BB JUMP JUMPDEST PUSH2 0x14A9 PUSH1 0x20 DUP4 ADD DUP6 PUSH2 0x12BB JUMP JUMPDEST PUSH2 0x14B6 PUSH1 0x40 DUP4 ADD DUP5 PUSH2 0x1469 JUMP JUMPDEST SWAP5 SWAP4 POP POP POP POP JUMP JUMPDEST PUSH1 0x0 PUSH1 0x40 DUP3 ADD SWAP1 POP PUSH2 0x14D3 PUSH1 0x0 DUP4 ADD DUP6 PUSH2 0x12BB JUMP JUMPDEST PUSH2 0x14E0 PUSH1 0x20 DUP4 ADD DUP5 PUSH2 0x1469 JUMP JUMPDEST SWAP4 SWAP3 POP POP POP JUMP JUMPDEST PUSH1 0x0 PUSH1 0xC0 DUP3 ADD SWAP1 POP PUSH2 0x14FC PUSH1 0x0 DUP4 ADD DUP10 PUSH2 0x12BB JUMP JUMPDEST PUSH2 0x1509 PUSH1 0x20 DUP4 ADD DUP9 PUSH2 0x1469 JUMP JUMPDEST PUSH2 0x1516 PUSH1 0x40 DUP4 ADD DUP8 PUSH2 0x1469 JUMP JUMPDEST PUSH2 0x1523 PUSH1 0x60 DUP4 ADD DUP7 PUSH2 0x1478 JUMP JUMPDEST PUSH2 0x1530 PUSH1 0x80 DUP4 ADD DUP6 PUSH2 0x1478 JUMP JUMPDEST PUSH2 0x153D PUSH1 0xA0 DUP4 ADD DUP5 PUSH2 0x12CA JUMP JUMPDEST SWAP8 SWAP7 POP POP POP POP POP POP POP JUMP JUMPDEST PUSH1 0x0 PUSH1 0x20 DUP3 ADD SWAP1 POP PUSH2 0x155D PUSH1 0x0 DUP4 ADD DUP5 PUSH2 0x12D9 JUMP JUMPDEST SWAP3 SWAP2 POP POP JUMP JUMPDEST PUSH1 0x0 PUSH1 0x20 DUP3 ADD SWAP1 POP DUP2 DUP2 SUB PUSH1 0x0 DUP4 ADD MSTORE PUSH2 0x157C DUP2 PUSH2 0x12E8 JUMP JUMPDEST SWAP1 POP SWAP2 SWAP1 POP JUMP JUMPDEST PUSH1 0x0 PUSH1 0x20 DUP3 ADD SWAP1 POP DUP2 DUP2 SUB PUSH1 0x0 DUP4 ADD MSTORE PUSH2 0x159C DUP2 PUSH2 0x130B JUMP JUMPDEST SWAP1 POP SWAP2 SWAP1 POP JUMP JUMPDEST PUSH1 0x0 PUSH1 0x20 DUP3 ADD SWAP1 POP DUP2 DUP2 SUB PUSH1 0x0 DUP4 ADD MSTORE PUSH2 0x15BC DUP2 PUSH2 0x132E JUMP JUMPDEST SWAP1 POP SWAP2 SWAP1 POP JUMP JUMPDEST PUSH1 0x0 PUSH1 0x20 DUP3 ADD SWAP1 POP DUP2 DUP2 SUB PUSH1 0x0 DUP4 ADD MSTORE PUSH2 0x15DC DUP2 PUSH2 0x1351 JUMP JUMPDEST SWAP1 POP SWAP2 SWAP1 POP JUMP JUMPDEST PUSH1 0x0 PUSH1 0x20 DUP3 ADD SWAP1 POP DUP2 DUP2 SUB PUSH1 0x0 DUP4 ADD MSTORE PUSH2 0x15FC DUP2 PUSH2 0x1374 JUMP JUMPDEST SWAP1 POP SWAP2 SWAP1 POP JUMP JUMPDEST PUSH1 0x0 PUSH1 0x20 DUP3 ADD SWAP1 POP DUP2 DUP2 SUB PUSH1 0x0 DUP4 ADD MSTORE PUSH2 0x161C DUP2 PUSH2 0x1397 JUMP JUMPDEST SWAP1 POP SWAP2 SWAP1 POP JUMP JUMPDEST PUSH1 0x0 PUSH1 0x20 DUP3 ADD SWAP1 POP DUP2 DUP2 SUB PUSH1 0x0 DUP4 ADD MSTORE PUSH2 0x163C DUP2 PUSH2 0x13BA JUMP JUMPDEST SWAP1 POP SWAP2 SWAP1 POP JUMP JUMPDEST PUSH1 0x0 PUSH1 0x20 DUP3 ADD SWAP1 POP DUP2 DUP2 SUB PUSH1 0x0 DUP4 ADD MSTORE PUSH2 0x165C DUP2 PUSH2 0x13DD JUMP JUMPDEST SWAP1 POP SWAP2 SWAP1 POP JUMP JUMPDEST PUSH1 0x0 PUSH1 0x20 DUP3 ADD SWAP1 POP DUP2 DUP2 SUB PUSH1 0x0 DUP4 ADD MSTORE PUSH2 0x167C DUP2 PUSH2 0x1400 JUMP JUMPDEST SWAP1 POP SWAP2 SWAP1 POP JUMP JUMPDEST PUSH1 0x0 PUSH1 0x20 DUP3 ADD SWAP1 POP DUP2 DUP2 SUB PUSH1 0x0 DUP4 ADD MSTORE PUSH2 0x169C DUP2 PUSH2 0x1423 JUMP JUMPDEST SWAP1 POP SWAP2 SWAP1 POP JUMP JUMPDEST PUSH1 0x0 PUSH1 0x20 DUP3 ADD SWAP1 POP DUP2 DUP2 SUB PUSH1 0x0 DUP4 ADD MSTORE PUSH2 0x16BC DUP2 PUSH2 0x1446 JUMP JUMPDEST SWAP1 POP SWAP2 SWAP1 POP JUMP JUMPDEST PUSH1 0x0 PUSH1 0x20 DUP3 ADD SWAP1 POP PUSH2 0x16D8 PUSH1 0x0 DUP4 ADD DUP5 PUSH2 0x1469 JUMP JUMPDEST SWAP3 SWAP2 POP POP JUMP JUMPDEST PUSH1 0x0 PUSH1 0x80 DUP3 ADD SWAP1 POP PUSH2 0x16F3 PUSH1 0x0 DUP4 ADD DUP8 PUSH2 0x1469 JUMP JUMPDEST PUSH2 0x1700 PUSH1 0x20 DUP4 ADD DUP7 PUSH2 0x1469 JUMP JUMPDEST PUSH2 0x170D PUSH1 0x40 DUP4 ADD DUP6 PUSH2 0x1478 JUMP JUMPDEST PUSH2 0x171A PUSH1 0x60 DUP4 ADD DUP5 PUSH2 0x1478 JUMP JUMPDEST SWAP6 SWAP5 POP POP POP POP POP JUMP JUMPDEST PUSH1 0x0 DUP3 DUP3 MSTORE PUSH1 0x20 DUP3 ADD SWAP1 POP SWAP3 SWAP2 POP POP JUMP JUMPDEST PUSH1 0x0 PUSH2 0x173F DUP3 PUSH2 0x17FC JUMP JUMPDEST SWAP2 POP PUSH2 0x174A DUP4 PUSH2 0x17FC JUMP JUMPDEST SWAP3 POP DUP3 PUSH32 0xFFFFFFFFFFFFFFFFFFFFFFFFFFFFFFFFFFFFFFFFFFFFFFFFFFFFFFFFFFFFFFFF SUB DUP3 GT ISZERO PUSH2 0x177F JUMPI PUSH2 0x177E PUSH2 0x184C JUMP JUMPDEST JUMPDEST DUP3 DUP3 ADD SWAP1 POP SWAP3 SWAP2 POP POP JUMP JUMPDEST PUSH1 0x0 PUSH2 0x1795 DUP3 PUSH2 0x17FC JUMP JUMPDEST SWAP2 POP PUSH2 0x17A0 DUP4 PUSH2 0x17FC JUMP JUMPDEST SWAP3 POP DUP3 DUP3 LT ISZERO PUSH2 0x17B3 JUMPI PUSH2 0x17B2 PUSH2 0x184C JUMP JUMPDEST JUMPDEST DUP3 DUP3 SUB SWAP1 POP SWAP3 SWAP2 POP POP JUMP JUMPDEST PUSH1 0x0 PUSH2 0x17C9 DUP3 PUSH2 0x17DC JUMP JUMPDEST SWAP1 POP SWAP2 SWAP1 POP JUMP JUMPDEST PUSH1 0x0 DUP2 ISZERO ISZERO SWAP1 POP SWAP2 SWAP1 POP JUMP JUMPDEST PUSH1 0x0 PUSH20 0xFFFFFFFFFFFFFFFFFFFFFFFFFFFFFFFFFFFFFFFF DUP3 AND SWAP1 POP SWAP2 SWAP1 POP JUMP JUMPDEST PUSH1 0x0 DUP2 SWAP1 POP SWAP2 SWAP1 POP JUMP JUMPDEST PUSH1 0x0 PUSH4 0xFFFFFFFF DUP3 AND SWAP1 POP SWAP2 SWAP1 POP JUMP JUMPDEST PUSH1 0x0 PUSH2 0x1821 DUP3 PUSH2 0x1828 JUMP JUMPDEST SWAP1 POP SWAP2 SWAP1 POP JUMP JUMPDEST PUSH1 0x0 PUSH2 0x1833 DUP3 PUSH2 0x183A JUMP JUMPDEST SWAP1 POP SWAP2 SWAP1 POP JUMP JUMPDEST PUSH1 0x0 PUSH2 0x1845 DUP3 PUSH2 0x17DC JUMP JUMPDEST SWAP1 POP SWAP2 SWAP1 POP JUMP JUMPDEST PUSH32 0x4E487B7100000000000000000000000000000000000000000000000000000000 PUSH1 0x0 MSTORE PUSH1 0x11 PUSH1 0x4 MSTORE PUSH1 0x24 PUSH1 0x0 REVERT JUMPDEST PUSH1 0x0 DUP1 REVERT JUMPDEST PUSH32 0x63616D706169676E20656E646564000000000000000000000000000000000000 PUSH1 0x0 DUP3 ADD MSTORE POP JUMP JUMPDEST PUSH32 0x6E6F7420656E6465642079657400000000000000000000000000000000000000 PUSH1 0x0 DUP3 ADD MSTORE POP JUMP JUMPDEST PUSH32 0x616C726561647920636C61696D65640000000000000000000000000000000000 PUSH1 0x0 DUP3 ADD MSTORE POP JUMP JUMPDEST PUSH32 0x656E64206174203E206D6178206475726174696F6E0000000000000000000000 PUSH1 0x0 DUP3 ADD MSTORE POP JUMP JUMPDEST PUSH32 0x656E64206174203C207374617274206174000000000000000000000000000000 PUSH1 0x0 DUP3 ADD MSTORE POP JUMP JUMPDEST PUSH32 0x6E6F742063726561746F72000000000000000000000000000000000000000000 PUSH1 0x0 DUP3 ADD MSTORE POP JUMP JUMPDEST PUSH32 0x7374617274206174203C206E6F77000000000000000000000000000000000000 PUSH1 0x0 DUP3 ADD MSTORE POP JUMP JUMPDEST PUSH32 0x6E6F742073746172746564207965740000000000000000000000000000000000 PUSH1 0x0 DUP3 ADD MSTORE POP JUMP JUMPDEST PUSH32 0x7374617274656400000000000000000000000000000000000000000000000000 PUSH1 0x0 DUP3 ADD MSTORE POP JUMP JUMPDEST PUSH32 0x706C6164676564203C20676F616C000000000000000000000000000000000000 PUSH1 0x0 DUP3 ADD MSTORE POP JUMP JUMPDEST PUSH32 0x656E646564000000000000000000000000000000000000000000000000000000 PUSH1 0x0 DUP3 ADD MSTORE POP JUMP JUMPDEST PUSH2 0x1A4C DUP2 PUSH2 0x17BE JUMP JUMPDEST DUP2 EQ PUSH2 0x1A57 JUMPI PUSH1 0x0 DUP1 REVERT JUMPDEST POP JUMP JUMPDEST PUSH2 0x1A63 DUP2 PUSH2 0x17D0 JUMP JUMPDEST DUP2 EQ PUSH2 0x1A6E JUMPI PUSH1 0x0 DUP1 REVERT JUMPDEST POP JUMP JUMPDEST PUSH2 0x1A7A DUP2 PUSH2 0x17FC JUMP JUMPDEST DUP2 EQ PUSH2 0x1A85 JUMPI PUSH1 0x0 DUP1 REVERT JUMPDEST POP JUMP JUMPDEST PUSH2 0x1A91 DUP2 PUSH2 0x1806 JUMP JUMPDEST DUP2 EQ PUSH2 0x1A9C JUMPI PUSH1 0x0 DUP1 REVERT JUMPDEST POP JUMP INVALID LOG2 PUSH5 0x6970667358 0x22 SLT KECCAK256 SSTORE 0x5F 0xCA DUP4 SELFDESTRUCT 0x27 STOP CALLDATALOAD 0x4F 0x2A 0xD1 0x4C CALLCODE 0xE8 EXP 0xAB CODESIZE 0xAC SWAP16 PUSH32 0x52E27C67C1810692369E9F6164736F6C63430008070033000000000000000000 "
				},
				"gasEstimates": {
					"creation": {
						"codeDepositCost": "1373800",
						"executionCost": "infinite",
						"totalCost": "infinite"
					},
					"external": {
						"campaigns(uint256)": "infinite",
						"cancel(uint256)": "infinite",
						"claim(uint256)": "infinite",
						"count()": "2430",
						"lunch(uint256,uint32,uint32)": "infinite",
						"pledge(uint256,uint256)": "infinite",
						"pledgedAmount(uint256,address)": "infinite",
						"refund(uint256)": "infinite",
						"token()": "infinite",
						"unpledge(uint256,uint256)": "infinite"
					}
				},
				"methodIdentifiers": {
					"campaigns(uint256)": "141961bc",
					"cancel(uint256)": "40e58ee5",
					"claim(uint256)": "379607f5",
					"count()": "06661abd",
					"lunch(uint256,uint32,uint32)": "daf69940",
					"pledge(uint256,uint256)": "fde327be",
					"pledgedAmount(uint256,address)": "aa4fb63a",
					"refund(uint256)": "278ecde1",
					"token()": "fc0c546a",
					"unpledge(uint256,uint256)": "711853ab"
				}
			},
			"storageLayout": {
				"storage": [
					{
						"astId": 84,
						"contract": "Hands on Task - 3.sol:CrowdFund",
						"label": "count",
						"offset": 0,
						"slot": "0",
						"type": "t_uint256"
					},
					{
						"astId": 89,
						"contract": "Hands on Task - 3.sol:CrowdFund",
						"label": "campaigns",
						"offset": 0,
						"slot": "1",
						"type": "t_mapping(t_uint256,t_struct(Campaign)79_storage)"
					},
					{
						"astId": 95,
						"contract": "Hands on Task - 3.sol:CrowdFund",
						"label": "pledgedAmount",
						"offset": 0,
						"slot": "2",
						"type": "t_mapping(t_uint256,t_mapping(t_address,t_uint256))"
					}
				],
				"types": {
					"t_address": {
						"encoding": "inplace",
						"label": "address",
						"numberOfBytes": "20"
					},
					"t_bool": {
						"encoding": "inplace",
						"label": "bool",
						"numberOfBytes": "1"
					},
					"t_mapping(t_address,t_uint256)": {
						"encoding": "mapping",
						"key": "t_address",
						"label": "mapping(address => uint256)",
						"numberOfBytes": "32",
						"value": "t_uint256"
					},
					"t_mapping(t_uint256,t_mapping(t_address,t_uint256))": {
						"encoding": "mapping",
						"key": "t_uint256",
						"label": "mapping(uint256 => mapping(address => uint256))",
						"numberOfBytes": "32",
						"value": "t_mapping(t_address,t_uint256)"
					},
					"t_mapping(t_uint256,t_struct(Campaign)79_storage)": {
						"encoding": "mapping",
						"key": "t_uint256",
						"label": "mapping(uint256 => struct CrowdFund.Campaign)",
						"numberOfBytes": "32",
						"value": "t_struct(Campaign)79_storage"
					},
					"t_struct(Campaign)79_storage": {
						"encoding": "inplace",
						"label": "struct CrowdFund.Campaign",
						"members": [
							{
								"astId": 68,
								"contract": "Hands on Task - 3.sol:CrowdFund",
								"label": "creator",
								"offset": 0,
								"slot": "0",
								"type": "t_address"
							},
							{
								"astId": 70,
								"contract": "Hands on Task - 3.sol:CrowdFund",
								"label": "goal",
								"offset": 0,
								"slot": "1",
								"type": "t_uint256"
							},
							{
								"astId": 72,
								"contract": "Hands on Task - 3.sol:CrowdFund",
								"label": "pledged",
								"offset": 0,
								"slot": "2",
								"type": "t_uint256"
							},
							{
								"astId": 74,
								"contract": "Hands on Task - 3.sol:CrowdFund",
								"label": "startAt",
								"offset": 0,
								"slot": "3",
								"type": "t_uint32"
							},
							{
								"astId": 76,
								"contract": "Hands on Task - 3.sol:CrowdFund",
								"label": "endAt",
								"offset": 4,
								"slot": "3",
								"type": "t_uint32"
							},
							{
								"astId": 78,
								"contract": "Hands on Task - 3.sol:CrowdFund",
								"label": "claimed",
								"offset": 8,
								"slot": "3",
								"type": "t_bool"
							}
						],
						"numberOfBytes": "128"
					},
					"t_uint256": {
						"encoding": "inplace",
						"label": "uint256",
						"numberOfBytes": "32"
					},
					"t_uint32": {
						"encoding": "inplace",
						"label": "uint32",
						"numberOfBytes": "4"
					}
				}
			},
			"userdoc": {
				"kind": "user",
				"methods": {},
				"version": 1
			}
		}
	}
}