{
	"Hands on Task - 3.sol": {
		"CrowdFund": {
			"abi": [
				{
					"inputs": [
						{
							"internalType": "address",
							"name": "_token",
							"type": "address"
						}
					],
					"stateMutability": "nonpayable",
					"type": "constructor"
				},
				{
					"anonymous": false,
					"inputs": [
						{
							"indexed": false,
							"internalType": "uint256",
							"name": "_id",
							"type": "uint256"
						}
					],
					"name": "Cancel",
					"type": "event"
				},
				{
					"anonymous": false,
					"inputs": [
						{
							"indexed": false,
							"internalType": "uint256",
							"name": "id",
							"type": "uint256"
						}
					],
					"name": "Claim",
					"type": "event"
				},
				{
					"anonymous": false,
					"inputs": [
						{
							"indexed": false,
							"internalType": "uint256",
							"name": "id",
							"type": "uint256"
						},
						{
							"indexed": true,
							"internalType": "address",
							"name": "creator",
							"type": "address"
						},
						{
							"indexed": false,
							"internalType": "uint256",
							"name": "goal",
							"type": "uint256"
						},
						{
							"indexed": false,
							"internalType": "uint32",
							"name": "startAt",
							"type": "uint32"
						},
						{
							"indexed": false,
							"internalType": "uint32",
							"name": "endAt",
							"type": "uint32"
						}
					],
					"name": "Launch",
					"type": "event"
				},
				{
					"anonymous": false,
					"inputs": [
						{
							"indexed": true,
							"internalType": "uint256",
							"name": "id",
							"type": "uint256"
						},
						{
							"indexed": true,
							"internalType": "address",
							"name": "caller",
							"type": "address"
						},
						{
							"indexed": false,
							"internalType": "uint256",
							"name": "amount",
							"type": "uint256"
						}
					],
					"name": "Pledge",
					"type": "event"
				},
				{
					"anonymous": false,
					"inputs": [
						{
							"indexed": true,
							"internalType": "uint256",
							"name": "id",
							"type": "uint256"
						},
						{
							"indexed": true,
							"internalType": "address",
							"name": "caller",
							"type": "address"
						},
						{
							"indexed": false,
							"internalType": "uint256",
							"name": "amount",
							"type": "uint256"
						}
					],
					"name": "Refund",
					"type": "event"
				},
				{
					"anonymous": false,
					"inputs": [
						{
							"indexed": true,
							"internalType": "uint256",
							"name": "id",
							"type": "uint256"
						},
						{
							"indexed": true,
							"internalType": "address",
							"name": "caller",
							"type": "address"
						},
						{
							"indexed": false,
							"internalType": "uint256",
							"name": "amount",
							"type": "uint256"
						}
					],
					"name": "Unpledge",
					"type": "event"
				},
				{
					"inputs": [
						{
							"internalType": "uint256",
							"name": "",
							"type": "uint256"
						}
					],
					"name": "campaigns",
					"outputs": [
						{
							"internalType": "address",
							"name": "creator",
							"type": "address"
						},
						{
							"internalType": "uint256",
							"name": "goal",
							"type": "uint256"
						},
						{
							"internalType": "uint256",
							"name": "pledged",
							"type": "uint256"
						},
						{
							"internalType": "uint32",
							"name": "startAt",
							"type": "uint32"
						},
						{
							"internalType": "uint32",
							"name": "endAt",
							"type": "uint32"
						},
						{
							"internalType": "bool",
							"name": "claimed",
							"type": "bool"
						}
					],
					"stateMutability": "view",
					"type": "function"
				},
				{
					"inputs": [
						{
							"internalType": "uint256",
							"name": "_id",
							"type": "uint256"
						}
					],
					"name": "cancel",
					"outputs": [],
					"stateMutability": "nonpayable",
					"type": "function"
				},
				{
					"inputs": [
						{
							"internalType": "uint256",
							"name": "_id",
							"type": "uint256"
						}
					],
					"name": "claim",
					"outputs": [],
					"stateMutability": "nonpayable",
					"type": "function"
				},
				{
					"inputs": [],
					"name": "count",
					"outputs": [
						{
							"internalType": "uint256",
							"name": "",
							"type": "uint256"
						}
					],
					"stateMutability": "view",
					"type": "function"
				},
				{
					"inputs": [
						{
							"internalType": "uint256",
							"name": "_goal",
							"type": "uint256"
						},
						{
							"internalType": "uint32",
							"name": "_startAt",
							"type": "uint32"
						},
						{
							"internalType": "uint32",
							"name": "_endAt",
							"type": "uint32"
						}
					],
					"name": "lunch",
					"outputs": [],
					"stateMutability": "nonpayable",
					"type": "function"
				},
				{
					"inputs": [
						{
							"internalType": "uint256",
							"name": "_id",
							"type": "uint256"
						},
						{
							"internalType": "uint256",
							"name": "_amount",
							"type": "uint256"
						}
					],
					"name": "pledge",
					"outputs": [],
					"stateMutability": "nonpayable",
					"type": "function"
				},
				{
					"inputs": [
						{
							"internalType": "uint256",
							"name": "",
							"type": "uint256"
						},
						{
							"internalType": "address",
							"name": "",
							"type": "address"
						}
					],
					"name": "pledgedAmount",
					"outputs": [
						{
							"internalType": "uint256",
							"name": "",
							"type": "uint256"
						}
					],
					"stateMutability": "view",
					"type": "function"
				},
				{
					"inputs": [
						{
							"internalType": "uint256",
							"name": "_id",
							"type": "uint256"
						}
					],
					"name": "refund",
					"outputs": [],
					"stateMutability": "nonpayable",
					"type": "function"
				},
				{
					"inputs": [],
					"name": "token",
					"outputs": [
						{
							"internalType": "contract IERC20",
							"name": "",
							"type": "address"
						}
					],
					"stateMutability": "view",
					"type": "function"
				},
				{
					"inputs": [
						{
							"internalType": "uint256",
							"name": "_id",
							"type": "uint256"
						},
						{
							"internalType": "uint256",
							"name": "_amount",
							"type": "uint256"
						}
					],
					"name": "unpledge",
					"outputs": [],
					"stateMutability": "nonpayable",
					"type": "function"
				}
			],
			"devdoc": {
				"kind": "dev",
				"methods": {},
				"version": 1
			},
			"evm": {
				"assembly": "    /* \"Hands on Task - 3.sol\":119:3880  contract CrowdFund{... */\n  mstore(0x40, 0xa0)\n    /* \"Hands on Task - 3.sol\":951:1020  constructor(address _token) {... */\n  callvalue\n  dup1\n  iszero\n  tag_1\n  jumpi\n  0x00\n  dup1\n  revert\ntag_1:\n  pop\n  mload(0x40)\n  sub(codesize, bytecodeSize)\n  dup1\n  bytecodeSize\n  dup4\n  codecopy\n  dup2\n  dup2\n  add\n  0x40\n  mstore\n  dup2\n  add\n  swap1\n  tag_2\n  swap2\n  swap1\n  tag_3\n  jump\t// in\ntag_2:\n    /* \"Hands on Task - 3.sol\":1005:1011  _token */\n  dup1\n    /* \"Hands on Task - 3.sol\":990:1012  token = IERC20(_token) */\n  0xffffffffffffffffffffffffffffffffffffffff\n  and\n  0x80\n  dup2\n  0xffffffffffffffffffffffffffffffffffffffff\n  and\n  dup2\n  mstore\n  pop\n  pop\n    /* \"Hands on Task - 3.sol\":951:1020  constructor(address _token) {... */\n  pop\n    /* \"Hands on Task - 3.sol\":119:3880  contract CrowdFund{... */\n  jump(tag_6)\n    /* \"#utility.yul\":88:205   */\ntag_8:\n    /* \"#utility.yul\":197:198   */\n  0x00\n    /* \"#utility.yul\":194:195   */\n  dup1\n    /* \"#utility.yul\":187:199   */\n  revert\n    /* \"#utility.yul\":334:460   */\ntag_10:\n    /* \"#utility.yul\":371:378   */\n  0x00\n    /* \"#utility.yul\":411:453   */\n  0xffffffffffffffffffffffffffffffffffffffff\n    /* \"#utility.yul\":404:409   */\n  dup3\n    /* \"#utility.yul\":400:454   */\n  and\n    /* \"#utility.yul\":389:454   */\n  swap1\n  pop\n    /* \"#utility.yul\":334:460   */\n  swap2\n  swap1\n  pop\n  jump\t// out\n    /* \"#utility.yul\":466:562   */\ntag_11:\n    /* \"#utility.yul\":503:510   */\n  0x00\n    /* \"#utility.yul\":532:556   */\n  tag_20\n    /* \"#utility.yul\":550:555   */\n  dup3\n    /* \"#utility.yul\":532:556   */\n  tag_10\n  jump\t// in\ntag_20:\n    /* \"#utility.yul\":521:556   */\n  swap1\n  pop\n    /* \"#utility.yul\":466:562   */\n  swap2\n  swap1\n  pop\n  jump\t// out\n    /* \"#utility.yul\":568:690   */\ntag_12:\n    /* \"#utility.yul\":641:665   */\n  tag_22\n    /* \"#utility.yul\":659:664   */\n  dup2\n    /* \"#utility.yul\":641:665   */\n  tag_11\n  jump\t// in\ntag_22:\n    /* \"#utility.yul\":634:639   */\n  dup2\n    /* \"#utility.yul\":631:666   */\n  eq\n    /* \"#utility.yul\":621:684   */\n  tag_23\n  jumpi\n    /* \"#utility.yul\":680:681   */\n  0x00\n    /* \"#utility.yul\":677:678   */\n  dup1\n    /* \"#utility.yul\":670:682   */\n  revert\n    /* \"#utility.yul\":621:684   */\ntag_23:\n    /* \"#utility.yul\":568:690   */\n  pop\n  jump\t// out\n    /* \"#utility.yul\":696:839   */\ntag_13:\n    /* \"#utility.yul\":753:758   */\n  0x00\n    /* \"#utility.yul\":784:790   */\n  dup2\n    /* \"#utility.yul\":778:791   */\n  mload\n    /* \"#utility.yul\":769:791   */\n  swap1\n  pop\n    /* \"#utility.yul\":800:833   */\n  tag_25\n    /* \"#utility.yul\":827:832   */\n  dup2\n    /* \"#utility.yul\":800:833   */\n  tag_12\n  jump\t// in\ntag_25:\n    /* \"#utility.yul\":696:839   */\n  swap3\n  swap2\n  pop\n  pop\n  jump\t// out\n    /* \"#utility.yul\":845:1196   */\ntag_3:\n    /* \"#utility.yul\":915:921   */\n  0x00\n    /* \"#utility.yul\":964:966   */\n  0x20\n    /* \"#utility.yul\":952:961   */\n  dup3\n    /* \"#utility.yul\":943:950   */\n  dup5\n    /* \"#utility.yul\":939:962   */\n  sub\n    /* \"#utility.yul\":935:967   */\n  slt\n    /* \"#utility.yul\":932:1051   */\n  iszero\n  tag_27\n  jumpi\n    /* \"#utility.yul\":970:1049   */\n  tag_28\n  tag_8\n  jump\t// in\ntag_28:\n    /* \"#utility.yul\":932:1051   */\ntag_27:\n    /* \"#utility.yul\":1090:1091   */\n  0x00\n    /* \"#utility.yul\":1115:1179   */\n  tag_29\n    /* \"#utility.yul\":1171:1178   */\n  dup5\n    /* \"#utility.yul\":1162:1168   */\n  dup3\n    /* \"#utility.yul\":1151:1160   */\n  dup6\n    /* \"#utility.yul\":1147:1169   */\n  add\n    /* \"#utility.yul\":1115:1179   */\n  tag_13\n  jump\t// in\ntag_29:\n    /* \"#utility.yul\":1105:1179   */\n  swap2\n  pop\n    /* \"#utility.yul\":1061:1189   */\n  pop\n    /* \"#utility.yul\":845:1196   */\n  swap3\n  swap2\n  pop\n  pop\n  jump\t// out\n    /* \"Hands on Task - 3.sol\":119:3880  contract CrowdFund{... */\ntag_6:\n  mload(0x80)\n  codecopy(0x00, dataOffset(sub_0), dataSize(sub_0))\n  0x00\n  assignImmutable(\"0xe6f961b5eaec29807fd460af12fbd720c7c4993791c080ad8e40c06b783956d8\")\n  return(0x00, dataSize(sub_0))\nstop\n\nsub_0: assembly {\n        /* \"Hands on Task - 3.sol\":119:3880  contract CrowdFund{... */\n      mstore(0x40, 0x80)\n      callvalue\n      dup1\n      iszero\n      tag_1\n      jumpi\n      0x00\n      dup1\n      revert\n    tag_1:\n      pop\n      jumpi(tag_2, lt(calldatasize, 0x04))\n      shr(0xe0, calldataload(0x00))\n      dup1\n      0x711853ab\n      gt\n      tag_13\n      jumpi\n      dup1\n      0x711853ab\n      eq\n      tag_8\n      jumpi\n      dup1\n      0xaa4fb63a\n      eq\n      tag_9\n      jumpi\n      dup1\n      0xdaf69940\n      eq\n      tag_10\n      jumpi\n      dup1\n      0xfc0c546a\n      eq\n      tag_11\n      jumpi\n      dup1\n      0xfde327be\n      eq\n      tag_12\n      jumpi\n      jump(tag_2)\n    tag_13:\n      dup1\n      0x06661abd\n      eq\n      tag_3\n      jumpi\n      dup1\n      0x141961bc\n      eq\n      tag_4\n      jumpi\n      dup1\n      0x278ecde1\n      eq\n      tag_5\n      jumpi\n      dup1\n      0x379607f5\n      eq\n      tag_6\n      jumpi\n      dup1\n      0x40e58ee5\n      eq\n      tag_7\n      jumpi\n    tag_2:\n      0x00\n      dup1\n      revert\n        /* \"Hands on Task - 3.sol\":806:823  uint public count */\n    tag_3:\n      tag_14\n      tag_15\n      jump\t// in\n    tag_14:\n      mload(0x40)\n      tag_16\n      swap2\n      swap1\n      tag_17\n      jump\t// in\n    tag_16:\n      mload(0x40)\n      dup1\n      swap2\n      sub\n      swap1\n      return\n        /* \"Hands on Task - 3.sol\":830:872  mapping(uint => Campaign) public campaigns */\n    tag_4:\n      tag_18\n      0x04\n      dup1\n      calldatasize\n      sub\n      dup2\n      add\n      swap1\n      tag_19\n      swap2\n      swap1\n      tag_20\n      jump\t// in\n    tag_19:\n      tag_21\n      jump\t// in\n    tag_18:\n      mload(0x40)\n      tag_22\n      swap7\n      swap6\n      swap5\n      swap4\n      swap3\n      swap2\n      swap1\n      tag_23\n      jump\t// in\n    tag_22:\n      mload(0x40)\n      dup1\n      swap2\n      sub\n      swap1\n      return\n        /* \"Hands on Task - 3.sol\":3418:3871  function refund(uint _id) external{... */\n    tag_5:\n      tag_24\n      0x04\n      dup1\n      calldatasize\n      sub\n      dup2\n      add\n      swap1\n      tag_25\n      swap2\n      swap1\n      tag_20\n      jump\t// in\n    tag_25:\n      tag_26\n      jump\t// in\n    tag_24:\n      stop\n        /* \"Hands on Task - 3.sol\":2883:3404  function claim(uint _id) external {... */\n    tag_6:\n      tag_27\n      0x04\n      dup1\n      calldatasize\n      sub\n      dup2\n      add\n      swap1\n      tag_28\n      swap2\n      swap1\n      tag_20\n      jump\t// in\n    tag_28:\n      tag_29\n      jump\t// in\n    tag_27:\n      stop\n        /* \"Hands on Task - 3.sol\":1651:1959  function cancel(uint _id) external {... */\n    tag_7:\n      tag_30\n      0x04\n      dup1\n      calldatasize\n      sub\n      dup2\n      add\n      swap1\n      tag_31\n      swap2\n      swap1\n      tag_20\n      jump\t// in\n    tag_31:\n      tag_32\n      jump\t// in\n    tag_30:\n      stop\n        /* \"Hands on Task - 3.sol\":2479:2871  function unpledge(uint _id, uint _amount) external {... */\n    tag_8:\n      tag_33\n      0x04\n      dup1\n      calldatasize\n      sub\n      dup2\n      add\n      swap1\n      tag_34\n      swap2\n      swap1\n      tag_35\n      jump\t// in\n    tag_34:\n      tag_36\n      jump\t// in\n    tag_33:\n      stop\n        /* \"Hands on Task - 3.sol\":879:942  mapping(uint => mapping(address => uint )) public pledgedAmount */\n    tag_9:\n      tag_37\n      0x04\n      dup1\n      calldatasize\n      sub\n      dup2\n      add\n      swap1\n      tag_38\n      swap2\n      swap1\n      tag_39\n      jump\t// in\n    tag_38:\n      tag_40\n      jump\t// in\n    tag_37:\n      mload(0x40)\n      tag_41\n      swap2\n      swap1\n      tag_17\n      jump\t// in\n    tag_41:\n      mload(0x40)\n      dup1\n      swap2\n      sub\n      swap1\n      return\n        /* \"Hands on Task - 3.sol\":1028:1639  function lunch(uint _goal, uint32 _startAt, uint32 _endAt) external {... */\n    tag_10:\n      tag_42\n      0x04\n      dup1\n      calldatasize\n      sub\n      dup2\n      add\n      swap1\n      tag_43\n      swap2\n      swap1\n      tag_44\n      jump\t// in\n    tag_43:\n      tag_45\n      jump\t// in\n    tag_42:\n      stop\n        /* \"Hands on Task - 3.sol\":770:799  IERC20 public immutable token */\n    tag_11:\n      tag_46\n      tag_47\n      jump\t// in\n    tag_46:\n      mload(0x40)\n      tag_48\n      swap2\n      swap1\n      tag_49\n      jump\t// in\n    tag_48:\n      mload(0x40)\n      dup1\n      swap2\n      sub\n      swap1\n      return\n        /* \"Hands on Task - 3.sol\":1971:2467  function pledge(uint _id, uint _amount) external {... */\n    tag_12:\n      tag_50\n      0x04\n      dup1\n      calldatasize\n      sub\n      dup2\n      add\n      swap1\n      tag_51\n      swap2\n      swap1\n      tag_35\n      jump\t// in\n    tag_51:\n      tag_52\n      jump\t// in\n    tag_50:\n      stop\n        /* \"Hands on Task - 3.sol\":806:823  uint public count */\n    tag_15:\n      sload(0x00)\n      dup2\n      jump\t// out\n        /* \"Hands on Task - 3.sol\":830:872  mapping(uint => Campaign) public campaigns */\n    tag_21:\n      mstore(0x20, 0x01)\n      dup1\n      0x00\n      mstore\n      keccak256(0x00, 0x40)\n      0x00\n      swap2\n      pop\n      swap1\n      pop\n      dup1\n      0x00\n      add\n      0x00\n      swap1\n      sload\n      swap1\n      0x0100\n      exp\n      swap1\n      div\n      0xffffffffffffffffffffffffffffffffffffffff\n      and\n      swap1\n      dup1\n      0x01\n      add\n      sload\n      swap1\n      dup1\n      0x02\n      add\n      sload\n      swap1\n      dup1\n      0x03\n      add\n      0x00\n      swap1\n      sload\n      swap1\n      0x0100\n      exp\n      swap1\n      div\n      0xffffffff\n      and\n      swap1\n      dup1\n      0x03\n      add\n      0x04\n      swap1\n      sload\n      swap1\n      0x0100\n      exp\n      swap1\n      div\n      0xffffffff\n      and\n      swap1\n      dup1\n      0x03\n      add\n      0x08\n      swap1\n      sload\n      swap1\n      0x0100\n      exp\n      swap1\n      div\n      0xff\n      and\n      swap1\n      pop\n      dup7\n      jump\t// out\n        /* \"Hands on Task - 3.sol\":3418:3871  function refund(uint _id) external{... */\n    tag_26:\n        /* \"Hands on Task - 3.sol\":3468:3493  Campaign storage campaign */\n      0x00\n        /* \"Hands on Task - 3.sol\":3496:3505  campaigns */\n      0x01\n        /* \"Hands on Task - 3.sol\":3496:3510  campaigns[_id] */\n      0x00\n        /* \"Hands on Task - 3.sol\":3506:3509  _id */\n      dup4\n        /* \"Hands on Task - 3.sol\":3496:3510  campaigns[_id] */\n      dup2\n      mstore\n      0x20\n      add\n      swap1\n      dup2\n      mstore\n      0x20\n      add\n      0x00\n      keccak256\n        /* \"Hands on Task - 3.sol\":3468:3510  Campaign storage campaign = campaigns[_id] */\n      swap1\n      pop\n        /* \"Hands on Task - 3.sol\":3551:3559  campaign */\n      dup1\n        /* \"Hands on Task - 3.sol\":3551:3565  campaign.endAt */\n      0x03\n      add\n      0x04\n      swap1\n      sload\n      swap1\n      0x0100\n      exp\n      swap1\n      div\n      0xffffffff\n      and\n        /* \"Hands on Task - 3.sol\":3533:3565  block.timestamp > campaign.endAt */\n      0xffffffff\n      and\n        /* \"Hands on Task - 3.sol\":3533:3548  block.timestamp */\n      timestamp\n        /* \"Hands on Task - 3.sol\":3533:3565  block.timestamp > campaign.endAt */\n      gt\n        /* \"Hands on Task - 3.sol\":3525:3583  require(block.timestamp > campaign.endAt, \"not ended yet\") */\n      tag_54\n      jumpi\n      mload(0x40)\n      0x08c379a000000000000000000000000000000000000000000000000000000000\n      dup2\n      mstore\n      0x04\n      add\n      tag_55\n      swap1\n      tag_56\n      jump\t// in\n    tag_55:\n      mload(0x40)\n      dup1\n      swap2\n      sub\n      swap1\n      revert\n    tag_54:\n        /* \"Hands on Task - 3.sol\":3625:3633  campaign */\n      dup1\n        /* \"Hands on Task - 3.sol\":3625:3638  campaign.goal */\n      0x01\n      add\n      sload\n        /* \"Hands on Task - 3.sol\":3606:3614  campaign */\n      dup2\n        /* \"Hands on Task - 3.sol\":3606:3622  campaign.pledged */\n      0x02\n      add\n      sload\n        /* \"Hands on Task - 3.sol\":3606:3638  campaign.pledged < campaign.goal */\n      lt\n        /* \"Hands on Task - 3.sol\":3598:3657  require(campaign.pledged < campaign.goal, \"pladged < goal\") */\n      tag_57\n      jumpi\n      mload(0x40)\n      0x08c379a000000000000000000000000000000000000000000000000000000000\n      dup2\n      mstore\n      0x04\n      add\n      tag_58\n      swap1\n      tag_59\n      jump\t// in\n    tag_58:\n      mload(0x40)\n      dup1\n      swap2\n      sub\n      swap1\n      revert\n    tag_57:\n        /* \"Hands on Task - 3.sol\":3674:3682  uint bal */\n      0x00\n        /* \"Hands on Task - 3.sol\":3685:3698  pledgedAmount */\n      0x02\n        /* \"Hands on Task - 3.sol\":3685:3703  pledgedAmount[_id] */\n      0x00\n        /* \"Hands on Task - 3.sol\":3699:3702  _id */\n      dup5\n        /* \"Hands on Task - 3.sol\":3685:3703  pledgedAmount[_id] */\n      dup2\n      mstore\n      0x20\n      add\n      swap1\n      dup2\n      mstore\n      0x20\n      add\n      0x00\n      keccak256\n        /* \"Hands on Task - 3.sol\":3685:3715  pledgedAmount[_id][msg.sender] */\n      0x00\n        /* \"Hands on Task - 3.sol\":3704:3714  msg.sender */\n      caller\n        /* \"Hands on Task - 3.sol\":3685:3715  pledgedAmount[_id][msg.sender] */\n      0xffffffffffffffffffffffffffffffffffffffff\n      and\n      0xffffffffffffffffffffffffffffffffffffffff\n      and\n      dup2\n      mstore\n      0x20\n      add\n      swap1\n      dup2\n      mstore\n      0x20\n      add\n      0x00\n      keccak256\n      sload\n        /* \"Hands on Task - 3.sol\":3674:3715  uint bal = pledgedAmount[_id][msg.sender] */\n      swap1\n      pop\n        /* \"Hands on Task - 3.sol\":3762:3763  0 */\n      0x00\n        /* \"Hands on Task - 3.sol\":3730:3743  pledgedAmount */\n      0x02\n        /* \"Hands on Task - 3.sol\":3730:3748  pledgedAmount[_id] */\n      0x00\n        /* \"Hands on Task - 3.sol\":3744:3747  _id */\n      dup6\n        /* \"Hands on Task - 3.sol\":3730:3748  pledgedAmount[_id] */\n      dup2\n      mstore\n      0x20\n      add\n      swap1\n      dup2\n      mstore\n      0x20\n      add\n      0x00\n      keccak256\n        /* \"Hands on Task - 3.sol\":3730:3760  pledgedAmount[_id][msg.sender] */\n      0x00\n        /* \"Hands on Task - 3.sol\":3749:3759  msg.sender */\n      caller\n        /* \"Hands on Task - 3.sol\":3730:3760  pledgedAmount[_id][msg.sender] */\n      0xffffffffffffffffffffffffffffffffffffffff\n      and\n      0xffffffffffffffffffffffffffffffffffffffff\n      and\n      dup2\n      mstore\n      0x20\n      add\n      swap1\n      dup2\n      mstore\n      0x20\n      add\n      0x00\n      keccak256\n        /* \"Hands on Task - 3.sol\":3730:3763  pledgedAmount[_id][msg.sender] =0 */\n      dup2\n      swap1\n      sstore\n      pop\n        /* \"Hands on Task - 3.sol\":3778:3783  token */\n      immutable(\"0xe6f961b5eaec29807fd460af12fbd720c7c4993791c080ad8e40c06b783956d8\")\n        /* \"Hands on Task - 3.sol\":3778:3792  token.transfer */\n      0xffffffffffffffffffffffffffffffffffffffff\n      and\n      0xa9059cbb\n        /* \"Hands on Task - 3.sol\":3793:3803  msg.sender */\n      caller\n        /* \"Hands on Task - 3.sol\":3805:3808  bal */\n      dup4\n        /* \"Hands on Task - 3.sol\":3778:3809  token.transfer(msg.sender, bal) */\n      mload(0x40)\n      dup4\n      0xffffffff\n      and\n      0xe0\n      shl\n      dup2\n      mstore\n      0x04\n      add\n      tag_60\n      swap3\n      swap2\n      swap1\n      tag_61\n      jump\t// in\n    tag_60:\n      0x20\n      mload(0x40)\n      dup1\n      dup4\n      sub\n      dup2\n      0x00\n      dup8\n      gas\n      call\n      iszero\n      dup1\n      iszero\n      tag_63\n      jumpi\n      returndatasize\n      0x00\n      dup1\n      returndatacopy\n      revert(0x00, returndatasize)\n    tag_63:\n      pop\n      pop\n      pop\n      pop\n      mload(0x40)\n      returndatasize\n      not(0x1f)\n      0x1f\n      dup3\n      add\n      and\n      dup3\n      add\n      dup1\n      0x40\n      mstore\n      pop\n      dup2\n      add\n      swap1\n      tag_64\n      swap2\n      swap1\n      tag_65\n      jump\t// in\n    tag_64:\n      pop\n        /* \"Hands on Task - 3.sol\":3843:3853  msg.sender */\n      caller\n        /* \"Hands on Task - 3.sol\":3831:3859  Refund(_id, msg.sender, bal) */\n      0xffffffffffffffffffffffffffffffffffffffff\n      and\n        /* \"Hands on Task - 3.sol\":3838:3841  _id */\n      dup4\n        /* \"Hands on Task - 3.sol\":3831:3859  Refund(_id, msg.sender, bal) */\n      0x21e12a7cad0da5928167e1084ea4d5fdf8d9af66657a2543a9ac76a0ca081477\n        /* \"Hands on Task - 3.sol\":3855:3858  bal */\n      dup4\n        /* \"Hands on Task - 3.sol\":3831:3859  Refund(_id, msg.sender, bal) */\n      mload(0x40)\n      tag_66\n      swap2\n      swap1\n      tag_17\n      jump\t// in\n    tag_66:\n      mload(0x40)\n      dup1\n      swap2\n      sub\n      swap1\n      log3\n        /* \"Hands on Task - 3.sol\":3452:3871  {... */\n      pop\n      pop\n        /* \"Hands on Task - 3.sol\":3418:3871  function refund(uint _id) external{... */\n      pop\n      jump\t// out\n        /* \"Hands on Task - 3.sol\":2883:3404  function claim(uint _id) external {... */\n    tag_29:\n        /* \"Hands on Task - 3.sol\":2932:2957  Campaign storage campaign */\n      0x00\n        /* \"Hands on Task - 3.sol\":2960:2969  campaigns */\n      0x01\n        /* \"Hands on Task - 3.sol\":2960:2974  campaigns[_id] */\n      0x00\n        /* \"Hands on Task - 3.sol\":2970:2973  _id */\n      dup4\n        /* \"Hands on Task - 3.sol\":2960:2974  campaigns[_id] */\n      dup2\n      mstore\n      0x20\n      add\n      swap1\n      dup2\n      mstore\n      0x20\n      add\n      0x00\n      keccak256\n        /* \"Hands on Task - 3.sol\":2932:2974  Campaign storage campaign = campaigns[_id] */\n      swap1\n      pop\n        /* \"Hands on Task - 3.sol\":3011:3019  campaign */\n      dup1\n        /* \"Hands on Task - 3.sol\":3011:3027  campaign.creator */\n      0x00\n      add\n      0x00\n      swap1\n      sload\n      swap1\n      0x0100\n      exp\n      swap1\n      div\n      0xffffffffffffffffffffffffffffffffffffffff\n      and\n        /* \"Hands on Task - 3.sol\":2997:3027  msg.sender == campaign.creator */\n      0xffffffffffffffffffffffffffffffffffffffff\n      and\n        /* \"Hands on Task - 3.sol\":2997:3007  msg.sender */\n      caller\n        /* \"Hands on Task - 3.sol\":2997:3027  msg.sender == campaign.creator */\n      0xffffffffffffffffffffffffffffffffffffffff\n      and\n      eq\n        /* \"Hands on Task - 3.sol\":2989:3043  require(msg.sender == campaign.creator, \"not creator\") */\n      tag_68\n      jumpi\n      mload(0x40)\n      0x08c379a000000000000000000000000000000000000000000000000000000000\n      dup2\n      mstore\n      0x04\n      add\n      tag_69\n      swap1\n      tag_70\n      jump\t// in\n    tag_69:\n      mload(0x40)\n      dup1\n      swap2\n      sub\n      swap1\n      revert\n    tag_68:\n        /* \"Hands on Task - 3.sol\":3084:3092  campaign */\n      dup1\n        /* \"Hands on Task - 3.sol\":3084:3098  campaign.endAt */\n      0x03\n      add\n      0x04\n      swap1\n      sload\n      swap1\n      0x0100\n      exp\n      swap1\n      div\n      0xffffffff\n      and\n        /* \"Hands on Task - 3.sol\":3066:3098  block.timestamp > campaign.endAt */\n      0xffffffff\n      and\n        /* \"Hands on Task - 3.sol\":3066:3081  block.timestamp */\n      timestamp\n        /* \"Hands on Task - 3.sol\":3066:3098  block.timestamp > campaign.endAt */\n      gt\n        /* \"Hands on Task - 3.sol\":3058:3116  require(block.timestamp > campaign.endAt, \"not ended yet\") */\n      tag_71\n      jumpi\n      mload(0x40)\n      0x08c379a000000000000000000000000000000000000000000000000000000000\n      dup2\n      mstore\n      0x04\n      add\n      tag_72\n      swap1\n      tag_56\n      jump\t// in\n    tag_72:\n      mload(0x40)\n      dup1\n      swap2\n      sub\n      swap1\n      revert\n    tag_71:\n        /* \"Hands on Task - 3.sol\":3159:3167  campaign */\n      dup1\n        /* \"Hands on Task - 3.sol\":3159:3172  campaign.goal */\n      0x01\n      add\n      sload\n        /* \"Hands on Task - 3.sol\":3139:3147  campaign */\n      dup2\n        /* \"Hands on Task - 3.sol\":3139:3155  campaign.pledged */\n      0x02\n      add\n      sload\n        /* \"Hands on Task - 3.sol\":3139:3172  campaign.pledged >= campaign.goal */\n      lt\n      iszero\n        /* \"Hands on Task - 3.sol\":3131:3191  require(campaign.pledged >= campaign.goal, \"pladged < goal\") */\n      tag_73\n      jumpi\n      mload(0x40)\n      0x08c379a000000000000000000000000000000000000000000000000000000000\n      dup2\n      mstore\n      0x04\n      add\n      tag_74\n      swap1\n      tag_59\n      jump\t// in\n    tag_74:\n      mload(0x40)\n      dup1\n      swap2\n      sub\n      swap1\n      revert\n    tag_73:\n        /* \"Hands on Task - 3.sol\":3215:3223  campaign */\n      dup1\n        /* \"Hands on Task - 3.sol\":3215:3231  campaign.claimed */\n      0x03\n      add\n      0x08\n      swap1\n      sload\n      swap1\n      0x0100\n      exp\n      swap1\n      div\n      0xff\n      and\n        /* \"Hands on Task - 3.sol\":3214:3231  !campaign.claimed */\n      iszero\n        /* \"Hands on Task - 3.sol\":3206:3251  require(!campaign.claimed, \"already claimed\") */\n      tag_75\n      jumpi\n      mload(0x40)\n      0x08c379a000000000000000000000000000000000000000000000000000000000\n      dup2\n      mstore\n      0x04\n      add\n      tag_76\n      swap1\n      tag_77\n      jump\t// in\n    tag_76:\n      mload(0x40)\n      dup1\n      swap2\n      sub\n      swap1\n      revert\n    tag_75:\n        /* \"Hands on Task - 3.sol\":3287:3291  true */\n      0x01\n        /* \"Hands on Task - 3.sol\":3268:3276  campaign */\n      dup2\n        /* \"Hands on Task - 3.sol\":3268:3284  campaign.claimed */\n      0x03\n      add\n      0x08\n        /* \"Hands on Task - 3.sol\":3268:3291  campaign.claimed = true */\n      0x0100\n      exp\n      dup2\n      sload\n      dup2\n      0xff\n      mul\n      not\n      and\n      swap1\n      dup4\n      iszero\n      iszero\n      mul\n      or\n      swap1\n      sstore\n      pop\n        /* \"Hands on Task - 3.sol\":3308:3313  token */\n      immutable(\"0xe6f961b5eaec29807fd460af12fbd720c7c4993791c080ad8e40c06b783956d8\")\n        /* \"Hands on Task - 3.sol\":3308:3322  token.transfer */\n      0xffffffffffffffffffffffffffffffffffffffff\n      and\n      0xa9059cbb\n        /* \"Hands on Task - 3.sol\":3323:3333  msg.sender */\n      caller\n        /* \"Hands on Task - 3.sol\":3335:3343  campaign */\n      dup4\n        /* \"Hands on Task - 3.sol\":3335:3351  campaign.pledged */\n      0x02\n      add\n      sload\n        /* \"Hands on Task - 3.sol\":3308:3352  token.transfer(msg.sender, campaign.pledged) */\n      mload(0x40)\n      dup4\n      0xffffffff\n      and\n      0xe0\n      shl\n      dup2\n      mstore\n      0x04\n      add\n      tag_78\n      swap3\n      swap2\n      swap1\n      tag_61\n      jump\t// in\n    tag_78:\n      0x20\n      mload(0x40)\n      dup1\n      dup4\n      sub\n      dup2\n      0x00\n      dup8\n      gas\n      call\n      iszero\n      dup1\n      iszero\n      tag_80\n      jumpi\n      returndatasize\n      0x00\n      dup1\n      returndatacopy\n      revert(0x00, returndatasize)\n    tag_80:\n      pop\n      pop\n      pop\n      pop\n      mload(0x40)\n      returndatasize\n      not(0x1f)\n      0x1f\n      dup3\n      add\n      and\n      dup3\n      add\n      dup1\n      0x40\n      mstore\n      pop\n      dup2\n      add\n      swap1\n      tag_81\n      swap2\n      swap1\n      tag_65\n      jump\t// in\n    tag_81:\n      pop\n        /* \"Hands on Task - 3.sol\":3379:3389  Claim(_id) */\n      0x7bb2b3c10797baccb6f8c4791f1edd6ca2f0d028ee0eda64b01a9a57e3a653f7\n        /* \"Hands on Task - 3.sol\":3385:3388  _id */\n      dup3\n        /* \"Hands on Task - 3.sol\":3379:3389  Claim(_id) */\n      mload(0x40)\n      tag_82\n      swap2\n      swap1\n      tag_17\n      jump\t// in\n    tag_82:\n      mload(0x40)\n      dup1\n      swap2\n      sub\n      swap1\n      log1\n        /* \"Hands on Task - 3.sol\":2917:3404  {... */\n      pop\n        /* \"Hands on Task - 3.sol\":2883:3404  function claim(uint _id) external {... */\n      pop\n      jump\t// out\n        /* \"Hands on Task - 3.sol\":1651:1959  function cancel(uint _id) external {... */\n    tag_32:\n        /* \"Hands on Task - 3.sol\":1701:1725  Campaign memory campaign */\n      0x00\n        /* \"Hands on Task - 3.sol\":1728:1737  campaigns */\n      0x01\n        /* \"Hands on Task - 3.sol\":1728:1742  campaigns[_id] */\n      0x00\n        /* \"Hands on Task - 3.sol\":1738:1741  _id */\n      dup4\n        /* \"Hands on Task - 3.sol\":1728:1742  campaigns[_id] */\n      dup2\n      mstore\n      0x20\n      add\n      swap1\n      dup2\n      mstore\n      0x20\n      add\n      0x00\n      keccak256\n        /* \"Hands on Task - 3.sol\":1701:1742  Campaign memory campaign = campaigns[_id] */\n      mload(0x40)\n      dup1\n      0xc0\n      add\n      0x40\n      mstore\n      swap1\n      dup2\n      0x00\n      dup3\n      add\n      0x00\n      swap1\n      sload\n      swap1\n      0x0100\n      exp\n      swap1\n      div\n      0xffffffffffffffffffffffffffffffffffffffff\n      and\n      0xffffffffffffffffffffffffffffffffffffffff\n      and\n      0xffffffffffffffffffffffffffffffffffffffff\n      and\n      dup2\n      mstore\n      0x20\n      add\n      0x01\n      dup3\n      add\n      sload\n      dup2\n      mstore\n      0x20\n      add\n      0x02\n      dup3\n      add\n      sload\n      dup2\n      mstore\n      0x20\n      add\n      0x03\n      dup3\n      add\n      0x00\n      swap1\n      sload\n      swap1\n      0x0100\n      exp\n      swap1\n      div\n      0xffffffff\n      and\n      0xffffffff\n      and\n      0xffffffff\n      and\n      dup2\n      mstore\n      0x20\n      add\n      0x03\n      dup3\n      add\n      0x04\n      swap1\n      sload\n      swap1\n      0x0100\n      exp\n      swap1\n      div\n      0xffffffff\n      and\n      0xffffffff\n      and\n      0xffffffff\n      and\n      dup2\n      mstore\n      0x20\n      add\n      0x03\n      dup3\n      add\n      0x08\n      swap1\n      sload\n      swap1\n      0x0100\n      exp\n      swap1\n      div\n      0xff\n      and\n      iszero\n      iszero\n      iszero\n      iszero\n      dup2\n      mstore\n      pop\n      pop\n      swap1\n      pop\n        /* \"Hands on Task - 3.sol\":1779:1787  campaign */\n      dup1\n        /* \"Hands on Task - 3.sol\":1779:1795  campaign.creator */\n      0x00\n      add\n      mload\n        /* \"Hands on Task - 3.sol\":1765:1795  msg.sender == campaign.creator */\n      0xffffffffffffffffffffffffffffffffffffffff\n      and\n        /* \"Hands on Task - 3.sol\":1765:1775  msg.sender */\n      caller\n        /* \"Hands on Task - 3.sol\":1765:1795  msg.sender == campaign.creator */\n      0xffffffffffffffffffffffffffffffffffffffff\n      and\n      eq\n        /* \"Hands on Task - 3.sol\":1757:1811  require(msg.sender == campaign.creator, \"not creator\") */\n      tag_84\n      jumpi\n      mload(0x40)\n      0x08c379a000000000000000000000000000000000000000000000000000000000\n      dup2\n      mstore\n      0x04\n      add\n      tag_85\n      swap1\n      tag_70\n      jump\t// in\n    tag_85:\n      mload(0x40)\n      dup1\n      swap2\n      sub\n      swap1\n      revert\n    tag_84:\n        /* \"Hands on Task - 3.sol\":1852:1860  campaign */\n      dup1\n        /* \"Hands on Task - 3.sol\":1852:1868  campaign.startAt */\n      0x60\n      add\n      mload\n        /* \"Hands on Task - 3.sol\":1834:1868  block.timestamp < campaign.startAt */\n      0xffffffff\n      and\n        /* \"Hands on Task - 3.sol\":1834:1849  block.timestamp */\n      timestamp\n        /* \"Hands on Task - 3.sol\":1834:1868  block.timestamp < campaign.startAt */\n      lt\n        /* \"Hands on Task - 3.sol\":1826:1880  require(block.timestamp < campaign.startAt, \"started\") */\n      tag_86\n      jumpi\n      mload(0x40)\n      0x08c379a000000000000000000000000000000000000000000000000000000000\n      dup2\n      mstore\n      0x04\n      add\n      tag_87\n      swap1\n      tag_88\n      jump\t// in\n    tag_87:\n      mload(0x40)\n      dup1\n      swap2\n      sub\n      swap1\n      revert\n    tag_86:\n        /* \"Hands on Task - 3.sol\":1902:1911  campaigns */\n      0x01\n        /* \"Hands on Task - 3.sol\":1902:1916  campaigns[_id] */\n      0x00\n        /* \"Hands on Task - 3.sol\":1912:1915  _id */\n      dup4\n        /* \"Hands on Task - 3.sol\":1902:1916  campaigns[_id] */\n      dup2\n      mstore\n      0x20\n      add\n      swap1\n      dup2\n      mstore\n      0x20\n      add\n      0x00\n      keccak256\n      0x00\n        /* \"Hands on Task - 3.sol\":1895:1916  delete campaigns[_id] */\n      dup1\n      dup3\n      add\n      exp(0x0100, 0x00)\n      dup2\n      sload\n      swap1\n      0xffffffffffffffffffffffffffffffffffffffff\n      mul\n      not\n      and\n      swap1\n      sstore\n      0x01\n      dup3\n      add\n      0x00\n      swap1\n      sstore\n      0x02\n      dup3\n      add\n      0x00\n      swap1\n      sstore\n      0x03\n      dup3\n      add\n      exp(0x0100, 0x00)\n      dup2\n      sload\n      swap1\n      0xffffffff\n      mul\n      not\n      and\n      swap1\n      sstore\n      0x03\n      dup3\n      add\n      exp(0x0100, 0x04)\n      dup2\n      sload\n      swap1\n      0xffffffff\n      mul\n      not\n      and\n      swap1\n      sstore\n      0x03\n      dup3\n      add\n      exp(0x0100, 0x08)\n      dup2\n      sload\n      swap1\n      0xff\n      mul\n      not\n      and\n      swap1\n      sstore\n      pop\n      pop\n        /* \"Hands on Task - 3.sol\":1936:1947  Cancel(_id) */\n      0x8bf30e7ff26833413be5f69e1d373744864d600b664204b4a2f9844a8eedb9ed\n        /* \"Hands on Task - 3.sol\":1943:1946  _id */\n      dup3\n        /* \"Hands on Task - 3.sol\":1936:1947  Cancel(_id) */\n      mload(0x40)\n      tag_89\n      swap2\n      swap1\n      tag_17\n      jump\t// in\n    tag_89:\n      mload(0x40)\n      dup1\n      swap2\n      sub\n      swap1\n      log1\n        /* \"Hands on Task - 3.sol\":1686:1959  {... */\n      pop\n        /* \"Hands on Task - 3.sol\":1651:1959  function cancel(uint _id) external {... */\n      pop\n      jump\t// out\n        /* \"Hands on Task - 3.sol\":2479:2871  function unpledge(uint _id, uint _amount) external {... */\n    tag_36:\n        /* \"Hands on Task - 3.sol\":2545:2570  Campaign storage campaign */\n      0x00\n        /* \"Hands on Task - 3.sol\":2573:2582  campaigns */\n      0x01\n        /* \"Hands on Task - 3.sol\":2573:2587  campaigns[_id] */\n      0x00\n        /* \"Hands on Task - 3.sol\":2583:2586  _id */\n      dup5\n        /* \"Hands on Task - 3.sol\":2573:2587  campaigns[_id] */\n      dup2\n      mstore\n      0x20\n      add\n      swap1\n      dup2\n      mstore\n      0x20\n      add\n      0x00\n      keccak256\n        /* \"Hands on Task - 3.sol\":2545:2587  Campaign storage campaign = campaigns[_id] */\n      swap1\n      pop\n        /* \"Hands on Task - 3.sol\":2629:2637  campaign */\n      dup1\n        /* \"Hands on Task - 3.sol\":2629:2643  campaign.endAt */\n      0x03\n      add\n      0x04\n      swap1\n      sload\n      swap1\n      0x0100\n      exp\n      swap1\n      div\n      0xffffffff\n      and\n        /* \"Hands on Task - 3.sol\":2610:2643  block.timestamp <= campaign.endAt */\n      0xffffffff\n      and\n        /* \"Hands on Task - 3.sol\":2610:2625  block.timestamp */\n      timestamp\n        /* \"Hands on Task - 3.sol\":2610:2643  block.timestamp <= campaign.endAt */\n      gt\n      iszero\n        /* \"Hands on Task - 3.sol\":2602:2653  require(block.timestamp <= campaign.endAt, \"ended\") */\n      tag_91\n      jumpi\n      mload(0x40)\n      0x08c379a000000000000000000000000000000000000000000000000000000000\n      dup2\n      mstore\n      0x04\n      add\n      tag_92\n      swap1\n      tag_93\n      jump\t// in\n    tag_92:\n      mload(0x40)\n      dup1\n      swap2\n      sub\n      swap1\n      revert\n    tag_91:\n        /* \"Hands on Task - 3.sol\":2690:2697  _amount */\n      dup2\n        /* \"Hands on Task - 3.sol\":2670:2678  campaign */\n      dup2\n        /* \"Hands on Task - 3.sol\":2670:2686  campaign.pledged */\n      0x02\n      add\n      0x00\n        /* \"Hands on Task - 3.sol\":2670:2697  campaign.pledged -= _amount */\n      dup3\n      dup3\n      sload\n      tag_94\n      swap2\n      swap1\n      tag_95\n      jump\t// in\n    tag_94:\n      swap3\n      pop\n      pop\n      dup2\n      swap1\n      sstore\n      pop\n        /* \"Hands on Task - 3.sol\":2748:2755  _amount */\n      dup2\n        /* \"Hands on Task - 3.sol\":2714:2727  pledgedAmount */\n      0x02\n        /* \"Hands on Task - 3.sol\":2714:2732  pledgedAmount[_id] */\n      0x00\n        /* \"Hands on Task - 3.sol\":2728:2731  _id */\n      dup6\n        /* \"Hands on Task - 3.sol\":2714:2732  pledgedAmount[_id] */\n      dup2\n      mstore\n      0x20\n      add\n      swap1\n      dup2\n      mstore\n      0x20\n      add\n      0x00\n      keccak256\n        /* \"Hands on Task - 3.sol\":2714:2744  pledgedAmount[_id][msg.sender] */\n      0x00\n        /* \"Hands on Task - 3.sol\":2733:2743  msg.sender */\n      caller\n        /* \"Hands on Task - 3.sol\":2714:2744  pledgedAmount[_id][msg.sender] */\n      0xffffffffffffffffffffffffffffffffffffffff\n      and\n      0xffffffffffffffffffffffffffffffffffffffff\n      and\n      dup2\n      mstore\n      0x20\n      add\n      swap1\n      dup2\n      mstore\n      0x20\n      add\n      0x00\n      keccak256\n      0x00\n        /* \"Hands on Task - 3.sol\":2714:2755  pledgedAmount[_id][msg.sender] -= _amount */\n      dup3\n      dup3\n      sload\n      tag_96\n      swap2\n      swap1\n      tag_95\n      jump\t// in\n    tag_96:\n      swap3\n      pop\n      pop\n      dup2\n      swap1\n      sstore\n      pop\n        /* \"Hands on Task - 3.sol\":2770:2775  token */\n      immutable(\"0xe6f961b5eaec29807fd460af12fbd720c7c4993791c080ad8e40c06b783956d8\")\n        /* \"Hands on Task - 3.sol\":2770:2784  token.transfer */\n      0xffffffffffffffffffffffffffffffffffffffff\n      and\n      0xa9059cbb\n        /* \"Hands on Task - 3.sol\":2785:2795  msg.sender */\n      caller\n        /* \"Hands on Task - 3.sol\":2797:2804  _amount */\n      dup5\n        /* \"Hands on Task - 3.sol\":2770:2805  token.transfer(msg.sender, _amount) */\n      mload(0x40)\n      dup4\n      0xffffffff\n      and\n      0xe0\n      shl\n      dup2\n      mstore\n      0x04\n      add\n      tag_97\n      swap3\n      swap2\n      swap1\n      tag_61\n      jump\t// in\n    tag_97:\n      0x20\n      mload(0x40)\n      dup1\n      dup4\n      sub\n      dup2\n      0x00\n      dup8\n      gas\n      call\n      iszero\n      dup1\n      iszero\n      tag_99\n      jumpi\n      returndatasize\n      0x00\n      dup1\n      returndatacopy\n      revert(0x00, returndatasize)\n    tag_99:\n      pop\n      pop\n      pop\n      pop\n      mload(0x40)\n      returndatasize\n      not(0x1f)\n      0x1f\n      dup3\n      add\n      and\n      dup3\n      add\n      dup1\n      0x40\n      mstore\n      pop\n      dup2\n      add\n      swap1\n      tag_100\n      swap2\n      swap1\n      tag_65\n      jump\t// in\n    tag_100:\n      pop\n        /* \"Hands on Task - 3.sol\":2839:2849  msg.sender */\n      caller\n        /* \"Hands on Task - 3.sol\":2825:2859  Unpledge(_id, msg.sender, _amount) */\n      0xffffffffffffffffffffffffffffffffffffffff\n      and\n        /* \"Hands on Task - 3.sol\":2834:2837  _id */\n      dup4\n        /* \"Hands on Task - 3.sol\":2825:2859  Unpledge(_id, msg.sender, _amount) */\n      0x2eeeab891b26a214d1b25749f88a406bdea852bd8c9bfda977e0ef8114c180ba\n        /* \"Hands on Task - 3.sol\":2851:2858  _amount */\n      dup5\n        /* \"Hands on Task - 3.sol\":2825:2859  Unpledge(_id, msg.sender, _amount) */\n      mload(0x40)\n      tag_101\n      swap2\n      swap1\n      tag_17\n      jump\t// in\n    tag_101:\n      mload(0x40)\n      dup1\n      swap2\n      sub\n      swap1\n      log3\n        /* \"Hands on Task - 3.sol\":2530:2871  {... */\n      pop\n        /* \"Hands on Task - 3.sol\":2479:2871  function unpledge(uint _id, uint _amount) external {... */\n      pop\n      pop\n      jump\t// out\n        /* \"Hands on Task - 3.sol\":879:942  mapping(uint => mapping(address => uint )) public pledgedAmount */\n    tag_40:\n      mstore(0x20, 0x02)\n      dup2\n      0x00\n      mstore\n      mstore(0x20, keccak256(0x00, 0x40))\n      dup1\n      0x00\n      mstore\n      keccak256(0x00, 0x40)\n      0x00\n      swap2\n      pop\n      swap2\n      pop\n      pop\n      sload\n      dup2\n      jump\t// out\n        /* \"Hands on Task - 3.sol\":1028:1639  function lunch(uint _goal, uint32 _startAt, uint32 _endAt) external {... */\n    tag_45:\n        /* \"Hands on Task - 3.sol\":1127:1142  block.timestamp */\n      timestamp\n        /* \"Hands on Task - 3.sol\":1115:1123  _startAt */\n      dup3\n        /* \"Hands on Task - 3.sol\":1115:1142  _startAt >= block.timestamp */\n      0xffffffff\n      and\n      lt\n      iszero\n        /* \"Hands on Task - 3.sol\":1107:1161  require(_startAt >= block.timestamp, \"start at < now\") */\n      tag_103\n      jumpi\n      mload(0x40)\n      0x08c379a000000000000000000000000000000000000000000000000000000000\n      dup2\n      mstore\n      0x04\n      add\n      tag_104\n      swap1\n      tag_105\n      jump\t// in\n    tag_104:\n      mload(0x40)\n      dup1\n      swap2\n      sub\n      swap1\n      revert\n    tag_103:\n        /* \"Hands on Task - 3.sol\":1190:1198  _startAt */\n      dup2\n        /* \"Hands on Task - 3.sol\":1180:1198  _endAt >= _startAt */\n      0xffffffff\n      and\n        /* \"Hands on Task - 3.sol\":1180:1186  _endAt */\n      dup2\n        /* \"Hands on Task - 3.sol\":1180:1198  _endAt >= _startAt */\n      0xffffffff\n      and\n      lt\n      iszero\n        /* \"Hands on Task - 3.sol\":1172:1220  require(_endAt >= _startAt, \"end at < start at\") */\n      tag_106\n      jumpi\n      mload(0x40)\n      0x08c379a000000000000000000000000000000000000000000000000000000000\n      dup2\n      mstore\n      0x04\n      add\n      tag_107\n      swap1\n      tag_108\n      jump\t// in\n    tag_107:\n      mload(0x40)\n      dup1\n      swap2\n      sub\n      swap1\n      revert\n    tag_106:\n        /* \"Hands on Task - 3.sol\":1267:1274  90 days */\n      0x76a700\n        /* \"Hands on Task - 3.sol\":1249:1264  block.timestamp */\n      timestamp\n        /* \"Hands on Task - 3.sol\":1249:1274  block.timestamp + 90 days */\n      tag_109\n      swap2\n      swap1\n      tag_110\n      jump\t// in\n    tag_109:\n        /* \"Hands on Task - 3.sol\":1239:1245  _endAt */\n      dup2\n        /* \"Hands on Task - 3.sol\":1239:1274  _endAt <= block.timestamp + 90 days */\n      0xffffffff\n      and\n      gt\n      iszero\n        /* \"Hands on Task - 3.sol\":1231:1300  require(_endAt <= block.timestamp + 90 days, \"end at > max duration\") */\n      tag_111\n      jumpi\n      mload(0x40)\n      0x08c379a000000000000000000000000000000000000000000000000000000000\n      dup2\n      mstore\n      0x04\n      add\n      tag_112\n      swap1\n      tag_113\n      jump\t// in\n    tag_112:\n      mload(0x40)\n      dup1\n      swap2\n      sub\n      swap1\n      revert\n    tag_111:\n        /* \"Hands on Task - 3.sol\":1322:1323  1 */\n      0x01\n        /* \"Hands on Task - 3.sol\":1313:1318  count */\n      0x00\n      dup1\n        /* \"Hands on Task - 3.sol\":1313:1323  count += 1 */\n      dup3\n      dup3\n      sload\n      tag_114\n      swap2\n      swap1\n      tag_110\n      jump\t// in\n    tag_114:\n      swap3\n      pop\n      pop\n      dup2\n      swap1\n      sstore\n      pop\n        /* \"Hands on Task - 3.sol\":1353:1548  Campaign({... */\n      mload(0x40)\n      dup1\n      0xc0\n      add\n      0x40\n      mstore\n      dup1\n        /* \"Hands on Task - 3.sol\":1386:1396  msg.sender */\n      caller\n        /* \"Hands on Task - 3.sol\":1353:1548  Campaign({... */\n      0xffffffffffffffffffffffffffffffffffffffff\n      and\n      dup2\n      mstore\n      0x20\n      add\n        /* \"Hands on Task - 3.sol\":1417:1422  _goal */\n      dup5\n        /* \"Hands on Task - 3.sol\":1353:1548  Campaign({... */\n      dup2\n      mstore\n      0x20\n      add\n        /* \"Hands on Task - 3.sol\":1446:1447  0 */\n      0x00\n        /* \"Hands on Task - 3.sol\":1353:1548  Campaign({... */\n      dup2\n      mstore\n      0x20\n      add\n        /* \"Hands on Task - 3.sol\":1470:1478  _startAt */\n      dup4\n        /* \"Hands on Task - 3.sol\":1353:1548  Campaign({... */\n      0xffffffff\n      and\n      dup2\n      mstore\n      0x20\n      add\n        /* \"Hands on Task - 3.sol\":1499:1505  _endAt */\n      dup3\n        /* \"Hands on Task - 3.sol\":1353:1548  Campaign({... */\n      0xffffffff\n      and\n      dup2\n      mstore\n      0x20\n      add\n        /* \"Hands on Task - 3.sol\":1529:1534  false */\n      0x00\n        /* \"Hands on Task - 3.sol\":1353:1548  Campaign({... */\n      iszero\n      iszero\n      dup2\n      mstore\n      pop\n        /* \"Hands on Task - 3.sol\":1334:1343  campaigns */\n      0x01\n        /* \"Hands on Task - 3.sol\":1334:1350  campaigns[count] */\n      0x00\n        /* \"Hands on Task - 3.sol\":1344:1349  count */\n      dup1\n      sload\n        /* \"Hands on Task - 3.sol\":1334:1350  campaigns[count] */\n      dup2\n      mstore\n      0x20\n      add\n      swap1\n      dup2\n      mstore\n      0x20\n      add\n      0x00\n      keccak256\n        /* \"Hands on Task - 3.sol\":1334:1548  campaigns[count] = Campaign({... */\n      0x00\n      dup3\n      add\n      mload\n      dup2\n      0x00\n      add\n      exp(0x0100, 0x00)\n      dup2\n      sload\n      dup2\n      0xffffffffffffffffffffffffffffffffffffffff\n      mul\n      not\n      and\n      swap1\n      dup4\n      0xffffffffffffffffffffffffffffffffffffffff\n      and\n      mul\n      or\n      swap1\n      sstore\n      pop\n      0x20\n      dup3\n      add\n      mload\n      dup2\n      0x01\n      add\n      sstore\n      0x40\n      dup3\n      add\n      mload\n      dup2\n      0x02\n      add\n      sstore\n      0x60\n      dup3\n      add\n      mload\n      dup2\n      0x03\n      add\n      exp(0x0100, 0x00)\n      dup2\n      sload\n      dup2\n      0xffffffff\n      mul\n      not\n      and\n      swap1\n      dup4\n      0xffffffff\n      and\n      mul\n      or\n      swap1\n      sstore\n      pop\n      0x80\n      dup3\n      add\n      mload\n      dup2\n      0x03\n      add\n      exp(0x0100, 0x04)\n      dup2\n      sload\n      dup2\n      0xffffffff\n      mul\n      not\n      and\n      swap1\n      dup4\n      0xffffffff\n      and\n      mul\n      or\n      swap1\n      sstore\n      pop\n      0xa0\n      dup3\n      add\n      mload\n      dup2\n      0x03\n      add\n      exp(0x0100, 0x08)\n      dup2\n      sload\n      dup2\n      0xff\n      mul\n      not\n      and\n      swap1\n      dup4\n      iszero\n      iszero\n      mul\n      or\n      swap1\n      sstore\n      pop\n      swap1\n      pop\n      pop\n        /* \"Hands on Task - 3.sol\":1580:1590  msg.sender */\n      caller\n        /* \"Hands on Task - 3.sol\":1566:1616  Launch(count, msg.sender, _goal, _startAt, _endAt) */\n      0xffffffffffffffffffffffffffffffffffffffff\n      and\n      0x0601cd0d650b473037e838a2696d41e654433d065b3f56b28d1d3302e44a304f\n        /* \"Hands on Task - 3.sol\":1573:1578  count */\n      sload(0x00)\n        /* \"Hands on Task - 3.sol\":1592:1597  _goal */\n      dup6\n        /* \"Hands on Task - 3.sol\":1599:1607  _startAt */\n      dup6\n        /* \"Hands on Task - 3.sol\":1609:1615  _endAt */\n      dup6\n        /* \"Hands on Task - 3.sol\":1566:1616  Launch(count, msg.sender, _goal, _startAt, _endAt) */\n      mload(0x40)\n      tag_115\n      swap5\n      swap4\n      swap3\n      swap2\n      swap1\n      tag_116\n      jump\t// in\n    tag_115:\n      mload(0x40)\n      dup1\n      swap2\n      sub\n      swap1\n      log2\n        /* \"Hands on Task - 3.sol\":1028:1639  function lunch(uint _goal, uint32 _startAt, uint32 _endAt) external {... */\n      pop\n      pop\n      pop\n      jump\t// out\n        /* \"Hands on Task - 3.sol\":770:799  IERC20 public immutable token */\n    tag_47:\n      immutable(\"0xe6f961b5eaec29807fd460af12fbd720c7c4993791c080ad8e40c06b783956d8\")\n      dup2\n      jump\t// out\n        /* \"Hands on Task - 3.sol\":1971:2467  function pledge(uint _id, uint _amount) external {... */\n    tag_52:\n        /* \"Hands on Task - 3.sol\":2035:2060  Campaign storage campaign */\n      0x00\n        /* \"Hands on Task - 3.sol\":2063:2072  campaigns */\n      0x01\n        /* \"Hands on Task - 3.sol\":2063:2077  campaigns[_id] */\n      0x00\n        /* \"Hands on Task - 3.sol\":2073:2076  _id */\n      dup5\n        /* \"Hands on Task - 3.sol\":2063:2077  campaigns[_id] */\n      dup2\n      mstore\n      0x20\n      add\n      swap1\n      dup2\n      mstore\n      0x20\n      add\n      0x00\n      keccak256\n        /* \"Hands on Task - 3.sol\":2035:2077  Campaign storage campaign = campaigns[_id] */\n      swap1\n      pop\n        /* \"Hands on Task - 3.sol\":2119:2127  campaign */\n      dup1\n        /* \"Hands on Task - 3.sol\":2119:2135  campaign.startAt */\n      0x03\n      add\n      0x00\n      swap1\n      sload\n      swap1\n      0x0100\n      exp\n      swap1\n      div\n      0xffffffff\n      and\n        /* \"Hands on Task - 3.sol\":2100:2135  block.timestamp >= campaign.startAt */\n      0xffffffff\n      and\n        /* \"Hands on Task - 3.sol\":2100:2115  block.timestamp */\n      timestamp\n        /* \"Hands on Task - 3.sol\":2100:2135  block.timestamp >= campaign.startAt */\n      lt\n      iszero\n        /* \"Hands on Task - 3.sol\":2092:2155  require(block.timestamp >= campaign.startAt, \"not started yet\") */\n      tag_118\n      jumpi\n      mload(0x40)\n      0x08c379a000000000000000000000000000000000000000000000000000000000\n      dup2\n      mstore\n      0x04\n      add\n      tag_119\n      swap1\n      tag_120\n      jump\t// in\n    tag_119:\n      mload(0x40)\n      dup1\n      swap2\n      sub\n      swap1\n      revert\n    tag_118:\n        /* \"Hands on Task - 3.sol\":2197:2205  campaign */\n      dup1\n        /* \"Hands on Task - 3.sol\":2197:2211  campaign.endAt */\n      0x03\n      add\n      0x04\n      swap1\n      sload\n      swap1\n      0x0100\n      exp\n      swap1\n      div\n      0xffffffff\n      and\n        /* \"Hands on Task - 3.sol\":2178:2211  block.timestamp <= campaign.endAt */\n      0xffffffff\n      and\n        /* \"Hands on Task - 3.sol\":2178:2193  block.timestamp */\n      timestamp\n        /* \"Hands on Task - 3.sol\":2178:2211  block.timestamp <= campaign.endAt */\n      gt\n      iszero\n        /* \"Hands on Task - 3.sol\":2170:2230  require(block.timestamp <= campaign.endAt, \"campaign ended\") */\n      tag_121\n      jumpi\n      mload(0x40)\n      0x08c379a000000000000000000000000000000000000000000000000000000000\n      dup2\n      mstore\n      0x04\n      add\n      tag_122\n      swap1\n      tag_123\n      jump\t// in\n    tag_122:\n      mload(0x40)\n      dup1\n      swap2\n      sub\n      swap1\n      revert\n    tag_121:\n        /* \"Hands on Task - 3.sol\":2267:2274  _amount */\n      dup2\n        /* \"Hands on Task - 3.sol\":2247:2255  campaign */\n      dup2\n        /* \"Hands on Task - 3.sol\":2247:2263  campaign.pledged */\n      0x02\n      add\n      0x00\n        /* \"Hands on Task - 3.sol\":2247:2274  campaign.pledged += _amount */\n      dup3\n      dup3\n      sload\n      tag_124\n      swap2\n      swap1\n      tag_110\n      jump\t// in\n    tag_124:\n      swap3\n      pop\n      pop\n      dup2\n      swap1\n      sstore\n      pop\n        /* \"Hands on Task - 3.sol\":2323:2330  _amount */\n      dup2\n        /* \"Hands on Task - 3.sol\":2289:2302  pledgedAmount */\n      0x02\n        /* \"Hands on Task - 3.sol\":2289:2307  pledgedAmount[_id] */\n      0x00\n        /* \"Hands on Task - 3.sol\":2303:2306  _id */\n      dup6\n        /* \"Hands on Task - 3.sol\":2289:2307  pledgedAmount[_id] */\n      dup2\n      mstore\n      0x20\n      add\n      swap1\n      dup2\n      mstore\n      0x20\n      add\n      0x00\n      keccak256\n        /* \"Hands on Task - 3.sol\":2289:2319  pledgedAmount[_id][msg.sender] */\n      0x00\n        /* \"Hands on Task - 3.sol\":2308:2318  msg.sender */\n      caller\n        /* \"Hands on Task - 3.sol\":2289:2319  pledgedAmount[_id][msg.sender] */\n      0xffffffffffffffffffffffffffffffffffffffff\n      and\n      0xffffffffffffffffffffffffffffffffffffffff\n      and\n      dup2\n      mstore\n      0x20\n      add\n      swap1\n      dup2\n      mstore\n      0x20\n      add\n      0x00\n      keccak256\n      0x00\n        /* \"Hands on Task - 3.sol\":2289:2330  pledgedAmount[_id][msg.sender] += _amount */\n      dup3\n      dup3\n      sload\n      tag_125\n      swap2\n      swap1\n      tag_110\n      jump\t// in\n    tag_125:\n      swap3\n      pop\n      pop\n      dup2\n      swap1\n      sstore\n      pop\n        /* \"Hands on Task - 3.sol\":2345:2350  token */\n      immutable(\"0xe6f961b5eaec29807fd460af12fbd720c7c4993791c080ad8e40c06b783956d8\")\n        /* \"Hands on Task - 3.sol\":2345:2363  token.transferFrom */\n      0xffffffffffffffffffffffffffffffffffffffff\n      and\n      0x23b872dd\n        /* \"Hands on Task - 3.sol\":2364:2374  msg.sender */\n      caller\n        /* \"Hands on Task - 3.sol\":2384:2388  this */\n      address\n        /* \"Hands on Task - 3.sol\":2391:2398  _amount */\n      dup6\n        /* \"Hands on Task - 3.sol\":2345:2399  token.transferFrom(msg.sender, address(this), _amount) */\n      mload(0x40)\n      dup5\n      0xffffffff\n      and\n      0xe0\n      shl\n      dup2\n      mstore\n      0x04\n      add\n      tag_126\n      swap4\n      swap3\n      swap2\n      swap1\n      tag_127\n      jump\t// in\n    tag_126:\n      0x20\n      mload(0x40)\n      dup1\n      dup4\n      sub\n      dup2\n      0x00\n      dup8\n      gas\n      call\n      iszero\n      dup1\n      iszero\n      tag_129\n      jumpi\n      returndatasize\n      0x00\n      dup1\n      returndatacopy\n      revert(0x00, returndatasize)\n    tag_129:\n      pop\n      pop\n      pop\n      pop\n      mload(0x40)\n      returndatasize\n      not(0x1f)\n      0x1f\n      dup3\n      add\n      and\n      dup3\n      add\n      dup1\n      0x40\n      mstore\n      pop\n      dup2\n      add\n      swap1\n      tag_130\n      swap2\n      swap1\n      tag_65\n      jump\t// in\n    tag_130:\n      pop\n        /* \"Hands on Task - 3.sol\":2433:2443  msg.sender */\n      caller\n        /* \"Hands on Task - 3.sol\":2421:2453  Pledge(_id, msg.sender, _amount) */\n      0xffffffffffffffffffffffffffffffffffffffff\n      and\n        /* \"Hands on Task - 3.sol\":2428:2431  _id */\n      dup4\n        /* \"Hands on Task - 3.sol\":2421:2453  Pledge(_id, msg.sender, _amount) */\n      0x06bdb975df800a73232998e71ed585d536222f1dfeaa622d7f62a23ada686c82\n        /* \"Hands on Task - 3.sol\":2445:2452  _amount */\n      dup5\n        /* \"Hands on Task - 3.sol\":2421:2453  Pledge(_id, msg.sender, _amount) */\n      mload(0x40)\n      tag_131\n      swap2\n      swap1\n      tag_17\n      jump\t// in\n    tag_131:\n      mload(0x40)\n      dup1\n      swap2\n      sub\n      swap1\n      log3\n        /* \"Hands on Task - 3.sol\":2020:2467  {... */\n      pop\n        /* \"Hands on Task - 3.sol\":1971:2467  function pledge(uint _id, uint _amount) external {... */\n      pop\n      pop\n      jump\t// out\n        /* \"#utility.yul\":7:84   */\n    tag_132:\n        /* \"#utility.yul\":44:51   */\n      0x00\n        /* \"#utility.yul\":73:78   */\n      dup2\n        /* \"#utility.yul\":62:78   */\n      swap1\n      pop\n        /* \"#utility.yul\":7:84   */\n      swap2\n      swap1\n      pop\n      jump\t// out\n        /* \"#utility.yul\":90:208   */\n    tag_133:\n        /* \"#utility.yul\":177:201   */\n      tag_184\n        /* \"#utility.yul\":195:200   */\n      dup2\n        /* \"#utility.yul\":177:201   */\n      tag_132\n      jump\t// in\n    tag_184:\n        /* \"#utility.yul\":172:175   */\n      dup3\n        /* \"#utility.yul\":165:202   */\n      mstore\n        /* \"#utility.yul\":90:208   */\n      pop\n      pop\n      jump\t// out\n        /* \"#utility.yul\":214:436   */\n    tag_17:\n        /* \"#utility.yul\":307:311   */\n      0x00\n        /* \"#utility.yul\":345:347   */\n      0x20\n        /* \"#utility.yul\":334:343   */\n      dup3\n        /* \"#utility.yul\":330:348   */\n      add\n        /* \"#utility.yul\":322:348   */\n      swap1\n      pop\n        /* \"#utility.yul\":358:429   */\n      tag_186\n        /* \"#utility.yul\":426:427   */\n      0x00\n        /* \"#utility.yul\":415:424   */\n      dup4\n        /* \"#utility.yul\":411:428   */\n      add\n        /* \"#utility.yul\":402:408   */\n      dup5\n        /* \"#utility.yul\":358:429   */\n      tag_133\n      jump\t// in\n    tag_186:\n        /* \"#utility.yul\":214:436   */\n      swap3\n      swap2\n      pop\n      pop\n      jump\t// out\n        /* \"#utility.yul\":523:640   */\n    tag_135:\n        /* \"#utility.yul\":632:633   */\n      0x00\n        /* \"#utility.yul\":629:630   */\n      dup1\n        /* \"#utility.yul\":622:634   */\n      revert\n        /* \"#utility.yul\":769:891   */\n    tag_137:\n        /* \"#utility.yul\":842:866   */\n      tag_191\n        /* \"#utility.yul\":860:865   */\n      dup2\n        /* \"#utility.yul\":842:866   */\n      tag_132\n      jump\t// in\n    tag_191:\n        /* \"#utility.yul\":835:840   */\n      dup2\n        /* \"#utility.yul\":832:867   */\n      eq\n        /* \"#utility.yul\":822:885   */\n      tag_192\n      jumpi\n        /* \"#utility.yul\":881:882   */\n      0x00\n        /* \"#utility.yul\":878:879   */\n      dup1\n        /* \"#utility.yul\":871:883   */\n      revert\n        /* \"#utility.yul\":822:885   */\n    tag_192:\n        /* \"#utility.yul\":769:891   */\n      pop\n      jump\t// out\n        /* \"#utility.yul\":897:1036   */\n    tag_138:\n        /* \"#utility.yul\":943:948   */\n      0x00\n        /* \"#utility.yul\":981:987   */\n      dup2\n        /* \"#utility.yul\":968:988   */\n      calldataload\n        /* \"#utility.yul\":959:988   */\n      swap1\n      pop\n        /* \"#utility.yul\":997:1030   */\n      tag_194\n        /* \"#utility.yul\":1024:1029   */\n      dup2\n        /* \"#utility.yul\":997:1030   */\n      tag_137\n      jump\t// in\n    tag_194:\n        /* \"#utility.yul\":897:1036   */\n      swap3\n      swap2\n      pop\n      pop\n      jump\t// out\n        /* \"#utility.yul\":1042:1371   */\n    tag_20:\n        /* \"#utility.yul\":1101:1107   */\n      0x00\n        /* \"#utility.yul\":1150:1152   */\n      0x20\n        /* \"#utility.yul\":1138:1147   */\n      dup3\n        /* \"#utility.yul\":1129:1136   */\n      dup5\n        /* \"#utility.yul\":1125:1148   */\n      sub\n        /* \"#utility.yul\":1121:1153   */\n      slt\n        /* \"#utility.yul\":1118:1237   */\n      iszero\n      tag_196\n      jumpi\n        /* \"#utility.yul\":1156:1235   */\n      tag_197\n      tag_135\n      jump\t// in\n    tag_197:\n        /* \"#utility.yul\":1118:1237   */\n    tag_196:\n        /* \"#utility.yul\":1276:1277   */\n      0x00\n        /* \"#utility.yul\":1301:1354   */\n      tag_198\n        /* \"#utility.yul\":1346:1353   */\n      dup5\n        /* \"#utility.yul\":1337:1343   */\n      dup3\n        /* \"#utility.yul\":1326:1335   */\n      dup6\n        /* \"#utility.yul\":1322:1344   */\n      add\n        /* \"#utility.yul\":1301:1354   */\n      tag_138\n      jump\t// in\n    tag_198:\n        /* \"#utility.yul\":1291:1354   */\n      swap2\n      pop\n        /* \"#utility.yul\":1247:1364   */\n      pop\n        /* \"#utility.yul\":1042:1371   */\n      swap3\n      swap2\n      pop\n      pop\n      jump\t// out\n        /* \"#utility.yul\":1377:1503   */\n    tag_139:\n        /* \"#utility.yul\":1414:1421   */\n      0x00\n        /* \"#utility.yul\":1454:1496   */\n      0xffffffffffffffffffffffffffffffffffffffff\n        /* \"#utility.yul\":1447:1452   */\n      dup3\n        /* \"#utility.yul\":1443:1497   */\n      and\n        /* \"#utility.yul\":1432:1497   */\n      swap1\n      pop\n        /* \"#utility.yul\":1377:1503   */\n      swap2\n      swap1\n      pop\n      jump\t// out\n        /* \"#utility.yul\":1509:1605   */\n    tag_140:\n        /* \"#utility.yul\":1546:1553   */\n      0x00\n        /* \"#utility.yul\":1575:1599   */\n      tag_201\n        /* \"#utility.yul\":1593:1598   */\n      dup3\n        /* \"#utility.yul\":1575:1599   */\n      tag_139\n      jump\t// in\n    tag_201:\n        /* \"#utility.yul\":1564:1599   */\n      swap1\n      pop\n        /* \"#utility.yul\":1509:1605   */\n      swap2\n      swap1\n      pop\n      jump\t// out\n        /* \"#utility.yul\":1611:1729   */\n    tag_141:\n        /* \"#utility.yul\":1698:1722   */\n      tag_203\n        /* \"#utility.yul\":1716:1721   */\n      dup2\n        /* \"#utility.yul\":1698:1722   */\n      tag_140\n      jump\t// in\n    tag_203:\n        /* \"#utility.yul\":1693:1696   */\n      dup3\n        /* \"#utility.yul\":1686:1723   */\n      mstore\n        /* \"#utility.yul\":1611:1729   */\n      pop\n      pop\n      jump\t// out\n        /* \"#utility.yul\":1735:1828   */\n    tag_142:\n        /* \"#utility.yul\":1771:1778   */\n      0x00\n        /* \"#utility.yul\":1811:1821   */\n      0xffffffff\n        /* \"#utility.yul\":1804:1809   */\n      dup3\n        /* \"#utility.yul\":1800:1822   */\n      and\n        /* \"#utility.yul\":1789:1822   */\n      swap1\n      pop\n        /* \"#utility.yul\":1735:1828   */\n      swap2\n      swap1\n      pop\n      jump\t// out\n        /* \"#utility.yul\":1834:1949   */\n    tag_143:\n        /* \"#utility.yul\":1919:1942   */\n      tag_206\n        /* \"#utility.yul\":1936:1941   */\n      dup2\n        /* \"#utility.yul\":1919:1942   */\n      tag_142\n      jump\t// in\n    tag_206:\n        /* \"#utility.yul\":1914:1917   */\n      dup3\n        /* \"#utility.yul\":1907:1943   */\n      mstore\n        /* \"#utility.yul\":1834:1949   */\n      pop\n      pop\n      jump\t// out\n        /* \"#utility.yul\":1955:2045   */\n    tag_144:\n        /* \"#utility.yul\":1989:1996   */\n      0x00\n        /* \"#utility.yul\":2032:2037   */\n      dup2\n        /* \"#utility.yul\":2025:2038   */\n      iszero\n        /* \"#utility.yul\":2018:2039   */\n      iszero\n        /* \"#utility.yul\":2007:2039   */\n      swap1\n      pop\n        /* \"#utility.yul\":1955:2045   */\n      swap2\n      swap1\n      pop\n      jump\t// out\n        /* \"#utility.yul\":2051:2160   */\n    tag_145:\n        /* \"#utility.yul\":2132:2153   */\n      tag_209\n        /* \"#utility.yul\":2147:2152   */\n      dup2\n        /* \"#utility.yul\":2132:2153   */\n      tag_144\n      jump\t// in\n    tag_209:\n        /* \"#utility.yul\":2127:2130   */\n      dup3\n        /* \"#utility.yul\":2120:2154   */\n      mstore\n        /* \"#utility.yul\":2051:2160   */\n      pop\n      pop\n      jump\t// out\n        /* \"#utility.yul\":2166:2921   */\n    tag_23:\n        /* \"#utility.yul\":2389:2393   */\n      0x00\n        /* \"#utility.yul\":2427:2430   */\n      0xc0\n        /* \"#utility.yul\":2416:2425   */\n      dup3\n        /* \"#utility.yul\":2412:2431   */\n      add\n        /* \"#utility.yul\":2404:2431   */\n      swap1\n      pop\n        /* \"#utility.yul\":2441:2512   */\n      tag_211\n        /* \"#utility.yul\":2509:2510   */\n      0x00\n        /* \"#utility.yul\":2498:2507   */\n      dup4\n        /* \"#utility.yul\":2494:2511   */\n      add\n        /* \"#utility.yul\":2485:2491   */\n      dup10\n        /* \"#utility.yul\":2441:2512   */\n      tag_141\n      jump\t// in\n    tag_211:\n        /* \"#utility.yul\":2522:2594   */\n      tag_212\n        /* \"#utility.yul\":2590:2592   */\n      0x20\n        /* \"#utility.yul\":2579:2588   */\n      dup4\n        /* \"#utility.yul\":2575:2593   */\n      add\n        /* \"#utility.yul\":2566:2572   */\n      dup9\n        /* \"#utility.yul\":2522:2594   */\n      tag_133\n      jump\t// in\n    tag_212:\n        /* \"#utility.yul\":2604:2676   */\n      tag_213\n        /* \"#utility.yul\":2672:2674   */\n      0x40\n        /* \"#utility.yul\":2661:2670   */\n      dup4\n        /* \"#utility.yul\":2657:2675   */\n      add\n        /* \"#utility.yul\":2648:2654   */\n      dup8\n        /* \"#utility.yul\":2604:2676   */\n      tag_133\n      jump\t// in\n    tag_213:\n        /* \"#utility.yul\":2686:2756   */\n      tag_214\n        /* \"#utility.yul\":2752:2754   */\n      0x60\n        /* \"#utility.yul\":2741:2750   */\n      dup4\n        /* \"#utility.yul\":2737:2755   */\n      add\n        /* \"#utility.yul\":2728:2734   */\n      dup7\n        /* \"#utility.yul\":2686:2756   */\n      tag_143\n      jump\t// in\n    tag_214:\n        /* \"#utility.yul\":2766:2837   */\n      tag_215\n        /* \"#utility.yul\":2832:2835   */\n      0x80\n        /* \"#utility.yul\":2821:2830   */\n      dup4\n        /* \"#utility.yul\":2817:2836   */\n      add\n        /* \"#utility.yul\":2808:2814   */\n      dup6\n        /* \"#utility.yul\":2766:2837   */\n      tag_143\n      jump\t// in\n    tag_215:\n        /* \"#utility.yul\":2847:2914   */\n      tag_216\n        /* \"#utility.yul\":2909:2912   */\n      0xa0\n        /* \"#utility.yul\":2898:2907   */\n      dup4\n        /* \"#utility.yul\":2894:2913   */\n      add\n        /* \"#utility.yul\":2885:2891   */\n      dup5\n        /* \"#utility.yul\":2847:2914   */\n      tag_145\n      jump\t// in\n    tag_216:\n        /* \"#utility.yul\":2166:2921   */\n      swap8\n      swap7\n      pop\n      pop\n      pop\n      pop\n      pop\n      pop\n      pop\n      jump\t// out\n        /* \"#utility.yul\":2927:3401   */\n    tag_35:\n        /* \"#utility.yul\":2995:3001   */\n      0x00\n        /* \"#utility.yul\":3003:3009   */\n      dup1\n        /* \"#utility.yul\":3052:3054   */\n      0x40\n        /* \"#utility.yul\":3040:3049   */\n      dup4\n        /* \"#utility.yul\":3031:3038   */\n      dup6\n        /* \"#utility.yul\":3027:3050   */\n      sub\n        /* \"#utility.yul\":3023:3055   */\n      slt\n        /* \"#utility.yul\":3020:3139   */\n      iszero\n      tag_218\n      jumpi\n        /* \"#utility.yul\":3058:3137   */\n      tag_219\n      tag_135\n      jump\t// in\n    tag_219:\n        /* \"#utility.yul\":3020:3139   */\n    tag_218:\n        /* \"#utility.yul\":3178:3179   */\n      0x00\n        /* \"#utility.yul\":3203:3256   */\n      tag_220\n        /* \"#utility.yul\":3248:3255   */\n      dup6\n        /* \"#utility.yul\":3239:3245   */\n      dup3\n        /* \"#utility.yul\":3228:3237   */\n      dup7\n        /* \"#utility.yul\":3224:3246   */\n      add\n        /* \"#utility.yul\":3203:3256   */\n      tag_138\n      jump\t// in\n    tag_220:\n        /* \"#utility.yul\":3193:3256   */\n      swap3\n      pop\n        /* \"#utility.yul\":3149:3266   */\n      pop\n        /* \"#utility.yul\":3305:3307   */\n      0x20\n        /* \"#utility.yul\":3331:3384   */\n      tag_221\n        /* \"#utility.yul\":3376:3383   */\n      dup6\n        /* \"#utility.yul\":3367:3373   */\n      dup3\n        /* \"#utility.yul\":3356:3365   */\n      dup7\n        /* \"#utility.yul\":3352:3374   */\n      add\n        /* \"#utility.yul\":3331:3384   */\n      tag_138\n      jump\t// in\n    tag_221:\n        /* \"#utility.yul\":3321:3384   */\n      swap2\n      pop\n        /* \"#utility.yul\":3276:3394   */\n      pop\n        /* \"#utility.yul\":2927:3401   */\n      swap3\n      pop\n      swap3\n      swap1\n      pop\n      jump\t// out\n        /* \"#utility.yul\":3407:3529   */\n    tag_146:\n        /* \"#utility.yul\":3480:3504   */\n      tag_223\n        /* \"#utility.yul\":3498:3503   */\n      dup2\n        /* \"#utility.yul\":3480:3504   */\n      tag_140\n      jump\t// in\n    tag_223:\n        /* \"#utility.yul\":3473:3478   */\n      dup2\n        /* \"#utility.yul\":3470:3505   */\n      eq\n        /* \"#utility.yul\":3460:3523   */\n      tag_224\n      jumpi\n        /* \"#utility.yul\":3519:3520   */\n      0x00\n        /* \"#utility.yul\":3516:3517   */\n      dup1\n        /* \"#utility.yul\":3509:3521   */\n      revert\n        /* \"#utility.yul\":3460:3523   */\n    tag_224:\n        /* \"#utility.yul\":3407:3529   */\n      pop\n      jump\t// out\n        /* \"#utility.yul\":3535:3674   */\n    tag_147:\n        /* \"#utility.yul\":3581:3586   */\n      0x00\n        /* \"#utility.yul\":3619:3625   */\n      dup2\n        /* \"#utility.yul\":3606:3626   */\n      calldataload\n        /* \"#utility.yul\":3597:3626   */\n      swap1\n      pop\n        /* \"#utility.yul\":3635:3668   */\n      tag_226\n        /* \"#utility.yul\":3662:3667   */\n      dup2\n        /* \"#utility.yul\":3635:3668   */\n      tag_146\n      jump\t// in\n    tag_226:\n        /* \"#utility.yul\":3535:3674   */\n      swap3\n      swap2\n      pop\n      pop\n      jump\t// out\n        /* \"#utility.yul\":3680:4154   */\n    tag_39:\n        /* \"#utility.yul\":3748:3754   */\n      0x00\n        /* \"#utility.yul\":3756:3762   */\n      dup1\n        /* \"#utility.yul\":3805:3807   */\n      0x40\n        /* \"#utility.yul\":3793:3802   */\n      dup4\n        /* \"#utility.yul\":3784:3791   */\n      dup6\n        /* \"#utility.yul\":3780:3803   */\n      sub\n        /* \"#utility.yul\":3776:3808   */\n      slt\n        /* \"#utility.yul\":3773:3892   */\n      iszero\n      tag_228\n      jumpi\n        /* \"#utility.yul\":3811:3890   */\n      tag_229\n      tag_135\n      jump\t// in\n    tag_229:\n        /* \"#utility.yul\":3773:3892   */\n    tag_228:\n        /* \"#utility.yul\":3931:3932   */\n      0x00\n        /* \"#utility.yul\":3956:4009   */\n      tag_230\n        /* \"#utility.yul\":4001:4008   */\n      dup6\n        /* \"#utility.yul\":3992:3998   */\n      dup3\n        /* \"#utility.yul\":3981:3990   */\n      dup7\n        /* \"#utility.yul\":3977:3999   */\n      add\n        /* \"#utility.yul\":3956:4009   */\n      tag_138\n      jump\t// in\n    tag_230:\n        /* \"#utility.yul\":3946:4009   */\n      swap3\n      pop\n        /* \"#utility.yul\":3902:4019   */\n      pop\n        /* \"#utility.yul\":4058:4060   */\n      0x20\n        /* \"#utility.yul\":4084:4137   */\n      tag_231\n        /* \"#utility.yul\":4129:4136   */\n      dup6\n        /* \"#utility.yul\":4120:4126   */\n      dup3\n        /* \"#utility.yul\":4109:4118   */\n      dup7\n        /* \"#utility.yul\":4105:4127   */\n      add\n        /* \"#utility.yul\":4084:4137   */\n      tag_147\n      jump\t// in\n    tag_231:\n        /* \"#utility.yul\":4074:4137   */\n      swap2\n      pop\n        /* \"#utility.yul\":4029:4147   */\n      pop\n        /* \"#utility.yul\":3680:4154   */\n      swap3\n      pop\n      swap3\n      swap1\n      pop\n      jump\t// out\n        /* \"#utility.yul\":4160:4280   */\n    tag_148:\n        /* \"#utility.yul\":4232:4255   */\n      tag_233\n        /* \"#utility.yul\":4249:4254   */\n      dup2\n        /* \"#utility.yul\":4232:4255   */\n      tag_142\n      jump\t// in\n    tag_233:\n        /* \"#utility.yul\":4225:4230   */\n      dup2\n        /* \"#utility.yul\":4222:4256   */\n      eq\n        /* \"#utility.yul\":4212:4274   */\n      tag_234\n      jumpi\n        /* \"#utility.yul\":4270:4271   */\n      0x00\n        /* \"#utility.yul\":4267:4268   */\n      dup1\n        /* \"#utility.yul\":4260:4272   */\n      revert\n        /* \"#utility.yul\":4212:4274   */\n    tag_234:\n        /* \"#utility.yul\":4160:4280   */\n      pop\n      jump\t// out\n        /* \"#utility.yul\":4286:4423   */\n    tag_149:\n        /* \"#utility.yul\":4331:4336   */\n      0x00\n        /* \"#utility.yul\":4369:4375   */\n      dup2\n        /* \"#utility.yul\":4356:4376   */\n      calldataload\n        /* \"#utility.yul\":4347:4376   */\n      swap1\n      pop\n        /* \"#utility.yul\":4385:4417   */\n      tag_236\n        /* \"#utility.yul\":4411:4416   */\n      dup2\n        /* \"#utility.yul\":4385:4417   */\n      tag_148\n      jump\t// in\n    tag_236:\n        /* \"#utility.yul\":4286:4423   */\n      swap3\n      swap2\n      pop\n      pop\n      jump\t// out\n        /* \"#utility.yul\":4429:5044   */\n    tag_44:\n        /* \"#utility.yul\":4504:4510   */\n      0x00\n        /* \"#utility.yul\":4512:4518   */\n      dup1\n        /* \"#utility.yul\":4520:4526   */\n      0x00\n        /* \"#utility.yul\":4569:4571   */\n      0x60\n        /* \"#utility.yul\":4557:4566   */\n      dup5\n        /* \"#utility.yul\":4548:4555   */\n      dup7\n        /* \"#utility.yul\":4544:4567   */\n      sub\n        /* \"#utility.yul\":4540:4572   */\n      slt\n        /* \"#utility.yul\":4537:4656   */\n      iszero\n      tag_238\n      jumpi\n        /* \"#utility.yul\":4575:4654   */\n      tag_239\n      tag_135\n      jump\t// in\n    tag_239:\n        /* \"#utility.yul\":4537:4656   */\n    tag_238:\n        /* \"#utility.yul\":4695:4696   */\n      0x00\n        /* \"#utility.yul\":4720:4773   */\n      tag_240\n        /* \"#utility.yul\":4765:4772   */\n      dup7\n        /* \"#utility.yul\":4756:4762   */\n      dup3\n        /* \"#utility.yul\":4745:4754   */\n      dup8\n        /* \"#utility.yul\":4741:4763   */\n      add\n        /* \"#utility.yul\":4720:4773   */\n      tag_138\n      jump\t// in\n    tag_240:\n        /* \"#utility.yul\":4710:4773   */\n      swap4\n      pop\n        /* \"#utility.yul\":4666:4783   */\n      pop\n        /* \"#utility.yul\":4822:4824   */\n      0x20\n        /* \"#utility.yul\":4848:4900   */\n      tag_241\n        /* \"#utility.yul\":4892:4899   */\n      dup7\n        /* \"#utility.yul\":4883:4889   */\n      dup3\n        /* \"#utility.yul\":4872:4881   */\n      dup8\n        /* \"#utility.yul\":4868:4890   */\n      add\n        /* \"#utility.yul\":4848:4900   */\n      tag_149\n      jump\t// in\n    tag_241:\n        /* \"#utility.yul\":4838:4900   */\n      swap3\n      pop\n        /* \"#utility.yul\":4793:4910   */\n      pop\n        /* \"#utility.yul\":4949:4951   */\n      0x40\n        /* \"#utility.yul\":4975:5027   */\n      tag_242\n        /* \"#utility.yul\":5019:5026   */\n      dup7\n        /* \"#utility.yul\":5010:5016   */\n      dup3\n        /* \"#utility.yul\":4999:5008   */\n      dup8\n        /* \"#utility.yul\":4995:5017   */\n      add\n        /* \"#utility.yul\":4975:5027   */\n      tag_149\n      jump\t// in\n    tag_242:\n        /* \"#utility.yul\":4965:5027   */\n      swap2\n      pop\n        /* \"#utility.yul\":4920:5037   */\n      pop\n        /* \"#utility.yul\":4429:5044   */\n      swap3\n      pop\n      swap3\n      pop\n      swap3\n      jump\t// out\n        /* \"#utility.yul\":5050:5110   */\n    tag_150:\n        /* \"#utility.yul\":5078:5081   */\n      0x00\n        /* \"#utility.yul\":5099:5104   */\n      dup2\n        /* \"#utility.yul\":5092:5104   */\n      swap1\n      pop\n        /* \"#utility.yul\":5050:5110   */\n      swap2\n      swap1\n      pop\n      jump\t// out\n        /* \"#utility.yul\":5116:5258   */\n    tag_151:\n        /* \"#utility.yul\":5166:5175   */\n      0x00\n        /* \"#utility.yul\":5199:5252   */\n      tag_245\n        /* \"#utility.yul\":5217:5251   */\n      tag_246\n        /* \"#utility.yul\":5226:5250   */\n      tag_247\n        /* \"#utility.yul\":5244:5249   */\n      dup5\n        /* \"#utility.yul\":5226:5250   */\n      tag_139\n      jump\t// in\n    tag_247:\n        /* \"#utility.yul\":5217:5251   */\n      tag_150\n      jump\t// in\n    tag_246:\n        /* \"#utility.yul\":5199:5252   */\n      tag_139\n      jump\t// in\n    tag_245:\n        /* \"#utility.yul\":5186:5252   */\n      swap1\n      pop\n        /* \"#utility.yul\":5116:5258   */\n      swap2\n      swap1\n      pop\n      jump\t// out\n        /* \"#utility.yul\":5264:5390   */\n    tag_152:\n        /* \"#utility.yul\":5314:5323   */\n      0x00\n        /* \"#utility.yul\":5347:5384   */\n      tag_249\n        /* \"#utility.yul\":5378:5383   */\n      dup3\n        /* \"#utility.yul\":5347:5384   */\n      tag_151\n      jump\t// in\n    tag_249:\n        /* \"#utility.yul\":5334:5384   */\n      swap1\n      pop\n        /* \"#utility.yul\":5264:5390   */\n      swap2\n      swap1\n      pop\n      jump\t// out\n        /* \"#utility.yul\":5396:5536   */\n    tag_153:\n        /* \"#utility.yul\":5460:5469   */\n      0x00\n        /* \"#utility.yul\":5493:5530   */\n      tag_251\n        /* \"#utility.yul\":5524:5529   */\n      dup3\n        /* \"#utility.yul\":5493:5530   */\n      tag_152\n      jump\t// in\n    tag_251:\n        /* \"#utility.yul\":5480:5530   */\n      swap1\n      pop\n        /* \"#utility.yul\":5396:5536   */\n      swap2\n      swap1\n      pop\n      jump\t// out\n        /* \"#utility.yul\":5542:5701   */\n    tag_154:\n        /* \"#utility.yul\":5643:5694   */\n      tag_253\n        /* \"#utility.yul\":5688:5693   */\n      dup2\n        /* \"#utility.yul\":5643:5694   */\n      tag_153\n      jump\t// in\n    tag_253:\n        /* \"#utility.yul\":5638:5641   */\n      dup3\n        /* \"#utility.yul\":5631:5695   */\n      mstore\n        /* \"#utility.yul\":5542:5701   */\n      pop\n      pop\n      jump\t// out\n        /* \"#utility.yul\":5707:5957   */\n    tag_49:\n        /* \"#utility.yul\":5814:5818   */\n      0x00\n        /* \"#utility.yul\":5852:5854   */\n      0x20\n        /* \"#utility.yul\":5841:5850   */\n      dup3\n        /* \"#utility.yul\":5837:5855   */\n      add\n        /* \"#utility.yul\":5829:5855   */\n      swap1\n      pop\n        /* \"#utility.yul\":5865:5950   */\n      tag_255\n        /* \"#utility.yul\":5947:5948   */\n      0x00\n        /* \"#utility.yul\":5936:5945   */\n      dup4\n        /* \"#utility.yul\":5932:5949   */\n      add\n        /* \"#utility.yul\":5923:5929   */\n      dup5\n        /* \"#utility.yul\":5865:5950   */\n      tag_154\n      jump\t// in\n    tag_255:\n        /* \"#utility.yul\":5707:5957   */\n      swap3\n      swap2\n      pop\n      pop\n      jump\t// out\n        /* \"#utility.yul\":5963:6132   */\n    tag_155:\n        /* \"#utility.yul\":6047:6058   */\n      0x00\n        /* \"#utility.yul\":6081:6087   */\n      dup3\n        /* \"#utility.yul\":6076:6079   */\n      dup3\n        /* \"#utility.yul\":6069:6088   */\n      mstore\n        /* \"#utility.yul\":6121:6125   */\n      0x20\n        /* \"#utility.yul\":6116:6119   */\n      dup3\n        /* \"#utility.yul\":6112:6126   */\n      add\n        /* \"#utility.yul\":6097:6126   */\n      swap1\n      pop\n        /* \"#utility.yul\":5963:6132   */\n      swap3\n      swap2\n      pop\n      pop\n      jump\t// out\n        /* \"#utility.yul\":6138:6301   */\n    tag_156:\n        /* \"#utility.yul\":6278:6293   */\n      0x6e6f7420656e6465642079657400000000000000000000000000000000000000\n        /* \"#utility.yul\":6274:6275   */\n      0x00\n        /* \"#utility.yul\":6266:6272   */\n      dup3\n        /* \"#utility.yul\":6262:6276   */\n      add\n        /* \"#utility.yul\":6255:6294   */\n      mstore\n        /* \"#utility.yul\":6138:6301   */\n      pop\n      jump\t// out\n        /* \"#utility.yul\":6307:6673   */\n    tag_157:\n        /* \"#utility.yul\":6449:6452   */\n      0x00\n        /* \"#utility.yul\":6470:6537   */\n      tag_259\n        /* \"#utility.yul\":6534:6536   */\n      0x0d\n        /* \"#utility.yul\":6529:6532   */\n      dup4\n        /* \"#utility.yul\":6470:6537   */\n      tag_155\n      jump\t// in\n    tag_259:\n        /* \"#utility.yul\":6463:6537   */\n      swap2\n      pop\n        /* \"#utility.yul\":6546:6639   */\n      tag_260\n        /* \"#utility.yul\":6635:6638   */\n      dup3\n        /* \"#utility.yul\":6546:6639   */\n      tag_156\n      jump\t// in\n    tag_260:\n        /* \"#utility.yul\":6664:6666   */\n      0x20\n        /* \"#utility.yul\":6659:6662   */\n      dup3\n        /* \"#utility.yul\":6655:6667   */\n      add\n        /* \"#utility.yul\":6648:6667   */\n      swap1\n      pop\n        /* \"#utility.yul\":6307:6673   */\n      swap2\n      swap1\n      pop\n      jump\t// out\n        /* \"#utility.yul\":6679:7098   */\n    tag_56:\n        /* \"#utility.yul\":6845:6849   */\n      0x00\n        /* \"#utility.yul\":6883:6885   */\n      0x20\n        /* \"#utility.yul\":6872:6881   */\n      dup3\n        /* \"#utility.yul\":6868:6886   */\n      add\n        /* \"#utility.yul\":6860:6886   */\n      swap1\n      pop\n        /* \"#utility.yul\":6932:6941   */\n      dup2\n        /* \"#utility.yul\":6926:6930   */\n      dup2\n        /* \"#utility.yul\":6922:6942   */\n      sub\n        /* \"#utility.yul\":6918:6919   */\n      0x00\n        /* \"#utility.yul\":6907:6916   */\n      dup4\n        /* \"#utility.yul\":6903:6920   */\n      add\n        /* \"#utility.yul\":6896:6943   */\n      mstore\n        /* \"#utility.yul\":6960:7091   */\n      tag_262\n        /* \"#utility.yul\":7086:7090   */\n      dup2\n        /* \"#utility.yul\":6960:7091   */\n      tag_157\n      jump\t// in\n    tag_262:\n        /* \"#utility.yul\":6952:7091   */\n      swap1\n      pop\n        /* \"#utility.yul\":6679:7098   */\n      swap2\n      swap1\n      pop\n      jump\t// out\n        /* \"#utility.yul\":7104:7268   */\n    tag_158:\n        /* \"#utility.yul\":7244:7260   */\n      0x706c6164676564203c20676f616c000000000000000000000000000000000000\n        /* \"#utility.yul\":7240:7241   */\n      0x00\n        /* \"#utility.yul\":7232:7238   */\n      dup3\n        /* \"#utility.yul\":7228:7242   */\n      add\n        /* \"#utility.yul\":7221:7261   */\n      mstore\n        /* \"#utility.yul\":7104:7268   */\n      pop\n      jump\t// out\n        /* \"#utility.yul\":7274:7640   */\n    tag_159:\n        /* \"#utility.yul\":7416:7419   */\n      0x00\n        /* \"#utility.yul\":7437:7504   */\n      tag_265\n        /* \"#utility.yul\":7501:7503   */\n      0x0e\n        /* \"#utility.yul\":7496:7499   */\n      dup4\n        /* \"#utility.yul\":7437:7504   */\n      tag_155\n      jump\t// in\n    tag_265:\n        /* \"#utility.yul\":7430:7504   */\n      swap2\n      pop\n        /* \"#utility.yul\":7513:7606   */\n      tag_266\n        /* \"#utility.yul\":7602:7605   */\n      dup3\n        /* \"#utility.yul\":7513:7606   */\n      tag_158\n      jump\t// in\n    tag_266:\n        /* \"#utility.yul\":7631:7633   */\n      0x20\n        /* \"#utility.yul\":7626:7629   */\n      dup3\n        /* \"#utility.yul\":7622:7634   */\n      add\n        /* \"#utility.yul\":7615:7634   */\n      swap1\n      pop\n        /* \"#utility.yul\":7274:7640   */\n      swap2\n      swap1\n      pop\n      jump\t// out\n        /* \"#utility.yul\":7646:8065   */\n    tag_59:\n        /* \"#utility.yul\":7812:7816   */\n      0x00\n        /* \"#utility.yul\":7850:7852   */\n      0x20\n        /* \"#utility.yul\":7839:7848   */\n      dup3\n        /* \"#utility.yul\":7835:7853   */\n      add\n        /* \"#utility.yul\":7827:7853   */\n      swap1\n      pop\n        /* \"#utility.yul\":7899:7908   */\n      dup2\n        /* \"#utility.yul\":7893:7897   */\n      dup2\n        /* \"#utility.yul\":7889:7909   */\n      sub\n        /* \"#utility.yul\":7885:7886   */\n      0x00\n        /* \"#utility.yul\":7874:7883   */\n      dup4\n        /* \"#utility.yul\":7870:7887   */\n      add\n        /* \"#utility.yul\":7863:7910   */\n      mstore\n        /* \"#utility.yul\":7927:8058   */\n      tag_268\n        /* \"#utility.yul\":8053:8057   */\n      dup2\n        /* \"#utility.yul\":7927:8058   */\n      tag_159\n      jump\t// in\n    tag_268:\n        /* \"#utility.yul\":7919:8058   */\n      swap1\n      pop\n        /* \"#utility.yul\":7646:8065   */\n      swap2\n      swap1\n      pop\n      jump\t// out\n        /* \"#utility.yul\":8071:8403   */\n    tag_61:\n        /* \"#utility.yul\":8192:8196   */\n      0x00\n        /* \"#utility.yul\":8230:8232   */\n      0x40\n        /* \"#utility.yul\":8219:8228   */\n      dup3\n        /* \"#utility.yul\":8215:8233   */\n      add\n        /* \"#utility.yul\":8207:8233   */\n      swap1\n      pop\n        /* \"#utility.yul\":8243:8314   */\n      tag_270\n        /* \"#utility.yul\":8311:8312   */\n      0x00\n        /* \"#utility.yul\":8300:8309   */\n      dup4\n        /* \"#utility.yul\":8296:8313   */\n      add\n        /* \"#utility.yul\":8287:8293   */\n      dup6\n        /* \"#utility.yul\":8243:8314   */\n      tag_141\n      jump\t// in\n    tag_270:\n        /* \"#utility.yul\":8324:8396   */\n      tag_271\n        /* \"#utility.yul\":8392:8394   */\n      0x20\n        /* \"#utility.yul\":8381:8390   */\n      dup4\n        /* \"#utility.yul\":8377:8395   */\n      add\n        /* \"#utility.yul\":8368:8374   */\n      dup5\n        /* \"#utility.yul\":8324:8396   */\n      tag_133\n      jump\t// in\n    tag_271:\n        /* \"#utility.yul\":8071:8403   */\n      swap4\n      swap3\n      pop\n      pop\n      pop\n      jump\t// out\n        /* \"#utility.yul\":8409:8525   */\n    tag_160:\n        /* \"#utility.yul\":8479:8500   */\n      tag_273\n        /* \"#utility.yul\":8494:8499   */\n      dup2\n        /* \"#utility.yul\":8479:8500   */\n      tag_144\n      jump\t// in\n    tag_273:\n        /* \"#utility.yul\":8472:8477   */\n      dup2\n        /* \"#utility.yul\":8469:8501   */\n      eq\n        /* \"#utility.yul\":8459:8519   */\n      tag_274\n      jumpi\n        /* \"#utility.yul\":8515:8516   */\n      0x00\n        /* \"#utility.yul\":8512:8513   */\n      dup1\n        /* \"#utility.yul\":8505:8517   */\n      revert\n        /* \"#utility.yul\":8459:8519   */\n    tag_274:\n        /* \"#utility.yul\":8409:8525   */\n      pop\n      jump\t// out\n        /* \"#utility.yul\":8531:8668   */\n    tag_161:\n        /* \"#utility.yul\":8585:8590   */\n      0x00\n        /* \"#utility.yul\":8616:8622   */\n      dup2\n        /* \"#utility.yul\":8610:8623   */\n      mload\n        /* \"#utility.yul\":8601:8623   */\n      swap1\n      pop\n        /* \"#utility.yul\":8632:8662   */\n      tag_276\n        /* \"#utility.yul\":8656:8661   */\n      dup2\n        /* \"#utility.yul\":8632:8662   */\n      tag_160\n      jump\t// in\n    tag_276:\n        /* \"#utility.yul\":8531:8668   */\n      swap3\n      swap2\n      pop\n      pop\n      jump\t// out\n        /* \"#utility.yul\":8674:9019   */\n    tag_65:\n        /* \"#utility.yul\":8741:8747   */\n      0x00\n        /* \"#utility.yul\":8790:8792   */\n      0x20\n        /* \"#utility.yul\":8778:8787   */\n      dup3\n        /* \"#utility.yul\":8769:8776   */\n      dup5\n        /* \"#utility.yul\":8765:8788   */\n      sub\n        /* \"#utility.yul\":8761:8793   */\n      slt\n        /* \"#utility.yul\":8758:8877   */\n      iszero\n      tag_278\n      jumpi\n        /* \"#utility.yul\":8796:8875   */\n      tag_279\n      tag_135\n      jump\t// in\n    tag_279:\n        /* \"#utility.yul\":8758:8877   */\n    tag_278:\n        /* \"#utility.yul\":8916:8917   */\n      0x00\n        /* \"#utility.yul\":8941:9002   */\n      tag_280\n        /* \"#utility.yul\":8994:9001   */\n      dup5\n        /* \"#utility.yul\":8985:8991   */\n      dup3\n        /* \"#utility.yul\":8974:8983   */\n      dup6\n        /* \"#utility.yul\":8970:8992   */\n      add\n        /* \"#utility.yul\":8941:9002   */\n      tag_161\n      jump\t// in\n    tag_280:\n        /* \"#utility.yul\":8931:9002   */\n      swap2\n      pop\n        /* \"#utility.yul\":8887:9012   */\n      pop\n        /* \"#utility.yul\":8674:9019   */\n      swap3\n      swap2\n      pop\n      pop\n      jump\t// out\n        /* \"#utility.yul\":9025:9186   */\n    tag_162:\n        /* \"#utility.yul\":9165:9178   */\n      0x6e6f742063726561746f72000000000000000000000000000000000000000000\n        /* \"#utility.yul\":9161:9162   */\n      0x00\n        /* \"#utility.yul\":9153:9159   */\n      dup3\n        /* \"#utility.yul\":9149:9163   */\n      add\n        /* \"#utility.yul\":9142:9179   */\n      mstore\n        /* \"#utility.yul\":9025:9186   */\n      pop\n      jump\t// out\n        /* \"#utility.yul\":9192:9558   */\n    tag_163:\n        /* \"#utility.yul\":9334:9337   */\n      0x00\n        /* \"#utility.yul\":9355:9422   */\n      tag_283\n        /* \"#utility.yul\":9419:9421   */\n      0x0b\n        /* \"#utility.yul\":9414:9417   */\n      dup4\n        /* \"#utility.yul\":9355:9422   */\n      tag_155\n      jump\t// in\n    tag_283:\n        /* \"#utility.yul\":9348:9422   */\n      swap2\n      pop\n        /* \"#utility.yul\":9431:9524   */\n      tag_284\n        /* \"#utility.yul\":9520:9523   */\n      dup3\n        /* \"#utility.yul\":9431:9524   */\n      tag_162\n      jump\t// in\n    tag_284:\n        /* \"#utility.yul\":9549:9551   */\n      0x20\n        /* \"#utility.yul\":9544:9547   */\n      dup3\n        /* \"#utility.yul\":9540:9552   */\n      add\n        /* \"#utility.yul\":9533:9552   */\n      swap1\n      pop\n        /* \"#utility.yul\":9192:9558   */\n      swap2\n      swap1\n      pop\n      jump\t// out\n        /* \"#utility.yul\":9564:9983   */\n    tag_70:\n        /* \"#utility.yul\":9730:9734   */\n      0x00\n        /* \"#utility.yul\":9768:9770   */\n      0x20\n        /* \"#utility.yul\":9757:9766   */\n      dup3\n        /* \"#utility.yul\":9753:9771   */\n      add\n        /* \"#utility.yul\":9745:9771   */\n      swap1\n      pop\n        /* \"#utility.yul\":9817:9826   */\n      dup2\n        /* \"#utility.yul\":9811:9815   */\n      dup2\n        /* \"#utility.yul\":9807:9827   */\n      sub\n        /* \"#utility.yul\":9803:9804   */\n      0x00\n        /* \"#utility.yul\":9792:9801   */\n      dup4\n        /* \"#utility.yul\":9788:9805   */\n      add\n        /* \"#utility.yul\":9781:9828   */\n      mstore\n        /* \"#utility.yul\":9845:9976   */\n      tag_286\n        /* \"#utility.yul\":9971:9975   */\n      dup2\n        /* \"#utility.yul\":9845:9976   */\n      tag_163\n      jump\t// in\n    tag_286:\n        /* \"#utility.yul\":9837:9976   */\n      swap1\n      pop\n        /* \"#utility.yul\":9564:9983   */\n      swap2\n      swap1\n      pop\n      jump\t// out\n        /* \"#utility.yul\":9989:10154   */\n    tag_164:\n        /* \"#utility.yul\":10129:10146   */\n      0x616c726561647920636c61696d65640000000000000000000000000000000000\n        /* \"#utility.yul\":10125:10126   */\n      0x00\n        /* \"#utility.yul\":10117:10123   */\n      dup3\n        /* \"#utility.yul\":10113:10127   */\n      add\n        /* \"#utility.yul\":10106:10147   */\n      mstore\n        /* \"#utility.yul\":9989:10154   */\n      pop\n      jump\t// out\n        /* \"#utility.yul\":10160:10526   */\n    tag_165:\n        /* \"#utility.yul\":10302:10305   */\n      0x00\n        /* \"#utility.yul\":10323:10390   */\n      tag_289\n        /* \"#utility.yul\":10387:10389   */\n      0x0f\n        /* \"#utility.yul\":10382:10385   */\n      dup4\n        /* \"#utility.yul\":10323:10390   */\n      tag_155\n      jump\t// in\n    tag_289:\n        /* \"#utility.yul\":10316:10390   */\n      swap2\n      pop\n        /* \"#utility.yul\":10399:10492   */\n      tag_290\n        /* \"#utility.yul\":10488:10491   */\n      dup3\n        /* \"#utility.yul\":10399:10492   */\n      tag_164\n      jump\t// in\n    tag_290:\n        /* \"#utility.yul\":10517:10519   */\n      0x20\n        /* \"#utility.yul\":10512:10515   */\n      dup3\n        /* \"#utility.yul\":10508:10520   */\n      add\n        /* \"#utility.yul\":10501:10520   */\n      swap1\n      pop\n        /* \"#utility.yul\":10160:10526   */\n      swap2\n      swap1\n      pop\n      jump\t// out\n        /* \"#utility.yul\":10532:10951   */\n    tag_77:\n        /* \"#utility.yul\":10698:10702   */\n      0x00\n        /* \"#utility.yul\":10736:10738   */\n      0x20\n        /* \"#utility.yul\":10725:10734   */\n      dup3\n        /* \"#utility.yul\":10721:10739   */\n      add\n        /* \"#utility.yul\":10713:10739   */\n      swap1\n      pop\n        /* \"#utility.yul\":10785:10794   */\n      dup2\n        /* \"#utility.yul\":10779:10783   */\n      dup2\n        /* \"#utility.yul\":10775:10795   */\n      sub\n        /* \"#utility.yul\":10771:10772   */\n      0x00\n        /* \"#utility.yul\":10760:10769   */\n      dup4\n        /* \"#utility.yul\":10756:10773   */\n      add\n        /* \"#utility.yul\":10749:10796   */\n      mstore\n        /* \"#utility.yul\":10813:10944   */\n      tag_292\n        /* \"#utility.yul\":10939:10943   */\n      dup2\n        /* \"#utility.yul\":10813:10944   */\n      tag_165\n      jump\t// in\n    tag_292:\n        /* \"#utility.yul\":10805:10944   */\n      swap1\n      pop\n        /* \"#utility.yul\":10532:10951   */\n      swap2\n      swap1\n      pop\n      jump\t// out\n        /* \"#utility.yul\":10957:11114   */\n    tag_166:\n        /* \"#utility.yul\":11097:11106   */\n      0x7374617274656400000000000000000000000000000000000000000000000000\n        /* \"#utility.yul\":11093:11094   */\n      0x00\n        /* \"#utility.yul\":11085:11091   */\n      dup3\n        /* \"#utility.yul\":11081:11095   */\n      add\n        /* \"#utility.yul\":11074:11107   */\n      mstore\n        /* \"#utility.yul\":10957:11114   */\n      pop\n      jump\t// out\n        /* \"#utility.yul\":11120:11485   */\n    tag_167:\n        /* \"#utility.yul\":11262:11265   */\n      0x00\n        /* \"#utility.yul\":11283:11349   */\n      tag_295\n        /* \"#utility.yul\":11347:11348   */\n      0x07\n        /* \"#utility.yul\":11342:11345   */\n      dup4\n        /* \"#utility.yul\":11283:11349   */\n      tag_155\n      jump\t// in\n    tag_295:\n        /* \"#utility.yul\":11276:11349   */\n      swap2\n      pop\n        /* \"#utility.yul\":11358:11451   */\n      tag_296\n        /* \"#utility.yul\":11447:11450   */\n      dup3\n        /* \"#utility.yul\":11358:11451   */\n      tag_166\n      jump\t// in\n    tag_296:\n        /* \"#utility.yul\":11476:11478   */\n      0x20\n        /* \"#utility.yul\":11471:11474   */\n      dup3\n        /* \"#utility.yul\":11467:11479   */\n      add\n        /* \"#utility.yul\":11460:11479   */\n      swap1\n      pop\n        /* \"#utility.yul\":11120:11485   */\n      swap2\n      swap1\n      pop\n      jump\t// out\n        /* \"#utility.yul\":11491:11910   */\n    tag_88:\n        /* \"#utility.yul\":11657:11661   */\n      0x00\n        /* \"#utility.yul\":11695:11697   */\n      0x20\n        /* \"#utility.yul\":11684:11693   */\n      dup3\n        /* \"#utility.yul\":11680:11698   */\n      add\n        /* \"#utility.yul\":11672:11698   */\n      swap1\n      pop\n        /* \"#utility.yul\":11744:11753   */\n      dup2\n        /* \"#utility.yul\":11738:11742   */\n      dup2\n        /* \"#utility.yul\":11734:11754   */\n      sub\n        /* \"#utility.yul\":11730:11731   */\n      0x00\n        /* \"#utility.yul\":11719:11728   */\n      dup4\n        /* \"#utility.yul\":11715:11732   */\n      add\n        /* \"#utility.yul\":11708:11755   */\n      mstore\n        /* \"#utility.yul\":11772:11903   */\n      tag_298\n        /* \"#utility.yul\":11898:11902   */\n      dup2\n        /* \"#utility.yul\":11772:11903   */\n      tag_167\n      jump\t// in\n    tag_298:\n        /* \"#utility.yul\":11764:11903   */\n      swap1\n      pop\n        /* \"#utility.yul\":11491:11910   */\n      swap2\n      swap1\n      pop\n      jump\t// out\n        /* \"#utility.yul\":11916:12071   */\n    tag_168:\n        /* \"#utility.yul\":12056:12063   */\n      0x656e646564000000000000000000000000000000000000000000000000000000\n        /* \"#utility.yul\":12052:12053   */\n      0x00\n        /* \"#utility.yul\":12044:12050   */\n      dup3\n        /* \"#utility.yul\":12040:12054   */\n      add\n        /* \"#utility.yul\":12033:12064   */\n      mstore\n        /* \"#utility.yul\":11916:12071   */\n      pop\n      jump\t// out\n        /* \"#utility.yul\":12077:12442   */\n    tag_169:\n        /* \"#utility.yul\":12219:12222   */\n      0x00\n        /* \"#utility.yul\":12240:12306   */\n      tag_301\n        /* \"#utility.yul\":12304:12305   */\n      0x05\n        /* \"#utility.yul\":12299:12302   */\n      dup4\n        /* \"#utility.yul\":12240:12306   */\n      tag_155\n      jump\t// in\n    tag_301:\n        /* \"#utility.yul\":12233:12306   */\n      swap2\n      pop\n        /* \"#utility.yul\":12315:12408   */\n      tag_302\n        /* \"#utility.yul\":12404:12407   */\n      dup3\n        /* \"#utility.yul\":12315:12408   */\n      tag_168\n      jump\t// in\n    tag_302:\n        /* \"#utility.yul\":12433:12435   */\n      0x20\n        /* \"#utility.yul\":12428:12431   */\n      dup3\n        /* \"#utility.yul\":12424:12436   */\n      add\n        /* \"#utility.yul\":12417:12436   */\n      swap1\n      pop\n        /* \"#utility.yul\":12077:12442   */\n      swap2\n      swap1\n      pop\n      jump\t// out\n        /* \"#utility.yul\":12448:12867   */\n    tag_93:\n        /* \"#utility.yul\":12614:12618   */\n      0x00\n        /* \"#utility.yul\":12652:12654   */\n      0x20\n        /* \"#utility.yul\":12641:12650   */\n      dup3\n        /* \"#utility.yul\":12637:12655   */\n      add\n        /* \"#utility.yul\":12629:12655   */\n      swap1\n      pop\n        /* \"#utility.yul\":12701:12710   */\n      dup2\n        /* \"#utility.yul\":12695:12699   */\n      dup2\n        /* \"#utility.yul\":12691:12711   */\n      sub\n        /* \"#utility.yul\":12687:12688   */\n      0x00\n        /* \"#utility.yul\":12676:12685   */\n      dup4\n        /* \"#utility.yul\":12672:12689   */\n      add\n        /* \"#utility.yul\":12665:12712   */\n      mstore\n        /* \"#utility.yul\":12729:12860   */\n      tag_304\n        /* \"#utility.yul\":12855:12859   */\n      dup2\n        /* \"#utility.yul\":12729:12860   */\n      tag_169\n      jump\t// in\n    tag_304:\n        /* \"#utility.yul\":12721:12860   */\n      swap1\n      pop\n        /* \"#utility.yul\":12448:12867   */\n      swap2\n      swap1\n      pop\n      jump\t// out\n        /* \"#utility.yul\":12873:13053   */\n    tag_170:\n        /* \"#utility.yul\":12921:12998   */\n      0x4e487b7100000000000000000000000000000000000000000000000000000000\n        /* \"#utility.yul\":12918:12919   */\n      0x00\n        /* \"#utility.yul\":12911:12999   */\n      mstore\n        /* \"#utility.yul\":13018:13022   */\n      0x11\n        /* \"#utility.yul\":13015:13016   */\n      0x04\n        /* \"#utility.yul\":13008:13023   */\n      mstore\n        /* \"#utility.yul\":13042:13046   */\n      0x24\n        /* \"#utility.yul\":13039:13040   */\n      0x00\n        /* \"#utility.yul\":13032:13047   */\n      revert\n        /* \"#utility.yul\":13059:13253   */\n    tag_95:\n        /* \"#utility.yul\":13099:13103   */\n      0x00\n        /* \"#utility.yul\":13119:13139   */\n      tag_307\n        /* \"#utility.yul\":13137:13138   */\n      dup3\n        /* \"#utility.yul\":13119:13139   */\n      tag_132\n      jump\t// in\n    tag_307:\n        /* \"#utility.yul\":13114:13139   */\n      swap2\n      pop\n        /* \"#utility.yul\":13153:13173   */\n      tag_308\n        /* \"#utility.yul\":13171:13172   */\n      dup4\n        /* \"#utility.yul\":13153:13173   */\n      tag_132\n      jump\t// in\n    tag_308:\n        /* \"#utility.yul\":13148:13173   */\n      swap3\n      pop\n        /* \"#utility.yul\":13197:13198   */\n      dup3\n        /* \"#utility.yul\":13194:13195   */\n      dup3\n        /* \"#utility.yul\":13190:13199   */\n      sub\n        /* \"#utility.yul\":13182:13199   */\n      swap1\n      pop\n        /* \"#utility.yul\":13221:13222   */\n      dup2\n        /* \"#utility.yul\":13215:13219   */\n      dup2\n        /* \"#utility.yul\":13212:13223   */\n      gt\n        /* \"#utility.yul\":13209:13246   */\n      iszero\n      tag_309\n      jumpi\n        /* \"#utility.yul\":13226:13244   */\n      tag_310\n      tag_170\n      jump\t// in\n    tag_310:\n        /* \"#utility.yul\":13209:13246   */\n    tag_309:\n        /* \"#utility.yul\":13059:13253   */\n      swap3\n      swap2\n      pop\n      pop\n      jump\t// out\n        /* \"#utility.yul\":13259:13423   */\n    tag_171:\n        /* \"#utility.yul\":13399:13415   */\n      0x7374617274206174203c206e6f77000000000000000000000000000000000000\n        /* \"#utility.yul\":13395:13396   */\n      0x00\n        /* \"#utility.yul\":13387:13393   */\n      dup3\n        /* \"#utility.yul\":13383:13397   */\n      add\n        /* \"#utility.yul\":13376:13416   */\n      mstore\n        /* \"#utility.yul\":13259:13423   */\n      pop\n      jump\t// out\n        /* \"#utility.yul\":13429:13795   */\n    tag_172:\n        /* \"#utility.yul\":13571:13574   */\n      0x00\n        /* \"#utility.yul\":13592:13659   */\n      tag_313\n        /* \"#utility.yul\":13656:13658   */\n      0x0e\n        /* \"#utility.yul\":13651:13654   */\n      dup4\n        /* \"#utility.yul\":13592:13659   */\n      tag_155\n      jump\t// in\n    tag_313:\n        /* \"#utility.yul\":13585:13659   */\n      swap2\n      pop\n        /* \"#utility.yul\":13668:13761   */\n      tag_314\n        /* \"#utility.yul\":13757:13760   */\n      dup3\n        /* \"#utility.yul\":13668:13761   */\n      tag_171\n      jump\t// in\n    tag_314:\n        /* \"#utility.yul\":13786:13788   */\n      0x20\n        /* \"#utility.yul\":13781:13784   */\n      dup3\n        /* \"#utility.yul\":13777:13789   */\n      add\n        /* \"#utility.yul\":13770:13789   */\n      swap1\n      pop\n        /* \"#utility.yul\":13429:13795   */\n      swap2\n      swap1\n      pop\n      jump\t// out\n        /* \"#utility.yul\":13801:14220   */\n    tag_105:\n        /* \"#utility.yul\":13967:13971   */\n      0x00\n        /* \"#utility.yul\":14005:14007   */\n      0x20\n        /* \"#utility.yul\":13994:14003   */\n      dup3\n        /* \"#utility.yul\":13990:14008   */\n      add\n        /* \"#utility.yul\":13982:14008   */\n      swap1\n      pop\n        /* \"#utility.yul\":14054:14063   */\n      dup2\n        /* \"#utility.yul\":14048:14052   */\n      dup2\n        /* \"#utility.yul\":14044:14064   */\n      sub\n        /* \"#utility.yul\":14040:14041   */\n      0x00\n        /* \"#utility.yul\":14029:14038   */\n      dup4\n        /* \"#utility.yul\":14025:14042   */\n      add\n        /* \"#utility.yul\":14018:14065   */\n      mstore\n        /* \"#utility.yul\":14082:14213   */\n      tag_316\n        /* \"#utility.yul\":14208:14212   */\n      dup2\n        /* \"#utility.yul\":14082:14213   */\n      tag_172\n      jump\t// in\n    tag_316:\n        /* \"#utility.yul\":14074:14213   */\n      swap1\n      pop\n        /* \"#utility.yul\":13801:14220   */\n      swap2\n      swap1\n      pop\n      jump\t// out\n        /* \"#utility.yul\":14226:14393   */\n    tag_173:\n        /* \"#utility.yul\":14366:14385   */\n      0x656e64206174203c207374617274206174000000000000000000000000000000\n        /* \"#utility.yul\":14362:14363   */\n      0x00\n        /* \"#utility.yul\":14354:14360   */\n      dup3\n        /* \"#utility.yul\":14350:14364   */\n      add\n        /* \"#utility.yul\":14343:14386   */\n      mstore\n        /* \"#utility.yul\":14226:14393   */\n      pop\n      jump\t// out\n        /* \"#utility.yul\":14399:14765   */\n    tag_174:\n        /* \"#utility.yul\":14541:14544   */\n      0x00\n        /* \"#utility.yul\":14562:14629   */\n      tag_319\n        /* \"#utility.yul\":14626:14628   */\n      0x11\n        /* \"#utility.yul\":14621:14624   */\n      dup4\n        /* \"#utility.yul\":14562:14629   */\n      tag_155\n      jump\t// in\n    tag_319:\n        /* \"#utility.yul\":14555:14629   */\n      swap2\n      pop\n        /* \"#utility.yul\":14638:14731   */\n      tag_320\n        /* \"#utility.yul\":14727:14730   */\n      dup3\n        /* \"#utility.yul\":14638:14731   */\n      tag_173\n      jump\t// in\n    tag_320:\n        /* \"#utility.yul\":14756:14758   */\n      0x20\n        /* \"#utility.yul\":14751:14754   */\n      dup3\n        /* \"#utility.yul\":14747:14759   */\n      add\n        /* \"#utility.yul\":14740:14759   */\n      swap1\n      pop\n        /* \"#utility.yul\":14399:14765   */\n      swap2\n      swap1\n      pop\n      jump\t// out\n        /* \"#utility.yul\":14771:15190   */\n    tag_108:\n        /* \"#utility.yul\":14937:14941   */\n      0x00\n        /* \"#utility.yul\":14975:14977   */\n      0x20\n        /* \"#utility.yul\":14964:14973   */\n      dup3\n        /* \"#utility.yul\":14960:14978   */\n      add\n        /* \"#utility.yul\":14952:14978   */\n      swap1\n      pop\n        /* \"#utility.yul\":15024:15033   */\n      dup2\n        /* \"#utility.yul\":15018:15022   */\n      dup2\n        /* \"#utility.yul\":15014:15034   */\n      sub\n        /* \"#utility.yul\":15010:15011   */\n      0x00\n        /* \"#utility.yul\":14999:15008   */\n      dup4\n        /* \"#utility.yul\":14995:15012   */\n      add\n        /* \"#utility.yul\":14988:15035   */\n      mstore\n        /* \"#utility.yul\":15052:15183   */\n      tag_322\n        /* \"#utility.yul\":15178:15182   */\n      dup2\n        /* \"#utility.yul\":15052:15183   */\n      tag_174\n      jump\t// in\n    tag_322:\n        /* \"#utility.yul\":15044:15183   */\n      swap1\n      pop\n        /* \"#utility.yul\":14771:15190   */\n      swap2\n      swap1\n      pop\n      jump\t// out\n        /* \"#utility.yul\":15196:15387   */\n    tag_110:\n        /* \"#utility.yul\":15236:15239   */\n      0x00\n        /* \"#utility.yul\":15255:15275   */\n      tag_324\n        /* \"#utility.yul\":15273:15274   */\n      dup3\n        /* \"#utility.yul\":15255:15275   */\n      tag_132\n      jump\t// in\n    tag_324:\n        /* \"#utility.yul\":15250:15275   */\n      swap2\n      pop\n        /* \"#utility.yul\":15289:15309   */\n      tag_325\n        /* \"#utility.yul\":15307:15308   */\n      dup4\n        /* \"#utility.yul\":15289:15309   */\n      tag_132\n      jump\t// in\n    tag_325:\n        /* \"#utility.yul\":15284:15309   */\n      swap3\n      pop\n        /* \"#utility.yul\":15332:15333   */\n      dup3\n        /* \"#utility.yul\":15329:15330   */\n      dup3\n        /* \"#utility.yul\":15325:15334   */\n      add\n        /* \"#utility.yul\":15318:15334   */\n      swap1\n      pop\n        /* \"#utility.yul\":15353:15356   */\n      dup1\n        /* \"#utility.yul\":15350:15351   */\n      dup3\n        /* \"#utility.yul\":15347:15357   */\n      gt\n        /* \"#utility.yul\":15344:15380   */\n      iszero\n      tag_326\n      jumpi\n        /* \"#utility.yul\":15360:15378   */\n      tag_327\n      tag_170\n      jump\t// in\n    tag_327:\n        /* \"#utility.yul\":15344:15380   */\n    tag_326:\n        /* \"#utility.yul\":15196:15387   */\n      swap3\n      swap2\n      pop\n      pop\n      jump\t// out\n        /* \"#utility.yul\":15393:15564   */\n    tag_175:\n        /* \"#utility.yul\":15533:15556   */\n      0x656e64206174203e206d6178206475726174696f6e0000000000000000000000\n        /* \"#utility.yul\":15529:15530   */\n      0x00\n        /* \"#utility.yul\":15521:15527   */\n      dup3\n        /* \"#utility.yul\":15517:15531   */\n      add\n        /* \"#utility.yul\":15510:15557   */\n      mstore\n        /* \"#utility.yul\":15393:15564   */\n      pop\n      jump\t// out\n        /* \"#utility.yul\":15570:15936   */\n    tag_176:\n        /* \"#utility.yul\":15712:15715   */\n      0x00\n        /* \"#utility.yul\":15733:15800   */\n      tag_330\n        /* \"#utility.yul\":15797:15799   */\n      0x15\n        /* \"#utility.yul\":15792:15795   */\n      dup4\n        /* \"#utility.yul\":15733:15800   */\n      tag_155\n      jump\t// in\n    tag_330:\n        /* \"#utility.yul\":15726:15800   */\n      swap2\n      pop\n        /* \"#utility.yul\":15809:15902   */\n      tag_331\n        /* \"#utility.yul\":15898:15901   */\n      dup3\n        /* \"#utility.yul\":15809:15902   */\n      tag_175\n      jump\t// in\n    tag_331:\n        /* \"#utility.yul\":15927:15929   */\n      0x20\n        /* \"#utility.yul\":15922:15925   */\n      dup3\n        /* \"#utility.yul\":15918:15930   */\n      add\n        /* \"#utility.yul\":15911:15930   */\n      swap1\n      pop\n        /* \"#utility.yul\":15570:15936   */\n      swap2\n      swap1\n      pop\n      jump\t// out\n        /* \"#utility.yul\":15942:16361   */\n    tag_113:\n        /* \"#utility.yul\":16108:16112   */\n      0x00\n        /* \"#utility.yul\":16146:16148   */\n      0x20\n        /* \"#utility.yul\":16135:16144   */\n      dup3\n        /* \"#utility.yul\":16131:16149   */\n      add\n        /* \"#utility.yul\":16123:16149   */\n      swap1\n      pop\n        /* \"#utility.yul\":16195:16204   */\n      dup2\n        /* \"#utility.yul\":16189:16193   */\n      dup2\n        /* \"#utility.yul\":16185:16205   */\n      sub\n        /* \"#utility.yul\":16181:16182   */\n      0x00\n        /* \"#utility.yul\":16170:16179   */\n      dup4\n        /* \"#utility.yul\":16166:16183   */\n      add\n        /* \"#utility.yul\":16159:16206   */\n      mstore\n        /* \"#utility.yul\":16223:16354   */\n      tag_333\n        /* \"#utility.yul\":16349:16353   */\n      dup2\n        /* \"#utility.yul\":16223:16354   */\n      tag_176\n      jump\t// in\n    tag_333:\n        /* \"#utility.yul\":16215:16354   */\n      swap1\n      pop\n        /* \"#utility.yul\":15942:16361   */\n      swap2\n      swap1\n      pop\n      jump\t// out\n        /* \"#utility.yul\":16367:16912   */\n    tag_116:\n        /* \"#utility.yul\":16540:16544   */\n      0x00\n        /* \"#utility.yul\":16578:16581   */\n      0x80\n        /* \"#utility.yul\":16567:16576   */\n      dup3\n        /* \"#utility.yul\":16563:16582   */\n      add\n        /* \"#utility.yul\":16555:16582   */\n      swap1\n      pop\n        /* \"#utility.yul\":16592:16663   */\n      tag_335\n        /* \"#utility.yul\":16660:16661   */\n      0x00\n        /* \"#utility.yul\":16649:16658   */\n      dup4\n        /* \"#utility.yul\":16645:16662   */\n      add\n        /* \"#utility.yul\":16636:16642   */\n      dup8\n        /* \"#utility.yul\":16592:16663   */\n      tag_133\n      jump\t// in\n    tag_335:\n        /* \"#utility.yul\":16673:16745   */\n      tag_336\n        /* \"#utility.yul\":16741:16743   */\n      0x20\n        /* \"#utility.yul\":16730:16739   */\n      dup4\n        /* \"#utility.yul\":16726:16744   */\n      add\n        /* \"#utility.yul\":16717:16723   */\n      dup7\n        /* \"#utility.yul\":16673:16745   */\n      tag_133\n      jump\t// in\n    tag_336:\n        /* \"#utility.yul\":16755:16825   */\n      tag_337\n        /* \"#utility.yul\":16821:16823   */\n      0x40\n        /* \"#utility.yul\":16810:16819   */\n      dup4\n        /* \"#utility.yul\":16806:16824   */\n      add\n        /* \"#utility.yul\":16797:16803   */\n      dup6\n        /* \"#utility.yul\":16755:16825   */\n      tag_143\n      jump\t// in\n    tag_337:\n        /* \"#utility.yul\":16835:16905   */\n      tag_338\n        /* \"#utility.yul\":16901:16903   */\n      0x60\n        /* \"#utility.yul\":16890:16899   */\n      dup4\n        /* \"#utility.yul\":16886:16904   */\n      add\n        /* \"#utility.yul\":16877:16883   */\n      dup5\n        /* \"#utility.yul\":16835:16905   */\n      tag_143\n      jump\t// in\n    tag_338:\n        /* \"#utility.yul\":16367:16912   */\n      swap6\n      swap5\n      pop\n      pop\n      pop\n      pop\n      pop\n      jump\t// out\n        /* \"#utility.yul\":16918:17083   */\n    tag_177:\n        /* \"#utility.yul\":17058:17075   */\n      0x6e6f742073746172746564207965740000000000000000000000000000000000\n        /* \"#utility.yul\":17054:17055   */\n      0x00\n        /* \"#utility.yul\":17046:17052   */\n      dup3\n        /* \"#utility.yul\":17042:17056   */\n      add\n        /* \"#utility.yul\":17035:17076   */\n      mstore\n        /* \"#utility.yul\":16918:17083   */\n      pop\n      jump\t// out\n        /* \"#utility.yul\":17089:17455   */\n    tag_178:\n        /* \"#utility.yul\":17231:17234   */\n      0x00\n        /* \"#utility.yul\":17252:17319   */\n      tag_341\n        /* \"#utility.yul\":17316:17318   */\n      0x0f\n        /* \"#utility.yul\":17311:17314   */\n      dup4\n        /* \"#utility.yul\":17252:17319   */\n      tag_155\n      jump\t// in\n    tag_341:\n        /* \"#utility.yul\":17245:17319   */\n      swap2\n      pop\n        /* \"#utility.yul\":17328:17421   */\n      tag_342\n        /* \"#utility.yul\":17417:17420   */\n      dup3\n        /* \"#utility.yul\":17328:17421   */\n      tag_177\n      jump\t// in\n    tag_342:\n        /* \"#utility.yul\":17446:17448   */\n      0x20\n        /* \"#utility.yul\":17441:17444   */\n      dup3\n        /* \"#utility.yul\":17437:17449   */\n      add\n        /* \"#utility.yul\":17430:17449   */\n      swap1\n      pop\n        /* \"#utility.yul\":17089:17455   */\n      swap2\n      swap1\n      pop\n      jump\t// out\n        /* \"#utility.yul\":17461:17880   */\n    tag_120:\n        /* \"#utility.yul\":17627:17631   */\n      0x00\n        /* \"#utility.yul\":17665:17667   */\n      0x20\n        /* \"#utility.yul\":17654:17663   */\n      dup3\n        /* \"#utility.yul\":17650:17668   */\n      add\n        /* \"#utility.yul\":17642:17668   */\n      swap1\n      pop\n        /* \"#utility.yul\":17714:17723   */\n      dup2\n        /* \"#utility.yul\":17708:17712   */\n      dup2\n        /* \"#utility.yul\":17704:17724   */\n      sub\n        /* \"#utility.yul\":17700:17701   */\n      0x00\n        /* \"#utility.yul\":17689:17698   */\n      dup4\n        /* \"#utility.yul\":17685:17702   */\n      add\n        /* \"#utility.yul\":17678:17725   */\n      mstore\n        /* \"#utility.yul\":17742:17873   */\n      tag_344\n        /* \"#utility.yul\":17868:17872   */\n      dup2\n        /* \"#utility.yul\":17742:17873   */\n      tag_178\n      jump\t// in\n    tag_344:\n        /* \"#utility.yul\":17734:17873   */\n      swap1\n      pop\n        /* \"#utility.yul\":17461:17880   */\n      swap2\n      swap1\n      pop\n      jump\t// out\n        /* \"#utility.yul\":17886:18050   */\n    tag_179:\n        /* \"#utility.yul\":18026:18042   */\n      0x63616d706169676e20656e646564000000000000000000000000000000000000\n        /* \"#utility.yul\":18022:18023   */\n      0x00\n        /* \"#utility.yul\":18014:18020   */\n      dup3\n        /* \"#utility.yul\":18010:18024   */\n      add\n        /* \"#utility.yul\":18003:18043   */\n      mstore\n        /* \"#utility.yul\":17886:18050   */\n      pop\n      jump\t// out\n        /* \"#utility.yul\":18056:18422   */\n    tag_180:\n        /* \"#utility.yul\":18198:18201   */\n      0x00\n        /* \"#utility.yul\":18219:18286   */\n      tag_347\n        /* \"#utility.yul\":18283:18285   */\n      0x0e\n        /* \"#utility.yul\":18278:18281   */\n      dup4\n        /* \"#utility.yul\":18219:18286   */\n      tag_155\n      jump\t// in\n    tag_347:\n        /* \"#utility.yul\":18212:18286   */\n      swap2\n      pop\n        /* \"#utility.yul\":18295:18388   */\n      tag_348\n        /* \"#utility.yul\":18384:18387   */\n      dup3\n        /* \"#utility.yul\":18295:18388   */\n      tag_179\n      jump\t// in\n    tag_348:\n        /* \"#utility.yul\":18413:18415   */\n      0x20\n        /* \"#utility.yul\":18408:18411   */\n      dup3\n        /* \"#utility.yul\":18404:18416   */\n      add\n        /* \"#utility.yul\":18397:18416   */\n      swap1\n      pop\n        /* \"#utility.yul\":18056:18422   */\n      swap2\n      swap1\n      pop\n      jump\t// out\n        /* \"#utility.yul\":18428:18847   */\n    tag_123:\n        /* \"#utility.yul\":18594:18598   */\n      0x00\n        /* \"#utility.yul\":18632:18634   */\n      0x20\n        /* \"#utility.yul\":18621:18630   */\n      dup3\n        /* \"#utility.yul\":18617:18635   */\n      add\n        /* \"#utility.yul\":18609:18635   */\n      swap1\n      pop\n        /* \"#utility.yul\":18681:18690   */\n      dup2\n        /* \"#utility.yul\":18675:18679   */\n      dup2\n        /* \"#utility.yul\":18671:18691   */\n      sub\n        /* \"#utility.yul\":18667:18668   */\n      0x00\n        /* \"#utility.yul\":18656:18665   */\n      dup4\n        /* \"#utility.yul\":18652:18669   */\n      add\n        /* \"#utility.yul\":18645:18692   */\n      mstore\n        /* \"#utility.yul\":18709:18840   */\n      tag_350\n        /* \"#utility.yul\":18835:18839   */\n      dup2\n        /* \"#utility.yul\":18709:18840   */\n      tag_180\n      jump\t// in\n    tag_350:\n        /* \"#utility.yul\":18701:18840   */\n      swap1\n      pop\n        /* \"#utility.yul\":18428:18847   */\n      swap2\n      swap1\n      pop\n      jump\t// out\n        /* \"#utility.yul\":18853:19295   */\n    tag_127:\n        /* \"#utility.yul\":19002:19006   */\n      0x00\n        /* \"#utility.yul\":19040:19042   */\n      0x60\n        /* \"#utility.yul\":19029:19038   */\n      dup3\n        /* \"#utility.yul\":19025:19043   */\n      add\n        /* \"#utility.yul\":19017:19043   */\n      swap1\n      pop\n        /* \"#utility.yul\":19053:19124   */\n      tag_352\n        /* \"#utility.yul\":19121:19122   */\n      0x00\n        /* \"#utility.yul\":19110:19119   */\n      dup4\n        /* \"#utility.yul\":19106:19123   */\n      add\n        /* \"#utility.yul\":19097:19103   */\n      dup7\n        /* \"#utility.yul\":19053:19124   */\n      tag_141\n      jump\t// in\n    tag_352:\n        /* \"#utility.yul\":19134:19206   */\n      tag_353\n        /* \"#utility.yul\":19202:19204   */\n      0x20\n        /* \"#utility.yul\":19191:19200   */\n      dup4\n        /* \"#utility.yul\":19187:19205   */\n      add\n        /* \"#utility.yul\":19178:19184   */\n      dup6\n        /* \"#utility.yul\":19134:19206   */\n      tag_141\n      jump\t// in\n    tag_353:\n        /* \"#utility.yul\":19216:19288   */\n      tag_354\n        /* \"#utility.yul\":19284:19286   */\n      0x40\n        /* \"#utility.yul\":19273:19282   */\n      dup4\n        /* \"#utility.yul\":19269:19287   */\n      add\n        /* \"#utility.yul\":19260:19266   */\n      dup5\n        /* \"#utility.yul\":19216:19288   */\n      tag_133\n      jump\t// in\n    tag_354:\n        /* \"#utility.yul\":18853:19295   */\n      swap5\n      swap4\n      pop\n      pop\n      pop\n      pop\n      jump\t// out\n\n    auxdata: 0xa26469706673582212206527445bbc55055bb068eded23e53fed59d25e8b00a8a6e96ca37e0f787989ba64736f6c63430008110033\n}\n",
				"bytecode": {
					"linkReferences": {},
					"object": "60a06040523480156200001157600080fd5b5060405162001bd738038062001bd78339818101604052810190620000379190620000dc565b8073ffffffffffffffffffffffffffffffffffffffff1660808173ffffffffffffffffffffffffffffffffffffffff1681525050506200010e565b600080fd5b600073ffffffffffffffffffffffffffffffffffffffff82169050919050565b6000620000a48262000077565b9050919050565b620000b68162000097565b8114620000c257600080fd5b50565b600081519050620000d681620000ab565b92915050565b600060208284031215620000f557620000f462000072565b5b60006200010584828501620000c5565b91505092915050565b608051611a9162000146600039600081816103e50152818161069701528181610ae601528181610e94015261100b0152611a916000f3fe608060405234801561001057600080fd5b506004361061009e5760003560e01c8063711853ab11610066578063711853ab1461014a578063aa4fb63a14610166578063daf6994014610196578063fc0c546a146101b2578063fde327be146101d05761009e565b806306661abd146100a3578063141961bc146100c1578063278ecde1146100f6578063379607f51461011257806340e58ee51461012e575b600080fd5b6100ab6101ec565b6040516100b89190611117565b60405180910390f35b6100db60048036038101906100d69190611163565b6101f2565b6040516100ed9695949392919061120b565b60405180910390f35b610110600480360381019061010b9190611163565b61027b565b005b61012c60048036038101906101279190611163565b6104d6565b005b61014860048036038101906101439190611163565b610773565b005b610164600480360381019061015f919061126c565b6109ee565b005b610180600480360381019061017b91906112d8565b610bd7565b60405161018d9190611117565b60405180910390f35b6101b060048036038101906101ab9190611344565b610bfc565b005b6101ba610e92565b6040516101c791906113f6565b60405180910390f35b6101ea60048036038101906101e5919061126c565b610eb6565b005b60005481565b60016020528060005260406000206000915090508060000160009054906101000a900473ffffffffffffffffffffffffffffffffffffffff16908060010154908060020154908060030160009054906101000a900463ffffffff16908060030160049054906101000a900463ffffffff16908060030160089054906101000a900460ff16905086565b60006001600083815260200190815260200160002090508060030160049054906101000a900463ffffffff1663ffffffff1642116102ee576040517f08c379a00000000000000000000000000000000000000000000000000000000081526004016102e59061146e565b60405180910390fd5b8060010154816002015410610338576040517f08c379a000000000000000000000000000000000000000000000000000000000815260040161032f906114da565b60405180910390fd5b60006002600084815260200190815260200160002060003373ffffffffffffffffffffffffffffffffffffffff1673ffffffffffffffffffffffffffffffffffffffff16815260200190815260200160002054905060006002600085815260200190815260200160002060003373ffffffffffffffffffffffffffffffffffffffff1673ffffffffffffffffffffffffffffffffffffffff168152602001908152602001600020819055507f000000000000000000000000000000000000000000000000000000000000000073ffffffffffffffffffffffffffffffffffffffff1663a9059cbb33836040518363ffffffff1660e01b815260040161043e9291906114fa565b6020604051808303816000875af115801561045d573d6000803e3d6000fd5b505050506040513d601f19601f82011682018060405250810190610481919061154f565b503373ffffffffffffffffffffffffffffffffffffffff16837f21e12a7cad0da5928167e1084ea4d5fdf8d9af66657a2543a9ac76a0ca081477836040516104c99190611117565b60405180910390a3505050565b60006001600083815260200190815260200160002090508060000160009054906101000a900473ffffffffffffffffffffffffffffffffffffffff1673ffffffffffffffffffffffffffffffffffffffff163373ffffffffffffffffffffffffffffffffffffffff161461057f576040517f08c379a0000000000000000000000000000000000000000000000000000000008152600401610576906115c8565b60405180910390fd5b8060030160049054906101000a900463ffffffff1663ffffffff1642116105db576040517f08c379a00000000000000000000000000000000000000000000000000000000081526004016105d29061146e565b60405180910390fd5b806001015481600201541015610626576040517f08c379a000000000000000000000000000000000000000000000000000000000815260040161061d906114da565b60405180910390fd5b8060030160089054906101000a900460ff1615610678576040517f08c379a000000000000000000000000000000000000000000000000000000000815260040161066f90611634565b60405180910390fd5b60018160030160086101000a81548160ff0219169083151502179055507f000000000000000000000000000000000000000000000000000000000000000073ffffffffffffffffffffffffffffffffffffffff1663a9059cbb3383600201546040518363ffffffff1660e01b81526004016106f49291906114fa565b6020604051808303816000875af1158015610713573d6000803e3d6000fd5b505050506040513d601f19601f82011682018060405250810190610737919061154f565b507f7bb2b3c10797baccb6f8c4791f1edd6ca2f0d028ee0eda64b01a9a57e3a653f7826040516107679190611117565b60405180910390a15050565b6000600160008381526020019081526020016000206040518060c00160405290816000820160009054906101000a900473ffffffffffffffffffffffffffffffffffffffff1673ffffffffffffffffffffffffffffffffffffffff1673ffffffffffffffffffffffffffffffffffffffff16815260200160018201548152602001600282015481526020016003820160009054906101000a900463ffffffff1663ffffffff1663ffffffff1681526020016003820160049054906101000a900463ffffffff1663ffffffff1663ffffffff1681526020016003820160089054906101000a900460ff1615151515815250509050806000015173ffffffffffffffffffffffffffffffffffffffff163373ffffffffffffffffffffffffffffffffffffffff16146108d8576040517f08c379a00000000000000000000000000000000000000000000000000000000081526004016108cf906115c8565b60405180910390fd5b806060015163ffffffff164210610924576040517f08c379a000000000000000000000000000000000000000000000000000000000815260040161091b906116a0565b60405180910390fd5b60016000838152602001908152602001600020600080820160006101000a81549073ffffffffffffffffffffffffffffffffffffffff0219169055600182016000905560028201600090556003820160006101000a81549063ffffffff02191690556003820160046101000a81549063ffffffff02191690556003820160086101000a81549060ff021916905550507f8bf30e7ff26833413be5f69e1d373744864d600b664204b4a2f9844a8eedb9ed826040516109e29190611117565b60405180910390a15050565b60006001600084815260200190815260200160002090508060030160049054906101000a900463ffffffff1663ffffffff16421115610a62576040517f08c379a0000000000000000000000000000000000000000000000000000000008152600401610a599061170c565b60405180910390fd5b81816002016000828254610a76919061175b565b92505081905550816002600085815260200190815260200160002060003373ffffffffffffffffffffffffffffffffffffffff1673ffffffffffffffffffffffffffffffffffffffff1681526020019081526020016000206000828254610add919061175b565b925050819055507f000000000000000000000000000000000000000000000000000000000000000073ffffffffffffffffffffffffffffffffffffffff1663a9059cbb33846040518363ffffffff1660e01b8152600401610b3f9291906114fa565b6020604051808303816000875af1158015610b5e573d6000803e3d6000fd5b505050506040513d601f19601f82011682018060405250810190610b82919061154f565b503373ffffffffffffffffffffffffffffffffffffffff16837f2eeeab891b26a214d1b25749f88a406bdea852bd8c9bfda977e0ef8114c180ba84604051610bca9190611117565b60405180910390a3505050565b6002602052816000526040600020602052806000526040600020600091509150505481565b428263ffffffff161015610c45576040517f08c379a0000000000000000000000000000000000000000000000000000000008152600401610c3c906117db565b60405180910390fd5b8163ffffffff168163ffffffff161015610c94576040517f08c379a0000000000000000000000000000000000000000000000000000000008152600401610c8b90611847565b60405180910390fd5b6276a70042610ca39190611867565b8163ffffffff161115610ceb576040517f08c379a0000000000000000000000000000000000000000000000000000000008152600401610ce2906118e7565b60405180910390fd5b6001600080828254610cfd9190611867565b925050819055506040518060c001604052803373ffffffffffffffffffffffffffffffffffffffff168152602001848152602001600081526020018363ffffffff1681526020018263ffffffff16815260200160001515815250600160008054815260200190815260200160002060008201518160000160006101000a81548173ffffffffffffffffffffffffffffffffffffffff021916908373ffffffffffffffffffffffffffffffffffffffff160217905550602082015181600101556040820151816002015560608201518160030160006101000a81548163ffffffff021916908363ffffffff16021790555060808201518160030160046101000a81548163ffffffff021916908363ffffffff16021790555060a08201518160030160086101000a81548160ff0219169083151502179055509050503373ffffffffffffffffffffffffffffffffffffffff167f0601cd0d650b473037e838a2696d41e654433d065b3f56b28d1d3302e44a304f600054858585604051610e859493929190611907565b60405180910390a2505050565b7f000000000000000000000000000000000000000000000000000000000000000081565b60006001600084815260200190815260200160002090508060030160009054906101000a900463ffffffff1663ffffffff16421015610f2a576040517f08c379a0000000000000000000000000000000000000000000000000000000008152600401610f2190611998565b60405180910390fd5b8060030160049054906101000a900463ffffffff1663ffffffff16421115610f87576040517f08c379a0000000000000000000000000000000000000000000000000000000008152600401610f7e90611a04565b60405180910390fd5b81816002016000828254610f9b9190611867565b92505081905550816002600085815260200190815260200160002060003373ffffffffffffffffffffffffffffffffffffffff1673ffffffffffffffffffffffffffffffffffffffff16815260200190815260200160002060008282546110029190611867565b925050819055507f000000000000000000000000000000000000000000000000000000000000000073ffffffffffffffffffffffffffffffffffffffff166323b872dd3330856040518463ffffffff1660e01b815260040161106693929190611a24565b6020604051808303816000875af1158015611085573d6000803e3d6000fd5b505050506040513d601f19601f820116820180604052508101906110a9919061154f565b503373ffffffffffffffffffffffffffffffffffffffff16837f06bdb975df800a73232998e71ed585d536222f1dfeaa622d7f62a23ada686c82846040516110f19190611117565b60405180910390a3505050565b6000819050919050565b611111816110fe565b82525050565b600060208201905061112c6000830184611108565b92915050565b600080fd5b611140816110fe565b811461114b57600080fd5b50565b60008135905061115d81611137565b92915050565b60006020828403121561117957611178611132565b5b60006111878482850161114e565b91505092915050565b600073ffffffffffffffffffffffffffffffffffffffff82169050919050565b60006111bb82611190565b9050919050565b6111cb816111b0565b82525050565b600063ffffffff82169050919050565b6111ea816111d1565b82525050565b60008115159050919050565b611205816111f0565b82525050565b600060c08201905061122060008301896111c2565b61122d6020830188611108565b61123a6040830187611108565b61124760608301866111e1565b61125460808301856111e1565b61126160a08301846111fc565b979650505050505050565b6000806040838503121561128357611282611132565b5b60006112918582860161114e565b92505060206112a28582860161114e565b9150509250929050565b6112b5816111b0565b81146112c057600080fd5b50565b6000813590506112d2816112ac565b92915050565b600080604083850312156112ef576112ee611132565b5b60006112fd8582860161114e565b925050602061130e858286016112c3565b9150509250929050565b611321816111d1565b811461132c57600080fd5b50565b60008135905061133e81611318565b92915050565b60008060006060848603121561135d5761135c611132565b5b600061136b8682870161114e565b935050602061137c8682870161132f565b925050604061138d8682870161132f565b9150509250925092565b6000819050919050565b60006113bc6113b76113b284611190565b611397565b611190565b9050919050565b60006113ce826113a1565b9050919050565b60006113e0826113c3565b9050919050565b6113f0816113d5565b82525050565b600060208201905061140b60008301846113e7565b92915050565b600082825260208201905092915050565b7f6e6f7420656e6465642079657400000000000000000000000000000000000000600082015250565b6000611458600d83611411565b915061146382611422565b602082019050919050565b600060208201905081810360008301526114878161144b565b9050919050565b7f706c6164676564203c20676f616c000000000000000000000000000000000000600082015250565b60006114c4600e83611411565b91506114cf8261148e565b602082019050919050565b600060208201905081810360008301526114f3816114b7565b9050919050565b600060408201905061150f60008301856111c2565b61151c6020830184611108565b9392505050565b61152c816111f0565b811461153757600080fd5b50565b60008151905061154981611523565b92915050565b60006020828403121561156557611564611132565b5b60006115738482850161153a565b91505092915050565b7f6e6f742063726561746f72000000000000000000000000000000000000000000600082015250565b60006115b2600b83611411565b91506115bd8261157c565b602082019050919050565b600060208201905081810360008301526115e1816115a5565b9050919050565b7f616c726561647920636c61696d65640000000000000000000000000000000000600082015250565b600061161e600f83611411565b9150611629826115e8565b602082019050919050565b6000602082019050818103600083015261164d81611611565b9050919050565b7f7374617274656400000000000000000000000000000000000000000000000000600082015250565b600061168a600783611411565b915061169582611654565b602082019050919050565b600060208201905081810360008301526116b98161167d565b9050919050565b7f656e646564000000000000000000000000000000000000000000000000000000600082015250565b60006116f6600583611411565b9150611701826116c0565b602082019050919050565b60006020820190508181036000830152611725816116e9565b9050919050565b7f4e487b7100000000000000000000000000000000000000000000000000000000600052601160045260246000fd5b6000611766826110fe565b9150611771836110fe565b92508282039050818111156117895761178861172c565b5b92915050565b7f7374617274206174203c206e6f77000000000000000000000000000000000000600082015250565b60006117c5600e83611411565b91506117d08261178f565b602082019050919050565b600060208201905081810360008301526117f4816117b8565b9050919050565b7f656e64206174203c207374617274206174000000000000000000000000000000600082015250565b6000611831601183611411565b915061183c826117fb565b602082019050919050565b6000602082019050818103600083015261186081611824565b9050919050565b6000611872826110fe565b915061187d836110fe565b92508282019050808211156118955761189461172c565b5b92915050565b7f656e64206174203e206d6178206475726174696f6e0000000000000000000000600082015250565b60006118d1601583611411565b91506118dc8261189b565b602082019050919050565b60006020820190508181036000830152611900816118c4565b9050919050565b600060808201905061191c6000830187611108565b6119296020830186611108565b61193660408301856111e1565b61194360608301846111e1565b95945050505050565b7f6e6f742073746172746564207965740000000000000000000000000000000000600082015250565b6000611982600f83611411565b915061198d8261194c565b602082019050919050565b600060208201905081810360008301526119b181611975565b9050919050565b7f63616d706169676e20656e646564000000000000000000000000000000000000600082015250565b60006119ee600e83611411565b91506119f9826119b8565b602082019050919050565b60006020820190508181036000830152611a1d816119e1565b9050919050565b6000606082019050611a3960008301866111c2565b611a4660208301856111c2565b611a536040830184611108565b94935050505056fea26469706673582212206527445bbc55055bb068eded23e53fed59d25e8b00a8a6e96ca37e0f787989ba64736f6c63430008110033",
					"opcodes": "PUSH1 0xA0 PUSH1 0x40 MSTORE CALLVALUE DUP1 ISZERO PUSH3 0x11 JUMPI PUSH1 0x0 DUP1 REVERT JUMPDEST POP PUSH1 0x40 MLOAD PUSH3 0x1BD7 CODESIZE SUB DUP1 PUSH3 0x1BD7 DUP4 CODECOPY DUP2 DUP2 ADD PUSH1 0x40 MSTORE DUP2 ADD SWAP1 PUSH3 0x37 SWAP2 SWAP1 PUSH3 0xDC JUMP JUMPDEST DUP1 PUSH20 0xFFFFFFFFFFFFFFFFFFFFFFFFFFFFFFFFFFFFFFFF AND PUSH1 0x80 DUP2 PUSH20 0xFFFFFFFFFFFFFFFFFFFFFFFFFFFFFFFFFFFFFFFF AND DUP2 MSTORE POP POP POP PUSH3 0x10E JUMP JUMPDEST PUSH1 0x0 DUP1 REVERT JUMPDEST PUSH1 0x0 PUSH20 0xFFFFFFFFFFFFFFFFFFFFFFFFFFFFFFFFFFFFFFFF DUP3 AND SWAP1 POP SWAP2 SWAP1 POP JUMP JUMPDEST PUSH1 0x0 PUSH3 0xA4 DUP3 PUSH3 0x77 JUMP JUMPDEST SWAP1 POP SWAP2 SWAP1 POP JUMP JUMPDEST PUSH3 0xB6 DUP2 PUSH3 0x97 JUMP JUMPDEST DUP2 EQ PUSH3 0xC2 JUMPI PUSH1 0x0 DUP1 REVERT JUMPDEST POP JUMP JUMPDEST PUSH1 0x0 DUP2 MLOAD SWAP1 POP PUSH3 0xD6 DUP2 PUSH3 0xAB JUMP JUMPDEST SWAP3 SWAP2 POP POP JUMP JUMPDEST PUSH1 0x0 PUSH1 0x20 DUP3 DUP5 SUB SLT ISZERO PUSH3 0xF5 JUMPI PUSH3 0xF4 PUSH3 0x72 JUMP JUMPDEST JUMPDEST PUSH1 0x0 PUSH3 0x105 DUP5 DUP3 DUP6 ADD PUSH3 0xC5 JUMP JUMPDEST SWAP2 POP POP SWAP3 SWAP2 POP POP JUMP JUMPDEST PUSH1 0x80 MLOAD PUSH2 0x1A91 PUSH3 0x146 PUSH1 0x0 CODECOPY PUSH1 0x0 DUP2 DUP2 PUSH2 0x3E5 ADD MSTORE DUP2 DUP2 PUSH2 0x697 ADD MSTORE DUP2 DUP2 PUSH2 0xAE6 ADD MSTORE DUP2 DUP2 PUSH2 0xE94 ADD MSTORE PUSH2 0x100B ADD MSTORE PUSH2 0x1A91 PUSH1 0x0 RETURN INVALID PUSH1 0x80 PUSH1 0x40 MSTORE CALLVALUE DUP1 ISZERO PUSH2 0x10 JUMPI PUSH1 0x0 DUP1 REVERT JUMPDEST POP PUSH1 0x4 CALLDATASIZE LT PUSH2 0x9E JUMPI PUSH1 0x0 CALLDATALOAD PUSH1 0xE0 SHR DUP1 PUSH4 0x711853AB GT PUSH2 0x66 JUMPI DUP1 PUSH4 0x711853AB EQ PUSH2 0x14A JUMPI DUP1 PUSH4 0xAA4FB63A EQ PUSH2 0x166 JUMPI DUP1 PUSH4 0xDAF69940 EQ PUSH2 0x196 JUMPI DUP1 PUSH4 0xFC0C546A EQ PUSH2 0x1B2 JUMPI DUP1 PUSH4 0xFDE327BE EQ PUSH2 0x1D0 JUMPI PUSH2 0x9E JUMP JUMPDEST DUP1 PUSH4 0x6661ABD EQ PUSH2 0xA3 JUMPI DUP1 PUSH4 0x141961BC EQ PUSH2 0xC1 JUMPI DUP1 PUSH4 0x278ECDE1 EQ PUSH2 0xF6 JUMPI DUP1 PUSH4 0x379607F5 EQ PUSH2 0x112 JUMPI DUP1 PUSH4 0x40E58EE5 EQ PUSH2 0x12E JUMPI JUMPDEST PUSH1 0x0 DUP1 REVERT JUMPDEST PUSH2 0xAB PUSH2 0x1EC JUMP JUMPDEST PUSH1 0x40 MLOAD PUSH2 0xB8 SWAP2 SWAP1 PUSH2 0x1117 JUMP JUMPDEST PUSH1 0x40 MLOAD DUP1 SWAP2 SUB SWAP1 RETURN JUMPDEST PUSH2 0xDB PUSH1 0x4 DUP1 CALLDATASIZE SUB DUP2 ADD SWAP1 PUSH2 0xD6 SWAP2 SWAP1 PUSH2 0x1163 JUMP JUMPDEST PUSH2 0x1F2 JUMP JUMPDEST PUSH1 0x40 MLOAD PUSH2 0xED SWAP7 SWAP6 SWAP5 SWAP4 SWAP3 SWAP2 SWAP1 PUSH2 0x120B JUMP JUMPDEST PUSH1 0x40 MLOAD DUP1 SWAP2 SUB SWAP1 RETURN JUMPDEST PUSH2 0x110 PUSH1 0x4 DUP1 CALLDATASIZE SUB DUP2 ADD SWAP1 PUSH2 0x10B SWAP2 SWAP1 PUSH2 0x1163 JUMP JUMPDEST PUSH2 0x27B JUMP JUMPDEST STOP JUMPDEST PUSH2 0x12C PUSH1 0x4 DUP1 CALLDATASIZE SUB DUP2 ADD SWAP1 PUSH2 0x127 SWAP2 SWAP1 PUSH2 0x1163 JUMP JUMPDEST PUSH2 0x4D6 JUMP JUMPDEST STOP JUMPDEST PUSH2 0x148 PUSH1 0x4 DUP1 CALLDATASIZE SUB DUP2 ADD SWAP1 PUSH2 0x143 SWAP2 SWAP1 PUSH2 0x1163 JUMP JUMPDEST PUSH2 0x773 JUMP JUMPDEST STOP JUMPDEST PUSH2 0x164 PUSH1 0x4 DUP1 CALLDATASIZE SUB DUP2 ADD SWAP1 PUSH2 0x15F SWAP2 SWAP1 PUSH2 0x126C JUMP JUMPDEST PUSH2 0x9EE JUMP JUMPDEST STOP JUMPDEST PUSH2 0x180 PUSH1 0x4 DUP1 CALLDATASIZE SUB DUP2 ADD SWAP1 PUSH2 0x17B SWAP2 SWAP1 PUSH2 0x12D8 JUMP JUMPDEST PUSH2 0xBD7 JUMP JUMPDEST PUSH1 0x40 MLOAD PUSH2 0x18D SWAP2 SWAP1 PUSH2 0x1117 JUMP JUMPDEST PUSH1 0x40 MLOAD DUP1 SWAP2 SUB SWAP1 RETURN JUMPDEST PUSH2 0x1B0 PUSH1 0x4 DUP1 CALLDATASIZE SUB DUP2 ADD SWAP1 PUSH2 0x1AB SWAP2 SWAP1 PUSH2 0x1344 JUMP JUMPDEST PUSH2 0xBFC JUMP JUMPDEST STOP JUMPDEST PUSH2 0x1BA PUSH2 0xE92 JUMP JUMPDEST PUSH1 0x40 MLOAD PUSH2 0x1C7 SWAP2 SWAP1 PUSH2 0x13F6 JUMP JUMPDEST PUSH1 0x40 MLOAD DUP1 SWAP2 SUB SWAP1 RETURN JUMPDEST PUSH2 0x1EA PUSH1 0x4 DUP1 CALLDATASIZE SUB DUP2 ADD SWAP1 PUSH2 0x1E5 SWAP2 SWAP1 PUSH2 0x126C JUMP JUMPDEST PUSH2 0xEB6 JUMP JUMPDEST STOP JUMPDEST PUSH1 0x0 SLOAD DUP2 JUMP JUMPDEST PUSH1 0x1 PUSH1 0x20 MSTORE DUP1 PUSH1 0x0 MSTORE PUSH1 0x40 PUSH1 0x0 KECCAK256 PUSH1 0x0 SWAP2 POP SWAP1 POP DUP1 PUSH1 0x0 ADD PUSH1 0x0 SWAP1 SLOAD SWAP1 PUSH2 0x100 EXP SWAP1 DIV PUSH20 0xFFFFFFFFFFFFFFFFFFFFFFFFFFFFFFFFFFFFFFFF AND SWAP1 DUP1 PUSH1 0x1 ADD SLOAD SWAP1 DUP1 PUSH1 0x2 ADD SLOAD SWAP1 DUP1 PUSH1 0x3 ADD PUSH1 0x0 SWAP1 SLOAD SWAP1 PUSH2 0x100 EXP SWAP1 DIV PUSH4 0xFFFFFFFF AND SWAP1 DUP1 PUSH1 0x3 ADD PUSH1 0x4 SWAP1 SLOAD SWAP1 PUSH2 0x100 EXP SWAP1 DIV PUSH4 0xFFFFFFFF AND SWAP1 DUP1 PUSH1 0x3 ADD PUSH1 0x8 SWAP1 SLOAD SWAP1 PUSH2 0x100 EXP SWAP1 DIV PUSH1 0xFF AND SWAP1 POP DUP7 JUMP JUMPDEST PUSH1 0x0 PUSH1 0x1 PUSH1 0x0 DUP4 DUP2 MSTORE PUSH1 0x20 ADD SWAP1 DUP2 MSTORE PUSH1 0x20 ADD PUSH1 0x0 KECCAK256 SWAP1 POP DUP1 PUSH1 0x3 ADD PUSH1 0x4 SWAP1 SLOAD SWAP1 PUSH2 0x100 EXP SWAP1 DIV PUSH4 0xFFFFFFFF AND PUSH4 0xFFFFFFFF AND TIMESTAMP GT PUSH2 0x2EE JUMPI PUSH1 0x40 MLOAD PUSH32 0x8C379A000000000000000000000000000000000000000000000000000000000 DUP2 MSTORE PUSH1 0x4 ADD PUSH2 0x2E5 SWAP1 PUSH2 0x146E JUMP JUMPDEST PUSH1 0x40 MLOAD DUP1 SWAP2 SUB SWAP1 REVERT JUMPDEST DUP1 PUSH1 0x1 ADD SLOAD DUP2 PUSH1 0x2 ADD SLOAD LT PUSH2 0x338 JUMPI PUSH1 0x40 MLOAD PUSH32 0x8C379A000000000000000000000000000000000000000000000000000000000 DUP2 MSTORE PUSH1 0x4 ADD PUSH2 0x32F SWAP1 PUSH2 0x14DA JUMP JUMPDEST PUSH1 0x40 MLOAD DUP1 SWAP2 SUB SWAP1 REVERT JUMPDEST PUSH1 0x0 PUSH1 0x2 PUSH1 0x0 DUP5 DUP2 MSTORE PUSH1 0x20 ADD SWAP1 DUP2 MSTORE PUSH1 0x20 ADD PUSH1 0x0 KECCAK256 PUSH1 0x0 CALLER PUSH20 0xFFFFFFFFFFFFFFFFFFFFFFFFFFFFFFFFFFFFFFFF AND PUSH20 0xFFFFFFFFFFFFFFFFFFFFFFFFFFFFFFFFFFFFFFFF AND DUP2 MSTORE PUSH1 0x20 ADD SWAP1 DUP2 MSTORE PUSH1 0x20 ADD PUSH1 0x0 KECCAK256 SLOAD SWAP1 POP PUSH1 0x0 PUSH1 0x2 PUSH1 0x0 DUP6 DUP2 MSTORE PUSH1 0x20 ADD SWAP1 DUP2 MSTORE PUSH1 0x20 ADD PUSH1 0x0 KECCAK256 PUSH1 0x0 CALLER PUSH20 0xFFFFFFFFFFFFFFFFFFFFFFFFFFFFFFFFFFFFFFFF AND PUSH20 0xFFFFFFFFFFFFFFFFFFFFFFFFFFFFFFFFFFFFFFFF AND DUP2 MSTORE PUSH1 0x20 ADD SWAP1 DUP2 MSTORE PUSH1 0x20 ADD PUSH1 0x0 KECCAK256 DUP2 SWAP1 SSTORE POP PUSH32 0x0 PUSH20 0xFFFFFFFFFFFFFFFFFFFFFFFFFFFFFFFFFFFFFFFF AND PUSH4 0xA9059CBB CALLER DUP4 PUSH1 0x40 MLOAD DUP4 PUSH4 0xFFFFFFFF AND PUSH1 0xE0 SHL DUP2 MSTORE PUSH1 0x4 ADD PUSH2 0x43E SWAP3 SWAP2 SWAP1 PUSH2 0x14FA JUMP JUMPDEST PUSH1 0x20 PUSH1 0x40 MLOAD DUP1 DUP4 SUB DUP2 PUSH1 0x0 DUP8 GAS CALL ISZERO DUP1 ISZERO PUSH2 0x45D JUMPI RETURNDATASIZE PUSH1 0x0 DUP1 RETURNDATACOPY RETURNDATASIZE PUSH1 0x0 REVERT JUMPDEST POP POP POP POP PUSH1 0x40 MLOAD RETURNDATASIZE PUSH1 0x1F NOT PUSH1 0x1F DUP3 ADD AND DUP3 ADD DUP1 PUSH1 0x40 MSTORE POP DUP2 ADD SWAP1 PUSH2 0x481 SWAP2 SWAP1 PUSH2 0x154F JUMP JUMPDEST POP CALLER PUSH20 0xFFFFFFFFFFFFFFFFFFFFFFFFFFFFFFFFFFFFFFFF AND DUP4 PUSH32 0x21E12A7CAD0DA5928167E1084EA4D5FDF8D9AF66657A2543A9AC76A0CA081477 DUP4 PUSH1 0x40 MLOAD PUSH2 0x4C9 SWAP2 SWAP1 PUSH2 0x1117 JUMP JUMPDEST PUSH1 0x40 MLOAD DUP1 SWAP2 SUB SWAP1 LOG3 POP POP POP JUMP JUMPDEST PUSH1 0x0 PUSH1 0x1 PUSH1 0x0 DUP4 DUP2 MSTORE PUSH1 0x20 ADD SWAP1 DUP2 MSTORE PUSH1 0x20 ADD PUSH1 0x0 KECCAK256 SWAP1 POP DUP1 PUSH1 0x0 ADD PUSH1 0x0 SWAP1 SLOAD SWAP1 PUSH2 0x100 EXP SWAP1 DIV PUSH20 0xFFFFFFFFFFFFFFFFFFFFFFFFFFFFFFFFFFFFFFFF AND PUSH20 0xFFFFFFFFFFFFFFFFFFFFFFFFFFFFFFFFFFFFFFFF AND CALLER PUSH20 0xFFFFFFFFFFFFFFFFFFFFFFFFFFFFFFFFFFFFFFFF AND EQ PUSH2 0x57F JUMPI PUSH1 0x40 MLOAD PUSH32 0x8C379A000000000000000000000000000000000000000000000000000000000 DUP2 MSTORE PUSH1 0x4 ADD PUSH2 0x576 SWAP1 PUSH2 0x15C8 JUMP JUMPDEST PUSH1 0x40 MLOAD DUP1 SWAP2 SUB SWAP1 REVERT JUMPDEST DUP1 PUSH1 0x3 ADD PUSH1 0x4 SWAP1 SLOAD SWAP1 PUSH2 0x100 EXP SWAP1 DIV PUSH4 0xFFFFFFFF AND PUSH4 0xFFFFFFFF AND TIMESTAMP GT PUSH2 0x5DB JUMPI PUSH1 0x40 MLOAD PUSH32 0x8C379A000000000000000000000000000000000000000000000000000000000 DUP2 MSTORE PUSH1 0x4 ADD PUSH2 0x5D2 SWAP1 PUSH2 0x146E JUMP JUMPDEST PUSH1 0x40 MLOAD DUP1 SWAP2 SUB SWAP1 REVERT JUMPDEST DUP1 PUSH1 0x1 ADD SLOAD DUP2 PUSH1 0x2 ADD SLOAD LT ISZERO PUSH2 0x626 JUMPI PUSH1 0x40 MLOAD PUSH32 0x8C379A000000000000000000000000000000000000000000000000000000000 DUP2 MSTORE PUSH1 0x4 ADD PUSH2 0x61D SWAP1 PUSH2 0x14DA JUMP JUMPDEST PUSH1 0x40 MLOAD DUP1 SWAP2 SUB SWAP1 REVERT JUMPDEST DUP1 PUSH1 0x3 ADD PUSH1 0x8 SWAP1 SLOAD SWAP1 PUSH2 0x100 EXP SWAP1 DIV PUSH1 0xFF AND ISZERO PUSH2 0x678 JUMPI PUSH1 0x40 MLOAD PUSH32 0x8C379A000000000000000000000000000000000000000000000000000000000 DUP2 MSTORE PUSH1 0x4 ADD PUSH2 0x66F SWAP1 PUSH2 0x1634 JUMP JUMPDEST PUSH1 0x40 MLOAD DUP1 SWAP2 SUB SWAP1 REVERT JUMPDEST PUSH1 0x1 DUP2 PUSH1 0x3 ADD PUSH1 0x8 PUSH2 0x100 EXP DUP2 SLOAD DUP2 PUSH1 0xFF MUL NOT AND SWAP1 DUP4 ISZERO ISZERO MUL OR SWAP1 SSTORE POP PUSH32 0x0 PUSH20 0xFFFFFFFFFFFFFFFFFFFFFFFFFFFFFFFFFFFFFFFF AND PUSH4 0xA9059CBB CALLER DUP4 PUSH1 0x2 ADD SLOAD PUSH1 0x40 MLOAD DUP4 PUSH4 0xFFFFFFFF AND PUSH1 0xE0 SHL DUP2 MSTORE PUSH1 0x4 ADD PUSH2 0x6F4 SWAP3 SWAP2 SWAP1 PUSH2 0x14FA JUMP JUMPDEST PUSH1 0x20 PUSH1 0x40 MLOAD DUP1 DUP4 SUB DUP2 PUSH1 0x0 DUP8 GAS CALL ISZERO DUP1 ISZERO PUSH2 0x713 JUMPI RETURNDATASIZE PUSH1 0x0 DUP1 RETURNDATACOPY RETURNDATASIZE PUSH1 0x0 REVERT JUMPDEST POP POP POP POP PUSH1 0x40 MLOAD RETURNDATASIZE PUSH1 0x1F NOT PUSH1 0x1F DUP3 ADD AND DUP3 ADD DUP1 PUSH1 0x40 MSTORE POP DUP2 ADD SWAP1 PUSH2 0x737 SWAP2 SWAP1 PUSH2 0x154F JUMP JUMPDEST POP PUSH32 0x7BB2B3C10797BACCB6F8C4791F1EDD6CA2F0D028EE0EDA64B01A9A57E3A653F7 DUP3 PUSH1 0x40 MLOAD PUSH2 0x767 SWAP2 SWAP1 PUSH2 0x1117 JUMP JUMPDEST PUSH1 0x40 MLOAD DUP1 SWAP2 SUB SWAP1 LOG1 POP POP JUMP JUMPDEST PUSH1 0x0 PUSH1 0x1 PUSH1 0x0 DUP4 DUP2 MSTORE PUSH1 0x20 ADD SWAP1 DUP2 MSTORE PUSH1 0x20 ADD PUSH1 0x0 KECCAK256 PUSH1 0x40 MLOAD DUP1 PUSH1 0xC0 ADD PUSH1 0x40 MSTORE SWAP1 DUP2 PUSH1 0x0 DUP3 ADD PUSH1 0x0 SWAP1 SLOAD SWAP1 PUSH2 0x100 EXP SWAP1 DIV PUSH20 0xFFFFFFFFFFFFFFFFFFFFFFFFFFFFFFFFFFFFFFFF AND PUSH20 0xFFFFFFFFFFFFFFFFFFFFFFFFFFFFFFFFFFFFFFFF AND PUSH20 0xFFFFFFFFFFFFFFFFFFFFFFFFFFFFFFFFFFFFFFFF AND DUP2 MSTORE PUSH1 0x20 ADD PUSH1 0x1 DUP3 ADD SLOAD DUP2 MSTORE PUSH1 0x20 ADD PUSH1 0x2 DUP3 ADD SLOAD DUP2 MSTORE PUSH1 0x20 ADD PUSH1 0x3 DUP3 ADD PUSH1 0x0 SWAP1 SLOAD SWAP1 PUSH2 0x100 EXP SWAP1 DIV PUSH4 0xFFFFFFFF AND PUSH4 0xFFFFFFFF AND PUSH4 0xFFFFFFFF AND DUP2 MSTORE PUSH1 0x20 ADD PUSH1 0x3 DUP3 ADD PUSH1 0x4 SWAP1 SLOAD SWAP1 PUSH2 0x100 EXP SWAP1 DIV PUSH4 0xFFFFFFFF AND PUSH4 0xFFFFFFFF AND PUSH4 0xFFFFFFFF AND DUP2 MSTORE PUSH1 0x20 ADD PUSH1 0x3 DUP3 ADD PUSH1 0x8 SWAP1 SLOAD SWAP1 PUSH2 0x100 EXP SWAP1 DIV PUSH1 0xFF AND ISZERO ISZERO ISZERO ISZERO DUP2 MSTORE POP POP SWAP1 POP DUP1 PUSH1 0x0 ADD MLOAD PUSH20 0xFFFFFFFFFFFFFFFFFFFFFFFFFFFFFFFFFFFFFFFF AND CALLER PUSH20 0xFFFFFFFFFFFFFFFFFFFFFFFFFFFFFFFFFFFFFFFF AND EQ PUSH2 0x8D8 JUMPI PUSH1 0x40 MLOAD PUSH32 0x8C379A000000000000000000000000000000000000000000000000000000000 DUP2 MSTORE PUSH1 0x4 ADD PUSH2 0x8CF SWAP1 PUSH2 0x15C8 JUMP JUMPDEST PUSH1 0x40 MLOAD DUP1 SWAP2 SUB SWAP1 REVERT JUMPDEST DUP1 PUSH1 0x60 ADD MLOAD PUSH4 0xFFFFFFFF AND TIMESTAMP LT PUSH2 0x924 JUMPI PUSH1 0x40 MLOAD PUSH32 0x8C379A000000000000000000000000000000000000000000000000000000000 DUP2 MSTORE PUSH1 0x4 ADD PUSH2 0x91B SWAP1 PUSH2 0x16A0 JUMP JUMPDEST PUSH1 0x40 MLOAD DUP1 SWAP2 SUB SWAP1 REVERT JUMPDEST PUSH1 0x1 PUSH1 0x0 DUP4 DUP2 MSTORE PUSH1 0x20 ADD SWAP1 DUP2 MSTORE PUSH1 0x20 ADD PUSH1 0x0 KECCAK256 PUSH1 0x0 DUP1 DUP3 ADD PUSH1 0x0 PUSH2 0x100 EXP DUP2 SLOAD SWAP1 PUSH20 0xFFFFFFFFFFFFFFFFFFFFFFFFFFFFFFFFFFFFFFFF MUL NOT AND SWAP1 SSTORE PUSH1 0x1 DUP3 ADD PUSH1 0x0 SWAP1 SSTORE PUSH1 0x2 DUP3 ADD PUSH1 0x0 SWAP1 SSTORE PUSH1 0x3 DUP3 ADD PUSH1 0x0 PUSH2 0x100 EXP DUP2 SLOAD SWAP1 PUSH4 0xFFFFFFFF MUL NOT AND SWAP1 SSTORE PUSH1 0x3 DUP3 ADD PUSH1 0x4 PUSH2 0x100 EXP DUP2 SLOAD SWAP1 PUSH4 0xFFFFFFFF MUL NOT AND SWAP1 SSTORE PUSH1 0x3 DUP3 ADD PUSH1 0x8 PUSH2 0x100 EXP DUP2 SLOAD SWAP1 PUSH1 0xFF MUL NOT AND SWAP1 SSTORE POP POP PUSH32 0x8BF30E7FF26833413BE5F69E1D373744864D600B664204B4A2F9844A8EEDB9ED DUP3 PUSH1 0x40 MLOAD PUSH2 0x9E2 SWAP2 SWAP1 PUSH2 0x1117 JUMP JUMPDEST PUSH1 0x40 MLOAD DUP1 SWAP2 SUB SWAP1 LOG1 POP POP JUMP JUMPDEST PUSH1 0x0 PUSH1 0x1 PUSH1 0x0 DUP5 DUP2 MSTORE PUSH1 0x20 ADD SWAP1 DUP2 MSTORE PUSH1 0x20 ADD PUSH1 0x0 KECCAK256 SWAP1 POP DUP1 PUSH1 0x3 ADD PUSH1 0x4 SWAP1 SLOAD SWAP1 PUSH2 0x100 EXP SWAP1 DIV PUSH4 0xFFFFFFFF AND PUSH4 0xFFFFFFFF AND TIMESTAMP GT ISZERO PUSH2 0xA62 JUMPI PUSH1 0x40 MLOAD PUSH32 0x8C379A000000000000000000000000000000000000000000000000000000000 DUP2 MSTORE PUSH1 0x4 ADD PUSH2 0xA59 SWAP1 PUSH2 0x170C JUMP JUMPDEST PUSH1 0x40 MLOAD DUP1 SWAP2 SUB SWAP1 REVERT JUMPDEST DUP2 DUP2 PUSH1 0x2 ADD PUSH1 0x0 DUP3 DUP3 SLOAD PUSH2 0xA76 SWAP2 SWAP1 PUSH2 0x175B JUMP JUMPDEST SWAP3 POP POP DUP2 SWAP1 SSTORE POP DUP2 PUSH1 0x2 PUSH1 0x0 DUP6 DUP2 MSTORE PUSH1 0x20 ADD SWAP1 DUP2 MSTORE PUSH1 0x20 ADD PUSH1 0x0 KECCAK256 PUSH1 0x0 CALLER PUSH20 0xFFFFFFFFFFFFFFFFFFFFFFFFFFFFFFFFFFFFFFFF AND PUSH20 0xFFFFFFFFFFFFFFFFFFFFFFFFFFFFFFFFFFFFFFFF AND DUP2 MSTORE PUSH1 0x20 ADD SWAP1 DUP2 MSTORE PUSH1 0x20 ADD PUSH1 0x0 KECCAK256 PUSH1 0x0 DUP3 DUP3 SLOAD PUSH2 0xADD SWAP2 SWAP1 PUSH2 0x175B JUMP JUMPDEST SWAP3 POP POP DUP2 SWAP1 SSTORE POP PUSH32 0x0 PUSH20 0xFFFFFFFFFFFFFFFFFFFFFFFFFFFFFFFFFFFFFFFF AND PUSH4 0xA9059CBB CALLER DUP5 PUSH1 0x40 MLOAD DUP4 PUSH4 0xFFFFFFFF AND PUSH1 0xE0 SHL DUP2 MSTORE PUSH1 0x4 ADD PUSH2 0xB3F SWAP3 SWAP2 SWAP1 PUSH2 0x14FA JUMP JUMPDEST PUSH1 0x20 PUSH1 0x40 MLOAD DUP1 DUP4 SUB DUP2 PUSH1 0x0 DUP8 GAS CALL ISZERO DUP1 ISZERO PUSH2 0xB5E JUMPI RETURNDATASIZE PUSH1 0x0 DUP1 RETURNDATACOPY RETURNDATASIZE PUSH1 0x0 REVERT JUMPDEST POP POP POP POP PUSH1 0x40 MLOAD RETURNDATASIZE PUSH1 0x1F NOT PUSH1 0x1F DUP3 ADD AND DUP3 ADD DUP1 PUSH1 0x40 MSTORE POP DUP2 ADD SWAP1 PUSH2 0xB82 SWAP2 SWAP1 PUSH2 0x154F JUMP JUMPDEST POP CALLER PUSH20 0xFFFFFFFFFFFFFFFFFFFFFFFFFFFFFFFFFFFFFFFF AND DUP4 PUSH32 0x2EEEAB891B26A214D1B25749F88A406BDEA852BD8C9BFDA977E0EF8114C180BA DUP5 PUSH1 0x40 MLOAD PUSH2 0xBCA SWAP2 SWAP1 PUSH2 0x1117 JUMP JUMPDEST PUSH1 0x40 MLOAD DUP1 SWAP2 SUB SWAP1 LOG3 POP POP POP JUMP JUMPDEST PUSH1 0x2 PUSH1 0x20 MSTORE DUP2 PUSH1 0x0 MSTORE PUSH1 0x40 PUSH1 0x0 KECCAK256 PUSH1 0x20 MSTORE DUP1 PUSH1 0x0 MSTORE PUSH1 0x40 PUSH1 0x0 KECCAK256 PUSH1 0x0 SWAP2 POP SWAP2 POP POP SLOAD DUP2 JUMP JUMPDEST TIMESTAMP DUP3 PUSH4 0xFFFFFFFF AND LT ISZERO PUSH2 0xC45 JUMPI PUSH1 0x40 MLOAD PUSH32 0x8C379A000000000000000000000000000000000000000000000000000000000 DUP2 MSTORE PUSH1 0x4 ADD PUSH2 0xC3C SWAP1 PUSH2 0x17DB JUMP JUMPDEST PUSH1 0x40 MLOAD DUP1 SWAP2 SUB SWAP1 REVERT JUMPDEST DUP2 PUSH4 0xFFFFFFFF AND DUP2 PUSH4 0xFFFFFFFF AND LT ISZERO PUSH2 0xC94 JUMPI PUSH1 0x40 MLOAD PUSH32 0x8C379A000000000000000000000000000000000000000000000000000000000 DUP2 MSTORE PUSH1 0x4 ADD PUSH2 0xC8B SWAP1 PUSH2 0x1847 JUMP JUMPDEST PUSH1 0x40 MLOAD DUP1 SWAP2 SUB SWAP1 REVERT JUMPDEST PUSH3 0x76A700 TIMESTAMP PUSH2 0xCA3 SWAP2 SWAP1 PUSH2 0x1867 JUMP JUMPDEST DUP2 PUSH4 0xFFFFFFFF AND GT ISZERO PUSH2 0xCEB JUMPI PUSH1 0x40 MLOAD PUSH32 0x8C379A000000000000000000000000000000000000000000000000000000000 DUP2 MSTORE PUSH1 0x4 ADD PUSH2 0xCE2 SWAP1 PUSH2 0x18E7 JUMP JUMPDEST PUSH1 0x40 MLOAD DUP1 SWAP2 SUB SWAP1 REVERT JUMPDEST PUSH1 0x1 PUSH1 0x0 DUP1 DUP3 DUP3 SLOAD PUSH2 0xCFD SWAP2 SWAP1 PUSH2 0x1867 JUMP JUMPDEST SWAP3 POP POP DUP2 SWAP1 SSTORE POP PUSH1 0x40 MLOAD DUP1 PUSH1 0xC0 ADD PUSH1 0x40 MSTORE DUP1 CALLER PUSH20 0xFFFFFFFFFFFFFFFFFFFFFFFFFFFFFFFFFFFFFFFF AND DUP2 MSTORE PUSH1 0x20 ADD DUP5 DUP2 MSTORE PUSH1 0x20 ADD PUSH1 0x0 DUP2 MSTORE PUSH1 0x20 ADD DUP4 PUSH4 0xFFFFFFFF AND DUP2 MSTORE PUSH1 0x20 ADD DUP3 PUSH4 0xFFFFFFFF AND DUP2 MSTORE PUSH1 0x20 ADD PUSH1 0x0 ISZERO ISZERO DUP2 MSTORE POP PUSH1 0x1 PUSH1 0x0 DUP1 SLOAD DUP2 MSTORE PUSH1 0x20 ADD SWAP1 DUP2 MSTORE PUSH1 0x20 ADD PUSH1 0x0 KECCAK256 PUSH1 0x0 DUP3 ADD MLOAD DUP2 PUSH1 0x0 ADD PUSH1 0x0 PUSH2 0x100 EXP DUP2 SLOAD DUP2 PUSH20 0xFFFFFFFFFFFFFFFFFFFFFFFFFFFFFFFFFFFFFFFF MUL NOT AND SWAP1 DUP4 PUSH20 0xFFFFFFFFFFFFFFFFFFFFFFFFFFFFFFFFFFFFFFFF AND MUL OR SWAP1 SSTORE POP PUSH1 0x20 DUP3 ADD MLOAD DUP2 PUSH1 0x1 ADD SSTORE PUSH1 0x40 DUP3 ADD MLOAD DUP2 PUSH1 0x2 ADD SSTORE PUSH1 0x60 DUP3 ADD MLOAD DUP2 PUSH1 0x3 ADD PUSH1 0x0 PUSH2 0x100 EXP DUP2 SLOAD DUP2 PUSH4 0xFFFFFFFF MUL NOT AND SWAP1 DUP4 PUSH4 0xFFFFFFFF AND MUL OR SWAP1 SSTORE POP PUSH1 0x80 DUP3 ADD MLOAD DUP2 PUSH1 0x3 ADD PUSH1 0x4 PUSH2 0x100 EXP DUP2 SLOAD DUP2 PUSH4 0xFFFFFFFF MUL NOT AND SWAP1 DUP4 PUSH4 0xFFFFFFFF AND MUL OR SWAP1 SSTORE POP PUSH1 0xA0 DUP3 ADD MLOAD DUP2 PUSH1 0x3 ADD PUSH1 0x8 PUSH2 0x100 EXP DUP2 SLOAD DUP2 PUSH1 0xFF MUL NOT AND SWAP1 DUP4 ISZERO ISZERO MUL OR SWAP1 SSTORE POP SWAP1 POP POP CALLER PUSH20 0xFFFFFFFFFFFFFFFFFFFFFFFFFFFFFFFFFFFFFFFF AND PUSH32 0x601CD0D650B473037E838A2696D41E654433D065B3F56B28D1D3302E44A304F PUSH1 0x0 SLOAD DUP6 DUP6 DUP6 PUSH1 0x40 MLOAD PUSH2 0xE85 SWAP5 SWAP4 SWAP3 SWAP2 SWAP1 PUSH2 0x1907 JUMP JUMPDEST PUSH1 0x40 MLOAD DUP1 SWAP2 SUB SWAP1 LOG2 POP POP POP JUMP JUMPDEST PUSH32 0x0 DUP2 JUMP JUMPDEST PUSH1 0x0 PUSH1 0x1 PUSH1 0x0 DUP5 DUP2 MSTORE PUSH1 0x20 ADD SWAP1 DUP2 MSTORE PUSH1 0x20 ADD PUSH1 0x0 KECCAK256 SWAP1 POP DUP1 PUSH1 0x3 ADD PUSH1 0x0 SWAP1 SLOAD SWAP1 PUSH2 0x100 EXP SWAP1 DIV PUSH4 0xFFFFFFFF AND PUSH4 0xFFFFFFFF AND TIMESTAMP LT ISZERO PUSH2 0xF2A JUMPI PUSH1 0x40 MLOAD PUSH32 0x8C379A000000000000000000000000000000000000000000000000000000000 DUP2 MSTORE PUSH1 0x4 ADD PUSH2 0xF21 SWAP1 PUSH2 0x1998 JUMP JUMPDEST PUSH1 0x40 MLOAD DUP1 SWAP2 SUB SWAP1 REVERT JUMPDEST DUP1 PUSH1 0x3 ADD PUSH1 0x4 SWAP1 SLOAD SWAP1 PUSH2 0x100 EXP SWAP1 DIV PUSH4 0xFFFFFFFF AND PUSH4 0xFFFFFFFF AND TIMESTAMP GT ISZERO PUSH2 0xF87 JUMPI PUSH1 0x40 MLOAD PUSH32 0x8C379A000000000000000000000000000000000000000000000000000000000 DUP2 MSTORE PUSH1 0x4 ADD PUSH2 0xF7E SWAP1 PUSH2 0x1A04 JUMP JUMPDEST PUSH1 0x40 MLOAD DUP1 SWAP2 SUB SWAP1 REVERT JUMPDEST DUP2 DUP2 PUSH1 0x2 ADD PUSH1 0x0 DUP3 DUP3 SLOAD PUSH2 0xF9B SWAP2 SWAP1 PUSH2 0x1867 JUMP JUMPDEST SWAP3 POP POP DUP2 SWAP1 SSTORE POP DUP2 PUSH1 0x2 PUSH1 0x0 DUP6 DUP2 MSTORE PUSH1 0x20 ADD SWAP1 DUP2 MSTORE PUSH1 0x20 ADD PUSH1 0x0 KECCAK256 PUSH1 0x0 CALLER PUSH20 0xFFFFFFFFFFFFFFFFFFFFFFFFFFFFFFFFFFFFFFFF AND PUSH20 0xFFFFFFFFFFFFFFFFFFFFFFFFFFFFFFFFFFFFFFFF AND DUP2 MSTORE PUSH1 0x20 ADD SWAP1 DUP2 MSTORE PUSH1 0x20 ADD PUSH1 0x0 KECCAK256 PUSH1 0x0 DUP3 DUP3 SLOAD PUSH2 0x1002 SWAP2 SWAP1 PUSH2 0x1867 JUMP JUMPDEST SWAP3 POP POP DUP2 SWAP1 SSTORE POP PUSH32 0x0 PUSH20 0xFFFFFFFFFFFFFFFFFFFFFFFFFFFFFFFFFFFFFFFF AND PUSH4 0x23B872DD CALLER ADDRESS DUP6 PUSH1 0x40 MLOAD DUP5 PUSH4 0xFFFFFFFF AND PUSH1 0xE0 SHL DUP2 MSTORE PUSH1 0x4 ADD PUSH2 0x1066 SWAP4 SWAP3 SWAP2 SWAP1 PUSH2 0x1A24 JUMP JUMPDEST PUSH1 0x20 PUSH1 0x40 MLOAD DUP1 DUP4 SUB DUP2 PUSH1 0x0 DUP8 GAS CALL ISZERO DUP1 ISZERO PUSH2 0x1085 JUMPI RETURNDATASIZE PUSH1 0x0 DUP1 RETURNDATACOPY RETURNDATASIZE PUSH1 0x0 REVERT JUMPDEST POP POP POP POP PUSH1 0x40 MLOAD RETURNDATASIZE PUSH1 0x1F NOT PUSH1 0x1F DUP3 ADD AND DUP3 ADD DUP1 PUSH1 0x40 MSTORE POP DUP2 ADD SWAP1 PUSH2 0x10A9 SWAP2 SWAP1 PUSH2 0x154F JUMP JUMPDEST POP CALLER PUSH20 0xFFFFFFFFFFFFFFFFFFFFFFFFFFFFFFFFFFFFFFFF AND DUP4 PUSH32 0x6BDB975DF800A73232998E71ED585D536222F1DFEAA622D7F62A23ADA686C82 DUP5 PUSH1 0x40 MLOAD PUSH2 0x10F1 SWAP2 SWAP1 PUSH2 0x1117 JUMP JUMPDEST PUSH1 0x40 MLOAD DUP1 SWAP2 SUB SWAP1 LOG3 POP POP POP JUMP JUMPDEST PUSH1 0x0 DUP2 SWAP1 POP SWAP2 SWAP1 POP JUMP JUMPDEST PUSH2 0x1111 DUP2 PUSH2 0x10FE JUMP JUMPDEST DUP3 MSTORE POP POP JUMP JUMPDEST PUSH1 0x0 PUSH1 0x20 DUP3 ADD SWAP1 POP PUSH2 0x112C PUSH1 0x0 DUP4 ADD DUP5 PUSH2 0x1108 JUMP JUMPDEST SWAP3 SWAP2 POP POP JUMP JUMPDEST PUSH1 0x0 DUP1 REVERT JUMPDEST PUSH2 0x1140 DUP2 PUSH2 0x10FE JUMP JUMPDEST DUP2 EQ PUSH2 0x114B JUMPI PUSH1 0x0 DUP1 REVERT JUMPDEST POP JUMP JUMPDEST PUSH1 0x0 DUP2 CALLDATALOAD SWAP1 POP PUSH2 0x115D DUP2 PUSH2 0x1137 JUMP JUMPDEST SWAP3 SWAP2 POP POP JUMP JUMPDEST PUSH1 0x0 PUSH1 0x20 DUP3 DUP5 SUB SLT ISZERO PUSH2 0x1179 JUMPI PUSH2 0x1178 PUSH2 0x1132 JUMP JUMPDEST JUMPDEST PUSH1 0x0 PUSH2 0x1187 DUP5 DUP3 DUP6 ADD PUSH2 0x114E JUMP JUMPDEST SWAP2 POP POP SWAP3 SWAP2 POP POP JUMP JUMPDEST PUSH1 0x0 PUSH20 0xFFFFFFFFFFFFFFFFFFFFFFFFFFFFFFFFFFFFFFFF DUP3 AND SWAP1 POP SWAP2 SWAP1 POP JUMP JUMPDEST PUSH1 0x0 PUSH2 0x11BB DUP3 PUSH2 0x1190 JUMP JUMPDEST SWAP1 POP SWAP2 SWAP1 POP JUMP JUMPDEST PUSH2 0x11CB DUP2 PUSH2 0x11B0 JUMP JUMPDEST DUP3 MSTORE POP POP JUMP JUMPDEST PUSH1 0x0 PUSH4 0xFFFFFFFF DUP3 AND SWAP1 POP SWAP2 SWAP1 POP JUMP JUMPDEST PUSH2 0x11EA DUP2 PUSH2 0x11D1 JUMP JUMPDEST DUP3 MSTORE POP POP JUMP JUMPDEST PUSH1 0x0 DUP2 ISZERO ISZERO SWAP1 POP SWAP2 SWAP1 POP JUMP JUMPDEST PUSH2 0x1205 DUP2 PUSH2 0x11F0 JUMP JUMPDEST DUP3 MSTORE POP POP JUMP JUMPDEST PUSH1 0x0 PUSH1 0xC0 DUP3 ADD SWAP1 POP PUSH2 0x1220 PUSH1 0x0 DUP4 ADD DUP10 PUSH2 0x11C2 JUMP JUMPDEST PUSH2 0x122D PUSH1 0x20 DUP4 ADD DUP9 PUSH2 0x1108 JUMP JUMPDEST PUSH2 0x123A PUSH1 0x40 DUP4 ADD DUP8 PUSH2 0x1108 JUMP JUMPDEST PUSH2 0x1247 PUSH1 0x60 DUP4 ADD DUP7 PUSH2 0x11E1 JUMP JUMPDEST PUSH2 0x1254 PUSH1 0x80 DUP4 ADD DUP6 PUSH2 0x11E1 JUMP JUMPDEST PUSH2 0x1261 PUSH1 0xA0 DUP4 ADD DUP5 PUSH2 0x11FC JUMP JUMPDEST SWAP8 SWAP7 POP POP POP POP POP POP POP JUMP JUMPDEST PUSH1 0x0 DUP1 PUSH1 0x40 DUP4 DUP6 SUB SLT ISZERO PUSH2 0x1283 JUMPI PUSH2 0x1282 PUSH2 0x1132 JUMP JUMPDEST JUMPDEST PUSH1 0x0 PUSH2 0x1291 DUP6 DUP3 DUP7 ADD PUSH2 0x114E JUMP JUMPDEST SWAP3 POP POP PUSH1 0x20 PUSH2 0x12A2 DUP6 DUP3 DUP7 ADD PUSH2 0x114E JUMP JUMPDEST SWAP2 POP POP SWAP3 POP SWAP3 SWAP1 POP JUMP JUMPDEST PUSH2 0x12B5 DUP2 PUSH2 0x11B0 JUMP JUMPDEST DUP2 EQ PUSH2 0x12C0 JUMPI PUSH1 0x0 DUP1 REVERT JUMPDEST POP JUMP JUMPDEST PUSH1 0x0 DUP2 CALLDATALOAD SWAP1 POP PUSH2 0x12D2 DUP2 PUSH2 0x12AC JUMP JUMPDEST SWAP3 SWAP2 POP POP JUMP JUMPDEST PUSH1 0x0 DUP1 PUSH1 0x40 DUP4 DUP6 SUB SLT ISZERO PUSH2 0x12EF JUMPI PUSH2 0x12EE PUSH2 0x1132 JUMP JUMPDEST JUMPDEST PUSH1 0x0 PUSH2 0x12FD DUP6 DUP3 DUP7 ADD PUSH2 0x114E JUMP JUMPDEST SWAP3 POP POP PUSH1 0x20 PUSH2 0x130E DUP6 DUP3 DUP7 ADD PUSH2 0x12C3 JUMP JUMPDEST SWAP2 POP POP SWAP3 POP SWAP3 SWAP1 POP JUMP JUMPDEST PUSH2 0x1321 DUP2 PUSH2 0x11D1 JUMP JUMPDEST DUP2 EQ PUSH2 0x132C JUMPI PUSH1 0x0 DUP1 REVERT JUMPDEST POP JUMP JUMPDEST PUSH1 0x0 DUP2 CALLDATALOAD SWAP1 POP PUSH2 0x133E DUP2 PUSH2 0x1318 JUMP JUMPDEST SWAP3 SWAP2 POP POP JUMP JUMPDEST PUSH1 0x0 DUP1 PUSH1 0x0 PUSH1 0x60 DUP5 DUP7 SUB SLT ISZERO PUSH2 0x135D JUMPI PUSH2 0x135C PUSH2 0x1132 JUMP JUMPDEST JUMPDEST PUSH1 0x0 PUSH2 0x136B DUP7 DUP3 DUP8 ADD PUSH2 0x114E JUMP JUMPDEST SWAP4 POP POP PUSH1 0x20 PUSH2 0x137C DUP7 DUP3 DUP8 ADD PUSH2 0x132F JUMP JUMPDEST SWAP3 POP POP PUSH1 0x40 PUSH2 0x138D DUP7 DUP3 DUP8 ADD PUSH2 0x132F JUMP JUMPDEST SWAP2 POP POP SWAP3 POP SWAP3 POP SWAP3 JUMP JUMPDEST PUSH1 0x0 DUP2 SWAP1 POP SWAP2 SWAP1 POP JUMP JUMPDEST PUSH1 0x0 PUSH2 0x13BC PUSH2 0x13B7 PUSH2 0x13B2 DUP5 PUSH2 0x1190 JUMP JUMPDEST PUSH2 0x1397 JUMP JUMPDEST PUSH2 0x1190 JUMP JUMPDEST SWAP1 POP SWAP2 SWAP1 POP JUMP JUMPDEST PUSH1 0x0 PUSH2 0x13CE DUP3 PUSH2 0x13A1 JUMP JUMPDEST SWAP1 POP SWAP2 SWAP1 POP JUMP JUMPDEST PUSH1 0x0 PUSH2 0x13E0 DUP3 PUSH2 0x13C3 JUMP JUMPDEST SWAP1 POP SWAP2 SWAP1 POP JUMP JUMPDEST PUSH2 0x13F0 DUP2 PUSH2 0x13D5 JUMP JUMPDEST DUP3 MSTORE POP POP JUMP JUMPDEST PUSH1 0x0 PUSH1 0x20 DUP3 ADD SWAP1 POP PUSH2 0x140B PUSH1 0x0 DUP4 ADD DUP5 PUSH2 0x13E7 JUMP JUMPDEST SWAP3 SWAP2 POP POP JUMP JUMPDEST PUSH1 0x0 DUP3 DUP3 MSTORE PUSH1 0x20 DUP3 ADD SWAP1 POP SWAP3 SWAP2 POP POP JUMP JUMPDEST PUSH32 0x6E6F7420656E6465642079657400000000000000000000000000000000000000 PUSH1 0x0 DUP3 ADD MSTORE POP JUMP JUMPDEST PUSH1 0x0 PUSH2 0x1458 PUSH1 0xD DUP4 PUSH2 0x1411 JUMP JUMPDEST SWAP2 POP PUSH2 0x1463 DUP3 PUSH2 0x1422 JUMP JUMPDEST PUSH1 0x20 DUP3 ADD SWAP1 POP SWAP2 SWAP1 POP JUMP JUMPDEST PUSH1 0x0 PUSH1 0x20 DUP3 ADD SWAP1 POP DUP2 DUP2 SUB PUSH1 0x0 DUP4 ADD MSTORE PUSH2 0x1487 DUP2 PUSH2 0x144B JUMP JUMPDEST SWAP1 POP SWAP2 SWAP1 POP JUMP JUMPDEST PUSH32 0x706C6164676564203C20676F616C000000000000000000000000000000000000 PUSH1 0x0 DUP3 ADD MSTORE POP JUMP JUMPDEST PUSH1 0x0 PUSH2 0x14C4 PUSH1 0xE DUP4 PUSH2 0x1411 JUMP JUMPDEST SWAP2 POP PUSH2 0x14CF DUP3 PUSH2 0x148E JUMP JUMPDEST PUSH1 0x20 DUP3 ADD SWAP1 POP SWAP2 SWAP1 POP JUMP JUMPDEST PUSH1 0x0 PUSH1 0x20 DUP3 ADD SWAP1 POP DUP2 DUP2 SUB PUSH1 0x0 DUP4 ADD MSTORE PUSH2 0x14F3 DUP2 PUSH2 0x14B7 JUMP JUMPDEST SWAP1 POP SWAP2 SWAP1 POP JUMP JUMPDEST PUSH1 0x0 PUSH1 0x40 DUP3 ADD SWAP1 POP PUSH2 0x150F PUSH1 0x0 DUP4 ADD DUP6 PUSH2 0x11C2 JUMP JUMPDEST PUSH2 0x151C PUSH1 0x20 DUP4 ADD DUP5 PUSH2 0x1108 JUMP JUMPDEST SWAP4 SWAP3 POP POP POP JUMP JUMPDEST PUSH2 0x152C DUP2 PUSH2 0x11F0 JUMP JUMPDEST DUP2 EQ PUSH2 0x1537 JUMPI PUSH1 0x0 DUP1 REVERT JUMPDEST POP JUMP JUMPDEST PUSH1 0x0 DUP2 MLOAD SWAP1 POP PUSH2 0x1549 DUP2 PUSH2 0x1523 JUMP JUMPDEST SWAP3 SWAP2 POP POP JUMP JUMPDEST PUSH1 0x0 PUSH1 0x20 DUP3 DUP5 SUB SLT ISZERO PUSH2 0x1565 JUMPI PUSH2 0x1564 PUSH2 0x1132 JUMP JUMPDEST JUMPDEST PUSH1 0x0 PUSH2 0x1573 DUP5 DUP3 DUP6 ADD PUSH2 0x153A JUMP JUMPDEST SWAP2 POP POP SWAP3 SWAP2 POP POP JUMP JUMPDEST PUSH32 0x6E6F742063726561746F72000000000000000000000000000000000000000000 PUSH1 0x0 DUP3 ADD MSTORE POP JUMP JUMPDEST PUSH1 0x0 PUSH2 0x15B2 PUSH1 0xB DUP4 PUSH2 0x1411 JUMP JUMPDEST SWAP2 POP PUSH2 0x15BD DUP3 PUSH2 0x157C JUMP JUMPDEST PUSH1 0x20 DUP3 ADD SWAP1 POP SWAP2 SWAP1 POP JUMP JUMPDEST PUSH1 0x0 PUSH1 0x20 DUP3 ADD SWAP1 POP DUP2 DUP2 SUB PUSH1 0x0 DUP4 ADD MSTORE PUSH2 0x15E1 DUP2 PUSH2 0x15A5 JUMP JUMPDEST SWAP1 POP SWAP2 SWAP1 POP JUMP JUMPDEST PUSH32 0x616C726561647920636C61696D65640000000000000000000000000000000000 PUSH1 0x0 DUP3 ADD MSTORE POP JUMP JUMPDEST PUSH1 0x0 PUSH2 0x161E PUSH1 0xF DUP4 PUSH2 0x1411 JUMP JUMPDEST SWAP2 POP PUSH2 0x1629 DUP3 PUSH2 0x15E8 JUMP JUMPDEST PUSH1 0x20 DUP3 ADD SWAP1 POP SWAP2 SWAP1 POP JUMP JUMPDEST PUSH1 0x0 PUSH1 0x20 DUP3 ADD SWAP1 POP DUP2 DUP2 SUB PUSH1 0x0 DUP4 ADD MSTORE PUSH2 0x164D DUP2 PUSH2 0x1611 JUMP JUMPDEST SWAP1 POP SWAP2 SWAP1 POP JUMP JUMPDEST PUSH32 0x7374617274656400000000000000000000000000000000000000000000000000 PUSH1 0x0 DUP3 ADD MSTORE POP JUMP JUMPDEST PUSH1 0x0 PUSH2 0x168A PUSH1 0x7 DUP4 PUSH2 0x1411 JUMP JUMPDEST SWAP2 POP PUSH2 0x1695 DUP3 PUSH2 0x1654 JUMP JUMPDEST PUSH1 0x20 DUP3 ADD SWAP1 POP SWAP2 SWAP1 POP JUMP JUMPDEST PUSH1 0x0 PUSH1 0x20 DUP3 ADD SWAP1 POP DUP2 DUP2 SUB PUSH1 0x0 DUP4 ADD MSTORE PUSH2 0x16B9 DUP2 PUSH2 0x167D JUMP JUMPDEST SWAP1 POP SWAP2 SWAP1 POP JUMP JUMPDEST PUSH32 0x656E646564000000000000000000000000000000000000000000000000000000 PUSH1 0x0 DUP3 ADD MSTORE POP JUMP JUMPDEST PUSH1 0x0 PUSH2 0x16F6 PUSH1 0x5 DUP4 PUSH2 0x1411 JUMP JUMPDEST SWAP2 POP PUSH2 0x1701 DUP3 PUSH2 0x16C0 JUMP JUMPDEST PUSH1 0x20 DUP3 ADD SWAP1 POP SWAP2 SWAP1 POP JUMP JUMPDEST PUSH1 0x0 PUSH1 0x20 DUP3 ADD SWAP1 POP DUP2 DUP2 SUB PUSH1 0x0 DUP4 ADD MSTORE PUSH2 0x1725 DUP2 PUSH2 0x16E9 JUMP JUMPDEST SWAP1 POP SWAP2 SWAP1 POP JUMP JUMPDEST PUSH32 0x4E487B7100000000000000000000000000000000000000000000000000000000 PUSH1 0x0 MSTORE PUSH1 0x11 PUSH1 0x4 MSTORE PUSH1 0x24 PUSH1 0x0 REVERT JUMPDEST PUSH1 0x0 PUSH2 0x1766 DUP3 PUSH2 0x10FE JUMP JUMPDEST SWAP2 POP PUSH2 0x1771 DUP4 PUSH2 0x10FE JUMP JUMPDEST SWAP3 POP DUP3 DUP3 SUB SWAP1 POP DUP2 DUP2 GT ISZERO PUSH2 0x1789 JUMPI PUSH2 0x1788 PUSH2 0x172C JUMP JUMPDEST JUMPDEST SWAP3 SWAP2 POP POP JUMP JUMPDEST PUSH32 0x7374617274206174203C206E6F77000000000000000000000000000000000000 PUSH1 0x0 DUP3 ADD MSTORE POP JUMP JUMPDEST PUSH1 0x0 PUSH2 0x17C5 PUSH1 0xE DUP4 PUSH2 0x1411 JUMP JUMPDEST SWAP2 POP PUSH2 0x17D0 DUP3 PUSH2 0x178F JUMP JUMPDEST PUSH1 0x20 DUP3 ADD SWAP1 POP SWAP2 SWAP1 POP JUMP JUMPDEST PUSH1 0x0 PUSH1 0x20 DUP3 ADD SWAP1 POP DUP2 DUP2 SUB PUSH1 0x0 DUP4 ADD MSTORE PUSH2 0x17F4 DUP2 PUSH2 0x17B8 JUMP JUMPDEST SWAP1 POP SWAP2 SWAP1 POP JUMP JUMPDEST PUSH32 0x656E64206174203C207374617274206174000000000000000000000000000000 PUSH1 0x0 DUP3 ADD MSTORE POP JUMP JUMPDEST PUSH1 0x0 PUSH2 0x1831 PUSH1 0x11 DUP4 PUSH2 0x1411 JUMP JUMPDEST SWAP2 POP PUSH2 0x183C DUP3 PUSH2 0x17FB JUMP JUMPDEST PUSH1 0x20 DUP3 ADD SWAP1 POP SWAP2 SWAP1 POP JUMP JUMPDEST PUSH1 0x0 PUSH1 0x20 DUP3 ADD SWAP1 POP DUP2 DUP2 SUB PUSH1 0x0 DUP4 ADD MSTORE PUSH2 0x1860 DUP2 PUSH2 0x1824 JUMP JUMPDEST SWAP1 POP SWAP2 SWAP1 POP JUMP JUMPDEST PUSH1 0x0 PUSH2 0x1872 DUP3 PUSH2 0x10FE JUMP JUMPDEST SWAP2 POP PUSH2 0x187D DUP4 PUSH2 0x10FE JUMP JUMPDEST SWAP3 POP DUP3 DUP3 ADD SWAP1 POP DUP1 DUP3 GT ISZERO PUSH2 0x1895 JUMPI PUSH2 0x1894 PUSH2 0x172C JUMP JUMPDEST JUMPDEST SWAP3 SWAP2 POP POP JUMP JUMPDEST PUSH32 0x656E64206174203E206D6178206475726174696F6E0000000000000000000000 PUSH1 0x0 DUP3 ADD MSTORE POP JUMP JUMPDEST PUSH1 0x0 PUSH2 0x18D1 PUSH1 0x15 DUP4 PUSH2 0x1411 JUMP JUMPDEST SWAP2 POP PUSH2 0x18DC DUP3 PUSH2 0x189B JUMP JUMPDEST PUSH1 0x20 DUP3 ADD SWAP1 POP SWAP2 SWAP1 POP JUMP JUMPDEST PUSH1 0x0 PUSH1 0x20 DUP3 ADD SWAP1 POP DUP2 DUP2 SUB PUSH1 0x0 DUP4 ADD MSTORE PUSH2 0x1900 DUP2 PUSH2 0x18C4 JUMP JUMPDEST SWAP1 POP SWAP2 SWAP1 POP JUMP JUMPDEST PUSH1 0x0 PUSH1 0x80 DUP3 ADD SWAP1 POP PUSH2 0x191C PUSH1 0x0 DUP4 ADD DUP8 PUSH2 0x1108 JUMP JUMPDEST PUSH2 0x1929 PUSH1 0x20 DUP4 ADD DUP7 PUSH2 0x1108 JUMP JUMPDEST PUSH2 0x1936 PUSH1 0x40 DUP4 ADD DUP6 PUSH2 0x11E1 JUMP JUMPDEST PUSH2 0x1943 PUSH1 0x60 DUP4 ADD DUP5 PUSH2 0x11E1 JUMP JUMPDEST SWAP6 SWAP5 POP POP POP POP POP JUMP JUMPDEST PUSH32 0x6E6F742073746172746564207965740000000000000000000000000000000000 PUSH1 0x0 DUP3 ADD MSTORE POP JUMP JUMPDEST PUSH1 0x0 PUSH2 0x1982 PUSH1 0xF DUP4 PUSH2 0x1411 JUMP JUMPDEST SWAP2 POP PUSH2 0x198D DUP3 PUSH2 0x194C JUMP JUMPDEST PUSH1 0x20 DUP3 ADD SWAP1 POP SWAP2 SWAP1 POP JUMP JUMPDEST PUSH1 0x0 PUSH1 0x20 DUP3 ADD SWAP1 POP DUP2 DUP2 SUB PUSH1 0x0 DUP4 ADD MSTORE PUSH2 0x19B1 DUP2 PUSH2 0x1975 JUMP JUMPDEST SWAP1 POP SWAP2 SWAP1 POP JUMP JUMPDEST PUSH32 0x63616D706169676E20656E646564000000000000000000000000000000000000 PUSH1 0x0 DUP3 ADD MSTORE POP JUMP JUMPDEST PUSH1 0x0 PUSH2 0x19EE PUSH1 0xE DUP4 PUSH2 0x1411 JUMP JUMPDEST SWAP2 POP PUSH2 0x19F9 DUP3 PUSH2 0x19B8 JUMP JUMPDEST PUSH1 0x20 DUP3 ADD SWAP1 POP SWAP2 SWAP1 POP JUMP JUMPDEST PUSH1 0x0 PUSH1 0x20 DUP3 ADD SWAP1 POP DUP2 DUP2 SUB PUSH1 0x0 DUP4 ADD MSTORE PUSH2 0x1A1D DUP2 PUSH2 0x19E1 JUMP JUMPDEST SWAP1 POP SWAP2 SWAP1 POP JUMP JUMPDEST PUSH1 0x0 PUSH1 0x60 DUP3 ADD SWAP1 POP PUSH2 0x1A39 PUSH1 0x0 DUP4 ADD DUP7 PUSH2 0x11C2 JUMP JUMPDEST PUSH2 0x1A46 PUSH1 0x20 DUP4 ADD DUP6 PUSH2 0x11C2 JUMP JUMPDEST PUSH2 0x1A53 PUSH1 0x40 DUP4 ADD DUP5 PUSH2 0x1108 JUMP JUMPDEST SWAP5 SWAP4 POP POP POP POP JUMP INVALID LOG2 PUSH5 0x6970667358 0x22 SLT KECCAK256 PUSH6 0x27445BBC5505 JUMPDEST 0xB0 PUSH9 0xEDED23E53FED59D25E DUP12 STOP 0xA8 0xA6 0xE9 PUSH13 0xA37E0F787989BA64736F6C6343 STOP ADDMOD GT STOP CALLER "
				},
				"gasEstimates": {
					"creation": {
						"codeDepositCost": "1360200",
						"executionCost": "infinite",
						"totalCost": "infinite"
					},
					"external": {
						"campaigns(uint256)": "infinite",
						"cancel(uint256)": "infinite",
						"claim(uint256)": "infinite",
						"count()": "2430",
						"lunch(uint256,uint32,uint32)": "infinite",
						"pledge(uint256,uint256)": "infinite",
						"pledgedAmount(uint256,address)": "infinite",
						"refund(uint256)": "infinite",
						"token()": "infinite",
						"unpledge(uint256,uint256)": "infinite"
					}
				},
				"methodIdentifiers": {
					"campaigns(uint256)": "141961bc",
					"cancel(uint256)": "40e58ee5",
					"claim(uint256)": "379607f5",
					"count()": "06661abd",
					"lunch(uint256,uint32,uint32)": "daf69940",
					"pledge(uint256,uint256)": "fde327be",
					"pledgedAmount(uint256,address)": "aa4fb63a",
					"refund(uint256)": "278ecde1",
					"token()": "fc0c546a",
					"unpledge(uint256,uint256)": "711853ab"
				}
			},
			"storageLayout": {
				"storage": [
					{
						"astId": 775,
						"contract": "Hands on Task - 3.sol:CrowdFund",
						"label": "count",
						"offset": 0,
						"slot": "0",
						"type": "t_uint256"
					},
					{
						"astId": 780,
						"contract": "Hands on Task - 3.sol:CrowdFund",
						"label": "campaigns",
						"offset": 0,
						"slot": "1",
						"type": "t_mapping(t_uint256,t_struct(Campaign)770_storage)"
					},
					{
						"astId": 786,
						"contract": "Hands on Task - 3.sol:CrowdFund",
						"label": "pledgedAmount",
						"offset": 0,
						"slot": "2",
						"type": "t_mapping(t_uint256,t_mapping(t_address,t_uint256))"
					}
				],
				"types": {
					"t_address": {
						"encoding": "inplace",
						"label": "address",
						"numberOfBytes": "20"
					},
					"t_bool": {
						"encoding": "inplace",
						"label": "bool",
						"numberOfBytes": "1"
					},
					"t_mapping(t_address,t_uint256)": {
						"encoding": "mapping",
						"key": "t_address",
						"label": "mapping(address => uint256)",
						"numberOfBytes": "32",
						"value": "t_uint256"
					},
					"t_mapping(t_uint256,t_mapping(t_address,t_uint256))": {
						"encoding": "mapping",
						"key": "t_uint256",
						"label": "mapping(uint256 => mapping(address => uint256))",
						"numberOfBytes": "32",
						"value": "t_mapping(t_address,t_uint256)"
					},
					"t_mapping(t_uint256,t_struct(Campaign)770_storage)": {
						"encoding": "mapping",
						"key": "t_uint256",
						"label": "mapping(uint256 => struct CrowdFund.Campaign)",
						"numberOfBytes": "32",
						"value": "t_struct(Campaign)770_storage"
					},
					"t_struct(Campaign)770_storage": {
						"encoding": "inplace",
						"label": "struct CrowdFund.Campaign",
						"members": [
							{
								"astId": 759,
								"contract": "Hands on Task - 3.sol:CrowdFund",
								"label": "creator",
								"offset": 0,
								"slot": "0",
								"type": "t_address"
							},
							{
								"astId": 761,
								"contract": "Hands on Task - 3.sol:CrowdFund",
								"label": "goal",
								"offset": 0,
								"slot": "1",
								"type": "t_uint256"
							},
							{
								"astId": 763,
								"contract": "Hands on Task - 3.sol:CrowdFund",
								"label": "pledged",
								"offset": 0,
								"slot": "2",
								"type": "t_uint256"
							},
							{
								"astId": 765,
								"contract": "Hands on Task - 3.sol:CrowdFund",
								"label": "startAt",
								"offset": 0,
								"slot": "3",
								"type": "t_uint32"
							},
							{
								"astId": 767,
								"contract": "Hands on Task - 3.sol:CrowdFund",
								"label": "endAt",
								"offset": 4,
								"slot": "3",
								"type": "t_uint32"
							},
							{
								"astId": 769,
								"contract": "Hands on Task - 3.sol:CrowdFund",
								"label": "claimed",
								"offset": 8,
								"slot": "3",
								"type": "t_bool"
							}
						],
						"numberOfBytes": "128"
					},
					"t_uint256": {
						"encoding": "inplace",
						"label": "uint256",
						"numberOfBytes": "32"
					},
					"t_uint32": {
						"encoding": "inplace",
						"label": "uint32",
						"numberOfBytes": "4"
					}
				}
			},
			"userdoc": {
				"kind": "user",
				"methods": {},
				"version": 1
			}
		}
	}
}